:100000000C94B7010C94D4010C94D4010C94D40139
:100010000C94D4010C94D4010C94D4010C94D4010C
:100020000C94D4010C94D4010C9436200C940A2125
:100030000C94D51A0C94D4010C94D4010C94D401D2
:100040000C94D4010C94D4010C94D4010C94D401DC
:100050000C94D4010C945C1B0C94D4010C94D4012A
:100060000C94D4010C94D4010C94D4010C94D401BC
:100070000C94D4010C94D4010C94D4010C94D401AC
:100080000C94D4010C94D4010C94D4010C94D4019C
:100090000C94D4010C94D4010C94D4010C94D4018C
:1000A0000C94D4010C94D4010C94D40129001E00AA
:1000B0001F0020002100220023002400250026002C
:1000C00027002D002E0035002A004A002B001400C6
:1000D0001A000800150017001C0018000C00120080
:1000E00013002F003000310000004D0039000400E3
:1000F0001600070009000A000B000D000E000F009B
:10010000330034000000280000004B00E100000034
:100110001D001B000600190005001100100036002C
:1001200037003800E500520000004E00E000E30018
:10013000E2000000000000002C0000000000E600CB
:100140000000E6005000510000004F0000000000D9
:10015000000000002A2B2800000000000000000022
:100160000000000000000029000000002C1E3420C8
:10017000212224342627252E362D3738271E1F20EE
:100180002122232425263333362E37381F04050633
:100190000708090A0B0C0D0E0F1011121314151677
:1001A0001718191A1B1C1D2F3130232D3504050675
:1001B0000708090A0B0C0D0E0F1011121314151657
:1001C0001718191A1B1C1D2F3130354C0000000068
:1001D000000000000000000000000000000000001F
:1001E000000000000000000000000000000000000F
:1001F0007E0F00D4FFFFFFC7000000780A03520003
:1002000065006D0079000000160374006800650049
:1002100065006D007000650072006F0072000000E4
:100220000403090409025B00030100A0FA090400A9
:100230000001030101000921110100012240000712
:100240000581030800010904010002030000000900
:10025000211101000122220007058203200001076D
:100260000503032000010904020001030000000946
:100270002111010001227B000705840320000112E7
:10028000010002000000080000000001000102005F
:10029000010660FF0961A1010962150026FF0095B2
:1002A00020750881020963150026FF009520750856
:1002B0009102C005010902A10185020901A1000501
:1002C0000919012908150025019508750181020504
:1002D00001093009311581257F95027508810609CC
:1002E000381581257F950175088106050C0A3802AD
:1002F0001581257F950175088106C0C0050109801B
:10030000A101850319012AB700150126B70095013F
:1003100075108100C0050C0901A101850419012A8D
:10032000A002150126A002950175108100C00501EB
:100330000906A101050719E029E71500250195081F
:10034000750181029501750881010507190029FFD2
:10035000150026FF0095067508810005081901297A
:1003600005950575019102950175039101C0112450
:100370001FBECFEFDAE0DEBFCDBF11E0A0E0B1E0FD
:10038000E2EBF7E402C005900D92AC3AB107D9F761
:1003900022E0ACEAB1E001C01D92AC38B207E1F74F
:1003A0000E9470110C9485230C94000081E0089544
:1003B000811111C0653078F4403168F480E1689FA4
:1003C000F0011124E40FF11DEE0FFF1FE455FF4F64
:1003D00085919491089581E090E0089581E00895D9
:1003E0000E94EE01089581E008950E94EE010895B3
:1003F0000E94F501089508950E94FB010895A6E06A
:10040000B0E0E5E0F2E00C94E12249835A839E8358
:100410003091B30189819A8131111AC03E81332311
:1004200099F0222389F00E94D507182F682F89811F
:100430009A810E94B20769817A81812F0E94E40E1D
:100440002696E3E00C94FD220E94C307182FF3CFF9
:100450000E94D50769817A81F1CFFC01262F408166
:10046000518162817381848195810E94FF01089589
:10047000CF93DF93EC0161E00E942D02BE010E9448
:10048000F001DF91CF910895CF93DF93EC0160E00D
:100490000E942D02BE010E94FC01DF91CF910895C0
:1004A00008950E94AE060E9450022FEF84E39CE064
:1004B000215080409040E1F700C0000008950E9464
:1004C00051020E94801B08950E9451020E94911BBC
:1004D00008950F931F93CF93DF938C0161E00E94E7
:1004E0002D02EC01B8010E946814811106C080E061
:1004F000DF91CF911F910F910895B801CE010E9415
:10050000F8018823A1F3B801CE010E94291988239C
:1005100071F3B801CE010E944F15882341F3B80151
:10052000CE010E949B18882311F3B801CE010E94CE
:100530006D198823E1F2F8018581882361F0C330C9
:10054000FCE7DF07E9F058F4C115ECE7DE07A9F096
:10055000C130DC47B9F0C8010E94F301C9CFCB35E7
:100560008CE7D807A9F0CC35ECE7DE0771F0CA3587
:10057000DC4789F70E942D0CEECF0E945F02B7CFB7
:100580000E94350C0E946402B2CF0E94230CE3CF7C
:100590000E94310CE0CF0E94B11A0E94F20208952D
:1005A0000E94F6020E94B61A0895089581E0089507
:1005B0000895CF93DF93D82F0E94D602C82F8823A7
:1005C00019F08D2F0E94D8028C2FDF91CF910895C2
:1005D0000895CF93C82F0E94D5028C2F0E94D90274
:1005E000CF91089580E00E94E90208950E94C01909
:1005F0000E94E9020895CF930E94C019C82F8091EC
:10060000AE018C1779F0C093AE010E94411B60933C
:10061000AF017093B0018093B1019093B2018C2F20
:100620000E94E902CF910895ADE0B0E0EAE1F3E085
:100630000C94E222488759876A877B878C879D873D
:1006400091110E945B0B1F8286E0FE013896DE014D
:10065000119601900D928A95E1F78D8181110DC05F
:1006600029813A814B815C816D817E818F810E94DD
:100670008E0A2D96E2E00C94FE22CE0101960E9495
:1006800038028111EDCFF5CFFC012481213021F416
:10069000808191810E9402080895662329F00E94BA
:1006A000F4110E94C71208950E944E12FACFCF9300
:1006B000C82F8823C9F08238C9F40E94C01981FD6F
:1006C00013C089E30E94130B0E94940B2FEF87EE57
:1006D00093E0215080409040E1F700C0000089E3A2
:1006E0000E941B0B0E94940BCF9108958338A1F4B4
:1006F0000E94C01980FDF8CF83E50E94130B0E9471
:10070000940B2FEF81EE94E0215080409040E1F770
:1007100000C0000083E5E4CF8438A1F40E94C01932
:1007200082FDE2CF87E40E94130B0E94940B2FEF0F
:1007300081EE94E0215080409040E1F700C000003D
:1007400087E4CECF8CEF8C0F813A90F46C2F8091A0
:100750000001909101010E94421A882329F08C2FF8
:100760000E941B0B0E94940B8C2F0E94130BBACF7C
:1007700080E28C0F883048F4C77081E001C0880F98
:10078000CA95EAF70E943E0BADCFEBE5EC0FE330E4
:1007900040F4F0E0E45BFE4F808190E00E94E619B7
:1007A000A3CFE8E5EC0FEB3150F4F0E0EE0FFF1FC4
:1007B000EA5EFE4F808191810E940B1A95CF83E300
:1007C0008C0F833108F090CF61E08C2F0E944D0395
:1007D0008BCF882309F456C0823879F40E94C0195F
:1007E00081FF50C089E30E94130B0E94940B89E3A0
:1007F0000E941B0B0E94940B0895833859F40E94A9
:10080000C01980FF3FC083E50E94130B0E94940B28
:1008100083E5EECF843859F40E94C01982FF32C0BC
:1008200087E40E94130B0E94940B87E4E1CF9CEFB6
:10083000980F913AE8F290E2980F983050F4877050
:1008400091E001C0990F8A95EAF7892F0E94440B25
:10085000D1CF9BE5980F933028F490E080E00E9480
:10086000E619089598E5980F9B3128F490E080E010
:100870000E940B1A089593E3980F933118F460E0E7
:100880000E944D0308951F93CF93DF93182FEB0120
:100890000E945703209739F4812F0E94E903DF91CA
:1008A000CF911F9108958FE99FE00197F1F700C064
:1008B00000002197EFCF70E060E0893311F460E52C
:1008C00070E00E9443040895882321F00E943E0BAB
:1008D0000E94940B0895882321F00E94440B0E94EB
:1008E000940B0895B0E0A0E0E8E7F4E00C94DB227C
:1008F0006C01D62FC72FFC011581068102950F7060
:100900000E94340BE82E8823E9F0E12E1123D1F068
:100910008C2F807F803451F080E28D0F8830F8F08A
:10092000011104C08C2F807E8032C9F08091660254
:1009300082FF15C082E00E94F70B0E94340B91E009
:10094000E82EE926BC2EB2949FE0B922FBE0FB150D
:10095000B8F1EB2DF0E0E957FC4D0C94C522E12CE9
:10096000F1CF0C2F0F70C07F11F00295007F112383
:1009700099F0002359F080E28D0F883010F0D111EA
:1009800007C0802F0E943E0B0E94940B8D2F5AC0EF
:10099000802F0E944E0BF8CF8D2F0E94E903002379
:1009A00079F080E28D0F883010F0D11104C0802FD3
:1009B0000E94440B03C0802F0E94540B0E94940B92
:1009C000EB2DE850FF0B349720F40E94C0190E94D1
:1009D000E902EE2089F00E94300B80FD0DC0F60187
:1009E00015820E942A0B0E942607C6010E947506E6
:1009F0000E942A0B0E943207CDB7DEB7E9E00C94C3
:100A0000F7222C2F2F70F22EC07FC03219F0F294F3
:100A100080EFF822DD2341F0D130D1F1112309F428
:100A200044C00023F1F0B2CF8091660282FD15C070
:100A3000112359F0FF2029F08F2D0E943E0B0E94B8
:100A4000940B80E00E945703BBCF80E00E94E90333
:100A5000FF2009F4B5CF8F2DABCF112369F0011121
:100A600004C08F2D0E946404ABCF013009F0A8CFE1
:100A70008F2D0E94720BA4CF0111A2CF8F2D0E9447
:100A80006B048F2D0E947E0B8F2D0E94620B98CFDE
:100A9000112321F0063008F093CFE3CF053008F0A2
:100AA0008FCF8F2D0E946B048BCF0023D1F3D933CE
:100AB00049F43FEF87EE93E0315080409040E1F7FA
:100AC00000C000008D2F0E94E9037ACF8C2F8695FD
:100AD0008695837069F0813009F072CF8D2F9C2F3D
:100AE0009370111102C080E090E00E940B1A68CF51
:100AF0008D2F9C2F9370111102C080E090E00E9416
:100B0000E6195ECF612F8D2F0E944D0359CF8C2F98
:100B1000837079F5111154CF4D2F4295469547704A
:100B2000440F440F8D2F8F70042E01C0880F0A943C
:100B3000EAF72D2F2071D4FF07C02FE030E001C06D
:100B4000220F4A95EAF72095C695C695C370822B69
:100B5000C23049F058F4C13019F00E94020730CF7A
:100B60000E94FC062DCF0E9408072ACF0E94F9069A
:100B700027CF8695112311F08C2F8170882309F4DB
:100B80001FCF4D2F429546954770440F440F8D2F30
:100B90008F70042E01C0880F0A94EAF72D2F207160
:100BA000D4FF07C02FE030E001C0220F4A95EAF7DA
:100BB0002095C695C695C370822BC23049F058F473
:100BC000C13019F00E945107FBCE0E944B07F8CEAE
:100BD0000E945707F5CE0E941407F2CECF70112362
:100BE00029F08C2F0E9426078D2F3CCF8D2F0E943D
:100BF0006B048C2F0E943207E3CED23F41F160F4A8
:100C0000D03FB9F0D13F81F0112309F446C0011162
:100C1000BDCE8C2F8F711FC0D33F01F1D43FA1F700
:100C20008091660282FD24C08C2F8F71112311F3F5
:100C300012C0112341F0053008F0C2CE8C2F8F7105
:100C40000E943F07BDCE063008F0BACEF7CF8C2FFA
:100C50008F711111CFCF0E942607B2CE112329F038
:100C60008C2F8F710E941D07ABCE0E941907A8CE52
:100C7000112349F0CF718C2F0E94260763E08C2F3F
:100C80000E94D90B9DCE81E00E94F70B023008F440
:100C900097CE82E00E94F70B93CE002359F0D93310
:100CA00009F010CFEFEFF7EE23E0E150F0402040E5
:100CB000E1F706CF8C2F8F719DCF0F931F93CF93AA
:100CC000DF93EC01688179818D810E940D088C0190
:100CD0000E945D070E94F806B801CE010E947204CE
:100CE000DF91CF911F910F910895CF93DF93EC0186
:100CF0008C81882399F0CE010E946902811111C074
:100D00000E94340B882351F08D81882339F0809123
:100D1000660282FF03C082E00E94F70BDF91CF9151
:100D20000895CE010E945D06CE010E944402F6CFD6
:100D300090E080E00E94E61990E080E00E940B1AAB
:100D40000E945B0B0E94940B0E94E3120E94C71248
:100D500008950E94230B0E94980608950E944B0B51
:100D60000E94A906089592959F70963091F058F4CC
:100D7000925F9F70923058F4803F19F030F4883EB3
:100D800030F481E008959A5FF4CF843FD1F380E09E
:100D90000895883EB0F3813FD1F7F3CFFC01248161
:100DA000222339F0808191810E9402080E94B306BB
:100DB000089580E00895A6E0B0E0E1EEF6E00C943E
:100DC000E2222696E2E00C94FE22A7E0B0E0EBEEF1
:100DD000F6E00C94E2222796E2E00C94FE220895BD
:100DE0000E94EF0608950E94F0068093D3010895B3
:100DF00008950E94F30608959091D301892B0E94D3
:100E0000F30608959091D30189230E94F306089573
:100E10009091D30189270E94F30608950E94EF065E
:100E200008950E940E0708950E9411078093D20131
:100E3000089580E00E941407089591E001C0990F81
:100E40008A95EAF7892F0E941407089521E030E07F
:100E500001C0220F8A95EAF78091D201822B0E946D
:100E60001407089521E030E001C0220F8A95EAF7C7
:100E700020958091D20182230E941407089521E0D9
:100E800030E001C0220F8A95EAF78091D2018227D3
:100E90000E94140708959091D201892B0E94140793
:100EA00008959091D20189230E941407089590918A
:100EB000D20189270E94140708950895262F2770CC
:100EC00091E001C0990F2A95EAF723E0769567959E
:100ED0002A95E1F7FB01EE0FFF1FE60FF71FE40F66
:100EE000F51F50E040E0682F70E08191DF0111971D
:100EF0009B01042E02C0369527950A94E2F72170D3
:100F000021952827292328272C934F5F5F4F4330B3
:100F1000510559F70895A82FA77023E09695879556
:100F20002A95E1F7FC01EE0FFF1FE80FF91FE60F0E
:100F3000F71F50E040E080E0219130E00A2E02C02F
:100F4000369527950A94E2F721703327042E01C0C5
:100F5000220F0A94EAF7822B4F5F5F4F433051050F
:100F600059F70895262F953068F4803158F430E110
:100F7000939FB0011124680F711D44EB51E0822F43
:100F80000E945E070895953070F4803160F440E16E
:100F9000949F9001112464EB71E0820F932F911DB7
:100FA0000E948B07089580E00895CF92DF92FF9210
:100FB0000F931F93CF93DF936C010091D201809127
:100FC000D301082BC3E0D0E010E0FC2EC8010C2EAA
:100FD00002C0959587950A94E2F780FD0CC0219791
:100FE000A0F7F12C8F2DDF91CF911F910F91FF90E2
:100FF000DF90CF900895B6018C2F0E94F00E0197DC
:1010000071F3F0CFCF93DF93EC010E94D507BE01BF
:101010000E94F00EDF91CF9108951F93CF93DF933D
:10102000EB019091B301992339F0CB010E940208A2
:10103000DF91CF911F910895882369F0CB010E9421
:10104000D507182F682FCE010E94B207BE01812F4D
:101050000E94F00EEDCFCB010E94C307182FF6CFF0
:10106000E1E0F0E0DF0102C0AA0FBB1F6A95E2F7E2
:10107000BD01DF0102C0AA0FBB1F4A95E2F76A2B30
:1010800001C0EE0F2A95EAF7962F9823961302C017
:101090008E2B0895E0958E230895242F462F682FD8
:1010A0008091D2010E9430080E94140708951F9376
:1010B000CF93DF93C091D40117E08091D5018C13B9
:1010C00004C0DF91CF911F910895D0E01C9FF001E3
:1010D0001D9FF00D1124EA52FE4F20813181428183
:1010E00053816481758186810E94E5062196C770CF
:1010F000E4CF20910E0230910F02409110025091E6
:1011000011026091120270911302809114020E94E8
:10111000E5060895CF93DF9380911402807F09F054
:101120004DC080911302882309F448C0E091D40196
:101130005091D501C0910F02D0910E026091100222
:101140007091110247E05E17C9F18E2F90E0E49F85
:10115000F0011124EA52FE4F2481222391F1489F8D
:10116000F001499FF00D1124DF01AA52BE4F1196E4
:101170002C9111972C1325C02C912D1322C015965C
:101180002C91159721111DC012962D913C91261B73
:10119000370B283C3105A8F4809114028F708061D0
:1011A00080931402E452FE4F80818F7080618083AF
:1011B0008EE092E00E9475060E945708DF91CF9161
:1011C0000895FC013196E770BECF482F2091D401DD
:1011D0009091D50157E0291302C080E0089530E0D6
:1011E000529FF001539FF00D1124EA52FE4F81816E
:1011F000681306C08081481303C085818111EECF3A
:101200002F5F3F4F2770E7CFA4E1B0E0EAE0F9E0BD
:101210000C94D8228C0186E0F801DE011F96019023
:101220000D928A95E1F7F8018481E5809EE0A92E70
:1012300092E0B92E9091120291111FC08823D1F033
:10124000EE20A9F0C8010E94CE06F82E882379F07E
:1012500087E0F801D50101900D928A95E1F7C5016B
:101260000E9444030E948A080E9479085FC0C80156
:101270000E947506FF24F39459C0C080D1808280FB
:101280009380F09013022091100230911102A4017A
:10129000421B530BFF2009F4F9C0483C510508F0EC
:1012A000A7C0882309F442C090910F0280911402D4
:1012B000282F207F09F05CC09D1116C090910E026E
:1012C000C91212C0E1104EC08F7080618093140269
:1012D0000E9479088EE092E00E94750680911402C7
:1012E000F8018683F12C22C0E1103CC06D2D8C2DBD
:1012F0000E94E5086D2D8C2D0E94E508E82E8111D5
:10130000F1CFCF86D88A8F8598890E940208292F2D
:1013100022952F70243078F49F702230A8F0992302
:10132000B9F0F8019681907F99F4FE2C8F2D649688
:10133000ECE00C94F4222A5F2F70223068F0C80190
:101340000E947506EF2CF1CF992311F0882369F3E1
:10135000805E883050F3F3CF803F38F3815F833075
:1013600070F7E3CF80911402816080931402BACFAA
:101370009D1113C090910E02C9120FC0E1100DC053
:101380008683C8010E94750687E0F801AEE0B2E0EE
:1013900001900D928A95E1F767CFC8010E94CE06B1
:1013A000882309F464CFEE2009F461CF8091140200
:1013B000803288F020910E0230910F023987288701
:1013C0009B868A86909112029C871D868E87CE010D
:1013D00008960E94750687E0F801AEE0B2E0019041
:1013E0000D928A95E1F70E948A080E94790842CFFF
:1013F00090911402292F207FA1F4682D9A8A898A5E
:10140000A6017A899E2D0E94DB068EE092E00E9462
:10141000750687E0F50111928A95E9F70E9479082F
:1014200061CF882309F482CF80910F028D1110C003
:1014300080910E02C8120CC0E1100AC09683C80148
:101440000E94750687E0F50111928A95E9F76ECF43
:10145000C8010E94CE06882309F409CFEE2009F4C2
:1014600006CF80911402803208F4B5CF20910E028D
:1014700030910F023A8329839C828B8290911202D1
:101480009D831E828F83CE010196A3CF483C5105D8
:10149000B8F5882309F4EECEFE2CEE2009F4E7CE51
:1014A00080910F028D111EC080910E02C8121AC0C9
:1014B0008091140280FD0DC0982F907F51F086839B
:1014C000903F09F45ECF982F907F905F8F70892BAB
:1014D00057CF87E0F801AEE0B2E001900D928A9517
:1014E000E1F724CFC8010E94CE06811174CF80910C
:1014F0001402816080931402C8010E94750616CF01
:10150000682D9A8A898AA6017A899E2D0E94DB0617
:1015100087E0F50111928A95E9F7A6CEAEE0B0E03A
:10152000E4E9FAE00C94E122288739874A875B874F
:101530006C877D878E87CE0108960E9404098823D8
:10154000B1F06C85662341F0288539854A855B8535
:101550007D858E850E94E50617E08091D4019091EB
:10156000D50189133DC02E96E3E00C94FD2287E05F
:10157000FE013896DE01119601900D928A95E1F7F1
:101580008C85882349F32091D50130E0C90101966B
:10159000877099274091D4014817190699F097E070
:1015A000929FD001939FB00D1124AA52BE4FFE010D
:1015B000319601900D929A95E1F78093D5010E94A2
:1015C0005708CACF0E94AE061092D5011092D401DE
:1015D00087E0EEE0F2E0DF011D928A95E9F7BCCFEB
:1015E000819FC00111248A529E4F0E9404098823C2
:1015F00009F4B9CFE091D4011E9FF0011124EA5201
:10160000FE4F2081318142815381648175818681C1
:101610000E94E5068091D40190E001968770992799
:101620008093D4019ACF682F80910001909101019D
:101630000E94781A0895682F80910001909101010D
:101640000E947B1A089580910001909101010E94EF
:101650007E1A089580911D02869586958695089537
:1016600080911D028770089590911D02977081E00E
:1016700009F480E00895809129020895909129024B
:10168000892B8093290208958095909129029823AF
:1016900090932902089510922902089590912802AA
:1016A000892B809328020895809590912802982391
:1016B00090932802089510922802089508950E9498
:1016C0005E0B089590911E02292F282331F08095FA
:1016D000892380931E020E945F0B089508950E9443
:1016E0006E0B089590911F02292F2823281729F0A7
:1016F000982B90931F020E946F0B089590911F02E8
:10170000292F282331F08095892380931F020E947E
:101710006F0B089580911F02882329F010921F02F9
:1017200080E00E946F0B0895CF93DF93E09100015A
:10173000F0910101809129028083E0910001F091F4
:101740000101808190912802892B808390911F0252
:10175000992381F0E0910001F09101018081892BB2
:10176000808380910001909101010E94301A8111C3
:101770000E948A0BC0910001D091010148E050E025
:1017800065E172E0CE010E941D23892B59F088E0AB
:10179000FE01A5E1B2E001900D928A95E1F7CE013C
:1017A0000E94CD19DF91CF91089508950E94D50B25
:1017B00008959091660292FF11C098E0899F900170
:1017C0001124622B60931D020E94260780911D0246
:1017D0008695869586950E94D60B08950E942607C9
:1017E000089510921D0280E00E94D60B08959091FA
:1017F0001D028095892380931D02282F277069F48C
:10180000891759F09091660292FF07C086958695D8
:1018100086950E9432070E94F10B0895909166020E
:1018200092FB222720F9281769F080FB92F9909308
:10183000660280916502909166020E94570C82E0D8
:101840000E94F70B08958091660282FB882780F939
:1018500091E089270E940E0C089581E00E940E0CF1
:10186000089580E00E940E0C08956FEF7FEF90E0E6
:1018700080E00E946F23089590E080E00E943B2367
:10188000863E9E4F19F40E940114089580E0089549
:1018900082E090E00E943323089583E090E00E946C
:1018A0003323089584E090E00E943B230895BC0117
:1018B00084E090E00E946F230895AB01BC018FE0AB
:1018C00090E00E9463230895AB01BC0183E190E0A6
:1018D0000E946323089560E070E0CB010E94640CD5
:1018E000089560E070E0CB010E945D0C0E946B0CDB
:1018F0000895A8E0B0E0EFE7FCE00C94E22266EE89
:101900007EEF90E080E00E946F2360E082E090E054
:101910000E94512360E083E090E00E9451231092E6
:10192000D30160E074E184E090E00E946F2360E006
:1019300086E090E00E9451236FEF87E090E00E94E4
:10194000512340E050E0BA0188E090E00E94632318
:1019500060E084E290E00E94512360E087E190E043
:101960000E94512360E08CE090E00E94512360E0EF
:101970008DE090E00E94512319821A821B821C8202
:101980001D821E821F82188648E050E068E170E0E8
:10199000CE0101960E94412340E050E0BA0180E26E
:1019A00090E00E94632380E00E941A140E944A146F
:1019B0000E94710C2896E2E00C94FE220E94790CA1
:1019C0000895682F8EE090E00E9451230895A6E0CC
:1019D000B0E0EDEEFCE00C94E0220E94351B8C019F
:1019E00080912A0290912B028017910781F0198231
:1019F0001A820E94351B682F49815A81792F80E015
:101A000090E00E94140310932B0200932A02269662
:101A1000E4E00C94FC220E94411B60933A02709314
:101A20003B0280933C0290933D0260933602709398
:101A300037028093380290933902089508950895EB
:101A40000E941F0D089508950E94230D089581E0BE
:101A500008958AED9FE00E94B6190E941E0D0E9413
:101A6000200D08950E94270D08950E94320D0895BB
:101A7000089508950E94380D0E94390D08950E941E
:101A8000F90F0E94E80208950E942C1B0E945A142C
:101A90000E94D1100E943F0D0E94240D0895A6E0DF
:101AA000B0E0E5E5FDE00C94D6220E94270D8111FF
:101AB0000AC00E94E70C0E9405130E94FB022696B2
:101AC000EEE00C94F2220E94E7102CE2822E22E03B
:101AD000922E640110E0F601E190F1906F01812FE8
:101AE0000E941C101F5F153009F44BC0E816F90660
:101AF00091F380913E0281FD0E9425100E94350DD8
:101B0000782E10E066246394812F0E941C107C01C3
:101B1000F401A190B1904F018A159B0561F1A826AF
:101B2000BF2400E0CC24C394D12CC5018C219D217D
:101B3000892BC1F07720B1F009831A830E94351BED
:101B40009C838B836D8221E0C7018C219D21892B91
:101B500009F420E049815A816B817C818D81922F2B
:101B60000E9414030F5FCC0CDD1C0031F1F6F40170
:101B70003297F182E0821F5F153031F60E940B0D23
:101B80009ACFE816F90609F0B4CF93CF1F93CF93FD
:101B9000DF930E94F50EEC01C11580E5D807F0F542
:101BA000C11580E4D80708F09CC0C03ED10520F5DF
:101BB000CD3CD10508F082C0C83AD10578F4C53AC9
:101BC000D10508F073C0C130D10519F1209709F192
:101BD000C430D105F0F4D0E0C0E01BC0C33CD10557
:101BE000D0F7C85AD0E0CC0FDD1FC15BDE4F0990A3
:101BF000D881C02DD4640DC0C11580E2D80708F08B
:101C0000D1C0C11581E0D80708F05AC0C83ED1053F
:101C100010F7CE01DF91CF911F910895C03682E574
:101C2000D80718F5C03482E5D80708F06BC0C03279
:101C300082E5D80708F05FC0C11582E5D80708F42F
:101C400097C02C2F2695269580E2289F900111247D
:101C50008C2F8370C1E0D0E002C0CC0FDD1F8A95CD
:101C6000E2F7C22BD32BDD68D4CFC03A82E5D80788
:101C700060F4C03882E5D80708F459C0CF71D0E0CD
:101C8000DC2FCC27C46FD06AC4CFC03C82E5D80714
:101C900008F462C0C03E82E5D80708F09CCFDC2F74
:101CA000CC27CC27DF71C06FD06AB3CFC55AD0E044
:101CB000CB57DE4FC881D0E0D064ABCFD065A9CF81
:101CC0008D2F0E94970F182FCE0199270E94F50E95
:101CD000C12FD0E0DC2FCC27CC27DF71C82BD92B2C
:101CE00098CFCE0199270E94F50ECC27DF70C82B24
:101CF000D92BD06A8ECFCF71D0E0DC2FCC27C16F2B
:101D0000D06A87CF2C2F26952695277080E2289FB2
:101D1000900111248C2F8370C1E0D0E002C0CC0F61
:101D2000DD1F8A95E2F7C22BD32BDC6872CF2C2FF4
:101D300026952695277080E2289F900111248C2FEC
:101D40008370C1E0D0E002C0CC0FDD1F8A95E2F7BE
:101D5000C22BD32BDA685DCF8C2F8F710E94970F27
:101D6000C82FD0E0DC2FCC27CC27DF71D06251CF39
:101D70008C2F8F710E94970F55E0D695C7955A9575
:101D8000E1F7CF70D0E0DC2FCC27282F30E084FFA4
:101D900005C044E0220F331F4A95E1F7C22BD32B35
:101DA000D06937CF8D2F8F710E94970F182FCE01DA
:101DB00099270E94F50EC12FD0E0DC2FCC27CC272D
:101DC000DF71C82BD92BD2CF462F753030F460315C
:101DD00020F4672F0E94B317089590E080E00895E3
:101DE0000E94E40E0E94C60D089582389105B9F153
:101DF000B0F48133910509F47DC048F4893291052E
:101E000009F46DC08A32910509F47BC008958533C9
:101E1000910509F45FC08933910509F10895833E66
:101E20009105D9F138F4803E910529F1823E910562
:101E300079F10895863E9105D9F1873E910509F41F
:101E40003EC0843E910541F52091660221FF24C0E9
:101E50008091650284FD19C087EE90E0089520917D
:101E60006502237009F05AC02091660223FF14C056
:101E700089E290E008952091650220FD38C03091FC
:101E8000660230FF09C024FF43C090E080E008955F
:101E90002091650222FDF7CF08952091650222FD71
:101EA0003AC03091660230FD39C024FFF5CFEDCF46
:101EB0002091650223FFF0CF24FDE7CFCDCF209105
:101EC000650223FD2EC03091660231FFEECF84EE15
:101ED00090E008952091650225FFDECFC9CF2091C3
:101EE000650225FD21C02091660223FFD5CF89E33D
:101EF00090E0D2CF2091650226FFCECF8AE290E01B
:101F000008952091650226FFC7CF81E390E00895F0
:101F100083EE90E0089582EE90E0089580EE90E0E8
:101F2000089586EE90E0089585E390E008959091FD
:101F3000650292FF06C0282F28712830F9F4877FA8
:101F4000846093FF06C0282F28712831F1F4877E22
:101F500084612091660220FF06C0382F3871383026
:101F6000D9F4877F816021FF06C0282F287128318E
:101F7000D1F4877E816194FD877E0895282F247196
:101F80002430F9F68B7F8860DCCF282F2471243130
:101F900001F78B7E8861DDCF382F3171313019F731
:101FA0008E7F8860E0CF282F2171213121F78E7E2E
:101FB0008861E1CF80E008950E94350C08950E9469
:101FC000E7102FEF86E791E0215080409040E1F745
:101FD00000C000000E94E71080E00E941C1080FFFB
:101FE00004C00E94DC0F0E94801B08950E94DF0F36
:101FF00008950E943C0C811102C00E94DE0C0E94D8
:10200000480C80933E020E94520C9093660280938B
:1020100065020E94F60F0E944D0C0E94F906809105
:10202000D2010E941107089508950E941410089586
:1020300008950E9418100895E82FF0E0EE0FFF1F9A
:10204000EF58FD4F808191810895089580EA8A9527
:10205000F1F7089500C008950E9426100895F8949D
:10206000E82FE295EF70F0E031A1282F2F7081E08A
:1020700090E001C0880F2A95EAF7982F9095932356
:1020800091A392A1892B82A378940895CF93DF9393
:10209000C8E9D1E089918F3F11F00E942F1081E0B3
:1020A000CD39D807B9F7C8E8D1E089918F3F11F051
:1020B0000E942F1081E0C839D807B9F7DF91CF917E
:1020C0000895AF92BF92DF92EF92FF920F931F930A
:1020D000CF93DF938C01D62EC62FD0E0CE01885649
:1020E0009E4F7C01FC0120812F3F09F44DC0F894E4
:1020F000E22FE295EF70F0E031A12F7081E090E0E7
:1021000001C0880F2A95EAF7932F982B91A392A1EB
:102110008095892382A378940E942A10E8E8F1E050
:1021200048E951E021E030E0B12CA12C61916F3FF2
:10213000A9F1A62FA295AF70B0E090968C9190E097
:102140006F7002C0959587956A95E2F780FD26C06D
:10215000C901A82AB92A220F331F4E175F0731F78A
:10216000F70180818F3F11F00E942F1061E0A114D0
:10217000B10409F460E08D2D0E942C10CC0FDD1FFE
:10218000C00FD11FB982A882DF91CF911F910F910B
:10219000FF90EF90DF90BF90AF90089590E080E0C7
:1021A000D8CF0E9446108AE0E1E7F2E0DF01982FE5
:1021B0001D929A95E9F7E7E6F2E0DF011D928A9514
:1021C000E9F785E00E9422110E9415100895AAE007
:1021D000B0E0EDEEF0E10C94DF228E010F5F1F4FB7
:1021E0008AE0F80111928A95E9F7F12C6F2DC80168
:1021F0000E946110F394F5E0FF12F8CF4AE050E03E
:10220000B80187E692E00E941D2321E0009709F4BF
:1022100020E0892B41F08AE0F801A7E6B2E00190C6
:102220000D928A95E1F745E061E772E087E692E07A
:102230000E942311182F0E941910812F2A96E5E081
:102240000C94FB220895CF92DF92EF92FF921F939E
:10225000CF93DF936C017B01C42F222349F081E0EF
:10226000809341020E94351B9093400280933F026D
:102270001091410211110AC010E0812FDF91CF911E
:102280001F91FF90EF90DF90CF90089580913F02D3
:10229000909140020E944D1B059770F3D0E0CC0F47
:1022A000DD1FAE01B601C7010E941D23892B41F03D
:1022B000AE01B601C7010E942A2310924102DDCF70
:1022C00010E0FBCF0E940B1D0E94440D0E94181DC0
:1022D00008950E941D1D0E944F0D0E94371D0895F4
:1022E0000E94CE1A0E94F11C0E94290D0E946211C8
:1022F0000E9469110E943A0DFBCF8091480280FF35
:102300000DC06091070170E0660F771F603871059E
:1023100070F56115710569F1862F089581FF07C079
:102320006091070184E0689FB0011124EFCF6091B4
:10233000070182FD0AC0809147028823A9F02091FD
:10234000060160910701821710F088E0ECCF869FAC
:10235000C001112433E0880F991F3A95E1F7622FED
:1023600070E00E94B122D2CF68E070E0D5CF8FE755
:10237000089581E008958091480280FF0CC060912B
:10238000030170E075956795759567956115710501
:1023900049F1862F089581FF06C06091030170E026
:1023A00075956795F3CF6091030182FD0BC0909105
:1023B00046029923A1F060910201809103019617D2
:1023C00038F0682F70E06038710500F38FE70895EA
:1023D000899FC001112470E00E94B122F4CF61E016
:1023E00070E0D7CF81E008958D3C31F40E947D11DB
:1023F000819580934C0208958E3C19F40E947D11C2
:10240000F8CF8F3C31F40E947D11819580934B026F
:102410000895803D19F40E947D11F8CF893D29F47B
:102420000E94BB1180934D0208958A3D21F40E94C1
:10243000BB118195F7CF8B3D31F40E94BB11819583
:1024400080934E0208958C3D19F40E94BB11F8CF81
:102450009FE2980F983070F4815D990B21E030E095
:1024600001C0220F8A95EAF780914A02822B80935D
:102470004A0208958D3D31F4809148028160809335
:10248000480208958E3D21F4809148028260F7CF82
:102490008F3DB9F7809148028460F1CF40914B02A3
:1024A0008D3C59F480914C0287FF0DC010924C0274
:1024B00041110BC01092470208C08E3C81F48091FC
:1024C0004C0218169CF3442381F080914D029091A8
:1024D0004E02892B09F05AC01092460208958F3C93
:1024E00049F447FFF0CF10924B0280914C028111CA
:1024F000ECCFE0CF803D19F41416ACF3E4CF90910B
:102500004D02893D29F41916F4F610924D02DBCFE5
:102510008A3D19F497FFD7CFF8CF90914E028B3DAB
:1025200029F497FFD0CF10924E02CDCF8C3D19F4F5
:102530001916CCF3C8CF9FE2980F983090F4815DC4
:10254000990B21E030E0B90102C0660F771F8A9530
:10255000E2F7CB01809590914A02892380934A0249
:10256000B2CF8D3D31F4809148028E7F8093480236
:10257000AACF8E3D21F4809148028D7FF7CF8F3D09
:1025800009F0A1CF809148028B7FF0CF08950E947F
:10259000351B9C0190914B0280914C02982B21F0AD
:1025A000309345022093440290914D0280914E0257
:1025B000982B21F0309343022093420289E492E069
:1025C0000E94D819089586E0E9E4F2E0DF011D9247
:1025D0008A95E9F71092470210924602109248023B
:1025E0000895FC01828181110EC0838181110BC08D
:1025F0008481811108C091E08581811101C090E042
:10260000892F8170089581E0FCCFA6E0B0E0EBE077
:10261000F3E10C94E12286E0E9E4F2E0DE011196B8
:1026200001900D928A95E1F710924B0210924C02A4
:1026300010924D0210924E028B819C81892B89F061
:1026400080914402909145020E944D1BAC019091F3
:1026500047029923C9F1809108018417150608F4EF
:1026600040C08D819E81892B91F080914202909192
:1026700043020E944D1BAC0190914602992309F43C
:1026800071C0809104018417150608F479C0BE0159
:102690006F5F7F4F89E492E00E94851A811105C027
:1026A00089E492E00E94F11281110E94C71286E033
:1026B000FE013196A9E4B2E001900D928A95E1F70E
:1026C0002696E3E00C94FD22209109018AE0289FE0
:1026D000900111242417350720F69F5F909347023D
:1026E00002C09F3FD1F71B81112359F00E947D1139
:1026F0009FEF11160CF491E0899F802D1124809397
:102700004B021C81112359F00E947D119FEF11167D
:102710000CF491E0899F802D112480934C0230911C
:102720004B02332309F49DCF20914C02222309F45C
:1027300098CF45EB3403C0011124992359F09093AD
:102740004B0245EB240390011124332339F03093DD
:102750004C0287CF81E080934B02F3CF81E08093DE
:102760004C027FCF209105018AE0289F900111241F
:102770002417350708F08BCF9F5F9093460202C065
:102780009F3FD1F71D81112359F00E94BB119FEF8C
:1027900011160CF491E0899F802D112480934D0235
:1027A0001E81112359F00E94BB119FEF11160CF4EA
:1027B00091E0899F802D112480934E0230914D022B
:1027C000332309F464CF20914E02222309F45FCF12
:1027D00045EB3403C0011124992359F090934D0225
:1027E00045EB240390011124332339F030934E023A
:1027F0004ECF81E080934D02F3CF81E080934E0273
:1028000046CF85E290E00E943323833289F486E24A
:1028100090E00E943323893059F487E290E00E94CF
:10282000332391E0833209F090E0892F817008957D
:1028300080E0FCCFCF93DF93D82FCFEF8111C3E29D
:102840006C2F85E290E00E9451236FEFD11169E077
:1028500086E290E00E9451236C2F87E290E00E9474
:102860005123DF91CF910895089588E290E00E946E
:102870003323682F70E090E080E008950895CF93AF
:10288000C62F0E943E146C2F88E290E00E945123D4
:10289000CF91089580E00E941A1460E070E0CB01AF
:1028A0000E943F140E943F170E940E1881E00E9470
:1028B0001A1408950E9434140E9435140E943E1484
:1028C0000E940114811102C00E944A1408950895C3
:1028D0009C01FB018581882351F0A901575740389D
:1028E000510530F4822F0E941E1880E0089581E087
:1028F00008952FEFFC01208308950E947914089514
:1029000080E00895B0E0A0E0E8E8F4E10C94DC2277
:10291000EC01C62E0E948014811110C0E881E150A4
:10292000E331B8F4F0E0ED56FC4D0C94C522198269
:102930008CE08A836C2DCE010E94E51BCDB7DEB7FB
:10294000E8E00C94F82289818230C1F028F48130CB
:1029500061F08FEF8883EECF833099F08430C9F730
:102960001A821B821C821D82E5CF0E94411B0E949D
:10297000CB226A837B838C839D83DCCF0E943514BA
:10298000F6CF8A81082F10E07E019EE0D92ED80E66
:102990000530110578F6802F0E941C10F7019383F3
:1029A00084830F5F1F4FF2E0EF0EF11CD012F0CFC7
:1029B000C1CF8981823031F0853059F68A810E94F9
:1029C0006714B8CF6A817B818C819D810E94CB2264
:1029D0000E943F14AFCF4B816A8189810E94011709
:1029E0009827892798279D838C83A4CF2C813D81AC
:1029F0003227232732274B816A8189810E9423173E
:102A000099CF0E943F1796CF6C2DCE010E947D1466
:102A100091CF0E94BF1789838DCF0E94C11798273D
:102A2000892798279A83898385CF6B8170E0898174
:102A30009A81AE014C5F5F4F9827892798270E94A3
:102A4000C41778CF6B8170E089819A81AE014C5FA9
:102A50005F4F9827892798270E94E9176BCF0E941C
:102A60000E1868CF0E94EE16D6CF6B8170E0898178
:102A70009A81AE014C5F5F4F9827892798270E9463
:102A80006B1758CF6B8170E089819A81AE014C5FE2
:102A90005F4F9827892798270E948F174BCFCF9396
:102AA000DF93EC01FB018581882309F4D2C09E01EC
:102AB00030572332310508F0B2C00E94520C909377
:102AC000660280936502FE01E150F047E232F105B3
:102AD00020F4EA55FC4D0C94C5228091650281607A
:102AE0008093650293C0809166028860809366023D
:102AF0008DC0809165028260F3CF80916502846011
:102B0000EFCF809165028860EBCF80916602816093
:102B1000EDCF809166028260E9CF8091650280618D
:102B2000DFCF809165028062DBCF80916502806497
:102B3000D7CF0E94AE06809165028068D1CF809188
:102B400065028C60CDCF809166028360CFCF80918B
:102B500065028E7FC5CF80916602877FC7CF809147
:102B600065028D7FBDCF809165028B7FB9CF80914B
:102B70006502877FB5CF809166028E7FB7CF809147
:102B800066028D7FB3CF809165028F7EA9CF809141
:102B900065028F7DA5CF809165028F7BA1CF0E94BA
:102BA000AE06809165028F779BCF80916502837F0F
:102BB00097CF809166028C7F99CF8091650282FBCE
:102BC000992790F921E0922790FB82F990FB83F9F5
:102BD00087CF80916602982F909591708E7F892B78
:102BE00090FB81F983CF90916502892F8F7B96FFAF
:102BF000806476CF0E94AE0690916502892F97FB84
:102C000087F980586DCF81E00E94E10C80916502C8
:102C1000909166020E94570C0E94AE0680E0DF9100
:102C2000CF91089580E0F0CF90916502892F8F7E3B
:102C300094FF806155CF90916502892F8E7F90FF20
:102C400081604ECF90916602892F877F93FF8860C5
:102C50004DCF81E0E4CFB0E0A0E0E1E3F6E10C94F9
:102C6000DD22E82FF0E0E45BFE4FD490282F26957C
:102C70002695269530E0F901E451FE4F04918770C6
:102C800010E0082E02C0159507950A94E2F701702E
:102C90001127F901E452FE4FE490F12C082E02C0F6
:102CA000F594E7940A94E2F791E0E922FF24F90110
:102CB000E453FE4FC491D0E002C0D595C7958A95E4
:102CC000E2F7C170DD270115110519F081EE0E94B0
:102CD0005703E114F10419F086EE0E9457038D2D7D
:102CE0000E945B04E114F10419F086EE0E94E903EE
:102CF0000115110519F081EE0E94E903CD2B19F0A1
:102D00008CE20E945B04CDB7DEB7E7E00C94F922B9
:102D1000EF92FF920F931F93CF93DF93EC01162F47
:102D20000AE08881882309F454C0813009F04EC03C
:102D30008981813099F47E0122E0E20EF11C8A81C2
:102D40000E945B04E7012196812F815050F3EFE947
:102D5000FFE03197F1F700C00000F7CF823041F477
:102D60007E0182E0E80EF11C8A810E945703EACFBF
:102D7000833041F47E01E2E0EE0EF11C8A810E9474
:102D8000E903E0CF843011F02196DDCF2A8122962D
:102D900090E080E0AE014F5F5F4F2053330B2A304D
:102DA000310548F0019778F2EFE9FFE03197F1F74C
:102DB00000C00000F7CF089FB001099F700D1124DB
:102DC000C901860F971F2981EA01E4CF0E942B16C3
:102DD000BACFCDB7DEB7E6E00C94FA2284E00895CE
:102DE00090E2699FB001112450E0440F551F640F19
:102DF000751F90EA899F600D711D1124CB01899682
:102E000008950F931F93CF93DF938430C8F46530F8
:102E1000B8F44031A8F40E94F0168C010E943323CC
:102E2000C82FD0E0DC2FCC27C80101960E943323A5
:102E30009E01282BC901DF91CF911F910F91089519
:102E400090E080E0F8CF0F931F93CF93DF93122F82
:102E5000032F843078F4653068F4403158F40E94D0
:102E6000F016EC01602F0E945123612FCE010196D4
:102E70000E945123DF91CF911F910F9108950F93DD
:102E80001F93CF93DF93D0E0C0E010E019C00E9401
:102E9000D60121E030E08C171D0639F034F0402FC8
:102EA000612F8C2F0E94D8019C01402F612F8C2F05
:102EB0000E9423170F5F003151F71F5F153011F08B
:102EC00000E0E5CF2196C430D105F9F6DF91CF912E
:102ED0001F910F910895EF92FF920F931F93CF933D
:102EE000DF93EC018A017C01E60EF71ECE01899684
:102EF000CE15DF0529F4CDB7DEB7E6E00C94FA2253
:102F0000C03822E0D20740F40E943323F8018083C6
:102F10000F5F1F4F2196EACFF8011082F9CFB0E082
:102F2000A0E0E5E9F7E10C94DC227C016A018C0168
:102F3000060F171FEC01CE018996C017D10729F49F
:102F4000CDB7DEB7E8E00C94F822C03822E0D20713
:102F500040F4FE01EE19FF09EC0DFD1D60810E9499
:102F600051232196E8CF843038F4653028F440317D
:102F700018F40E940117089590E080E0089580E120
:102F8000089587E591E00895EF92FF920F931F93C4
:102F9000CF93DF93EC018A017C01E60EF71ECE0190
:102FA00087559D4FCE15DF0529F4CDB7DEB7E6E096
:102FB0000C94FA22C73521E0D20740F40E94332353
:102FC000F80180830F5F1F4F2196E9CFF80110822F
:102FD000F9CFB0E0A0E0EFEEF7E10C94DC227C0149
:102FE0006A018C01060F171FEC01CE0187559D4F1A
:102FF000C017D10729F4CDB7DEB7E8E00C94F8226A
:10300000C73521E0D20740F4FE01EE19FF09EC0DAF
:10301000FD1D60810E9451232196E7CFCF93DF935E
:10302000C9EAD2E060E0CE010E9451232196C11589
:1030300084E0D807B9F7DF91CF910895A8E0B0E018
:10304000E4E2F8E10C94DA22F82E8FE08F1508F410
:103050006EC08FEF93E00E943323811168C009EAAC
:1030600012E0F11035C0FE0131966F0188E0119237
:103070008A95E9F77801FFEFEF1AFF0AC8010E946D
:10308000332389831A82882309F451C08130D1F413
:10309000580182E0A80EB11CC7010E9433238A8325
:1030A000882309F444C09FEF980F9330F0F478011F
:1030B00093E0E90EF11CC5010E9433238B83882322
:1030C000B1F11C8260E0C6010E9488168701D2CF50
:1030D000011594E0190759F1C8010E9433238111A9
:1030E00001C0FA940F5F1F4FBCCF7501843051F7B8
:1030F00002E010E07501EFEFEE1AFE0AC5010E9432
:103100003323F601E00FF11F8083882381F08C3791
:1031100041F4E2E0F0E0EC0FFD1FE00FF11F108240
:10312000D1CF0F5F1F4F57010730110519F72896B0
:10313000EAE00C94F622CF93DF93EB0186319C47B3
:1031400011F50E943B0B9D81992399F08A7A91E0B9
:1031500009F490E090934F02811109C089E20E9426
:10316000130B0E94940B80E0DF91CF91089585E3CB
:10317000F6CF80914F02811104C089E20E941B0B9F
:10318000F0CF85E3FBCF81E0EFCF0F931F93CF9379
:10319000DF93C42FD22FFC0185818823C9F040938F
:1031A00052020E94351B909351028093500280E29C
:1031B0008C0F883040F4C77081E001C0880FCA9539
:1031C000EAF70E946404DF91CF911F910F91089557
:1031D00010915202141332C080915002909151020A
:1031E0000E944D1B883C910548F5C0E2CD0F1D178C
:1031F000B9F080E2810F883040F4177081E001C09F
:10320000880F1A95EAF70E946B04C83048F481E0F1
:103210009D2F977001C0880F9A95EAF70E94640469
:10322000802F0E945B04C83070F6D77081E001C027
:10323000880FDA95EAF70E946B04C5CF80E28C0F05
:10324000883008F6C77081E001C0880FCA95EAF798
:10325000F2CF0F93DB0188519C4787309105A0F591
:10326000FC01E853FC4D0C94C52206E221EE41EE30
:103270006AE17CE7CD010E94C51880E00F910895B6
:1032800007E225EE45EE6BE17CE7F4CF06E221EEA6
:1032900040EE68E17CE7EECF07E225EE44EE69E11F
:1032A0007CE7E8CF06E221EE42EE6CE17CE7E2CF7C
:1032B00007E225EE46EE6DE17CE7DCCF08E221E097
:1032C00045EE6EE17CE7D6CF15968C91882319F0F8
:1032D00010925202D3CF81E0D1CF1F93CF93DF93CF
:1032E00087372CE7920759F0C1E088379C47E1F413
:1032F000FB01C581CC2371F10E94B01906C0FB010E
:10330000C581CC23B1F00E94AD190E9426070E940E
:10331000B319D82F0E94B019C82F0E94AD194D2F94
:103320006C2F0E944D08C0E08C2FDF91CF911F9130
:1033300008950E94AD190E9432070E94B319182FF8
:103340000E94B019D82F0E94AD19412F6D2F0E94F5
:103350004D08EACF0E94B019EECF80910C0108957C
:1033600080910B01089580910A0108959093AD0119
:103370008093AC010895909358028093570208956A
:10338000E0915702F0915802309729F00190F081B6
:10339000E02D0995089580E00895E0915702F0919D
:1033A0005802309721F00280F381E02D09950895AD
:1033B000E0915702F0915802309739F022E0DC0199
:1033C0002C930480F581E02D09950895A3E0B0E0E9
:1033D000ECEEF9E10C94E222209155023091560274
:1033E00028173907A1F09093560280935502E09177
:1033F0005702F0915802309751F023E029839B83C4
:103400008A830680F781E02DCE01019609952396E7
:10341000E2E00C94FE22A3E0B0E0E1E1FAE10C94DA
:10342000E222209153023091540228173907A1F06B
:103430009093540280935302E0915702F091580206
:10344000309751F024E029839B838A830680F7819B
:10345000E02DCE01019609952396E2E00C94FE2220
:103460009C012E5F3F4FAC01485F5F4F80E0241707
:10347000350709F40895F90191919F019923B9F352
:103480008F5FF5CF662349F0FC01329608962191B3
:10349000261729F0E817F907D1F780E0089581E0B1
:1034A00008959C01FC0132969FEF80E04191461700
:1034B00051F09F3F19F4411101C0982F8F5F863062
:1034C000A9F79F3F09F40895290F311D97FD3A95FB
:1034D000F90162830895FC01329608962191261322
:1034E00003C0DF0111971C92E817F907B9F7089597
:1034F0000E94511A08950E946B1A0895029626E0C0
:10350000FC0111922A95E9F7089546E050E00E94E7
:103510001D2321E0892B09F420E0822F08950895CE
:103520000E948F1A0895811106C081E0809359028C
:103530000E94901A089582E0F9CF83E080935902A7
:103540000E94901A08950E94931A089581E0809332
:1035500059020E94901A08950E94A61A089508958B
:1035600008950E94B01A0895089508950E94AF1A10
:103570000895CF930E94B41A0E94E7100E94B51AD2
:10358000C0E08C2F0E941C10892B31F4CF5FC53016
:10359000C1F780E0CF91089581E0FCCF85B78068C6
:1035A00085BF85B7806885BF08951F921FB61F929B
:1035B00011248F939F93AF93BF9380915A028111EF
:1035C00013C080917B0290917C02A0917D02B0910A
:1035D0007E024196A11DB11D80937B0290937C02D7
:1035E000A0937D02B0937E02BF91AF919F918F9186
:1035F0001F901FBE1F90189580918302843031F177
:103600000E94CB0210925A0288E190E020E40FB6AB
:10361000F894A895809360000FBE2093600083B754
:10362000817F846083BF83B7816083BF78948895EE
:1036300083B78E7F83BF0FB6F894A8958091600002
:10364000886180936000109260000FBE08950E9410
:10365000AE060E94D002089582E084BD93E095BD3D
:103660009AEF97BD80936E0008952FB7F8948091DC
:103670007B0290917C02A0917D02B0917E022FBFCF
:1036800008952FB7F89460917B0270917C0280912D
:103690007D0290917E022FBF08959C014FB7F89450
:1036A00080917B0290917C02A0917D02B0917E027C
:1036B0004FBF821B930B089578941F921FB61F92E1
:1036C00011248F939F93AF93BF9380917B0290912E
:1036D0007C02A0917D02B0917E020196A11DB11DD8
:1036E00080937B0290937C02A0937D02B0937E0234
:1036F000BF91AF919F918F911F901FBE1F90189502
:1037000087E797E7909301088093000888E19AE0A3
:103710000FB6F894A895809360000FBE9093600058
:10372000FFCF88E19AE00FB6F894A89580936000E7
:103730000FBE90936000FFCF8091630208959B01BC
:10374000BA01909183029430E9F48F708093E9007C
:103750009FEF8091E800915085FD06C085ED8A9528
:10376000F1F700009111F5CF8091E80085FF0AC0C4
:1037700050E040E0C9010E94DB1D8091E8008E7797
:103780008093E800089543E050E0BC0184E00E948B
:103790009F1B089546E050E0BC0184E00E949F1BFF
:1037A0000895CF93DF93EC0148E050E0BC0181E045
:1037B0000E949F1B88E0FE01ABE5B2E001900D92F4
:1037C0008A95E1F7DF91CF910895603231F440E2BC
:1037D00050E0BC0182E00E949F1B0895809182020C
:1037E000811109C00E94BA1F0E9417208091E20037
:1037F00084608093E20008951092820208950E94EE
:10380000A61A089560917F0281E0611101C080E0F5
:103810000E949D1A08959091830281E0943009F0EE
:1038200080E060917F020E94A31A089542E061EC5B
:1038300081E00E94361F42E261EC84E00E94361F64
:1038400042E261EC82E00E94361F42E260EC83E0DB
:103850000E94361F9091830281E0943009F080E04D
:1038600060917F020E94931A0895809185028330AF
:1038700009F463C030F48130E1F1823009F4A0C072
:1038800008958A3009F48CC08B3009F471C08930F6
:1038900009F052C080918402813209F04DC08091BC
:1038A000880290918902009719F0029709F044C0AC
:1038B0008091E800877F8093E8008091E80082FF94
:1038C00037C09091F3008091F200029731F480911B
:1038D000F100813011F0863021F48091F100809365
:1038E00063028091E8008B778093E8000E946A1F52
:1038F00023C080918402813AF9F48091E800877FA7
:103900008093E8008091880290918902892B61F46C
:1039100068E08BE592E070E00E94791E8091E800FB
:103920008B778093E800089560E090E080E0F3CF2B
:10393000809183028111C1CF089580918402813AE0
:10394000D9F78091880290918902892BA9F78091FB
:10395000E800877F8093E8008091E80080FFFCCF3B
:10396000809115018093F1008091E8008E77BCCFA3
:1039700080918402813201F78091880290918902BE
:10398000892BD1F68091E800877F8093E8000E9420
:103990006A1F80918602809315010E94AE060895E9
:1039A00080918402813241F68091E800877F809384
:1039B000E8000E946A1F8091870280936402089544
:1039C00080918402813A09F0B7CF8091E800877F27
:1039D0008093E8008091E80080FFFCCF8091640232
:1039E000C1CF84B7877F84BF0FB6F894A895809124
:1039F0006000886180936000109260000FBE80E8D4
:103A000090E00FB6F89480936100909361000FBE30
:103A10000E94AC1A08950E94BA1F0E941720E2EE7D
:103A2000F0E080818460808378940E9496220895DB
:103A30008DE091E00E94BB1908958091830285304A
:103A400031F480918302853019F00E94271B08957C
:103A50000E94FC1A80918102882399F30E94B91A6E
:103A6000882379F30E94C51D0E94AE06EACFA0E22A
:103A7000B0E0EDE3FDE10C94E2228091830284301A
:103A800009F583E08093E9008091E80082FF1AC085
:103A90008091E80090E085FF09C050E040E060E2DE
:103AA00070E0CE0101960E942A1E91E08091E8000C
:103AB0008B778093E800992329F060E2CE0101968C
:103AC0000E948214A096E2E00C94FE229A0140919A
:103AD0008A0250918B020E946E1D0895492F55272E
:103AE0004330510521F168F44130510509F443C0D8
:103AF0004230510509F444C090E080E050E040E0DD
:103B000026C04132510551F142325105A9F76330C7
:103B1000710590F7FB01EE0FFF1FE056FE4F40814D
:103B2000518163567E4FFB01808190E010C0992740
:103B30008130910581F0009729F00297E9F6ECEFCA
:103B4000F1E002C0E0E2F2E0849190E0AF01F9011F
:103B5000518340830895E8E0F2E0F6CF63307105C9
:103B600058F6660F771FFB01EA55FE4F40815181E1
:103B700089E090E0ECCF82E190E04FE752E0E7CFC0
:103B80008BE590E044E252E0E2CF80E189BD82E142
:103B900089BD09B400FEFDCF8091D8008F7D809350
:103BA000D8008091E00082608093E0008091E00086
:103BB00081FDFCCF0895AF92BF92CF92DF92FF922A
:103BC0000F931F93CF93DF936C01EB018A010E9447
:103BD000891FF82E811123C00115110539F0F80154
:103BE00080819181C81BD90BC80ED91EB12CA12C84
:103BF0002097A9F08091E80085FD22C08091E8001F
:103C00008E778093E80001151105A1F0F8018081FD
:103C10009181A80EB91EB182A08285E0F82E8F2D69
:103C2000DF91CF911F910F91FF90DF90CF90BF90C8
:103C3000AF9008950E94891F8823D1F2F82EEFCF0C
:103C4000F60181916F018093F1002197FFEFAF1A88
:103C5000BF0ACECFAF92BF92CF92DF92FF920F9367
:103C60001F93CF93DF936C01EB018A010E94891FA0
:103C7000F82E811123C00115110539F0F80180815A
:103C80009181C81BD90BC80ED91EB12CA12C20972D
:103C9000A9F08091E80085FD22C08091E8008B7733
:103CA0008093E80001151105A1F0F8018081918150
:103CB000A80EB91EB182A08285E0F82E8F2DDF916B
:103CC000CF911F910F91FF90DF90CF90BF90AF9059
:103CD00008950E94891F8823D1F2F82EEFCF80919A
:103CE000F100F60181936F012197FFEFAF1ABF0A30
:103CF000CECFFC0180918A0290918B0286179707A4
:103D0000A0F06115710529F49091E8009E779093D9
:103D1000E80090E06115710551F4911108C080919F
:103D2000E80082FF34C080E00895BC01F2CF8091AA
:103D300083028823C1F18530C1F18091E80083FDC1
:103D400030C08091E80082FDEACF8091E80080FFDA
:103D5000E1CF8091F3002091F200382F61157105B9
:103D600019F02830310558F091E02830310509F07C
:103D700090E02091E8002E772093E800CBCF81914E
:103D80008093F100615071092F5F3F4FE7CF809121
:103D90008302882341F0853041F08091E80083FF61
:103DA000BECF81E0089582E0089583E00895FC018C
:103DB00080918A0290918B0286179707A0F0611577
:103DC000710529F48091E8008E778093E80090E0F7
:103DD0006115710551F4911108C08091E80082FFCE
:103DE00035C080E00895BC01F2CF80918302882322
:103DF000C9F18530C9F18091E80083FD31C080911F
:103E0000E80082FDEACF8091E80080FFE1CF809159
:103E1000F3002091F200382F6115710519F0283058
:103E2000310558F091E02830310509F090E080919B
:103E3000E8008E778093E800CBCF84918093F100E7
:103E40003196615071092F5F3F4FE6CF8091830219
:103E5000882341F0853041F08091E80083FFBDCF99
:103E600081E0089582E0089583E00895982F9730C7
:103E700028F08F708093E90081E008959093E90025
:103E8000242F762F50E0981731F07091EC0020919C
:103E9000ED005091F00021FD02C09F5FE8CF30910E
:103EA000EB003E7F3093EB003091ED003D7F30938F
:103EB000ED003091EB0031603093EB007093EC003B
:103EC0002093ED005093F0002091EE0027FDE5CF08
:103ED00080E008958091840287FF13C08091E800FC
:103EE00082FF06C08091E8008B778093E80004C0D1
:103EF000809183028111F2CF0895809183028823FB
:103F0000D9F38091E80080FFF8CF8091E8008E77A8
:103F1000ECCF2091E4003091E50095E6A9012091D5
:103F2000EC00822F817020FF06C08091E80080FFA6
:103F300006C080E008952091E80022FD1AC080911B
:103F40008302882389F0853089F08091EB0085FD1C
:103F50000FC02091E4003091E50042175307F9F2B9
:103F60009150E1F684E0089582E0089583E0089599
:103F700081E008950E9429200E943120E0EEF0E0C7
:103F8000808181608083E8EDF0E080818F7780839D
:103F900019BCA7EDB0E08C918E7F8C9380818F7ED1
:103FA00080831092820208950F931F93CF93DF9323
:103FB0000E9429200E943120C8EDD0E088818F77AF
:103FC000888388818068888388818F7D888319BCF5
:103FD0001092830210927F0210928102109280024E
:103FE00000EE10E0F80180818B7F80838881816002
:103FF000888342E060E080E00E94361FE1EEF0E05E
:1040000080818E7F8083E2EEF0E08081816080831A
:10401000808188608083F80180818E7F80838881A1
:1040200080618883DF91CF911F910F910895E8ED12
:10403000F0E080818F7E8083E7EDF0E08081816019
:10404000808384E082BF81E0809382020E94D41F3B
:104050000895E8EDF0E080818E7F80831092E20089
:1040600008951092DA001092E10008951F920F92C5
:104070000FB60F9211242F933F934F935F936F933B
:104080007F938F939F93AF93BF93EF93FF93809111
:10409000E10082FF0BC08091E20082FF07C08091A7
:1040A000E1008B7F8093E1000E9495228091DA00ED
:1040B00080FF19C08091D80080FF15C08091DA0080
:1040C0008E7F8093DA008091D90080FF96C080E1D6
:1040D00089BD82E189BD09B400FEFDCF81E08093F6
:1040E00083020E94EE1B8091E10080FF19C0809145
:1040F000E20080FF15C08091E2008E7F8093E20095
:104100008091E20080618093E2008091D80080621B
:104110008093D80019BC85E0809383020E94021C22
:104120008091E10084FF2BC08091E20084FF27C0D2
:1041300080E189BD82E189BD89B5982F917080FFAA
:10414000FBCF8091D8008F7D8093D8008091E100D3
:104150008F7E8093E1008091E2008F7E8093E20069
:104160008091E20081608093E20080917F02882349
:1041700009F449C084E0809383020E940B1C809163
:10418000E10083FF29C08091E20083FF25C0809178
:10419000E100877F8093E10082E0809383021092A8
:1041A0007F028091E1008E7F8093E1008091E200A8
:1041B0008E7F8093E2008091E20080618093E20034
:1041C00042E060E080E00E94361F8091F00088604D
:1041D0008093F0000E94FF1BFF91EF91BF91AF9180
:1041E0009F918F917F916F915F914F913F912F910F
:1041F0000F900FBE0F901F90189519BC109283025C
:104200000E94FC1B70CF8091E30087FD93E09093A8
:104210008302B3CF1F920F920FB60F9211242F93E8
:104220003F934F935F936F937F938F939F93AF933E
:10423000BF93CF93DF93EF93FF93D091E900DF70AB
:104240008091EC00C82FC17080FDC0E81092E90099
:104250008091F000877F8093F00078940E944E2137
:104260001092E9008091F00088608093F000CD2BDF
:10427000CF70C093E900FF91EF91DF91CF91BF9193
:10428000AF919F918F917F916F915F914F913F91EE
:104290002F910F900FBE0F901F901895AAE2B0E0DB
:1042A000E4E5F1E20C94E12284E892E02091F1004F
:1042B000FC012193CF01F2E08C389F07B9F70E94EF
:1042C000351C8091E80083FF1EC18091840290918B
:1042D00085029A3008F017C1E92FF0E0E153FC4D58
:1042E0000C94C522803899F0823809F00CC1809175
:1042F00088028F70873008F006C18093E9008091B2
:10430000EB0085FB882780F91092E90006C08091B8
:10431000800290918102911182609091E800977FD4
:104320009093E8008093F1001092F1008091E800F2
:104330008E77E5C0882309F4D3C0823009F0E3C04A
:10434000809186028111D6C0809188028F702FEFF4
:10435000280F263008F0D7C08093E9002091EB00A9
:1043600020FFC8C0933031F48091EB0080628093CD
:10437000EB00C0C09091EB0090619093EB0021E0C6
:1043800030E001C0220F8A95EAF72093EA001092EC
:10439000EA008091EB008860EACF8111B4C01091EF
:1043A00086021F778091E3008078812B8093E30061
:1043B0008091E800877F8093E8000E946A1F8091C7
:1043C000E80080FFFCCF8091E30080688093E300E9
:1043D00082E0111183E08093830295C0805882307F
:1043E00008F091C080918602909187028C3D23E075
:1043F0009207A1F583E08A838AE289834FB7F89414
:10440000DE01139620E03EE051E2E32FF0E050930E
:104410005700E49120FF03C0E295EF703F5FEF701B
:104420008E2F90E0EA30C0F0C7968D939D932F5F5A
:10443000243159F74FBF8091E800877F8093E800CF
:104440006AE270E0CE0101960E94791E8091E80038
:104450008B778093E80057C0C096E7CF60918802C1
:1044600070918902AE014F5F5F4F0E94661DBC01D3
:10447000892B09F448C09091E800977F9093E80059
:1044800089819A810E94D71EE1CF8038E1F5809121
:10449000E800877F8093E80080917F028093F1009D
:1044A00045CF811130C090918602923060F58091A5
:1044B000E800877F8093E80090937F020E946A1F44
:1044C00080917F02882311F084E005C08091E30091
:1044D00087FDFACF81E0809383020E94161C13C0EF
:1044E00080918602813079F481E0933009F080E098
:1044F000809381021092E9008091E800877F809389
:10450000E8000E946A1F8091E80083FF0AC0809142
:10451000E800877F8093E8008091EB0080628093C1
:10452000EB00AA96E3E00C94FD220895CF938091CE
:1045300083028823A1F0C091E900CF709091EC0034
:10454000892F817090FD80E8C82B1092E90080913E
:10455000E80083FD0E944E21CF70C093E900CF9107
:10456000089597FB072E16F4009407D077FD09D025
:104570000E94092307FC05D03EF4909581959F4F3A
:104580000895709561957F4F0895EE0FFF1F059078
:10459000F491E02D099469279627692778278727C2
:1045A000782708952F923F924F925F926F927F9259
:1045B0008F929F92AF92BF92CF92DF92EF92FF9233
:1045C0000F931F93CF93DF93CDB7DEB7CA1BDB0BDF
:1045D0000FB6F894DEBF0FBECDBF09942A88398884
:1045E00048885F846E847D848C849B84AA84B9848B
:1045F000C884DF80EE80FD800C811B81AA81B98197
:10460000CE0FD11D0FB6F894DEBF0FBECDBFED01AA
:104610000895AA1BBB1B51E107C0AA1FBB1FA61709
:10462000B70710F0A61BB70B881F991F5A95A9F75B
:1046300080959095BC01CD010895FB01DC0104C07B
:104640008D910190801921F441505040C8F7881B8A
:10465000990B0895FB01DC0102C001900D924150BD
:104660005040D8F70895F999FECF92BD81BDF89AD0
:10467000992780B50895A8E1B0E042E050E00C949D
:104680007723DC01A40FB51F4150504048F0CB0107
:10469000840F951F2E910E94522341505040D0F715
:1046A0000895262FF999FECF92BD81BDF89A019702
:1046B00000B4021639F01FBA20BD0FB6F894FA9A6A
:1046C000F99A0FBE08950396272F0E9452230E9445
:1046D0005123252F0E945223242F0C9452230196FC
:1046E000272F0E9452230C945123DC01CB01FC01A3
:1046F000F999FECF06C0F2BDE1BDF89A319600B43B
:104700000D9241505040B8F70895F894FFCFB1048E
:10471000B1040105010566058205E004E004870592
:10472000EE05FD05FD059714A314D914EB14F6143A
:104730000115041504150415A914A91409150D155E
:10474000151522152F15321535154215A7151B16EF
:10475000AF1579157D15B3158115B715C3158D15D1
:1047600014169115C7159515CB15F3159915CF1579
:10477000FA159F15D515DD158515BB158915BF15BE
:10478000A315D915E915031612167315AB152216C4
:1047900046194C1935194019521958195E197221C8
:1047A0009A2183229A218322CD21EE218322452240
:0247B000512294
:1047B2002002280850011E0A14010302019C1BD189
:1047C2001BCA1BC31B01E200E900EA00B500B600E8
:1047D200B700CD008301CC008A019201940121022D
:1047E200230224022502260227022A02B300B40071
:1047F2006F0070009F01CB019F02A002818283E2C1
:1048020000E900EA00B500B600B700CD008301CC94
:10481200008A019201940121022302240225022628
:104822000227022A02B300B4006F0070009F01CB7E
:10483200019F02A002818283F7F6F5F4F1F0C630FF
:104842003794969735366634909192936740227BDF
:0C4852002E039102B30236024F026F02E7
:00000001FF
