:100000000C94F1020C9438030C9438030C943803CC
:100010000C9438030C9438030C9438030C94380374
:100020000C9438030C9438030C94572A0C942B2B03
:100030000C94C9240C9438030C9438030C943803A2
:100040000C9438030C9438030C9438030C94380344
:100050000C9438030C9420250C9438030C9438032A
:100060000C9438030C9438030C9438030C94380324
:100070000C9438030C9438030C9438030C94380314
:100080000C9438030C9438030C9438030C94380304
:100090000C9438030C9438030C9438030C943803F4
:1000A0000C9438030C9438030C94380307634236DD
:1000B000B79BD8A71A39685618AEBAAB558C1D3CF9
:1000C000B7CC5763BD6DEDFD753EF6177231BF00BD
:1000D0000000803F05A84CCDB2D44EB93836A902F5
:1000E0000C50B9918688083CA6AAAA2ABE00000036
:1000F000803F290014001A000800150017001C009A
:1001000018000C00120013002A002B000400160037
:10011000070009000A000B000D000E000F0033005D
:100120003400E1001D001B0006001900050011004D
:10013000100036003700380028000351E000E300CB
:10014000E20001512C002C000251500051005200DD
:100150004F0035021E021F0220022102220223024A
:1001600024022502260227022A004C003A003B0006
:100170003C003D003E003F002D022E022F023002C7
:1001800031020100400041004200430044004500AC
:10019000010001004A004D000100010001000100C2
:1001A00001000100010001000100AB00AA00A9004C
:1001B000AE0035001E001F00200021002200230099
:1001C00024002500260027002A004C003A003B00AE
:1001D0003C003D003E003F002D002E002F0030006F
:1001E000310001004000410042004300440045004E
:1001F000010001004B004E00010001000100010060
:1002000001000100010001000100AB00AA00A900EB
:10021000AE000100005C015C010001000100010072
:1002200001000100010001004C000100010001007B
:1002300001000100010001000100010001000100B6
:1002400001000100010001000100010001000100A6
:100250000100010001000100010001000100010096
:100260000100010001000100010001000100010086
:10027000010000000000000000002A2B2800000000
:100280000000000000000000000000000029000045
:1002900000002C1E3420212224342627252E362D22
:1002A0003738271E1F202122232425263333362EBC
:1002B00037381F0405060708090A0B0C0D0E0F102E
:1002C0001112131415161718191A1B1C1D2F313073
:1002D000232D350405060708090A0B0C0D0E0F1017
:1002E0001112131415161718191A1B1C1D2F313053
:1002F000354C00000000000000000000000000007D
:1003000000000000000000000000000000000000ED
:100310000000000000007E0F00D4FFFFFFC70000B8
:10032000007800047F3F1F643214643214783C1E4E
:100330001E140A05FFAA7F554000010101010101B9
:10034000010101020202020202020202030303038C
:10035000030303030404040404040405050505055C
:10036000060606060607070707070808080809091A
:1003700009090A0A0A0B0B0B0C0C0C0D0D0D0E0EC5
:100380000E0F0F0F10101111111212131314141558
:100390001516161717181819191A1A1B1B1C1D1DCC
:1003A0001E1E1F2020212222232424252626272822
:1003B00029292A2B2C2D2D2E2F3031323233343552
:1003C000363738393A3B3C3D3E3F40414243444555
:1003D000464748494A4C4D4E4F5051535455565834
:1003E000595A5B5D5E5F616264656668696B6C6DDE
:1003F0006F7072737577787A7B7D7E808283858754
:10040000888A8C8E8F91939596989A9C9EA0A2A391
:10041000A5A7A9ABADAFB1B3B5B7BABCBEC0C2C496
:10042000C6C9CBCDCFD1D4D6D8DBDDDFE2E4E7E956
:10043000EBEEF0F3F5F8FAFDFF0E0343006F006EEC
:100440000074007200610000000E0343006100723E
:1004500000740065006C0000000403090409025BDD
:1004600000030100A0FA09040000010301010009D2
:1004700021110100012240000705810308000A093B
:1004800004010002030000000921110100012222E1
:10049000000705820320000107050303200001096E
:1004A000040200010300000009211101000122B62D
:1004B000000705840320000A120100020000000862
:1004C000544301000100010200010660FF0961A11F
:1004D000010962150026FF00952075088102096355
:1004E000150026FF00952075089102C0050109023C
:1004F000A10185020901A1000509190129081500BA
:100500002501950875018102050109300931158120
:10051000257F95027508810609381581257F95018B
:1005200075088106050C0A38021581257F9501752D
:10053000088106C0C005010980A101850319012AAF
:10054000B700150126B700950175108100C0050C94
:100550000901A101850419012AA002150126A002A2
:10056000950175108100C005010906A101850605E8
:100570000719E029E7150025019508750181020595
:1005800007190029EF1500250195F0750181020575
:1005900008190129059505750191029501750391C9
:1005A00001C005010906A101050719E029E71500A9
:1005B00025019508750181029501750881010507DE
:1005C000190029FF150026FF009506750881000512
:1005D0000819012905950575019102950175039189
:1005E00001C011241FBECFEFDAE0DEBFCDBF04B6DD
:1005F00003FE27C08091020390910303A09104039E
:10060000B09105038730904BA740B04BD1F41092C6
:10061000020310920303109204031092050314BE08
:1006200084B7877F84BF0FB6F894A8958091600047
:10063000886180936000109260000FBEE0E0F8E3F4
:10064000099511E0A0E0B1E0EEECF2E602C0059001
:100650000D92A23DB107D9F723E0A2EDB1E001C0B0
:100660001D92A230B207E1F70E94B4130C942A3114
:100670000C94000081E0089581E008950C943C03FF
:1006800008950C9440031F93CF93DF9300D000D0C4
:100690000F92CDB7DEB749835A836B833091D40173
:1006A00089819A8131111DC06623B9F02223A9F0F6
:1006B0000E94D709182F682F89819A810E94830987
:1006C00069817A81812F0F900F900F900F900F907A
:1006D000DF91CF911F910C948F210E94AF09182FA9
:1006E000EFCF0E94D70969817A81EDCFFC01262FD7
:1006F000408151816281738184810C94430381E044
:100700000895CF93DF93EC0160E00E947603BE0171
:10071000DF91CF910C944103E1E0F0E0DF0102C0F2
:10072000AA0FBB1F6A95E2F7BD01DF0102C0AA0F45
:10073000BB1F4A95E2F76A2B01C0EE0F2A95EAF734
:10074000962F9823961302C08E2B0895E0958E2342
:100750000895242F462F682F8091E7010E948C0373
:100760000C9440090E9439120E9411050C945412F5
:100770000C94571280E00E9412050C947B1B089584
:1007800008950E94D8080E94C0032FEF84E39CE0E4
:10079000215080409040E1F700C000000C944425B7
:1007A0000F931F93CF93DF938C0161E00E94760338
:1007B000EC01B8010E944C1E882309F441C0B80125
:1007C000CE010E943E038823D9F1B801CE010E94D8
:1007D000F0228823A9F1B801CE010E949D1F882331
:1007E00079F1B801CE010E945A22882349F1B8015B
:1007F000CE010E94FE1C882319F1F8018281882312
:1008000061F0CA35FDE5DF0721F170F4C115ECE5B3
:10081000DE07A1F0CE3DDC45C9F0C801DF91CF91E4
:100820001F910F910C943A03CB358DE5D807A1F0B9
:10083000CC35DD4591F70E946F0EEFCF0E94C103CA
:1008400080E0DF91CF911F910F9108950E94280FB2
:10085000F7CF0E94780EE1CF0E947B0EDECF0C9482
:10086000BF030E944C230E9412050E94471C0C9457
:100870002F04DF92EF92FF920F931F93CF93DF939A
:10088000E82FF0E0EE58FD4FD490282F26952695BE
:10089000269530E0F901EE5EFC4F0491877010E080
:1008A000082E02C0159507950A94E2F701701127EA
:1008B000F901EE5FFC4FE490F12C082E02C0F59494
:1008C000E7940A94E2F791E0E922FF24F901EE505F
:1008D000FD4FC491D0E002C0D595C7958A95E2F747
:1008E000C170DD270115110519F081EE0E945D052B
:1008F000E114F10419F086EE0E945D058D2D0E9431
:100900005C06EF2819F086EE0E94EF05012B19F026
:1009100081EE0E94EF05CD2B51F08CE2DF91CF915B
:100920001F910F91FF90EF90DF900C945C06DF9188
:10093000CF911F910F91FF90EF90DF900895EF926C
:10094000FF920F931F93CF93DF93EC01162F0AE0D2
:100950008881882309F454C0813009F04EC0898110
:10096000813099F47E0122E0E20EF11C8A810E941E
:100970005C06E7012196812F815050F3EFE9FFE0FB
:100980003197F1F700C00000F7CF823041F47E01CB
:1009900082E0E80EF11C8A810E945D05EACF833077
:1009A00041F47E01E2E0EE0EF11C8A810E94EF0527
:1009B000E0CF843011F02196DDCF2A81229690E09D
:1009C00080E0AE014F5F5F4F2053330B2A3031057B
:1009D00048F0019778F2EFE9FFE03197F1F700C0B6
:1009E0000000F7CF089FB001099F700D1124C901C5
:1009F000860F971F2981EA01E4CF0E943904BACFFC
:100A0000DF91CF911F910F91FF90EF90089560E0DB
:100A10000C949F0408950C940A0581E008950C94A9
:100A20000D050895CF93C82F0E940B058C2FCF91F1
:100A30000C940F05CF93DF93CDB7DEB72B970FB68E
:100A4000F894DEBF0FBECDBF4F83588769877A8782
:100A50008B8761110E94BD0D1E821D8285E0FE0103
:100A60003796DE01119601900D928A95E1F78C81FF
:100A70009D81892B89F449815A816B817C818D818B
:100A80009E810E94DE0C2B960FB6F894DEBF0FBE3F
:100A9000CDBFDF91CF91089589819A8189238F3FBE
:100AA00051F3CE0101960E947F038111E4CFEBCF79
:100AB000FC01808191810C94040ACF93C82F882374
:100AC00009F48BC08238C1F40E944C2381FD85C09B
:100AD00089E30E94780D0E94ED0D2FEF81EE94E0E6
:100AE000215080409040E1F700C0000089E30E945F
:100AF0007F0DCF910C94ED0D8338A1F40E944C230F
:100B000080FD6BC083E50E94780D0E94ED0D2FEFF4
:100B100081EE94E0215080409040E1F700C0000059
:100B200083E5E5CF8438A1F40E944C2382FD55C0B3
:100B300087E40E94780D0E94ED0D2FEF81EE94E086
:100B4000215080409040E1F700C0000087E4CFCF03
:100B50008CEF8C0F813A90F46C2F80910201909170
:100B600003010E94C023882329F08C2F0E947F0D4F
:100B70000E94ED0D8C2F0E94780DBBCF80E28C0F70
:100B8000883048F4C77081E001C0880FCA95EAF741
:100B90000E94A00DAECFEBE5EC0FE33040F4F0E0A7
:100BA000E65AFE4F808190E0CF910C948023E8E5D7
:100BB000EC0FE73150F4F0E0EE0FFF1FE45DFE4F65
:100BC00080819181CF910C949623C03F30F08C2F7F
:100BD0000E944414CF910C941715CF910895882347
:100BE00009F452C0823871F40E944C2381FF4CC03A
:100BF00089E30E94780D0E94ED0D89E30E947F0D2C
:100C00000C94ED0D833859F40E944C2380FF3CC0B6
:100C100083E50E94780D0E94ED0D83E5EFCF8438C7
:100C200059F40E944C2382FF2FC087E40E94780D64
:100C30000E94ED0D87E4E2CF9CEF980F913AF0F21D
:100C400090E2980F983050F4877091E001C0990FAE
:100C50008A95EAF7892F0E94A60DD2CF9BE5980FBF
:100C6000933020F490E080E00C94802398E5980F76
:100C7000973120F490E080E00C949623803F20F0A0
:100C80000E949E140C94171508951F93CF93DF9321
:100C9000182FEB010E945D05209731F4812FDF9121
:100CA000CF911F910C94EF058FE99FE00197F1F729
:100CB00000C000002197F0CF70E060E0893311F4AC
:100CC00060E570E00C944506882321F00E94A00D99
:100CD0000C94ED0D0895882321F00E94A60D0C942C
:100CE000ED0D0895BF92CF92DF92EF92FF920F9396
:100CF0001F93CF93DF936C01D62FC72FFC01128176
:100D0000F580F2949FE0F9220E94960DE82E882348
:100D1000B9F0E12E1123A1F08C2F807F803421F0D7
:100D200080E28D0F8830B0F08091A80282FD12C061
:100D300082E00E943E0E0E94960D91E0E82EE92688
:100D4000BC2EB2948FE0B822EB2DF0E0E45DFE4CB7
:100D50000C947E30E12CF4CF0C2F0F70C07F11F07B
:100D60000295007F112399F0002359F080E28D0F46
:100D7000883010F0D11107C0802F0E94A00D0E9472
:100D8000ED0D8D2F41C0802F0E94B00DF8CF8D2F1B
:100D90000E94EF05002309F43FC080E28D0F8830E8
:100DA00010F0D11104C0802F0E94A60D03C0802F27
:100DB0000E94B60D0E94ED0D2FC00C2F0F70C07F4A
:100DC000C03211F00295007FDD2381F0D13009F4AB
:100DD00069C0112309F473C0FF2009F469C0F6014A
:100DE000858180FFCECF8F70858362C08091A802FD
:100DF00082FF38C0112359F0002329F0802F0E9470
:100E0000A00D0E94ED0D80E00E945D0505C080E010
:100E10000E94EF050111C7CFEB2DE850FF0B34976F
:100E200020F40E944C230E941205EE2009F45DC1BB
:100E30000E94920D80FD59C1F60112820E948C0D14
:100E40000E945109C6010E9496080E948C0DDF91F4
:100E5000CF911F910F91FF90EF90DF90CF90BF90B7
:100E60000C945C09112389F0F11006C00E94D00D8A
:100E7000802B0E946406D0CFF1E0FF12F7CF0E94D2
:100E8000D00D802B0E94D60DC7CFF11006C00E9456
:100E9000E30D802F0E946B06BFCF21E0F21609F40C
:100EA000BBCFF5CF112331F035E03F1508F4B4CFB7
:100EB000802FDFCF84E08F1508F4AECFEACFFF207C
:100EC00041F3D93349F4FFEF27EE33E0F1502040EE
:100ED0003040E1F700C000008D2F0E94EF059CCF4D
:100EE0008C2F86958695837069F0813009F094CFB8
:100EF0008D2F9C2F9370111102C090E080E00E9412
:100F000096238ACF8D2F9C2F9370111102C090E0F1
:100F100080E00E94802380CF8D2F112329F00E9432
:100F200044140E94171578CF0E949E14FACF8C2F7C
:100F3000837079F5111170CF4D2F4295469547700A
:100F4000440F440F8D2F8F70042E01C0880F0A9418
:100F5000EAF72D2F2071D4FF07C02FE030E001C049
:100F6000220F4A95EAF72095C695C695C370822B45
:100F7000C23049F058F4C13019F00E9432094CCF08
:100F80000E942D0949CF0E94370946CF0E942B09A4
:100F900043CF8695112311F08C2F8170882309F49B
:100FA0003BCF4D2F429546954770440F440F8D2FF0
:100FB0008F70042E01C0880F0A94EAF72D2F20713C
:100FC000D4FF07C02FE030E001C0220F4A95EAF7B6
:100FD0002095C695C695C370822BC23049F058F44F
:100FE000C13019F00E94780917CF0E94730914CFFD
:100FF0000E947D0911CF0E9440090ECFCF701123AE
:1010000029F08C2F0E9451098D2F33CF8D2F0E94F4
:101010006B068C2F0E945C09FFCED23F51F160F429
:10102000D03FB9F0D13F81F0112309F449C0F1104C
:10103000A8CE8C2F8F7121C0D33F11F1D43FA1F7DF
:101040008091A80282FF26C08C2F8F71112311F38B
:1010500014C0112349F084E08F1508F4DDCE8C2FE5
:101060008F710E946809D8CE95E09F1508F4D4CE00
:10107000F6CF8C2F8F711111CDCF0E945109CCCE9C
:10108000112329F08C2F8F710E944909C5CE0E942F
:101090004609C2CE112349F0CF718C2F0E9451090D
:1010A00063E08C2F0E94230EB7CE81E00E943E0E9B
:1010B000E1E0EF1508F0B0CE82E00E943E0EACCE2B
:1010C000F110FFCE8C2F8F71A5CF4C2F4F706D2F4D
:1010D000C6010E9422100E94320A9ECE4C2F4F70F1
:1010E0006D2FC6010E94251097CEDF91CF911F91E1
:1010F0000F91FF90EF90DF90CF90BF9008950F93E6
:101100001F93CF93DF93EC01688179818A810E94DC
:101110000E0A8C010E9482090E942A09B801CE01A0
:10112000DF91CF911F910F910C947206CF93DF93B3
:10113000EC018B819C81892B29F0888199818923FD
:101140008F3F59F4DF91CF910895CE010E947F081F
:10115000CE01DF91CF910C948103CE010E94D00388
:101160008111F3CF0E94960D882361F38A81882331
:1011700049F38091A80282FDE5CF82E0DF91CF9113
:101180000C943E0E90E080E00E94802390E080E08E
:101190000E9496230E94BD0D0E94CD0D0E94ED0D70
:1011A0000E943E160C9417150E94860D0C94C208DE
:1011B0000E94AD0D0C94D408E92FE295EF70E25037
:1011C000EE3070F4F0E0E45CFE4C0C947E30803F36
:1011D00019F020F4883E20F481E00895843FE1F383
:1011E00080E00895883EC0F3813FD1F7F5CF93FBAF
:1011F000882780F90895FC01808191810E94040A6A
:101200000C94DC08CF93DF9300D000D00F92CDB7C1
:10121000DEB70F900F900F900F900F90DF91CF914E
:101220000895CF93DF9300D000D000D0CDB7DEB7C4
:1012300026960FB6F894DEBF0FBECDBFDF91CF91DB
:10124000089508950C9421090E9422098093E801D1
:101250000C94C20808950C9424099091E801892BFC
:101260000C9424099091E80189230C94240990910D
:10127000E80189270C9424090C9421090C943C0959
:101280000E943E098093E7010C94C20880E00C9410
:10129000400991E001C0990F8A95EAF7892F0C94D3
:1012A000400921E030E001C0220F8A95EAF78091E1
:1012B000E701822B0C94400921E030E001C0220FAD
:1012C0008A95EAF720958091E70182230C944009E2
:1012D00021E030E001C0220F8A95EAF78091E70112
:1012E00082270C9440099091E701892B0C944009C6
:1012F0009091E70189230C9440099091E701892797
:101300000C94400908952CE0929F800D1124982F91
:10131000977041E001C0440F9A95EAF7869586954B
:10132000869593E0899FF0011124EB52FE4F90E0E7
:1013300080E070E05191DF0111979B01082E02C0FF
:10134000369527950A94E2F72170219525272423C5
:1013500025272C9301968330910561F708952CE0A1
:10136000929F800D1124982F97708695869586956B
:1013700023E0829FF0011124EB52FE4F50E040E049
:1013800080E0219130E0092E02C0369527950A941D
:10139000E2F721703327042E01C0220F0A94EAF7E6
:1013A000822B4F5F5F4F4330510559F70895CF921D
:1013B000DF92FF920F931F93CF93DF936C01009105
:1013C000E7018091E801082BC7E0D0E010E0FC2E97
:1013D000C8010C2E02C0959587950A94E2F780FD0E
:1013E0000CC02197A0F7F12C8F2DDF91CF911F9189
:1013F0000F91FF90DF90CF900895B6018C2F0E943F
:101400004111019771F3F0CFCF93DF93EC010E946C
:10141000D709BE01DF91CF910C9441111F93CF9357
:10142000DF93EB019091D401992331F0CB01DF914F
:10143000CF911F910C94040A882379F0CB010E946C
:10144000D709182F682FCE010E948309BE01812F72
:10145000DF91CF911F910C944111CB010E94AF09F4
:10146000182FF4CFEF92FF920F931F93CF93DF9338
:101470008C01892B81F0F12CEE24E394E801219674
:10148000F8018491843770F4843008F05FC08130B3
:10149000B1F08230A1F1DF91CF911F910F91FF90B8
:1014A000EF900895853709F44CC008F43DC09CE7DF
:1014B000980F903780F78F770E94EF0549C00E5F35
:1014C0001F4FFE01849190E2980F983060F487706E
:1014D000FE2D01C0FF0F8A95EAF78F2F0E94C00DE5
:1014E0000E94ED0D02C00E945D058F2D815030F2EB
:1014F000EFE9FFE03197F1F700C00000F7CF0E5F92
:101500001F4FFE01849190E2980F983050F487703D
:10151000FE2D01C0FF0F8A95EAF78F2F0E94C60D9E
:10152000DFCF0E94EF05E1CF0E5F1F4FFE01C49198
:10153000C150D8F28FE99FE00197F1F700C0000099
:10154000F7CF0E5F1F4FFE01F490CFCF0E945D05D5
:101550008E01CBCF1F93CF93DF93C091E90116E0AB
:101560008091EA018C1304C0DF91CF911F910895FF
:10157000D0E01C9FF0011D9FF00D1124E551FE4F9E
:101580004081518162817381848195810E9411091A
:101590002196C770E5CF40911B0250911C026091CB
:1015A0001D0270911E0280911F02909120020C94E6
:1015B0001109FF920F931F93CF93DF938091200225
:1015C000807FD1F480911D028823B1F08091E901E0
:1015D0001091EA0160911B0270911C02A0911E0201
:1015E000B0911F02062F0723C0910001D091010185
:1015F00096E0F92E181306C0DF91CF911F910F913D
:10160000FF90089590E0109711F00F3F19F40196A4
:101610008770F0CFF89E9001F99E300D1124F901EA
:10162000E551FE4F41814713F2CF40814613EFCF82
:1016300042814111ECCF438154814A1B5B0B4C1713
:101640005D0728F7809120028F70806180932002CF
:10165000F901E051FE4F80818F70806180838BE1C2
:1016600092E00E949608DF91CF911F910F91FF9019
:101670000C94AA0AAF92BF92CF92DF92EF92FF92A0
:101680000F931F93CF93DF93CDB7DEB761970FB65C
:10169000F894DEBF0FBECDBF8C0185E0F801DE01FE
:1016A0001D9601900D928A95E1F7F801E2808BE199
:1016B000C82E82E0D82E60911E0270911F02611523
:1016C000710509F45FC190911B0220911C02892FC2
:1016D00082238F3F09F456C140815181A380B48099
:1016E000F0901D02F501E61BF70BBF01E091000130
:1016F000F0910101FF2009F4F6C080912002382FFB
:10170000307F6E177F0708F0AFC0311179C0FE2C13
:10171000251323C0941321C0E1101FC08F70806176
:10172000809320020E94CB0AC6010E9496088091F5
:101730002002F80185838F2D61960FB6F894DEBFE5
:101740000FBECDBFDF91CF911F910F91FF90EF9012
:10175000DF90CF90BF90AF900895AB2829F0842FF1
:1017600085238F3F09F027C180E0F82FF170DF2E2D
:1017700080FF3CC08091E9012091EA0136E08213AC
:1017800015C04D875E878D859E850E94040A292F8E
:1017900022952F702230F0F0243018F59F70F1F070
:1017A000F8019581907FD1F4D12C1EC090E0389F34
:1017B000F001399FF00D1124E551FE4F6181651351
:1017C00006C06081641303C062816E110FC0019670
:1017D0008770D5CF9F7011F0882331F3805E8830F9
:1017E00018F3C8010E949608FD2CA5CFEE2009F43D
:1017F000A2CF80912002816080932002F12C9BCFA8
:10180000251306C0941304C0F801EE2009F487C024
:10181000C8010E94FB08882319F1EE2009F180918C
:101820002002803270F020911B0230911C02388718
:101830002F831986BB86AA868C87CE0107960E94C5
:10184000960886E0F801ABE1B2E001900D928A952E
:10185000E1F70E94D90A0E94CB0AFF24F3946BCFD0
:10186000C8010E949608F9CF311113C07A2DB98AA8
:10187000A88A6E2D89890E9402098BE192E00E945C
:10188000960886E0F60111928A95E9F70E94CB0A44
:10189000B5CF25130FC094130DC0E1100BC0F80194
:1018A0008583C8010E94960886E0F60111928A9508
:1018B000E9F741CFC8010E94FB08882389F2EE2096
:1018C00079F280912002803208F4BBCF20911B0274
:1018D00030911C023A8329831B82BD82AC828E83A5
:1018E000CE010196ACCF6E177F0708F03EC0FE2CEC
:1018F000EE2009F4B5CF25132AC0941328C0809197
:10190000200280FD1BC0982F907FC1F0F8018583D5
:10191000903F31F0982F907F905F8F70892B858357
:10192000C8010E94960886E0F801ABE1B2E00190A0
:101930000D928A95E1F70E94CB0AFDCE86E0F80170
:10194000ABE1B2E001900D928A95E1F7F4CEC801C7
:101950000E94FB08811175CF8091200281608093E5
:101960002002C8010E949608E6CE7A2DB98AA88A7C
:101970006E2D89890E94020986E0F60111928A95EE
:10198000E9F7D9CFEE2009F46BCFC8010E94FB081C
:10199000F82E882309F464CF86E0F801ABE1B2E0C9
:1019A00001900D928A95E1F78BE192E00E94580533
:1019B0000E94D90AC0CF81E08E25D7CE1F93CF9346
:1019C000DF93CDB7DEB72C970FB6F894DEBF0FBE0E
:1019D000CDBF4F83588769877A878B879C87CE01D5
:1019E00007960E943A0B882369F08A859B85892B8C
:1019F00039F04F815885842F85238F3F09F071C0BE
:101A000016E05FC086E0FE013796DE011196019078
:101A10000D928A95E1F78A859B85892B89F38F81C1
:101A2000988589238F3F61F32091EA0130E0C90155
:101A30000196877099274091E9014817190671F4BA
:101A40000E94D8081092EA011092E90186E0EBE1C9
:101A5000F2E0DF011D928A95E9F7D2CF96E0929FDE
:101A6000D001939FB00D1124A551BE4FFE013196B8
:101A700001900D929A95E1F78093EA010E94AA0ADB
:101A8000BFCF819FC001112485519E4F0E943A0B08
:101A90008823E9F0E091E9011E9FF0011124E5514E
:101AA000FE4F4081518162817381848195810E94C2
:101AB00011098091E90190E0019687709927809340
:101AC000E9018091E9019091EA018913DACF2C961E
:101AD0000FB6F894DEBF0FBECDBFDF91CF911F913F
:101AE000089569857A858B859C850E94110988CF28
:101AF000682F80910201909103010C944024682F7B
:101B000080910201909103010C944B248091020179
:101B1000909103010C94562480912102859585951E
:101B200085950895809121028770089590912102F2
:101B3000977081E009F480E008958091450208954E
:101B400090914502892B809345020895809590914C
:101B500045029823909345020895109245020895F6
:101B600090914402892B809344020895809590912E
:101B700044029823909344020895109244020895D9
:101B800090914302892B8093430208958095909110
:101B900043029823909343020895109243020895BC
:101BA00080912202089508950C94D30D9091A8027B
:101BB00092FD08C090912202981721F08093220292
:101BC0000C94D40D089580912202882329F010925C
:101BD000220280E00C94D40D0895E0910201F0916E
:101BE0000301809145028083E0910201F09103019D
:101BF000808190914402892B8083E0910201F091D1
:101C00000301808190914302892B8083909122026D
:101C1000992381F0E0910201F09103018081892BE9
:101C2000808380910201909103010E94AC23811175
:101C30000E94E30D80910201909103010C945823BE
:101C400008950C94200E9091A80292FD10C098E087
:101C5000899F90011124622B609321020E945109F7
:101C6000809121028595859585950C94210E0C9483
:101C700051091092210280E00C94210E90912102D2
:101C80008095892380932102282F277091F4282F93
:101C9000082E000C330B9217130659F09091A802EE
:101CA00092FD07C08595859585950E945C090C94E9
:101CB000390E08959091A80292FB222720F9281747
:101CC00069F080FB92F99093A8028091A70290910D
:101CD000A8020E94A50E82E00C943E0E0895809109
:101CE000A80282FB882780F991E089270C945A0E7C
:101CF00081E00C945A0E80E00C945A0E6FEF7FEF47
:101D000090E080E00C94143190E080E00E94F0308C
:101D1000893E9E4F11F40C94F51D80E0089582E0F9
:101D200090E00C94E23083E090E00C94E230CF93AA
:101D300084E090E00E94E230C82F82E290E00E94AE
:101D4000E230982F8C2FCF910895CF93C92F682F11
:101D500084E090E00E94F6306C2F82E290E0CF9118
:101D60000C94F630AB01BC018FE090E00C9408318C
:101D7000AB01BC0183E190E00C94083160E070E0BD
:101D8000CB010C94B80E60E070E0CB010E94B20E63
:101D90000C94BE0E69EE7EEF90E080E00E9414315C
:101DA00060E082E090E00E94F63060E083E090E046
:101DB0000E94F6301092E80160E084E090E00E941A
:101DC000F63060E082E290E00E94F63060E085E06C
:101DD00090E00E94F63060E086E090E00E94F630ED
:101DE0006FEF87E090E00E94F63040E050E0BA01EB
:101DF00088E090E00E94083160E08DE090E00E9471
:101E0000F63040E050E0BA0188E190E00E940831ED
:101E100060E087E190E00E94F63040E050E0BA01D7
:101E20008CE190E00E94083170E060E080E290E098
:101E30000E94143140E050E0BA0188E190E00E9435
:101E4000083180E00E940E1E0E94341E0C94C30EC6
:101E50000C94CA0E682F8EE090E00C94F6300E942D
:101E6000052560935302709354028093550290931A
:101E7000560260934F0270935002809351029093E8
:101E80005202089585B7806885BF85B7806885BF91
:101E90000895089508950C94490F08950C944D0FDA
:101EA0000E94420F8FE192E10E9442230E944A0F5A
:101EB0000C944B0F81E008950C945A0F08950895E7
:101EC0000E945E0F0C945F0F0E94F0240E94431E3C
:101ED0000E940E130E940C1C0C944E0F8F929F9226
:101EE000AF92BF92CF92DF92EF92FF920F931F9328
:101EF000CF93DF93CDB7DEB72A970FB6F894DEBF46
:101F00000FBECDBF0E94231381110E942F0F57E4F3
:101F1000852E52E0952E10E000E0A02E802F0E942A
:101F200059126C01F401E190F1904F01E816F906A5
:101F300009F45EC08091570281FD0E946212C701C0
:101F40008C259D25B12CEE24E394F12C9C012E21AF
:101F50003F21232B09F446C00E945C0F8823A9F07F
:101F6000BE82AF82CE20DF2081E0CD2809F480E060
:101F700088870E94F9248160782F9A8789874E810B
:101F80005F8168858A850E941A05000F111FF8017C
:101F9000E95BFD4F80819181E826F926F182E0829C
:101FA0000E94501C0E9432150E944C2390914602C0
:101FB0008917A9F10E944C23809346022A960FB6F6
:101FC000F894DEBF0FBECDBFDF91CF911F910F916F
:101FD000FF90EF90DF90CF90BF90AF909F908F9049
:101FE0000C941205B394EE0CFF1CFCE0BF12AECFB4
:101FF0000F5F1F4F0430110509F08FCF8FEF8983DA
:102000008A831B820E94F9248160782F9D838C83B0
:1020100049815A816B818D810E941A05C1CF2A9610
:102020000FB6F894DEBF0FBECDBFDF91CF911F91E9
:102030000F91FF90EF90DF90CF90BF90AF909F9067
:102040008F90089590E080E008950895FC01EE0FD0
:10205000FF1FEE5DFC4F859194910895CF93DF9320
:102060000E944511EC01811520E5920708F042C05D
:10207000811530E4930708F0BDC0883E910528F52E
:10208000803E910508F09DC0883A910588F4853A14
:10209000910508F08FC08130910509F492C0009736
:1020A00009F48FC0049708F08CC0D0E0C0E089C06C
:1020B0008F3B910508F489C0805C9109C03CD10533
:1020C000A0F30E942610EC017CC08115904250F4D0
:1020D000C11581E0D80708F074C0C03FD10528F3CE
:1020E000D0656FC0C11590E3D90708F079C0CE0163
:1020F0009F70E7CF811525E5920758F5811534E5E6
:10210000930708F0A6C0811542E5940750F4C11565
:1021100081E5D80708F471C0DC2FCC27C16FD06AE5
:1021200050C0982F969596959E0123703327C11520
:10213000D34508F07FC0C1E0D0E002C0CC0FDD1F66
:102140002A95E2F720E2929FC0011124C82BD92BD7
:102150006FC0C11589E5D807A8F4C11598E5D9075E
:1021600008F07CC0C11526E5D20708F09ECF8C2F61
:102170000E94DC11C82FD0E0DC2FCC27CC27DF71E8
:10218000D0621FC0C1153AE5D30708F46CC0CE0178
:1021900090568115904208F088CF8D2F8F710E9444
:1021A000DC1190E0982F882788279F719C012C2BA9
:1021B000E901E6CFC55AD0E0C557DE4FC881D0E06F
:1021C000D064CE01DF91CF910895C85AD0E0CC0FF2
:1021D000DD1FC35ADE4F0990D881C02DD464F1CFE2
:1021E000CE019927D3FF03C0EC01D86CEACFEC01F4
:1021F000D06CE7CFDF70D06AE4CFCE01E4E09695F3
:102200008795EA95E1F783702C2F26952695237004
:1022100090E2299F90011124382B8C2F8370C1E00C
:10222000D0E002C0CC0FDD1F8A95E2F7C22BD32B82
:10223000DC68C7CFC1E0D0E002C0CC0FDD1F2A951B
:10224000E2F730E2939FC0011124C82BD92BDA6842
:10225000B8CFD82FCC27C46FD06AB3CFDC2FCC2710
:10226000C06FD06AAECF8C2F8F700E94DC1134E02B
:10227000D695C7953A95E1F7CF709C2FEC01D069C0
:10228000A0CF0E948F210C942E1082389105B1F1BD
:10229000B0F48133910509F475C048F48932910591
:1022A00009F469C08A32910509F473C00895853331
:1022B000910509F459C08933910501F10895833ED0
:1022C0009105A9F138F4803E9105F9F0823E91051F
:1022D00049F10895863E9105A9F1873E9105C9F11E
:1022E000843E910519F52091A80221FF1FC080911D
:1022F000A70284FD14C087EE90E008952091A70204
:102300002370A1F080EE90E008952091A70220FDB7
:1023100047C03091A80230FF09C024FF44C090E0BC
:1023200080E004C02091A70222FDF7CF08952091FC
:10233000A70222FD3BC03091A80230FDE3CF24FF6D
:10234000F5CFEDCF2091A70223FFF0CF24FDE7CFFB
:10235000D2CF2091A70223FD2CC03091A80231FFDB
:10236000EECF84EE90E008952091A70225FFDECF06
:1023700089E290E008952091A70225FFD7CF85E359
:1023800090E008952091A70226FFD0CF8AE290E046
:1023900008952091A70226FFC9CF81E390E0089518
:1023A00089E390E0089583EE90E0089582EE90E056
:1023B000089586EE90E008959091A70292FF06C0DE
:1023C000282F28712830F9F4877F846093FF06C096
:1023D000282F28712831F1F4877E84612091A8028A
:1023E00020FF06C0382F38713830D9F4877F8160DC
:1023F00021FF06C0282F28712831D1F4877E816102
:1024000094FD877E0895282F24712430F9F68B7F60
:102410008860DCCF282F2471243101F78B7E8861FE
:10242000DDCF382F3171313019F78E7F8860E0CFE2
:10243000282F2171213121F78E7E8861E1CF80E044
:1024400008950C947E0E0E9423138FE39CE901975C
:10245000F1F700C000000E94231380E00E9459128F
:1024600080FF04C00E9421120C94442508950C940E
:1024700023120E94840E811102C00E94280F0E9424
:102480008F0E809357020E94970E9093A80280931C
:10249000A7020E9437120E94930E0E942B0980917E
:1024A000E7010C943E0908950C94531208950C947E
:1024B0005612E82FF0E0EE0FFF1FEF54FD4F808122
:1024C00091810895089580EA8A95F1F7089500C0F2
:1024D00008950C946312F894E82FE295EF70F0E001
:1024E00031A1282F2F7081E090E001C0880F2A953C
:1024F000EAF7982F9095932391A392A1892B82A319
:1025000078940895CF93DF9386EF0E946B1283E354
:102510000E946B1282E30E946B1286E30E946B1290
:10252000CEE8D1E089918F3F11F00E946B1281E0DB
:10253000CA39D807B9F7DF91CF910895AF92BF920A
:10254000DF92EF92FF920F931F93CF93DF938C0153
:10255000D62EC62FD0E0CE0186569E4F7C01FC01C0
:1025600020812F3F09F44DC0F894E22FE295EF70DF
:10257000F0E031A12F7081E090E001C0880F2A9532
:10258000EAF7932F982B91A392A18095892382A398
:1025900078940E946712EEE8F1E04AE951E021E008
:1025A00030E0B12CA12C61916F3FA9F1A62FA2952B
:1025B000AF70B0E090968C9190E06F7002C09595EE
:1025C00087956A95E2F780FD26C0C901A82AB92A35
:1025D000220F331F4E175F0731F7F70180818F3FBE
:1025E00011F00E946B1261E0A114B10409F460E0E3
:1025F0008D2D0E946912CC0FDD1FC00FD11FB98233
:10260000A882DF91CF911F910F91FF90EF90DF9003
:10261000BF90AF90089590E080E0D8CF0E948212E2
:1026200088E0E1EBF2E0DF01982F1D929A95E9F73F
:10263000E9EAF2E0DF011D928A95E9F784E00E9461
:102640006E130C94B203FF920F931F93CF93DF93FB
:10265000CDB7DEB728970FB6F894DEBF0FBECDBF5B
:102660008E010F5F1F4F88E0F80111928A95E9F7FC
:10267000F12C6F2DC8010E949E12F394F4E0FF121A
:10268000F8CF48E050E0B80189EA92E00E94D530E6
:10269000FF24F394009709F4F12C892B41F088E092
:1026A000F801A9EAB2E001900D928A95E1F72F2D89
:1026B00044E061EB72E089EA92E00E946F130E94AD
:1026C000B8038F2D28960FB6F894DEBF0FBECDBF8E
:1026D000DF91CF911F910F91FF9008950895FF9280
:1026E0000F931F93CF93DF93F82E092F162FD72F19
:1026F000C42F222349F081E080935A020E94F924DA
:10270000909359028093580280915A028823A1F035
:1027100080915802909159020E941125059760F00E
:10272000EF2DF02FA12FBD2F90E080E0D0E08C178F
:102730009D0744F010925A02DF91CF911F910F91A3
:10274000FF900895219131912D933D930196EFCF04
:102750000E942C270E94640F0C9438270E943C276B
:102760000E946E0F0C9456270E9482240E94132709
:102770000E94500F0E94A8130E94AE130E94600F87
:10278000FBCF8091610280FF12C06091090185E05A
:10279000689FB001112475956795759567956038A8
:1027A0007105A8F561157105A1F1862F089581FFC6
:1027B00009C06091090185E0689FB00111247595F9
:1027C0006795EDCF6091090182FD0AC0809160029A
:1027D0008823D1F09091080160910901891728F0B0
:1027E00085E0689FB0011124DACF869FB0011124E3
:1027F00085E0869F9001879F300D1124692F70E03E
:10280000C9010E944830CBCF65E070E0CECF8FE7A2
:10281000089581E008958091610280FF0CC060916D
:10282000050170E07595679575956795611571055A
:1028300049F1862F089581FF06C06091050170E07F
:1028400075956795F3CF6091050182FD0BC090915E
:102850005F029923A1F06091040180910501961710
:1028600038F0682F70E06038710500F38FE7089545
:10287000899FC001112470E00E944830F4CF61E0CC
:1028800070E0D7CF81E00895803F31F40E94C113FA
:102890008195809365020895813F19F40E94C113C8
:1028A000F8CF823F31F40E94C11381958093640276
:1028B0000895833F19F40E94C113F8CF893F29F48A
:1028C0000E940B148093660208958A3F21F40E94AF
:1028D0000B148195F7CF8B3F31F40E940B14819537
:1028E0008093670208958C3F19F40E940B14F8CF6F
:1028F0009CE0980F953070F4845F990B21E030E0F4
:1029000001C0220F8A95EAF780916302822B80939F
:10291000630208958D3F31F480916102816080935C
:10292000610208958E3F21F4809161028260F7CFA9
:102930008F3FB9F7809161028460F1CF40916402CA
:10294000803F59F48091650287FF0DC010926502A7
:1029500041110BC01092600208C0813F81F4809148
:10296000650218169CF3442381F0809166029091D1
:102970006702892B09F05AC010925F020895823FC6
:1029800049F447FFF0CF10926402809165028111F3
:10299000ECCFE0CF833F19F41416ACF3E4CF909161
:1029A0006602893F29F41916F4F610926602DBCF0D
:1029B0008A3F19F497FFD7CFF8CF909167028B3FEA
:1029C00029F497FFD0CF10926702CDCF8C3F19F436
:1029D0001916CCF3C8CF9CE0980F953090F4845F23
:1029E000990B21E030E0B90102C0660F771F8A958C
:1029F000E2F7CB0180959091630289238093630273
:102A0000B2CF8D3F31F4809161028E7F809361025D
:102A1000AACF8E3F21F4809161028D7FF7CF8F3F47
:102A200009F0A1CF809161028B7FF0CF08950E94C1
:102A3000F9249C019091640280916502982B21F009
:102A400030935E0220935D0290916602809167024E
:102A5000982B21F030935C0220935B0282E692E097
:102A60000C947223EF92FF920F931F93CF93DF93F7
:102A700000D000D000D0CDB7DEB786E0E2E6F2E0CD
:102A8000DE01119601900D928A95E1F7E0906402C3
:102A9000F090650200916602109167021092640244
:102AA0001092650210926602109267028E2D8F2995
:102AB00091F080915D0290915E020E941125AC011F
:102AC00090916002992309F43FC080910A01841714
:102AD000150608F447C0802F812B91F080915B028E
:102AE00090915C020E941125AC0190915F029923A4
:102AF00009F477C0809106018417150608F47FC099
:102B00008091640290916502892B90916602892BD5
:102B100090916702892B11F00E94171586E0FE0143
:102B20003196A2E6B2E001900D928A95E1F72696E1
:102B30000FB6F894DEBF0FBECDBFDF91CF911F91CE
:102B40000F91FF90EF90089520910B018AE0289F4C
:102B5000900111242417350708F0BDCF9F5F909393
:102B6000600202C09F3FD1F7EE2059F00E94C113CE
:102B70009FEF1E140CF491E0899F802D1124809307
:102B80006402FF2059F00E94C1139FEF1F140CF440
:102B900091E0899F802D1124809365023091640219
:102BA000332309F498CF20916502222309F493CFAF
:102BB00045EB3403C0011124992359F0909364022A
:102BC00045EB240390011124332339F0309365023F
:102BD00082CF81E080936402F3CF81E0809365022D
:102BE0007ACF209107018AE0289F900111242417B1
:102BF000350708F085CF9F5F90935F0202C09F3F2B
:102C0000D1F7002359F00E940B149FEF10160CF41B
:102C100091E0899F802D112480936602112359F041
:102C20000E940B149FEF11160CF491E0899F802DE8
:102C300011248093670230916602332309F460CF38
:102C400020916702222309F45BCF45EB3403C001D6
:102C50001124992359F09093660245EB24039001C7
:102C60001124332339F0309367024ACF81E08093F7
:102C70006602F3CF81E08093670242CF86E0E2E60E
:102C8000F2E0DF011D928A95E9F71092600210923E
:102C90005F02109261020895EF92FF920F931F93CB
:102CA000CF93DF93EB01E82FD11110C0442321F023
:102CB000F0E0E75CFC4FE4916E2F7E2F8E2FDF91CA
:102CC000CF911F910F91FF90EF9008950D2F10E07D
:102CD000282F30E0442329F0275C3C4FF901249150
:102CE00030E0F6E0CF9FC0011124EFEFF0E0BF012C
:102CF0000E943430AB018C2F90E0880F991FA5E51E
:102D0000A49FB001A59F700D1124861B970B982FCF
:102D1000990F980FBF01601B710B629FD001639FD9
:102D2000B00D729FB00D11248B2F9D9FB001112407
:102D3000672F7727EF01C61BD70BBE01629FE0010B
:102D4000639FD00D729FD00D11247F01E91AF10805
:102D5000E09EB001E19E700DF09E700D1124672F72
:102D60007727E61BF70BE29F8001E39F100DF29F90
:102D7000100D1124E12F722F4230510599F048F4C3
:102D80004115510569F04130510581F0EB2F8D2F30
:102D900007C04430510569F080F046305105B1F765
:102DA0006E2F8DCFE22F7B2F812FFACFE22F7D2F39
:102DB000F7CFEB2F822F712FF3CF7B2F822FED2FA9
:102DC000EFCF41E00C944C1608950C94E116CF938C
:102DD000DF93762FE901682F842F0E94E51679830F
:102DE00068838A83DF91CF910895473908F046E9D7
:102DF0000C94E7168091B902982F9E7F61F4817040
:102E000082608093B9028091BC02873918F086E90C
:102E10008093BC0208958A34B0F381708864F1CF46
:102E200088E090E00C94EA30CF92DF92EF92FF922C
:102E30006B017C010E94FA16B701A60188E090E0C0
:102E4000FF90EF90DF90CF900C9408316091B90221
:102E50007091BA028091BB029091BC020C9414173D
:102E6000E9EBF2E083E0808311828FEF828386E9D1
:102E70008383148260817181828193810C94141701
:102E80008091B90280FF02C08695089580E0089580
:102E90009091BD02933018F49F5F9093BD028823F8
:102EA00051F06091B9027091BA028091BB02909189
:102EB000BC020C941417089581E00C94481790916B
:102EC000BD02992319F091509093BD02882351F0CF
:102ED0006091B9027091BA028091BB029091BC02DC
:102EE0000C941417089581E00C945F178091BD0233
:102EF00008958093BD02662351F06091B9027091EC
:102F0000BA028091BB029091BC020C9414170895F0
:102F100060E00C9479178091BA0208958091BB0209
:102F200008958091BC02089570E00C94C91D6091D1
:102F300010018091B90280FF0AC080910F0123E047
:102F4000829FC001112482549D4F0C94941780914C
:102F500011019091120123E0829FF0011124E254AB
:102F6000FD4F891750F71182108212828F5F3396BE
:102F7000F8CF9091B90290FF14C090911101209167
:102F8000120133E0939FF0011124E254FD4F921798
:102F900010F00C9497178183608342839F5F339670
:102FA000F6CF0895CF93DF9300D00F92CDB7DEB761
:102FB0009091B90290FF0AC09E012F5F3F4F0E947F
:102FC000F5164B8169818A810E94B9170F900F9085
:102FD0000F90DF91CF910895CF93DF93EC016C8137
:102FE00070E090E080E00E94272E20E030E04FE784
:102FF00053E40E944A2D2BED3FE049E450E40E9447
:10300000502F0E94BD2F0E94C42D2BE43AE34EE2C4
:103010005FE30E94DD2C20EF3BEF48ED52E40E947D
:10302000502F0E94F62D462FE9EBF2E0628181815C
:103030000E94D2178C818F5F8C83DF91CF9108958E
:10304000CF93DF93EC01E9EBF2E0438162818C8165
:103050000E94D2178C818F5F8C83DF91CF9108956E
:103060000F931F93CF93DF9300D00F92CDB7DEB7AE
:103070008C018091680281110AC09E012F5F3F4F31
:1030800046E96FEF0E94F5168A8180936802F80185
:103090006481613069F08091680240E0662361F0EC
:1030A00040E0623011F44091680280E060E004C0CA
:1030B0006091680240E080E00E94B917F8018481C5
:1030C00090E0019663E070E00E94483084830F90A6
:1030D0000F900F90DF91CF911F910F910895AF92B4
:1030E000BF92CF92DF92EF92FF920F931F93CF93F5
:1030F000DF9300D00F92CDB7DEB7182FF62E042F36
:10310000E22E9091B90290FF29C0E92FE695AE2FEB
:10311000B0E0A256BE4F8C91809374029E7F923095
:1031200059F59E012F5F3F4F812F0E94F5164B816D
:1031300069818A810E94B9171093BA02F092BB028A
:103140000093BC02EE2051F06091B9027091BA0276
:103150008091BB029091BC020E9414170F900F90B7
:103160000F90DF91CF911F910F91FF90EF90DF9023
:10317000CF90BF90AF900895823019F40091BC02B7
:10318000DBCF863019F41091BA02D6CF8930D9F34B
:10319000893191F6E9518E2F8170D82EE695F0E0B5
:1031A000EC5CFC4FA590B490C12CBB246091130142
:1031B000C61618F00E949717BFCF2C2D30E0A29EA4
:1031C000C001A39E900DB29E900D112470E00E944C
:1031D0003430812FD11013C0860F40911101420F5E
:1031E000532F511D9A01220F331F240F351F2254D4
:1031F0003D4F402F6F2D0E94F516C394D7CF861BED
:10320000ECCFE9EBF2E09181282F4381628188E0E5
:10321000890F0C946F1881E00C940119E9EBF2E02E
:103220009181282F4381628188EF890F0C946F1858
:1032300081E00C940E19E9EBF2E0628128E0620F64
:1032400008F46FEF282F438181810C946F1881E07F
:103250000C941B19E9EBF2E0628128E0621B08F490
:1032600060E0282F438181810C946F1881E00C94D9
:103270002A19E9EBF2E0438128E0420F08F44FEF0E
:10328000282F628181810C946F1881E00C94391988
:10329000E9EBF2E0438128E0421B08F440E0282FEC
:1032A000628181810C946F1881E00C94481920E0B0
:1032B0000C946F18EF92FF921F93CF93DF93EC0162
:1032C00010E0EE24EA94F12C60911301161770F0CF
:1032D0000E9497179A818C8190FF27C08F5F8C8303
:1032E000DF91CF911F91FF90EF90089520911101F0
:1032F000422F410F5527551FCA019A01220F331F34
:10330000280F391F22543D4F70E0C7010E944830FA
:10331000962F8C814091BC026091BB02199F800D59
:1033200011240E94F5161F5FCFCF8150D8CFAF92E6
:10333000BF92CF92DF92EF92FF920F931F93CF93A2
:10334000DF93FC0182810FEF80FF01E010E041E19B
:10335000A42E809113011817C8F00E94971780912E
:103360006A02013009F055C0811102C08091130139
:10337000815080936A02DF91CF911F910F91FF904E
:10338000EF90DF90CF90BF90AF900895C091110162
:10339000C12ED12CCC0DDD2DD11DCE01880F991F52
:1033A000C80FD91FC254DD4F198218821A8234E027
:1033B000E32EF12CB12C80916A028B0D82311CF12D
:1033C0006A2D0E942630892F082E000C990BC816F2
:1033D000D90691F48091BC028E9DA0018F9D500D65
:1033E000112455954795559547959E016091BB02CF
:1033F0008091BA020E94F516B00EF1E0EF1AF108C2
:10340000D1F61F5FA6CF87FFDFCF90911301890F01
:10341000DBCF90E001966091130170E00E9448308C
:10342000A8CF0F931F93CF93DF93809111019091B9
:10343000120123E0829FF0011124E254FD4F89170D
:1034400040F1C0E0D3E060911301C61740F10E9443
:10345000971720910D0180916902820F8093690274
:1034600090910E01920F90930E01191654F4082EAC
:10347000000C990B409113014150550B841795078F
:103480001CF0219520930D01DF91CF911F910F9199
:1034900008951182108212828F5F3396D0CF0C2F45
:1034A00010E070E0C8010E94483020911101820FA5
:1034B000482F50E020916902022E000C330B0217B6
:1034C0001307BCF020910E01022E000C330B2017C5
:1034D00031077CF08D9F9001112422543D4F409183
:1034E000BC026091BB028091BA020E94F516CF5FC8
:1034F000AACFFA01EE0FFF1FE40FF51FE254FD4FB4
:10350000118210821282F3CF8F929F92AF92BF925C
:10351000CF92DF92EF92FF920F931F93CF93DF939F
:10352000EC014C81042F10E09801D8010E949330E7
:103530009B01AC010E94A9304B015C01E0E2F0E08C
:10354000E01BF10BA5E5B0E0AC019B010E94A930A6
:103550006B017C019F01DF010E948B309B01AC015C
:103560000E94B4309B01AC01280D391D4A1D5B1D22
:10357000C701B6010E945C30F22E822F90E039E242
:103580003F1560F143E0249F900111243595279564
:10359000122F109500E085E5E82EEF1880911301B9
:1035A000081758F10E9497179C8181E0992319F020
:1035B000903219F48FEF80930C0180910C01890FE8
:1035C0008C83DF91CF911F910F91FF90EF90DF904F
:1035D000CF90BF90AF909F908F90089525E530E0F9
:1035E000B901681B790B9B01220F331F260F371F70
:1035F00037FFCCCF2F5F3F4FC9CF8E2D01FD8F2DD1
:1036000020911101622F600F7727771F9B01220FF6
:10361000331F260F371F22543D4F412F6091BB02AD
:103620000E94F5160F5FBACF0F931F93CF93DF93CE
:10363000EC0110E000E0909113019017110609F0E1
:103640006CF40E9497178C8190E001968170992705
:103650008C83DF91CF911F910F91089520911101DB
:10366000A801420F511D9A01220F331F240F351F4D
:1036700022543D4F4C816091BB028091BA029695D5
:103680009017110651F04CF0442349F04091BC02D0
:103690000E94F5160F5F1F4FCECF4423B9F340E0D1
:1036A000F7CFE9EBF2E080818E7F808360817181CA
:1036B000828193810E941417109275022FEF80E788
:1036C00092E0215080409040E1F700C000000C944F
:1036D0009717E9EBF2E080818E7F8083109275026C
:1036E0002FEF80E792E0215080409040E1F700C04A
:1036F00000000C949717109275028091720281114C
:103700000AC081E0809372028091B9028170809337
:1037100071020C94691B08956091B902669570E07E
:103720004BE050E084E191E00E94C830892B19F40D
:1037300081E0809375020E94F92490936C0280933B
:103740006B0208959091B90290FF35C0917081117C
:1037500028C092609093B902662351F06091B9023B
:103760007091BA028091BB029091BC020E94141722
:103770006091B902669570E04BE050E084E191E021
:103780000E94C830892BA1F01092750281E08093CD
:103790006E024091BC026091BB028091BA020C940F
:1037A0005719853210F09864D5CF880F982BD2CF57
:1037B0000E948C1BEBCF0895682F9091B9029695CB
:1037C00081E0890F853208F081E00C94A21B81E032
:1037D0000C94DC1B682F9091B90296958FEF890F9E
:1037E00009F484E20C94A21B81E00C94EA1B61E0D2
:1037F0000C94A21BE9EBF2E08081816080838695C6
:103800000C94F71B8091B90280FD0C94511B0C9411
:10381000FA1B60E00C94A21B8091730281112EC0F0
:103820000E94840E811104C00E94280F0E9430174C
:103830000E9410176093B9027093BA028093BB0282
:103840009093BC026E7F61F40E9430170E941017A3
:103850006093B9027093BA028093BB029093BC024A
:103860000E94FA16109275028091B90280FF03C07F
:1038700086950E94091C81E0809373020895E9EB0C
:10388000F2E080818160808386950C94091C1092FF
:1038900072028091710281110E943F1C0C948C1B5A
:1038A0000F931F93CF93DF9380917502882309F4C0
:1038B00086C080917402E091B902E695E81BE0931E
:1038C0006D02823091F5F0E0E05DFC4FE491CE2F87
:1038D000D0E00CEE17E180916E02882361F0109227
:1038E0006E020E94F92490936C0280936B021092F6
:1038F000700210926F020E94F924E0916B02F09125
:103900006C028E1B9F0B8F3F9F4708F058C0EC0F37
:10391000FD1FF0936C02E0936B028BE692E0F801DE
:10392000DF91CF911F910F910994863049F4F0E017
:10393000E35DFC4FE491CE2FD0E000E218E1CBCF65
:10394000893051F4E695F0E0E65DFC4FE491CE2F2E
:10395000D0E00AE519E1BFCF8F3051F4E695F0E0F1
:10396000E95DFC4FE491CE2FD0E007E919E1B3CF38
:10397000853149F4F0E0EC5DFC4FE491CE2FD0E0CE
:1039800001E11AE1A8CFC8E2D0E004E81AE18831E9
:1039900009F4A1CF833239F4E2E2F3E0C591D49186
:1039A00000E318E198CFC4EFD1E004E11BE18432D9
:1039B00009F491CFC0EDD7E004EE16E18CCFDF9192
:1039C000CF911F910F910895FA01811101C0FB0160
:1039D0000994CF93DF93C82FD62F0E9440178C17DE
:1039E00040F00E9440178D1720F4DF91CF910C9486
:1039F000E71B8C2FDF91CF910C94F71B1F93CF9374
:103A0000DF93EC01FB011281112309F4C0C00E9475
:103A10009D0D8272CC3CFCE5DF0709F49CC008F0E8
:103A200044C0C63CECE5DE0709F481C0F0F4C33CB9
:103A30009CE5D90709F471C048F4C23CDC4509F49F
:103A400069C0812FDF91CF911F910895C43C9CE5FF
:103A5000D90709F467C048E159E16BE079E1C53C59
:103A6000DC4579F70E94E41C53C0C93CFCE5DF0744
:103A700009F467C068F4C73CECE5DE0709F45CC0F4
:103A800047E259E166E379E1C83CDC4559F3D9CF17
:103A9000CA3C9CE5D90709F459C043E757E16CE5F6
:103AA00077E1CB3CDC45F1F2CCCFC13DFCE5DF0753
:103AB00009F462C098F4CE3C9CE5D90709F454C0DF
:103AC00008F44EC0CF3CFCE5DF0709F452C0C03D0E
:103AD000DC4509F0B6CF6EE089E048C0C43D9CE506
:103AE000D90709F44FC058F4C23DFCE5DF0709F4DB
:103AF00046C0C33DDC4509F0A4CF88E132C0C53DD6
:103B00009CE5D90709F441C0CD35DD4509F099CFD1
:103B100010E097CF0E94021CFBCF44EF5BE167EE01
:103B20007BE1A0CF47EE5BE164EF7BE19BCF4BE015
:103B300059E168E179E196CF46E359E167E279E13D
:103B400091CF44E559E165E479E18CCF45E459E151
:103B500064E579E187CF4CE557E163E777E182CF10
:103B600081E00E94F71BD4CF65E082E00E94E91C4F
:103B7000CFCF68E086E0FACF64E18FE0F7CF67E16E
:103B800085E1F4CF62E289E1F1CF83E2EACF11E08F
:103B900058CF219A45B14D7F55B15260EFB7F89497
:103BA0009B01220F331F260F371F280F391F28179D
:103BB000390741F4EFBF8FE594E00197F1F700C0BA
:103BC00000000895DC016D91CD0178E055B9000049
:103BD00000C067FF45B9660F000000C000C000C00C
:103BE00045B900C07A9591F7E2CF83E290E00E9458
:103BF000E230823289F484E290E00E94E230853043
:103C000059F485E290E00E94E23091E0893109F0B8
:103C100090E0892F8170089580E0FCCFCF93C82F6A
:103C20006FEF811162E283E290E00E94F6306FEF65
:103C3000C11165E084E290E00E94F6306FEFC1119F
:103C400069E185E290E0CF910C94F630089586E228
:103C500090E00E94E230682F70E090E080E00895EC
:103C600086E290E00C94F63080E00E940E1E60E048
:103C700070E0CB010E94301E0E9407210E94F321B8
:103C800081E00C940E1E0E94261E0E94F51D8111DB
:103C900002C00C94341E0895CF93FB01C281CC2343
:103CA00009F19C0122513F452031310520F5825117
:103CB0000E940322C0E08C2FCF91089581E00E94E2
:103CC000510943E062E081E00E94A903F3CF81E063
:103CD0000E945C0943E062E081E00E94A903EBCF0F
:103CE00082E0F6CF8031FFE59F0789F381319F4560
:103CF000B9F3C1E0E0CF8031EFE59E07F9F2813101
:103D00009F45C9F682E0DBCF2FEFFC0120830895A9
:103D1000CF93DF93EC0188818138A9F028F48038B3
:103D200071F0DF91CF910895823881F08338C9F71F
:103D30000E948B1789830E948E178A83F2CF0E947C
:103D400091178983EECF0E944017FBCF0E94761710
:103D5000F8CFCF93DF93EC0188818138E1F028F42C
:103D6000803869F0DF91CF910895823811F183385E
:103D7000C9F70E949117482F6A81898108C0D981AB
:103D80000E948E17C82F0E948B174D2F6C2FDF912A
:103D9000CF910C94571989810E94091C8981811146
:103DA00004C0DF91CF910C94691BDF91CF910C94EB
:103DB0003F1C8981DF91CF910C948817EF92FF927D
:103DC0000F931F93CF93DF93EC01062FDC01ED914E
:103DD000CD01E150E33108F0ADC0F0E0E65BFE4C10
:103DE0000C947E30198289E08A83602FCE01DF91A6
:103DF000CF911F910F91FF90EF900C94EC2589814A
:103E0000823069F0833071F08130D9F40E94052549
:103E10000E9484306A837B838C839D83E6CF0E94DB
:103E2000271EF6CF7E0110E0812F0E945912F70164
:103E3000928383831F5FF2E0EF0EF11C1430A1F731
:103E4000D4CF602FCE010E94841ECFCF89818230D3
:103E5000C1F76A817B818C819D810E9484300E94A0
:103E6000301EC3CF4B816A8189810E94D920982757
:103E7000892798279D838C83B8CF2C813D81322759
:103E8000232732274B816A8189810E94F220ADCF9E
:103E90000E940721AACF0E94A91EA7CF0E94881EB8
:103EA000A4CF0E942617A1CF0E949C2189839DCF79
:103EB0000E949E219827892798279A83898395CFE6
:103EC0006B8170E089819A81AE014C5F5F4F9827CA
:103ED000892798270E94A12188CF6B8170E0898172
:103EE0009A81AE014C5F5F4F9827892798270E94DF
:103EF000C8217BCF0E94F32178CF0E94C720D6CF64
:103F00006B8170E089819A81AE014C5F5F4F982789
:103F1000892798270E943F2168CF6B8170E08981B3
:103F20009A81AE014C5F5F4F9827892798270E949E
:103F300065215BCF8FEF888358CFCF93DF93EC0160
:103F4000FB018281882309F420C1C330FDE5DF072E
:103F5000C8F5CA3F9CE5D90730F49E0122503C4584
:103F60002431310598F50E94970E9093A802809312
:103F7000A702C031FCE5DF0709F4E0C008F061C02A
:103F8000C8309CE5D90709F4CBC088F5C430FCE5FE
:103F9000DF0709F4B3C0E8F4C2309CE5D90709F49F
:103FA000A7C08091A7028260C330DC4509F4A3C09A
:103FB0008091A7029091A8020E94A50E0E94D808A5
:103FC00080E004C0C136EDE5DE0769F2DF91CF91F4
:103FD00008958091A7028061C630FCE5DF0709F4EF
:103FE0008AC008F48FC08091A702806284C080914B
:103FF000A7028D7FCC309CE5D90709F47CC070F412
:104000008091A7028C60CA30FCE5DF0709F473C019
:1040100008F48AC08091A7028E7F6DC08091A702AC
:10402000877FCE309CE5D90709F465C08091A7024F
:104030008B7FCF30DC4508F45EC08091A7028F7E75
:104040005AC0CC3FFCE5DF0709F474C040F5C43129
:104050009CE5D90709F48AC058F4C231FCE5DF07B2
:1040600009F474C008F46EC08091A702837F43C036
:10407000CA3F9CE5D90709F449C008F04DC0C531D5
:10408000DC4509F095CF8091A70282FB992790F932
:1040900021E0922790FB82F990FB83F92CC0C11597
:1040A0008DE5D80709F458C088F48091A802836090
:1040B000CE3FECE5DE0769F18091A8028D7FCF3F0E
:1040C000DC4538F18091A8028C7F23C0C2308DE599
:1040D000D80709F458C008F452C0C136DD4509F0CC
:1040E00067CF9091A702892F8F7E94FF806103C0D4
:1040F0008091A70281608093A7025ACF8091A70286
:104100008460F9CF8091A7028860F5CF8091A802E2
:1041100081608093A8024CCF8091A8028260F9CF81
:104120008091A7028064E7CF0E94D8088091A702FF
:104130008068E1CF8091A8028E7FEBCF8091A702AB
:104140008F7DD9CF8091A7028F7BD5CF0E94D808D1
:104150008091A7028F77CFCF8091A802982F90955A
:1041600091708E7F892B90FB81F9D3CF0E94D80864
:104170009091A702892F97FB87F98058BCCF81E0E7
:104180000E942A0F15CF80E0FBCF81E01FCF84E093
:10419000089550E0440F551F98E1699F400D511D4F
:1041A000112490E6899F400D511D1124CA01879664
:1041B00008950F931F93CF93DF930E94C9208C0122
:1041C0000E94E230C82FD0E0DC2FCC27C801019636
:1041D0000E94E2309E01282BC901DF91CF911F91EF
:1041E0000F9108950F931F93CF93DF93122F032FF7
:1041F0000E94C920EC01602F0E94F630612FCE0191
:104200000196DF91CF911F910F910C94F630AF92F0
:10421000BF92CF92DF92EF92FF921F93CF93DF93E3
:1042200082EFC82E80E0D82ED0E07601C0E014C026
:10423000F50125913491412F6C2F8D2F0E94F22092
:1042400082E0A80EB11C1F5F1C3091F788E1E80ED8
:10425000F11CCF5FC43019F0570110E0E9CFDF5FE8
:1042600080E6C80ED11CD43001F7DF91CF911F91A9
:10427000FF90EF90DF90CF90BF90AF900895EF92B6
:10428000FF920F931F93CF93DF93EC018A017C0180
:10429000E60EF71ECE018796CE15DF0539F4DF91C5
:1042A000CF911F910F91FF90EF900895C03821E0BA
:1042B000D20740F40E94E230F80180830F5F1F4F65
:1042C0002196E8CFF8011082F9CFCF92DF92EF92DA
:1042D000FF920F931F93CF93DF937C016A018C01B0
:1042E000060F171FEC01CE018796C017D10749F4BE
:1042F000DF91CF911F910F91FF90EF90DF90CF90C2
:104300000895C03821E0D20740F4FE01EE19FF09FC
:10431000EC0DFD1D60810E94F6302196E4CF462F02
:10432000843038F4743028F46C3018F4672F0C940F
:10433000D92090E080E0089580E1089589E592E039
:104340000895EF92FF920F931F93CF93DF93EC01A9
:104350008A017C01E60EF71ECE0189559E4FCE15CF
:10436000DF0539F4DF91CF911F910F91FF90EF900E
:104370000895C93522E0D20740F40E94E230F801E6
:1043800080830F5F1F4F2196E7CFF8011082F9CF8E
:10439000CF92DF92EF92FF920F931F93CF93DF9311
:1043A0007C016A018C01060F171FEC01CE018955B3
:1043B0009E4FC017D10749F4DF91CF911F910F9104
:1043C000FF90EF90DF90CF900895C93522E0D2079B
:1043D00040F4FE01EE19FF09EC0DFD1D60810E9405
:1043E000F6302196E3CFCF93DF93C7EAD1E060E0C8
:1043F000CE010E94F6302196C11584E0D807B9F7A6
:10440000DF91CF910895DF92EF92FF920F931F9368
:10441000CF93DF9300D000D0CDB7DEB7F82E8FE07A
:104420008F1540F08FEF93E00E94E23007EA11E031
:104430008823C1F00F900F900F900F90DF91CF91D4
:104440001F910F91FF90EF90DF900895011584E088
:10445000180781F3C8010E94E230811101C0FA946B
:104460000F5F1F4FF110F2CF19821A821B821C823C
:10447000DD24D39478018FEFE81AF80AC8010E946E
:10448000E23089831A828823A9F29FEF980F933034
:1044900078F48A83D9820E5F1F4FC7010E94E230F1
:1044A0008B83882339F2CE0101960E940705E2CF63
:1044B0008701F9CFCF93DF93EB0186319C4511F54E
:1044C0000E949D0D9A81992399F08A7A91E009F4CE
:1044D00090E090937602811109C089E20E94780DE4
:1044E0000E94ED0D80E0DF91CF91089585E3F6CF36
:1044F00080917602811104C089E20E947F0DF0CF85
:1045000085E3FBCF81E0EFCF0F931F93CF93DF9332
:10451000C42FD22FFC0182818823C9F040937902F5
:104520000E94F924909378028093770280E28C0FA6
:10453000883008F050C0C77081E001C0880FCA956C
:10454000EAF7DF91CF911F910F910C9464061091BF
:104550007902141335C080917702909178020E94FD
:104560001125883C910560F5C0E2CD0F1D17B9F00B
:1045700080E2810F883040F4177081E001C0880F1D
:104580001A95EAF70E946B06C83048F481E09D2F27
:10459000977001C0880F9A95EAF70E946406802FF1
:1045A0000E945C06C830B8F4D77081E001C0880F63
:1045B000DA95EAF7DF91CF911F910F910C946B067A
:1045C00080E28C0F883038F4C77081E001C0880F1A
:1045D000CA95EAF7EFCFDF91CF911F910F91089520
:1045E0000F939C01CB01233F4CE5340759F1A8F40C
:1045F000283DFCE53F0701F1293D4CE53407D1F1A9
:10460000273D3C4591F406E221EE41EE67ED7CE565
:104610000E94842280E00F910895253FFCE53F072A
:10462000E9F0B0F0263F3C45F9F0FC018281882397
:1046300039F110927902EFCF07E225EE45EE68EDF1
:104640007CE5E6CF06E221EE40EE63EF7CE5E0CFCD
:1046500007E225EE44EE64EF7CE5DACF06E221EED8
:1046600042EE65EF7CE5D4CF07E225EE46EE66EF3D
:104670007CE5CECF08E221E045EE69ED7CE5C8CFD0
:1046800081E0C9CF9093D3018093D2010895909394
:104690007F0280937E020895E0917E02F0917F0276
:1046A000309721F00190F081E02D099480E0089589
:1046B000E0917E02F0917F02309799F020912B01DA
:1046C000222359F02091A70227FF07C0DC012C917B
:1046D00011962C93119726E02C930280F381E02D04
:1046E00009940895E0917E02F0917F02309739F0AD
:1046F00022E0DC012C930480F581E02D09940895DB
:1047000020917C0230917D022817390771F0909337
:104710007D0280937C02E0917E02F0917F023097CF
:1047200021F00680F781E02D0994089520917A0206
:1047300030917B022817390771F090937B028093A8
:104740007A02E0917E02F0917F02309721F000849E
:10475000F185E02D09940895FC01329680912B019A
:10476000882321F08091A7029EE187FF96E080E0F8
:10477000915008F4089521912223D1F38F5FF8CF4F
:10478000662301F120912B012223F1F02091A70251
:1047900027FF1AC0462F4695469546954E3190F410
:1047A000677021E030E002C0220F331F6A95E2F704
:1047B000840F911DFC01828190E02823392381E040
:1047C000232B69F480E00895FC013296089621912C
:1047D000261721F0E817F907D1F7F4CF81E0089503
:1047E0009C01FC0132969FEF80E04191461751F009
:1047F0009F3F19F4411101C0982F8F5F8630A9F7B0
:104800009F3F09F40895290F311D97FD3A95F9014D
:1048100062830895FC01329608962191261303C005
:10482000DF0111971C92E817F907B9F70895E62FF1
:10483000E695E695E695EE3168F4E80FF92FF11D5F
:10484000677021E030E001C0220F6A95EAF78281AB
:10485000822B82830895E62FE695E695E695EE3164
:1048600070F4E80FF92FF11D677021E030E001C00E
:10487000220F6A95EAF720958281282322830895E2
:1048800020912B01222329F02091A70227FD0C94CF
:1048900017240C94F02320912B01222329F020913E
:1048A000A70227FD0C942B240C940A24FC013296B9
:1048B00080912B01882351F08091A70287FF06C0C9
:1048C0008EE1DF011D928A95E9F7089586E0F9CF20
:1048D00008950C946824811105C081E080938002C2
:1048E0000C94692482E0FACF83E0809380020C94D8
:1048F00069240C946B2481E0809380020C946924D9
:104900000C947B2408958091F902843031F10E9447
:10491000BA031092810288E190E020E40FB6F89487
:10492000A895809360000FBE2093600083B7817FBD
:10493000846083BF83B7816083BF7894889583B791
:104940008E7F83BF0FB6F894A89580916000886130
:1049500080936000109260000FBE0895089508953E
:10496000CF930E94AE240E9423130E94AF24C0E084
:104970008C2F0E945912892B31F4CF5FC430C1F7BC
:1049800080E0CF91089581E0FCCF0E94D8080C947C
:1049900031041F921FB61F9211248F939F93AF93E0
:1049A000BF9380918102811113C08091F102909197
:1049B000F202A091F302B091F4024196A11DB11D43
:1049C0008093F1029093F202A093F302B093F40269
:1049D000BF91AF919F918F911F901FBE1F9018950F
:1049E00082E084BD93E095BD9AEF97BD80936E0001
:1049F00008952FB7F8948091F1029091F202A0915E
:104A0000F302B091F4022FBF08952FB7F89460918C
:104A1000F1027091F2028091F3029091F4022FBFA3
:104A200008959C014FB7F8948091F1029091F202A1
:104A3000A091F302B091F4024FBF821B930B089533
:104A400078941F921FB61F9211248F939F93AF9358
:104A5000BF938091F1029091F202A091F302B09184
:104A6000F4020196A11DB11D8093F1029093F20210
:104A7000A093F302B093F402BF91AF919F918F91F5
:104A80001F901FBE1F90189587E797E79093010826
:104A90008093000888E19AE00FB6F894A895809377
:104AA00060000FBE90936000FFCF8091A502089533
:104AB00008959C0184E08093E9009FEF8091E800D5
:104AC000915085FD06C085ED8A95F1F700009111A2
:104AD000F5CF8091E80085FF0CC050E040E066E033
:104AE00070E0C9010E94FD278091E8008E778093D5
:104AF000E8000895CF93DF93EC0180912B01882388
:104B0000B1F18091A70287FF32C060E284E0809318
:104B1000E9008FEF9091E800815095FD06C095ED7A
:104B20009A95F1F700008111F5CF8091E80085FF9B
:104B30001BC080912B0170E050E040E0811104C067
:104B400050E040E068E070E0CE010E94FD278091D7
:104B5000E8008E778093E80080E2FE01A5E8B2E0ED
:104B600001900D928A95E1F7DF91CF91089568E069
:104B700081E0CDCF809382027093840260938302A0
:104B80008091F9028430F9F48093E9008FEF9091DD
:104B9000E800815095FD06C095ED9A95F1F700006B
:104BA0008111F5CF8091E80085FF0DC050E040E015
:104BB00063E070E082E892E00E94FD278091E800C7
:104BC0008E778093E8000895BC0184E00C94BA25A8
:104BD000BC0183E00C94BA25CF93FC01603221F52F
:104BE0008091F902843001F5C091E900CF702091E5
:104BF000EC00922F917020FD90E8C92B82E0809309
:104C0000E9008091E80080FF0CC050E040E060E2E5
:104C100070E0CF010E94FD278091E8008E7780939D
:104C2000E800CF70C093E900CF9108958091F80219
:104C3000811109C00E94DC290E94392A8091E2007A
:104C400084608093E20008951092F80208950C9415
:104C50007B246091F50281E0611101C080E00C9439
:104C600074249091F90281E0943009F080E0609121
:104C7000F5020C94792442E061EC81E00E9458290D
:104C800042E261EC84E00E94582942E261EC82E059
:104C90000E94582942E260EC83E00E9458299091DA
:104CA000F90281E0943009F080E06091F5020C9403
:104CB0006B248091FB02833009F462C030F48130B0
:104CC000D9F1823009F49EC008958A3009F48AC06F
:104CD0008B3009F470C0893009F051C08091FA021C
:104CE000813209F04CC08091FE029091FF02009742
:104CF00019F0029709F043C08091E800877F809304
:104D0000E8008091E80082FF36C09091F300809126
:104D1000F200029731F48091F100813011F0863079
:104D200021F48091F1008093A5028091E8008B77B7
:104D30008093E8000C948C298091FA02813AF9F46E
:104D40008091E800877F8093E8008091FE02909137
:104D5000FF02892B61F460E285E892E070E00E9436
:104D60009B288091E8008B778093E800089560E0AD
:104D700090E080E0F3CF8091F9028111C2CF0895D5
:104D80008091FA02813AD9F78091FE029091FF0258
:104D9000892BA9F78091E800877F8093E8008091B4
:104DA000E80080FFFCCF80912B018093F10080917F
:104DB000E8008E77BDCF8091FA02813201F78091B1
:104DC000FE029091FF02892BD1F68091E800877F47
:104DD0008093E8000E948C298091FC0280932B0133
:104DE0000C94D8088091FA02813249F68091E8004B
:104DF000877F8093E8000E948C298091FD02809338
:104E0000A60208958091FA02813A09F0B8CF809104
:104E1000E800877F8093E8008091E80080FFFCCF66
:104E20008091A602C2CF84B7877F84BF0FB6F89463
:104E3000A895809160008861809360001092600066
:104E40000FBE80E890E00FB6F894809361009093D5
:104E500061000FBE0C9480240E94DC290E94392A34
:104E6000E2EEF0E080818460808378940C94C22C20
:104E70008FE191E00C9447238091F9028530A9F4E9
:104E80008091F902853011F00C94C5240E9483248E
:104E90008091F7028823A1F30E94B024882381F334
:104EA0000E94E7270E94D808EBCF0895CF93DF93A5
:104EB000CDB7DEB7A0970FB6F894DEBF0FBECDBF5B
:104EC0008091F902843009F583E08093E9008091B4
:104ED000E80082FF1AC08091E80090E085FF09C0D9
:104EE00050E040E060E270E0CE0101960E944C2864
:104EF00091E08091E8008B778093E800992329F076
:104F000060E2CE0101960E94DE1EA0960FB6F894D4
:104F1000DEBF0FBECDBFDF91CF9108950C949027D7
:104F2000292F33272330310521F168F42130310551
:104F300009F443C02230310509F444C090E080E018
:104F400030E020E026C02132310551F12232310516
:104F5000A9F76330710590F7FB01EE0FFF1FEA53CD
:104F6000FE4F208131816D537E4FFB01808190E0A7
:104F700010C099278130910581F0009729F00297A0
:104F8000E9F6E9E3F4E002C0E9E5F4E0849190E0B9
:104F90009F01FA01318320830895E9E4F4E0F6CF1C
:104FA0006330710558F6660F771FFB01E453FE4F1F
:104FB0002081318189E090E0ECCF82E190E028EB24
:104FC00034E0E7CF8BE590E02DE534E0E2CF80E1FF
:104FD00089BD82E189BD09B400FEFDCF8091D80072
:104FE0008F7D8093D8008091E00082608093E00004
:104FF0008091E00081FDFCCF0895AF92BF92CF92E7
:10500000DF92FF920F931F93CF93DF936C01EB011D
:105010008A010E94AB29F82E811123C001151105C8
:1050200039F0F80180819181C81BD90BC80ED91EB7
:10503000B12CA12C2097A9F08091E80085FD22C019
:105040008091E8008E778093E80001151105A1F0AA
:10505000F80180819181A80EB91EB182A08285E0FD
:10506000F82E8F2DDF91CF911F910F91FF90DF9040
:10507000CF90BF90AF9008950E94AB298823D1F2C2
:10508000F82EEFCFF60181916F018093F100219707
:10509000FFEFAF1ABF0ACECFAF92BF92CF92DF928F
:1050A000FF920F931F93CF93DF936C01EB018A0163
:1050B0000E94AB29F82E811123C00115110539F08A
:1050C000F80180819181C81BD90BC80ED91EB12C63
:1050D000A12C2097A9F08091E80085FD22C0809145
:1050E000E8008B778093E80001151105A1F0F80125
:1050F00080819181A80EB91EB182A08285E0F82E30
:105100008F2DDF91CF911F910F91FF90DF90CF9066
:10511000BF90AF9008950E94AB298823D1F2F82E5A
:10512000EFCF8091F100F60181936F012197FFEF9E
:10513000AF1ABF0ACECFFC0180910003909101030A
:1051400086179707A0F06115710529F49091E80082
:105150009E779093E80090E06115710551F49111EC
:1051600008C08091E80082FF34C080E00895BC014F
:10517000F2CF8091F9028823C1F18530C1F180918D
:10518000E80083FD30C08091E80082FDEACF809185
:10519000E80080FFE1CF8091F3002091F200382FEA
:1051A0006115710519F02830310558F091E028306B
:1051B000310509F090E02091E8002E772093E80077
:1051C000CBCF81918093F100615071092F5F3F4FE8
:1051D000E7CF8091F902882341F0853041F080913A
:1051E000E80083FFBECF81E0089582E0089583E068
:1051F0000895FC01809100039091010386179707A1
:10520000A0F06115710529F48091E8008E778093F4
:10521000E80090E06115710551F4911108C080918A
:10522000E80082FF35C080E00895BC01F2CF809194
:10523000F9028823C9F18530C9F18091E80083FD26
:1052400031C08091E80082FDEACF8091E80080FFC4
:10525000E1CF8091F3002091F200382F61157105A4
:1052600019F02830310558F091E02830310509F067
:1052700090E08091E8008E778093E800CBCF849116
:105280008093F1003196615071092F5F3F4FE6CF57
:105290008091F902882341F0853041F08091E80047
:1052A00083FFBDCF81E0089582E0089583E00895F3
:1052B000982F973028F08F708093E90081E008954F
:1052C0009093E900242F762F50E0981731F07091D9
:1052D000EC002091ED005091F00021FD02C09F5F95
:1052E000E8CF3091EB003E7F3093EB003091ED0042
:1052F0003D7F3093ED003091EB0031603093EB0057
:105300007093EC002093ED005093F0002091EE009C
:1053100027FDE5CF80E008958091FA0287FF13C052
:105320008091E80082FF06C08091E8008B7780932F
:10533000E80004C08091F9028111F2CF08958091B4
:10534000F9028823D9F38091E80080FFF8CF80919B
:10535000E8008E77ECCF2091E4003091E50095E6EF
:10536000A9012091EC00822F817020FF06C080915E
:10537000E80080FF06C080E008952091E80022FD4B
:105380001AC08091F902882389F0853089F08091D4
:10539000EB0085FD0FC02091E4003091E50042173D
:1053A0005307F9F29150E1F684E0089582E0089500
:1053B00083E0089581E008950E944A2A0E94522ABB
:1053C000E0EEF0E0808181608083E8EDF0E08081B4
:1053D0008F77808319BCA7EDB0E08C918E7F8C9382
:1053E00080818F7E80831092F80208950F931F931F
:1053F000CF93DF930E944A2A0E94522AC8EDD0E040
:1054000088818F77888388818068888388818F7D71
:10541000888319BC1092F9021092F5021092F702DB
:105420001092F60200EE10E0F80180818B7F8083FD
:1054300088818160888342E060E080E00E94582992
:10544000E1EEF0E080818E7F8083E2EEF0E080810B
:1054500081608083808188608083F80180818E7F75
:105460008083888180618883DF91CF911F910F9124
:105470000895E8EDF0E080818F7E8083E7EDF0E035
:1054800080818160808384E082BF81E08093F80224
:105490000C94F629E8EDF0E080818E7F80831092F5
:1054A000E20008951092DA001092E10008951F9230
:1054B0000F920FB60F9211242F933F934F935F9348
:1054C0006F937F938F939F93AF93BF93EF93FF93CC
:1054D0008091E10082FF0BC08091E20082FF07C053
:1054E0008091E1008B7F8093E1000E94C12C80912C
:1054F000DA0080FF19C08091D80080FF15C080912C
:10550000DA008E7F8093DA008091D90080FF96C008
:1055100080E189BD82E189BD09B400FEFDCF81E053
:105520008093F9020E9416268091E10080FF19C045
:105530008091E20080FF15C08091E2008E7F809311
:10554000E2008091E20080618093E2008091D800C7
:1055500080628093D80019BC85E08093F9020E9494
:1055600029268091E10084FF2BC08091E20084FF16
:1055700027C080E189BD82E189BD89B5982F9170EE
:1055800080FFFBCF8091D8008F7D8093D8008091E1
:10559000E1008F7E8093E1008091E2008F7E809316
:1055A000E2008091E20081608093E2008091F50248
:1055B000882309F449C084E08093F9020E943126CF
:1055C0008091E10083FF29C08091E20083FF25C024
:1055D0008091E100877F8093E10082E08093F9026F
:1055E0001092F5028091E1008E7F8093E10080911E
:1055F000E2008E7F8093E2008091E20080618093E0
:10560000E20042E060E080E00E9458298091F000D2
:1056100088608093F0000E942726FF91EF91BF9150
:10562000AF919F918F917F916F915F914F913F913A
:105630002F910F900FBE0F901F90189519BC1092CC
:10564000F9020E94242670CF8091E30087FD93E049
:105650009093F902B3CF1F920F920FB60F921124BD
:105660002F933F934F935F936F937F938F939F936A
:10567000AF93BF93CF93DF93EF93FF93D091E90064
:10568000DF708091EC00C82FC17080FDC0E81092DF
:10569000E9008091F000877F8093F00078940E9469
:1056A0006F2B1092E9008091F00088608093F000E9
:1056B000CD2BCF70C093E900FF91EF91DF91CF9197
:1056C000BF91AF919F918F917F916F915F914F911A
:1056D0003F912F910F900FBE0F901F9018951F9321
:1056E000CF93DF93CDB7DEB7AA970FB6F894DEBF9E
:1056F0000FBECDBF8AEF92E02091F100FC01219313
:10570000CF01F3E082309F07B9F70E9459268091BC
:10571000E80083FF1EC18091FA029091FB029A304B
:1057200008F017C1E92FF0E0E35AFE4C0C947E30EC
:10573000803899F0823809F00CC18091FE028F7098
:10574000873008F006C18093E9008091EB0085FB6B
:10575000882780F91092E90006C08091F6029091A6
:10576000F702911182609091E800977F9093E80092
:105770008093F1001092F1008091E8008E77E5C0EF
:10578000882309F4D3C0823009F0E3C08091FC0281
:105790008111D6C08091FE028F702FEF280F263026
:1057A00008F0D7C08093E9002091EB0020FFC8C02B
:1057B000933031F48091EB0080628093EB00C0C0A5
:1057C0009091EB0090619093EB0021E030E001C0FC
:1057D000220F8A95EAF72093EA001092EA0080915E
:1057E000EB008860EACF8111B4C01091FC021F77F2
:1057F0008091E3008078812B8093E3008091E80022
:10580000877F8093E8000E948C298091E80080FFC8
:10581000FCCF8091E30080688093E30082E0111167
:1058200083E08093F90295C08058823008F091C0DF
:105830008091FC029091FD028C3D23E09207A1F53E
:1058400083E08A838AE289834FB7F894DE01139656
:1058500020E03EE051E2E32FF0E050935700E49166
:1058600020FF03C0E295EF703F5FEF708E2F90E056
:10587000EA30C0F0C7968D939D932F5F243159F77E
:105880004FBF8091E800877F8093E8006AE270E074
:10589000CE0101960E949B288091E8008B7780932F
:1058A000E80057C0C096E7CF6091FE027091FF02FA
:1058B000AE014F5F5F4F0E948E27BC01892B09F418
:1058C00048C09091E800977F9093E80089819A8181
:1058D0000E94F928E1CF8038E1F58091E800877FC8
:1058E0008093E8008091F5028093F10045CF81110B
:1058F00030C09091FC02923060F58091E800877F83
:105900008093E8009093F5020E948C298091F50223
:10591000882311F084E005C08091E30087FDFACF71
:1059200081E08093F9020E943B2613C08091FC0223
:10593000813079F481E0933009F080E08093F702C0
:105940001092E9008091E800877F8093E8000E9430
:105950008C298091E80083FF0AC08091E800877F4E
:105960008093E8008091EB0080628093EB00AA9620
:105970000FB6F894DEBF0FBECDBFDF91CF911F9160
:1059800008950895CF938091F9028823A1F0C091E2
:10599000E900CF709091EC00892F817090FD80E834
:1059A000C82B1092E9008091E80083FD0E946F2BC4
:1059B000CF70C093E900CF9108955058BB27AA2714
:1059C0000E94F52C0C94A02E0E94922E38F00E947A
:1059D000992E20F039F49F3F19F426F40C94682E88
:1059E0000EF4E095E7FB0C94622EE92F0E94B12E95
:1059F00058F3BA17620773078407950720F079F404
:105A0000A6F50C94D32E0EF4E0950B2EBA2FA02DF4
:105A10000B01B90190010C01CA01A0011124FF275B
:105A2000591B99F0593F50F4503E68F11A16F04056
:105A3000A22F232F342F4427585FF3CF4695379555
:105A40002795A795F0405395C9F77EF41F16BA0B1A
:105A5000620B730B840BBAF09150A1F0FF0FBB1FC8
:105A6000661F771F881FC2F70EC0BA0F621F731F11
:105A7000841F48F4879577956795B795F7959E3F6E
:105A800008F0B0CF9395880F08F09927EE0F9795FF
:105A9000879508950E945E2D0C94A02E0E94992E49
:105AA00058F00E94922E40F029F45F3F29F00C94A8
:105AB000622E51110C94D42E0C94682E0E94B12E9B
:105AC00068F39923B1F3552391F3951B550BBB272D
:105AD000AA2762177307840738F09F5F5F4F220F72
