:100000000C946D060C94B4060C94B4060C94C53193
:100010000C94B4060C94B4060C94B4060C94B40678
:100020000C94B4060C94B4060C94D21A0C948E1A48
:100030000C94CF280C94B4060C94B4060C94B4061B
:100040000C94B4060C94B4060C94B4060C94B40648
:100050000C94B4060C94AB1B0C94B4060C94B4062C
:100060000C94B4060C94B4060C94B4060C94B40628
:100070000C94B4060C94B4060C94B4060C94B40618
:100080000C94B4060C94B4060C94B4060C94B40608
:100090000C94B4060C94B4060C94B4060C94B406F8
:1000A0000C94B4060C94B4060C94B40605010980B3
:1000B000A101850319012AB700150126B700950192
:1000C00075108100C0050C0901A101850419012AE0
:1000D000A002150126A002950175108100C00660DE
:1000E000FF0961A1010962150026FF00952075082E
:1000F00081020963150026FF00952075089102C052
:1001000005010906A101050719E029E715002501E8
:10011000950875018102950175088101050719008F
:1001200029FF150026FF00950675088100050819AE
:10013000012905950575019102950175039101C08D
:100140000005010502050305040505050006010675
:100150000206030604060506000701070207030757
:100160000407050700080108020803080408050839
:100170000009010902090309040905090000010039
:100180000200030004000500000101010201030157
:100190000401050100020102020203020402050239
:1001A0000003010302030303040305030004010425
:1001B0000204030404040504000000000000000021
:1001C000000000000000000000000000000000002F
:1001D0000000000000000000000000007E0F00D4BE
:1001E000FFFFFFC7000000780000000000000000D3
:1001F0002A2B280000000000000000000000000082
:1002000000000029000000002C1E3420212224348C
:100210002627252E362D3738271E1F20212223245E
:1002200025263333362E37381F0405060708090AFA
:100230000B0C0D0E0F101112131415161718191A96
:100240001B1C1D2F3130232D350405060708090A14
:100250000B0C0D0E0F101112131415161718191A76
:100260001B1C1D2F3130354C00DA0281FFD9F1DB28
:1002700020A4A62EAF00A0C000A1C800AED580A8C3
:100280001FD300408D14200000047F3F1F643214F0
:10029000643214783C1E1E140A054350534C4B0024
:1002A0000A0A00556E646566004C6F7765720052ED
:1002B0006169736500426173650A004C415945529A
:1002C000000A0A004D6F640A00436C6D6B005177A1
:1002D0007274000A0A0080818283848586878889F7
:1002E0008A8B8C8D8E8F9091929394A0A1A2A3A4BF
:1002F000A5A6A7A8A9AAABACADAEAFB0B1B2B3B436
:10030000C0C1C2C3C4C5C6C7C8C9CACBCCCDCECF75
:10031000D0D1D2D3D40000010101010101010101BA
:1003200002020202020202020203030303030303A6
:100330000304040404040404050505050506060673
:100340000606070707070708080808090909090A30
:100350000A0A0B0B0B0C0C0C0D0D0D0E0E0E0F0FD5
:100360000F10101111111212131314141515161663
:100370001717181819191A1A1B1B1C1D1D1E1E1FD2
:100380002020212222232424252626272829292A21
:100390002B2C2D2D2E2F3031323233343536373849
:1003A000393A3B3C3D3E3F40414243444546474845
:1003B000494A4C4D4E4F50515354555658595A5B1B
:1003C0005D5E5F616264656668696B6C6D6F7072BB
:1003D000737577787A7B7D7E8082838587888A8C27
:1003E0008E8F91939596989A9C9EA0A2A3A5A7A95B
:1003F000ABADAFB1B3B5B7BABCBEC0C2C4C6C9CB52
:10040000CDCFD1D4D6D8DBDDDFE2E4E7E9EBEEF007
:10041000F3F5F8FAFDFFFFAA7F5540222325262891
:10042000292A2C2D2F3032333536383A3B3D3E4089
:1004300042434547494A4C4E5051535557595A5CCF
:100440005E6062646668696B6D6F71737577797BE6
:100450007D7F81838587898A8C8E90929496989AE5
:100460009C9E9FA1A3A5A7A8AAACAEAFB1B3B4B6FA
:10047000B8B9BBBCBEBFC1C2C3C5C6C7C9CACBCC55
:10048000CDCED0D1D2D2D3D4D5D6D7D7D8D9D9DA28
:10049000DADBDBDBDCDCDCDCDCDDDDDDDDDCDCDC9D
:1004A000DCDCDBDBDBDADAD9D9D8D7D7D6D5D4D3C5
:1004B000D2D2D1D0CECDCCCBCAC9C7C6C5C3C2C19A
:1004C000BFBEBCBBB9B8B6B4B3B1AFAEACAAA8A7F7
:1004D000A5A3A19F9E9C9A98969492908E8C8A89AF
:1004E000878583817F7D7B79777573716F6D6B698C
:1004F00068666462605E5C5A5957555351504E4C61
:100500004A4947454342403E3D3B3A38363533320F
:10051000302F2D2C2A29282625232207087F08077B
:10052000003E5B4F5B3E003E6B4F6B3E001C3E7CD3
:100530003E1C00183C7E3C18001C577D571C001CBC
:100540005E7F5E1C0000183C180000FFE7C3E7FF59
:1005500000001824180000FFE7DBE7FF0030483AEE
:10056000060E00262979292600407F050507004050
:100570007F05253F005A3CE73C5A007F3E1C1C0883
:1005800000081C1C3E7F0014227F2214005F5F00C5
:100590005F5F0006097F017F00006689956A006041
:1005A000606060600094A2FFA2940008047E0408CA
:1005B0000010207E20100008082A1C0800081C2AB1
:1005C0000808001E10101010000C1E0C1E0C00302D
:1005D000383E383000060E3E0E06000000000000D7
:1005E0000000005F000000000700070000147F14F7
:1005F0007F1400242A7F2A12002313086462003625
:100600004956205000000807030000001C2241004A
:10061000000041221C00002A1C7F1C2A0008083E02
:100620000808000080703000000808080808000072
:1006300000606000002010080402003E5149453E61
:100640000000427F4000007249494946002141496B
:100650004D33001814127F10002745454539003CE2
:100660004A494931004121110907003649494936B3
:1006700000464949291E00000014000000004034D3
:100680000000000008142241001414141414000087
:1006900041221408000201590906003E415D594EED
:1006A000007C1211127C007F49494936003E4141CD
:1006B0004122007F4141413E007F49494941007F3D
:1006C00009090901003E41415173007F0808087F74
:1006D0000000417F4100002040413F01007F08149D
:1006E0002241007F40404040007F021C027F007F8B
:1006F0000408107F003E4141413E007F0909090680
:10070000003E4151215E007F0919294600264949D2
:1007100049320003017F0103003F4040403F001F7A
:100720002040201F003F4038403F006314081463FE
:10073000000304780403006159494D4300007F41E0
:10074000414100020408102000004141417F0004A3
:10075000020102040040404040400000030708003E
:10076000002054547840007F2844443800384444E2
:10077000442800384444287F00385454541800005A
:10078000087E09020018A4A49C78007F080404785D
:100790000000447D4000002040403D00007F1028C4
:1007A00044000000417F4000007C04780478007C15
:1007B0000804047800384444443800FC1824241801
:1007C0000018242418FC007C080404080048545431
:1007D00054240004043F4424003C4040207C001C7E
:1007E0002040201C003C4030403C0044281028445D
:1007F000004C9090907C004464544C4400000836B7
:1008000041000000007700000000413608000002AF
:1008100001020402003C2623263C000000000000E8
:1008200000404040F0F8F8FF38FFF8F83FF8F8FFD4
:1008300038FFF8F8F040404000000000000080C0A1
:10084000C0C0800000C0C08000000080C0C000C0E8
:10085000C0000080C0C00000000000C0C0C0C0C018
:1008600000C0C00000000000000000000000000008
:100870000000000000000000000000000000000078
:100880000000000000000000000000000000000068
:1008900000000000000000000000C0F0F8FC3E1E58
:1008A00006010000007F4141417F007F4141417FBF
:1008B000000080C0E07E5B4F5BFEC00000C000DC3B
:1008C000D7DEDEDED7DC00C0000000000000000044
:1008D0000000000000000000000000000000000018
:1008E00000494949FFFFFFFFE0DFBFBF00BFBFDF97
:1008F000E0FFFFFFFF49494900000000001F3F6083
:1009000060E0BF1F007F7F071E381E077F7F007FCC
:100910007F0E1F3B716000000000007F7F0C0C0CFD
:10092000007E7E007F7E0303007F7E03037E7E03C6
:10093000037F7E000F3E703C063C703E0F00327B12
:1009400049493F7E007F7E0303001E3F69696F2691
:1009500000000000000000000000030F1F3F3C7873
:1009600070600000007F4141417F007F4141417F35
:1009700000307B7F7830202030787F3B0003000FF1
:100980007F0F0F0F7F0F000300000000000000002A
:100990000000000000000000000000000000000057
:1009A00000010101070F0F7F0F7F0F0F7E0F0F7FD9
:1009B0000F7F0F0F07010101000000000000000081
:1009C0000000010100000000000000000000000025
:1009D0000000000000000000000000000000000017
:1009E0000000000000000000000000000000000007
:1009F00000000000000000000000000000000000F7
:100A000000000000000000000000000000000000E6
:100A100000000000000000000000000000000000D6
:100A200000000000000000000000000000000000C6
:100A300000000000000000000000000000000000B6
:100A400000000000000000000000000000000000A6
:100A5000000000000000000000000000AF00AE3504
:100A6000001E001F00200021002200290014001A8F
:100A7000000800150017002B0004001600070009ED
:100A8000000A00E1001D001B00060019000500E33C
:100A900000E200E00002512800A8003500270026EF
:100AA000002500240023002A00130012000C001867
:100AB000001C00340033000F000E000D000B00E599
:100AC0000038003700360010001100E700E600E4AF
:100AD0000003512C00000035001E001F00200021E3
:100AE000002200290014001A00090013000A002B3C
:100AF0000004001500160017000700E1001D001B90
:100B000000060019000500E300E200E000010028F3
:100B100000A8003500270026002500240023002A15
:100B20000033001C0018000F000D00340012000CF0
:100B300000080011000B00E50038003700360010F7
:100B4000000E00E700E600E40001002C00000001B8
:100B5000003A003B003C003D003E0035001E001FF7
:100B60000020002100220001001E021F022002219D
:100B700002220201002E002D002E022F023002015F
:100B80000001000100010001000100440043004297
:100B900000410040003F00450027002600250024BA
:100BA000002300310227022602250224022302012B
:100BB0000031003302330030002F0001000100013A
:100BC000000100010001000100010001000100011D
:100BD000000100010049004600650000000000011E
:100BE00000E200E000E1000000390001007A007B33
:100BF000007C007D000000010001000100010001F7
:100C00000001000100010001000100010001002AB3
:100C10000001000100520001004B002A004C004F6F
:100C200000510050004E00010000000100000001D2
:100C300000000001000100010001000100010009A5
:100C4000025B00030100A0FA090400000103010196
:100C5000000921110100012240000705810308005D
:100C60000A0904010002030000000921110100012A
:100C7000222200070582032000010705030320004C
:100C80000109040200010300000009211101000113
:100C90002232000705840320000A1201000200002E
:100CA000000832FC87020100010200010C0353001E
:100CB0006F0066006C00650000001A034A006F00B8
:100CC0007300650066004100640061006D00630010
:100CD00069006B0000000403090411241FBECFEF5C
:100CE000DAE0DEBFCDBF04B603FE27C080910D065B
:100CF00090910E06A0910F06B09110068730904B90
:100D0000A740B04BD1F410920D0610920E0610922F
:100D10000F061092100614BE84B7877F84BF0FB6EB
:100D2000F894A8958091600088618093600010928B
:100D300060000FBEE0E0F8E3099511E0A0E0B1E04B
:100D4000EAE2F9E602C005900D92A63FB107D9F795
:100D500026E0A6EFB1E001C01D92AD30B207E1F789
:100D60000E94F6280C9455340C940000E8EDF0E055
:100D700080818E7F80831092E2001092DA001092C0
:100D8000E100A0EEB0E08C9181608C9380818F7740
:100D9000808319BCA7EDB0E08C918E7F8C9380810D
:100DA0008F7E80831092F20508952091E4003091A7
:100DB000E50095E6A9012091EC00822F817020FFCB
:100DC00006C08091E80080FF06C080E00895209171
:100DD000E80022FD1AC08091FF05882389F0853044
:100DE00089F08091EB0085FD0FC02091E4003091E7
:100DF000E50042175307F9F29150E1F684E00895B7
:100E000082E0089583E0089581E00895EF92FF92D3
:100E10000F931F93CF937C018B010E94D506C82F9F
:100E2000811117C08091E80085FD0BC08091E8001A
:100E30008E778093E8000E94D506882399F3C82F07
:100E400008C0F70181917F018093F10001501109E1
:100E500049F78C2FCF911F910F91FF90EF9008953C
:100E60008091010687FF13C08091E80082FF06C0D1
:100E70008091E8008B778093E80004C08091FF05A3
:100E80008111F2CF08958091FF058823D9F38091D5
:100E9000E80080FFF8CF8091E8008E77ECCF982FA4
:100EA0009093E900242F762F50E0891731F070914C
:100EB000EC002091ED005091F00021FD07C09F5FF4
:100EC000973071F78093E90081E008953091EB004D
:100ED0003E7F3093EB003091ED003D7F3093ED008D
:100EE0003091EB0031603093EB007093EC00209375
:100EF000ED005093F0002091EE0027FDE0CF80E060
:100F00000895CF92DF92EF92FF920F931F93CF93AA
:100F1000DF93C8EDD0E088818F7E8883E7EDF0E035
:100F200080818160808384E082BF81E08093F205CC
:100F300088818E7F888302EE10E0F8011082109283
:100F4000DA0081EEC82ED12CF601108288818F77CD
:100F5000888388818068888388818F7D888319BC95
:100F60001092FF05109200061092FE051092FD05EA
:100F700090EEE92EF12CF70180818B7F80838881B0
:100F80008160888342E060E080E00E944F07F601C4
:100F900080818E7F8083F801808181608083808161
:100FA00088608083F70180818E7F80838881806163
:100FB0008883DF91CF911F910F91FF90EF90DF9089
:100FC000CF900895FC01809107069091080686173E
:100FD0009707A0F06115710529F49091E8009E77BC
:100FE0009093E80090E06115710551F4911108C0EB
:100FF0008091E80082FF34C080E00895BC01F2CF08
:101000008091FF058823C1F18530C1F18091E8000E
:1010100083FD30C08091E80082FDEACF8091E80036
:1010200080FFE1CF8091F3002091F200382F61150D
:10103000710519F02830310558F091E0283031055C
:1010400009F090E02091E8002E772093E800CBCFC4
:1010500081918093F100615071092F5F3F4FE7CF7D
:101060008091FF05882341F0853041F08091E800B0
:1010700083FFBECF81E0089582E0089583E0089564
:101080000895089508958091F40508952FB7F89470
:101090006091EB057091EC058091ED059091EE0566
:1010A0002FBF08959C01FC0132969FEF80E0419193
:1010B000461751F09F3F19F4411101C0982F8F5FDF
:1010C0008630A9F79F3F09F40895290F311D97FD38
:1010D0003A95F901628308952091E8053091E90578
:1010E0002817390771F09093E9058093E805E0919E
:1010F000E605F091E705309721F00084F185E02DB9
:10110000099408952091E4053091E50528173907E1
:1011100071F09093E5058093E405E091E605F09188
:10112000E705309721F00680F781E02D09940895B6
:10113000FC01680F791F8FEF91E32191822728E04E
:1011400030E087FF09C0880F892721503109C9F78E
:10115000E617F70791F70895880FF7CFFA01811185
:1011600001C0FB010994E6EFF2E011828281846004
:10117000828308958091CE03982F9E7F61F48170C1
:1011800082608093CE038091D103893718F088E77D
:101190008093D10308958A34B0F381708864F1CFCD
:1011A000AF92BF92DF92EF92FF920F931F93CF9374
:1011B000DF93082F162FE901E42FF0E0EA5EFC4FE1
:1011C000611110C0E4915E2F4E2F4983E8835A834A
:1011D000DF91CF911F910F91FF90EF90DF90BF9023
:1011E000AF900895E62EF12C4491D42EE42FF0E038
:1011F00026E0829FC00111242FEF30E0B9010E9448
:101200003F33802F90E0880F991F55E5569FD001FE
:10121000579FB00D11248A1B9B0B982F990F890F94
:101220005901AE18BF08AE9ED001AF9EB00DBE9E54
:10123000B00D11245B2F189F80011124012F11275D
:101240005901A01AB10AAE9E8001AF9E100DBE9E3C
:10125000100D11245901A81AB108AE9CC001AF9C11
:10126000900DBE9C900D1124892F9927281B390BB6
:101270002E9FC0012F9F900D3E9F900D1124E92FAE
:1012800062307105A1F050F46115710509F49DCF2C
:101290006130710581F0EB2F512F97CF64307105CC
:1012A00069F080F06630710509F48FCFF4CFE42F38
:1012B0004B2F592F8ACFE42F412F87CFEB2F542F5D
:1012C000492F83CF4B2F5D2DE12F7FCF80E00895F5
:1012D00078940895F894E82FE295EF70F0E031A14A
:1012E000282F2F7081E090E001C0880F2A95EAF73F
:1012F000982F9095932391A392A1892B82A30C946C
:10130000680990919E0292FF06C0282F287128300C
:10131000F9F4877F846093FF06C0282F2871283155
:10132000F1F4877E846120919F0220FF06C0382F50
:1013300038713830D9F4877F816021FF06C0282FAB
:1013400028712831D1F4877E816194FD877E0895CC
:10135000282F24712430F9F68B7F8860DCCF282F6A
:101360002471243101F78B7E8861DDCF382F3171F4
:10137000313019F78E7F8860E0CF282F217121311D
:1013800021F78E7E8861E1CFCF93DF93EC01823825
:101390009105A9F1D8F58133910509F496C048F576
:1013A0008932910509F48AC08A9709F495C0C1155C
:1013B00022E5D20708F0B6C0C11531E5D30708F021
:1013C00029C1C83ED10508F09CC0C03ED10560F5DA
:1013D000C83AD10508F087C0C53AD10508F0F2C077
:1013E000C130D10509F12097F9F0C430D105E0F4FE
:1013F00040C08533910509F45AC0C997C1F6809160
:101400009E02837089F0C0EED0E00EC0833E91054D
:1014100099F170F4803E910501F1823E910539F613
:1014200080919E0282FD21C0CE01DF91CF9108956F
:10143000863E910561F1873E910571F1843E9105EB
:1014400009F0B5CF80919F0281FFEECF80919E027F
:10145000C7EED0E084FD0DC0E7CF80919E0280FDF5
:101460000FC190919F0290FFDFCFC3EED0E084FFC9
:10147000DBCFD0E0C0E0D8CF80919E0282FD03C1D7
:1014800090919F0290FDBFCF84FFCECFF2CF80918D
:101490009E0283FDDDCFC8CF80919E0283FDF6C002
:1014A00090919F0291FFF0CFC4EED0E0BDCF80912C
:1014B0009E0285FFB9CFC9E2D0E0B6CF80919E02EF
:1014C00085FFB2CFC5E3D0E0AFCF80919E0286FF0B
:1014D000ABCFCAE2D0E0A8CF80919E0286FFA4CF16
:1014E000C1E3D0E0A1CFCF3BD10518F6C85AD0E078
:1014F000CC0FDD1FC759DE4F0990D881C02DD464B1
:1015000093CFC11540E5D40708F067C0C11580E44A
:10151000D80708F05FC0CE019A9581159F4108F465
:1015200083CFA7CFC11536E5D30718F5C11545E51B
:10153000D40708F087C0C11584E5D80708F07DC03E
:101540009C2F969596959E0123703327C115D34500
:1015500008F465C0C1E0D0E002C0CC0FDD1F2A95C1
:10156000E2F730E2939FC0011124C82BD92BDA682F
:101570005BCFC11589E5D80768F4C11598E5D9078F
:1015800008F06BC0C11527E5D20708F072CFDD2740
:10159000D0664ACFC1153AE5D30708F463C0CE013F
:1015A00090568115904208F064CF8D2F8F710E9464
:1015B000810990E0982F882788279F719C012C2B08
:1015C000E90149C0C55AD0E0CA59DE4FC881D0E010
:1015D000D0642ACFDF70D06A27CFCE01E4E09695A1
:1015E0008795EA95E1F783702C2F26952695237031
:1015F00090E2299F90011124382B8C2F8370C1E039
:10160000D0E002C0CC0FDD1F8A95E2F7C22BD32BAE
:10161000DC680ACFDC2FCC27C16FD06A05CFC1E0D0
:10162000D0E002C0CC0FDD1F2A95E2F720E2929FA6
:10163000C0011124C82BD92BEBCFDC2FCC27C46FD2
:10164000D06AF2CE8C2F0E948109C82FD0E0DC2F07
:10165000CC27CC27DF71D062E7CEDC2FCC27C06F40
:10166000D06AE2CE8C2F8F700E94810934E0D6952B
:10167000C7953A95E1F7CF709C2FEC01D069D4CE95
:10168000C9E3D0E0D1CEC2EED0E0CECEC6EED0E0FF
:10169000CBCE0C94460880916302811110926302B4
:1016A0000895809590916202982390936202089524
:1016B0008091620290916102892B90916002892B46
:1016C0008093F80190916302992391F0892B809384
:1016D000F80120E08AEF91E0FC013191CF01311156
:1016E0002F5FF2E080309F07B9F721110E944B0B6A
:1016F000E091E605F091E705309731F00280F38143
:10170000E02D88EF91E00994089580915E02909118
:101710002D02981301C008958F5F8770FACFE92FCB
:10172000EE0FE90FEE0F8E0F982F97708695869526
:10173000869523E0829FF0011124E35FFD4F50E086
:1017400040E080E0219130E0092E02C036952795D7
:101750000A94E2F721703327042E01C0220F0A9465
:10176000EAF7822B4F5F5F4F4330510559F70895D9
:10177000E92FEE0FE90FEE0F8E0F982F977041E0D3
:1017800001C0440F9A95EAF786958695869593E071
:10179000899FF0011124E35FFD4F30E020E070E00D
:1017A0005191DF011197CB01022E02C096958795CA
:1017B0000A94E2F7817081958527842385278C938D
:1017C0002F5F3F4F2330310559F7089590E080E0B7
:1017D0000E94820890E080E00E946C0810926102F2
:1017E000109260020C94580B80930C060C94E60B3C
:1017F00080910C06982F9670963019F488600C949E
:10180000F40B877FFCCF21E030E001C0220F8A95E6
:10181000EAF7209580910C0682230C94F40B9091AA
:101820005F028095892380935F02282F277091F4AF
:10183000282F082E000C330B9217130659F09091A5
:101840009F0292FD07C08595859585950E94030CA2
:1018500010925F02089521E030E001C0220F8A95C6
:10186000EAF780910C06822B0C94F40B80936402AF
:101870000C94E60B882321F00E94510B0C94580B1A
:101880000895882339F090916202982B9093620218
:101890000C94580B0895882381F19CEF980F913A8E
:1018A00078F4EAEFF1E020E032E09191891303C08F
:1018B000DF0111971C922E173F07B9F70C94580BB4
:1018C00090E2980F983050F4877091E001C0990F22
:1018D0008A95EAF7892F0E94510BF0CF9BE5980F6C
:1018E000933020F490E080E00C948208885A87318D
:1018F00020F490E080E00C946C080895CF93C82FFA
:10190000882309F44EC08CEF8C0F813AF8F4EAEF8B
:10191000F1E080E092E0DF012D91C21759F08A17C3
:101920009B07D1F76C2F88EF91E00E945208CF916E
:101930000C94580B2191C21303C0DF0111971C9224
:101940008E179F07B9F70E94580BECCF80E28C0FDF
:10195000883068F4C77021E030E001C0220FCA95DA
:10196000EAF780916202822B80936202E0CFEBE57E
:10197000EC0FE33040F4F0E0EA59FE4F808190E054
:10198000CF910C948208C85AC73158F4EC2FF0E07C
:10199000EE0FFF1FE759FE4F80819181CF910C948C
:1019A0006C08CF910895982F92959F7011F0892F10
:1019B00094E0282F2695269511F09E5F822F86951C
:1019C00009F09F5F892F0895CF92DF92EF92FF92E7
:1019D0000F931F93CF93DF936C017B0164E670E05C
:1019E00088E70E941C30EC0197FD12C010E000E077
:1019F000F601E00FF11F849164E670E00E949630DA
:101A0000EC01892B29F40F5F1F4F0E151F0581F77D
:101A10000E941931CE01DF91CF911F910F91FF905C
:101A2000EF90DF90CF9008958091E2059091E305CB
:101A3000911103C091E089270895882369F062E03D
:101A400070E08DE59AE00E94E40C892B19F08091FA
:101A5000E20508951092E2058091E205EBCFCF9365
:101A6000C091E2058091E3058823D1F00E944608E9
:101A7000605A75418F4F9F4F6093DE057093DF056D
:101A80008093E0059093E105C11108C062E070E029
:101A90008BE59AE00E94E40C892B29F0C091E205C5
:101AA0008C2FCF91089581E08093E205F7CF80934A
:101AB000EF057093F1056093F0058091FF05843088
:101AC000F9F48093E9008FEF9091E800815095FD43
:101AD00006C095ED9A95F1F700008111F5CF809140
:101AE000E80085FF0DC050E040E063E070E08FEE5D
:101AF00095E00E9406078091E8008E778093E800C9
:101B00000895BC0184E00C94570DBC0183E00C9453
:101B1000570DCF93DF93EC0181E08093E9008FEFC5
:101B20009091E800815095FD06C095ED9A95F1F7EA
:101B300000008111F5CF8091E80085FF14C050E0CE
:101B400040E068E070E0CE010E9406078091E80066
:101B50008E778093E80088E0FE01A5EFB5E0019064
:101B60000D928A95E1F7DF91CF91089581E08093FE
:101B7000E00080E28093D8001092C9008FE19EE4DB
:101B80000197F1F700C0000087E090EBDC01809343
:101B90000D0690930E06A0930F06B093100688E1F1
:101BA0009CE00FB6F894A895809360000FBE9093C8
:101BB0006000FFCF609161018091CE0380FF20C063
:101BC0008091600143E0849FC001112484509D4FA7
:101BD000539A2BB1277F3BB138605FB7F894FC0173
:101BE000649FE00DF11D1124BF0168177907D1F43E
:101BF0005FBF8FE594E00197F1F700C00000089502
:101C0000809162019091630123E0829FF001112491
:101C1000E450FD4F8917A0F61182108212828F5F67
:101C20003396F8CFFC014191CF01E8E03BB90000C9
:101C300000C047FF2BB9440F000000C000C000C027
:101C40002BB900C0EA9591F7D0CF0F931F93CF9394
:101C5000DF93EC0110E000E0909164019017110611
:101C600009F06CF40E94DA0D8C8190E0019681708D
:101C700099278C83DF91CF911F910F910895209127
:101C80006201A801420F511D9A01220F331F240F38
:101C9000351F24503D4F4C816091D0038091CF037C
:101CA00096959017110669F064F0442361F0409115
:101CB000D103493708F048E70E94D0080F5F1F4F53
:101CC000CBCF4423A1F340E0F7CF8F929F92AF9206
:101CD000BF92CF92DF92EF92FF920F931F93CF9319
:101CE000DF93EC014C81042F10E09801D8010E9491
:101CF000B8339B01AC010E94CE334B015C01E0E2A2
:101D0000F0E0E01BF10BA5E5B0E0AC019B010E9407
:101D1000CE336B017C019F01DF010E94B0339B0138
:101D2000AC010E94D9339B01AC01280D391D4A1D1D
:101D30005B1DC701B6010E948133F22E822F90E015
:101D400039E23F1560F143E0249F9001112435955D
:101D50002795122F109500E085E5E82EEF18809169
:101D60006401081758F10E94DA0D9C8181E09923E3
:101D700019F0903219F48FEF80935F0180915F0129
:101D8000890F8C83DF91CF911F910F91FF90EF907E
:101D9000DF90CF90BF90AF909F908F90089525E5F2
:101DA00030E0B901681B790B9B01220F331F260F0E
:101DB000371F37FFCCCF2F5F3F4FC9CF8E2D01FD8F
:101DC0008F2D20916201622F600F7727771F9B0173
:101DD000220F331F260F371F24503D4F412F193735
:101DE00008F048E76091D0030E94D0080F5FB7CF9A
:101DF000EF92FF920F931F93CF93DF93EC018C81AF
:101E0000811109C081E08C831092FA0292E09093D4
:101E10005E0180935D01809162019091630123E0F6
:101E2000829FF0011124E450FD4F891768F110E002
:101E300003E060916401161768F10E94DA0D809149
:101E40005D012091FA02280F2093FA0290915E0121
:101E5000980F90935E01191654F4022E000C330B68
:101E6000409164014150550B2417350734F081959A
:101E700080935D01813009F41C82DF91CF911F9125
:101E80000F91FF90EF9008951182108212828F5F60
:101E90003396CBCFE12EF12C70E0C7010E946D3359
:101EA00020916201820F482F50E02091FA02022E09
:101EB000000C330BE216F306D4F020915E01022EE3
:101EC000000C330B2E153F0594F0809F90011124D8
:101ED00024503D4F4091D103493708F048E76091C5
:101EE000D0038091CF030E94D0081F5FA2CFFA01D8
:101EF000EE0FFF1FE40FF51FE450FD4F118210821B
:101F00001282F3CF8F929F92AF92BF92CF92DF92C5
:101F1000EF92FF920F931F93CF93DF93EC018A818F
:101F2000BB24BA9480FD02C0BB24B394A09064018A
:101F30008C81811109C081E0B81228C08FEF8A0D11
:101F40008093F90281E08C83F12CE12C46E4842E0D
:101F5000EA14F8F00E94DA0D8091F90291E0B912CA
:101F600062C081115BC08091640181508093F9024D
:101F70001C82DF91CF911F910F91FF90EF90DF9026
:101F8000CF90BF90AF909F908F9008951092F902DC
:101F9000D9CF009162010E0D1F2D111DC801880FB0
:101FA000991F080F191F04501D4FF801118210824C
:101FB000128234E0C32ED12C912C8091F902890D2C
:101FC000873444F1682D0E945F33892F082E000C5E
:101FD000990B8E159F05A9F48091D1038C9DA001CA
:101FE0008D9D500D11245595479555954795493729
:101FF00008F048E798016091D0038091CF030E94D8
:10200000D0089B0CF1E0CF1AD108B9F68FEFE81A8F
:10201000F80A9ECF87FFDACF8A0DD8CF8150809300
:10202000F902BC82A6CF90E001966091640170E055
:102030000E946D338093F9028C839BCFEF92FF92C5
:102040001F93CF93DF93EC0110E0EE24EA94F12C80
:1020500060916401161770F00E94DA0D9A818C81EC
:1020600090FF2AC08F5F8C83DF91CF911F91FF90EB
:10207000EF90089520916201422F410F5527551F7F
:10208000CA019A01220F331F280F391F24503D4FD8
:102090004091D103493708F048E770E0C7010E943A
:1020A0006D33962F8C816091D003199F800D112480
:1020B0000E94D0081F5FCCCF8150D5CF9091CE0326
:1020C00090FF14C0909162012091630133E0939FCF
:1020D000F0011124E450FD4F921710F00C94DA0D2A
:1020E0008183608342839F5F3396F6CF08950F9379
:1020F0001F93CF93DF9300D00F92CDB7DEB78C0143
:102100008091FB0281110AC09E012F5F3F4F48E77B
:102110006FEF0E94D0088A818093FB02F8016481EE
:10212000613069F08091FB0240E0662361F040E09D
:10213000623011F44091FB0280E060E004C06091E5
:10214000FB0240E080E00E945E10F801848190E094
:10215000019663E070E00E946D3384830F900F90CE
:102160000F90DF91CF911F910F910895CF93DF933F
:1021700000D00F92CDB7DEB79091CE0390FF0DC087
:10218000493708F048E79E012F5F3F4F0E94D00873
:102190004B8169818A810E945E100F900F900F9091
:1021A000DF91CF910895CF93DF93EC01EEECF3E054
:1021B000438162818C810E94B6108C818F5F8C83F9
:1021C000DF91CF910895CF93DF93EC01EC81F0E0A4
:1021D000E55EFB4F4491EEECF3E0628181810E9469
:1021E000B6108C818F5F8C83DF91CF910895EEECD8
:1021F000F3E080818E7F80830E94B308E6EFF2E0F7
:102200008281816082832FEF80E792E021508040BD
:102210009040E1F700C000000C94DA0D9F92AF925D
:10222000BF92CF92DF92EF92FF920F931F93CF93C3
:10223000DF937C015B016A018091990201E010E06B
:102240008A3010F40AE010E0C1E0D0E0F894B50163
:10225000C701F6010995982E0E946809911004C0E3
:1022600021960C171D076CF4892DDF91CF911F91DA
:102270000F91FF90EF90DF90CF90BF90AF909F9025
:102280000895CC9F9001CD9F300D300D112490E02A
:1022900080E045E34A95F1F7000001968217930725
:1022A000C1F7D4CF80916F02811110C08091D80006
:1022B00080618093D8008AE18A95F1F700C080910F
:1022C000D90080FF0AC081E080936F0281E0909185
:1022D0006F02913009F080E0089582E080936F02F0
:1022E0000E94B6061092FF05F1CF0E94521188237A
:1022F00051F0E091E605F091E705309721F001906B
:10230000F081E02D099480E008950F931F930E94BF
:102310005211882321F01F910F910C9446080E94BE
:10232000460800919A0210919B0220919C023091E4
:102330009D02600F711F821F931F1F910F910895BF
:102340001F93CF93DF93182FCAE0D0E0893311F4A5
:10235000C0E5D0E0812F0E947E0C8FE99FE00197BD
:10236000F1F700C000002197C1F7812FDF91CF91D5
:102370001F910C944B0CCF93DF93C7E0D2E060E049
:10238000CE010E9421342196C11584E0D807B9F707
:10239000DF91CF9108956F927F928F929F92AF922B
:1023A000BF92CF92DF92EF92FF920F931F93CF9342
:1023B000DF938FE5C82E8AE0D82E9BEAE92EF12C18
:1023C000E701C857D10936011BC0F50185909490EB
:1023D000692DC8010E942134682DC80101960E9410
:1023E000213482E0A80EB11C0E5F1F4FC017D10729
:1023F00061F78CE0680E711C2C96CE15DF0529F074
:102400008E010C5011095301E0CF7E0188E7E80EE0
:10241000F11C88E7C80ED11C8BE8E81682E0F806AC
:1024200079F6DF91CF911F910F91FF90EF90DF90A0
:10243000CF90BF90AF909F908F907F906F900895B6
:10244000CF93C82F6FEF811162E283E290E00E9488
:1024500021346FEFC11162E084E290E00E942134E8
:102460006FEFC11163E285E290E0CF910C942134CB
:1024700080E00E94201260E086E290E00E94213419
:102480000E94CB110E94BB1181E00C942012CF93CB
:10249000C0919F02C2FB992790F9981799F080FB91
:1024A000C2F9C0939F0260919E0284E090E00E9476
:1024B00021346C2F82E290E00E94213482E0CF919F
:1024C0000C940F0CCF9108950F931F93CF93DF932C
:1024D000C42FD0E0CC0FDD1F2CE0629FC00DD11DBA
:1024E000112438E7839FC00DD11D1124CE0187969A
:1024F0000E940D34082F10E0102F0027CE0188967F
:102500000E940D349801282BC901DF91CF911F91B2
:102510000F910895462F843038F47A3028F46630CD
:1025200018F4672F0C94641290E080E00895CF9225
:10253000DF92FF920F931F93CF93DF936C01009173
:102540000C0680916402082BC7E0D0E010E0FC2E5E
:10255000C8010C2E02C0959587950A94E2F780FD7C
:102560000CC02197A0F7F12C8F2DDF91CF911F91F7
:102570000F91FF90DF90CF900895B6018C2F0E94AD
:102580008A120E94C409019761F3EECFCF93DF93C3
:10259000EC010E949712BE010E948A12DF91CF9136
:1025A0000C94C409FC01808191810E94C612292FDC
:1025B0002F7092959F7092509E3078F4E92FF0E042
:1025C000E95AFB4C0C94A333803F19F020F4883E69
:1025D00020F481E00895843FE1F380E00895883E8F
:1025E000C0F3813FD1F7F5CF822F869586958695EA
:1025F000089583E290E00E940D34823289F484E2EF
:1026000090E00E940D34823059F485E290E00E94FF
:102610000D3491E0833209F090E0892F81700895A4
:1026200080E0FCCFCF9384E090E00E940D34C82F6F
:1026300082E290E00E940D34982F8C2FCF91089564
:102640001F93CF93DF93162F8A3031F481E0DF910F
:10265000CF911F910C94C5138D3011F480E0F7CF0A
:10266000C091DC05D091DD0596E0FE01A6EDB5E058
:1026700001900D929A95E1F7803EA8F186E0FE0167
:1026800011928A95E9F7C091DC05D091DD05111111
:1026900036C046E050E0BE0186ED95E00E94F7337B
:1026A0009E01265D3340892BA9F52A5F3F4F40915B
:1026B000D303642F70E0C9010E943F33481B4630AA
:1026C00010F4240F311D211572E0370710F030E0AF
:1026D00020E02A523C4F3093DD052093DC05DF914A
:1026E000CF911F910895F6E08F9FB0011124655E90
:1026F0007A4F46E050E0CE010E94E133C4CF9E0104
:102700002A5F3F4FFE012E173F0719F28081809507
:102710008193F9CFC90145E0969587954A95E1F7F0
:1027200041E050E0BA0102C0660F771F8A95E2F7D8
:10273000CB016091D4037091D503862B972BB901FF
:102740006B5F7F4FE5E076956795EA95E1F702C00C
:10275000440F551F6A95E2F7842B952B9093D50370
:102760008093D403A2CF1F93CF93DF93EC01162F56
:10277000FE018491811104C0DF91CF911F910895D2
:10278000612F0E9420132196F3CFCF93382FE09131
:10279000DC05F091DD05E65DF3402091D303622F67
:1027A00070E0CF010E943F33281B822F332369F052
:1027B00066E00E945333C82FC15010F4CF910895A2
:1027C00060E080E20E942013F7CF9F01280F311DA7
:1027D0002115324018F080E0F0E0E0E08E0F9F2FEE
:1027E000911D8A529C4F9093DD058093DC05E6CFC6
:1027F0000E94B31381E00C94C51310926202EAEFB9
:10280000F1E086E0DF011D928A95E9F70C94E60B72
:102810001F93CF93DF93CDB7DEB7AA970FB6F89487
:10282000DEBF0FBECDBF81E096E02091F100DC015C
:102830002D93CD01B6E089309B07B9F78091020650
:10284000833009F472C0B8F4813009F449C0823091
:1028500009F4B3C08091E80083FF8BC28091010628
:10286000909102069A3008F084C2E92FF0E0EB590B
:10287000FB4C0C94A3338A3009F48EC08B3009F4DE
:1028800071C0893039F780910106813219F7809142
:10289000050690910606009711F00297D9F68091EF
:1028A000E800877F8093E8008091E80082FF38C0CD
:1028B0009091F3008091F200029731F48091F10041
:1028C000813011F0863021F48091F1008093F4057D
:1028D0008091E8008B778093E8000E943007BACFA0
:1028E00080910106813A09F0B5CF8091E800877F99
:1028F0008093E8008091050690910606892B61F48B
:1029000068E085EF95E070E00E94E2078091E800C2
:102910008B778093E8009ECF60E090E080E0F3CF7B
:102920008091FF058111C0CF95CF80910106813A3A
:1029300009F090CF8091050690910606892B09F049
:1029400089CF8091E800877F8093E8008091E8003C
:1029500080FFFCCF809165018093F1008091E800B9
:102960008E77B9CF80910106813209F073CF8091C3
:10297000050690910606892B09F06CCF8091E8003E
:10298000877F8093E8000E94300780910306809340
:1029900065010E94FD135ECF80910106813209F02E
:1029A00059CF8091E800877F8093E8000E9430072C
:1029B000809104068093F3054DCF80910106813A02
:1029C00009F048CF8091E800877F8093E8008091EC
:1029D000E80080FFFCCF8091F305BECF803899F0EE
:1029E000823809F0C6C1809105068F70873008F0E3
:1029F000C0C18093E9008091EB0085FB882780F9B6
:102A00001092E90006C08091FD059091FE0591119C
:102A100082609091E800977F9093E8008093F100A6
:102A20001092F1008091E8008E779FC1882309F40D
:102A30008DC1823009F09DC180910306811190C142
:102A4000809105068F702FEF280F263008F091C176
:102A50008093E9002091EB0020FF82C1933031F494
:102A60008091EB0080628093EB007AC19091EB0043
:102A700090619093EB0021E030E001C0220F8A9535
:102A8000EAF72093EA001092EA008091EB00886058
:102A9000EACF81116EC1109103061F778091E30088
:102AA0008078812B8093E3008091E800877F80937A
:102AB000E8000E9430078091E80080FFFCCF809101
:102AC000E30080688093E30082E0111183E080934B
:102AD000FF054FC18058823008F04BC1209103069A
:102AE000309104062C3DE3E03E07A1F583E08A83A4
:102AF0008AE289834FB7F894DE01139620E03EE026
:102B000051E2E32FF0E050935700E49120FF03C01F
:102B1000E295EF703F5FEF708E2F90E0EA30C0F0EB
:102B2000C7968D939D932F5F243159F74FBF8091A6
:102B3000E800877F8093E8006AE270E0CE010196AA
:102B40000E94E2078091E8008B778093E80011C132
:102B5000C096E7CF8091050690910606432F552732
:102B60004330510509F44AC078F54130510509F464
:102B70007AC08BE590E0EFE3FCE04230510509F0CC
:102B8000F8C02091E800277F2093E80020910706F5
:102B9000309108068217930708F49C0140E0211544
:102BA000310509F065C0411163C08091E80082FDE4
:102BB000C9CF8091FF05882329F2853019F28091D1
:102BC000E80083FFF2CFBECF4132510509F43CC08B
:102BD0004232510509F0CDC08330910508F0C9C0DB
:102BE000FC01EE0FFF1FE751FE4F0190F081E02D39
:102BF0008A519E4FDC018C9190E01AC0332721301E
:102C00003105D1F02115310561F02230310509F08F
:102C1000B0C0ECEAFCE0E4918E2F90E0ECEAFCE03E
:102C200007C0E6EDFCE0E4918E2F90E0E6EDFCE0DD
:102C3000009709F49EC0A5CFEAEBFCE0E4918E2F4B
:102C400090E0EAEBFCE0F4CF8330910508F091C00E
:102C5000880F991FFC01E151FE4F0190F081E02D9A
:102C600089E090E08ECF82E190E0EAE9FCE089CF54
:102C70008091FF05882309F465CF853009F462CF80
:102C80008091E80083FD5ECF8091E80082FD8DCFCA
:102C90008091E80080FF83CF9091F3008091F20053
:102CA0002115310519F08830910550F041E0089761
:102CB00009F040E08091E8008E778093E8006FCFC4
:102CC00044914093F1003196215031090196E8CFAB
:102CD000803809F04EC08091E800877F8093E8003B
:102CE000809100068093F1009DCE811142C0109129
:102CF00003061230F0F58091E800877F8093E800AA
:102D0000109300060E943007112311F084E005C0E3
:102D10008091E30087FDFACF81E08093FF0542E0D8
:102D200061EC81E00E944F0742E261EC84E00E9486
:102D30004F0742E261EC82E00E944F0742E260EC02
:102D400083E00E944F078091FF0513C08091030626
:102D5000813079F481E0933009F080E08093FE05C2
:102D60001092E9008091E800877F8093E8000E943C
:102D700030078091E80083FF0AC08091E800877FD8
:102D80008093E8008091EB0080628093EB00AA962C
:102D90000FB6F894DEBF0FBECDBFDF91CF911F916C
:102DA0000895CF92DF92EF92FF926B017C010E9417
:102DB000BA08B701A60188E090E0FF90EF90DF909D
:102DC000CF900C943334AF92BF92CF92DF92EF92B8
:102DD000FF920F931F93CF93DF9300D00F92CDB745
:102DE000DEB7082FF62E142FE22E9091CE0390FF1F
:102DF0003FC0E92FE695AE2FB0E0AF53BE4F8C91A8
:102E00008093F6029E7F923009F040C0493708F067
:102E100048E79E012F5F3F4F6F2D802F0E94D00803
:102E20004B8169818A810E945E108091CF0380135B
:102E300008C08091D0038F1104C08091D103811705
:102E400029F08091F80282608093F8020093CF030A
:102E5000F092D0031093D103EE2051F06091CE0395
:102E60007091CF038091D0039091D1030E94D1162D
:102E70000F900F900F90DF91CF911F910F91FF90C6
:102E8000EF90DF90CF90BF90AF900895823019F40B
:102E90001091D103CACF863019F40091CF03C5CF6A
:102EA0008930D9F3893109F6E9518E2F8170D82EF6
:102EB000E695F0E0EA5EFB4FA590B490C12CBB24F0
:102EC00060916401C61618F00E94DA0DAECF2C2D69
:102ED00030E0A29EC001A39E900DB29E900D1124E1
:102EE00070E00E943F33802FD11016C0860F4091B2
:102EF0006201420F532F511D9A01220F331F240FDD
:102F0000351F24503D4F412F193708F048E76F2DEA
:102F10000E94D008C394D4CF861BE9CFEEECF3E037
:102F2000438121E1421B08F440E021E0628181817C
:102F30000C94E316EEECF3E0438121E1420F08F438
:102F40004FEF21E0628181810C94E316EEECF3E017
:102F5000628121E1621B08F460E021E0438181810C
:102F60000C94E316EEECF3E0628121E1620F08F4C9
:102F70006FEF21E0438181810C94E316EEECF3E0E6
:102F8000818121E0438162818A500C94E316EEEC4A
:102F9000F3E0818121E043816281865F0C94E31636
:102FA0008091D203882319F081508093D2036091DD
:102FB000CE037091CF038091D0039091D1030C94F4
:102FC000D1168091D203833018F48F5F8093D2039F
:102FD0006091CE037091CF038091D0039091D10383
:102FE0000C94D116EEECF3E083E0808311828FEF36
:102FF000828388E783831482A6EFB2E012968C91D5
:103000001297836012968C93608171818281938183
:103010000C94D11669EE7EEF90E080E00E943F3480
:1030200060E082E090E00E94213460E083E090E084
:103030000E9421341092640260E084E090E00E94DB
:10304000213460E082E290E00E94213460E085E07B
:1030500090E00E94213460E086E090E00E942134FC
:103060006FEF87E090E00E94213440E050E0BA0129
:1030700088E090E00E94333460E08DE090E00E94B0
:10308000213440E050E0BA0188E190E00E943334FE
:1030900060E087E190E00E94213440E050E0BA0116
:1030A0008CE190E00E94333470E060E080E290E0D8
:1030B0000E943F3440E050E0BA0188E190E00E9475
:1030C000333480E00E9420120E94381240E050E029
:1030D000BA018FE090E00E94333440E050E0BA0142
:1030E00083E190E00C943334CF93DF93CDB7DEB718
:1030F00028970FB6F894DEBF0FBECDBF85E0EEEC8B
:10310000F3E0DE01119601900D928A95E1F780912E
:10311000F6029091F702A091F8028E839F83A88710
:103120002885409195025091960260919702709186
:1031300098023FB7F8948091EB059091EC05A0912F
:10314000ED05B091EE053FBF841B950BA60BB70BA9
:1031500084369105A105B10510F4222319F180915F
:103160003501909136018F579D4F4091340150E0C9
:103170004930510510F048E050E0BE016F5F7F4FCD
:103180000E94043485E090E00E948B32892BB1F4D8
:103190000E9446086093950270939602809397026E
:1031A000909398021092F80281E028960FB6F89456
:1031B000DEBF0FBECDBFDF91CF91089580E0F5CF88
:1031C000CF93DF9300D000D0CDB7DEB740917D0222
:1031D00050917E0260917F02709180022FB7F89427
:1031E0008091EB059091EC05A091ED05B091EE0575
:1031F0002FBF841B950BA60BB70B84369105A10539
:10320000B10568F10E9485116E5F7F4F8F4F9F4F10
:1032100069837A838B839C8380912B0190912C010D
:103220008F579D4F40912A0150E04530510510F0D5
:1032300044E050E0BE016F5F7F4F0E94043484E0A1
:1032400090E00E948B32892B61F40E9446086093C3
:103250007D0270937E0280937F029093800281E0D2
:1032600001C080E00F900F900F900F90DF91CF91F1
:1032700008956F927F928F929F92AF92BF92CF925A
:10328000DF92EF92FF920F931F93CF93DF930F92F2
:10329000CDB7DEB7862E5A016901682E880F7708F0
:1032A000C3010E948B32892B09F088C08AE0869D79
:1032B000F001879DF00D1124E050FF4F458150E053
:1032C0004115510511F041E050E08AE0869DF00182
:1032D000879DF00D1124E050FF4F668177816F5775
:1032E0007D4FCE0101960E940434F5014081518149
:1032F000628173812FB7F8948091EB059091EC0572
:10330000A091ED05B091EE052FBF841B950BA60B88
:10331000B70B84369105A105B10540F4B701C8018A
:103320000E9498089981891709F44FC0082C000C55
:103330009908C4010E948B32892B91F0B12C8B2DFE
:103340000F90DF91CF911F910F91FF90EF90DF9041
:10335000CF90BF90AF909F908F907F906F90089587
:103360008AE0889DF001899DF00D1124E050FF4F07
:10337000458150E0E416F50608F4A7018AE0889D2F
:10338000F001899DF00D1124E050FF4F6681778197
:103390006F577D4FC6010E940434B701C8010E94D7
:1033A000980899818913CACF0E944608F501608365
:1033B000718382839383BB24B394C1CFB12CA701C3
:1033C000B801C6010E940434BACFBB24B394F7CF2E
:1033D000CF92DF92EF92FF920F931F93CF93DF93E1
:1033E0000F92CDB7DEB7EE24E394F12C08E812E09B
:1033F0009E012F5F3F4F49E752E063E082E00E9469
:103400003919D82E882341F10091AD02802F90E028
:103410009C012F543D4F79011981F9018081181BBE
:10342000C12E80E00EC0CA94F70180818F5F808337
:103430008AEA002319F0013019F48BE40E94A011EC
:103440008D2D1C1484F3912F17FD90E0191B111181
:103450000EC081110E94490B8D2D0F90DF91CF91ED
:103460001F910F91FF90EF90DF90CF9008951F5F15
:10347000F70180818150808389EA002319F00130AF
:1034800019F48EE40E94A0118D2DE1CFCF92DF922E
:10349000EF92FF920F931F93CF93DF9300D000D052
:1034A0000F92CDB7DEB76B0185E0E82EF12C02E874
:1034B00012E09E012F5F3F4F45E752E061E080E060
:1034C0000E943919882349F095E0FE013196A0E762
:1034D000B2E001900D929A95E1F795E0E0E7F2E015
:1034E000D60101900D929A95E1F70F900F900F90F1
:1034F0000F900F90DF91CF911F910F91FF90EF9060
:10350000DF90CF90089590E080E00E941B34893EC8
:103510009E4F11F40C94F91280E008951F920F92BF
:103520000FB60F9211242F933F934F935F936F9396
:103530007F938F939F93AF93BF93CF93DF93EF933B
:10354000FF93D091E900DF708091EC00C82FC1702B
:1035500080FDC0E81092E9008091F000877F8093A1
:10356000F00078940E9408141092E9008091F00015
:1035700088608093F000CD2BCF70C093E900FF915D
:10358000EF91DF91CF91BF91AF919F918F917F91FB
:103590006F915F914F913F912F910F900FBE0F90C0
:1035A0001F9018951F920F920FB60F9211242F9310
:1035B0003F934F935F936F937F938F939F93AF93BB
:1035C000BF93EF93FF938091E10082FF09C0809148
:1035D000E20082FF05C08091E1008B7F8093E100D3
:1035E0008091DA0080FF24C08091D80080FF20C045
:1035F0008091DA008E7F8093DA008091D90080FF7D
:103600009DC080E189BD82E189BD09B400FEFDCF86
:1036100081E08093FF058091F205811109C00E942D
:10362000B6060E9481078091E20084608093E200E8
:103630008091E10080FF17C08091E20080FF13C0FD
:103640008091E2008E7F8093E2008091E2008061B1
:103650008093E2008091D80080628093D80019BCEA
:1036600085E08093FF058091E10084FF2BC080916D
:10367000E20084FF27C080E189BD82E189BD89B570
:10368000982F917080FFFBCF8091D8008F7D809321
:10369000D8008091E1008F7E8093E1008091E2006C
:1036A0008F7E8093E2008091E20081608093E2004F
:1036B00080910006882309F447C084E08093FF05C9
:1036C0008091FF058091E10083FF27C08091E20097
:1036D00083FF23C08091E100877F8093E10082E037
:1036E0008093FF05109200068091E1008E7F809309
:1036F000E1008091E2008E7F8093E2008091E20001
:1037000080618093E20042E060E080E00E944F0729
:103710008091F00088608093F000FF91EF91BF915D
:10372000AF919F918F917F916F915F914F913F9159
:103730002F910F900FBE0F901F90189519BC1092EB
:10374000FF051092F20574CF8091E30087FD93E0AE
:103750009093FF05B5CF78941F921FB61F92112446
:103760008F939F93AF93BF938091EB059091EC055E
:10377000A091ED05B091EE050196A11DB11D8093BC
:10378000EB059093EC05A093ED05B093EE05BF918A
:10379000AF919F918F911F901FBE1F9018959C0114
:1037A0004FB7F8948091EB059091EC05A091ED0551
:1037B000B091EE054FBF821B930B08952FB7F8947D
:1037C0008091EB059091EC05A091ED05B091EE058F
:1037D0002FBF08950F931F93CF93DF93C62FD42F3E
:1037E000022FFC0182818823A1F060930B060E94C6
:1037F000DE1B90930A0680930906C77081E001C022
:10380000880FCA95EAF7DF91CF911F910F910C9421
:10381000410C80910B06681335C080910906909188
:103820000A060E94CF1B8436910560F510E21D0F39
:10383000CD17B9F080E28C0F883040F4C77081E07A
:1038400001C0880FCA95EAF70E943A0C183048F474
:1038500081E09D2F977001C0880F9A95EAF70E942A
:10386000410C802F0E94A011183098F4D77081E08D
:1038700001C0880FDA95EAF7DF91CF911F910F9180
:103880000C943A0CC77081E001C0880FCA95EAF722
:10389000F3CFDF91CF911F910F9108950E945211A4
:1038A00081110C94DE1B0E948511CB01089560915B
:1038B000CE03669570E04BE050E082E591E00E9417
:1038C000EA33892B19F481E08093F7020E944E1CA1
:1038D0009093F1028093F0028091F80284608093CB
:1038E000F80208959091CE0390FF3BC09170811132
:1038F0002EC092609093CE038091F80281608093F5
:10390000F802662351F06091CE037091CF0380914D
:10391000D0039091D1030E94D1166091CE03669599
:1039200070E04BE050E082E591E00E94EA33892BA1
:10393000A9F00E94B30881E08093F30220E0409157
:10394000D1036091D0038091CF030C94E3168532AC
:1039500010F09864CFCF880F982BCCCF0E94571CC3
:10396000EACF08958091CE038695815009F484E2D0
:1039700061E00C94721C8091CE0386958F5F853236
:1039800008F081E061E00C94721C9091CE0390FFEE
:1039900007C09695981720F0961710F40C94BB1C4E
:1039A00061E00C94721C3F924F925F926F927F92F3
:1039B0008F929F92AF92BF92CF92DF92EF92FF923F
:1039C0000F931F93CF93DF9300D000D00F92CDB70A
:1039D000DEB78C01FC0183819481892B31F08081D9
:1039E000918189238F3F09F0ECC50F900F900F90C4
:1039F0000F900F90DF91CF911F910F91FF90EF905B
:103A0000DF90CF90BF90AF909F908F907F906F90FE
:103A10005F904F903F9008950E949712F82E682F64
:103A200089819A810E94B80B69817A818F2D0E94C9
:103A30008A127C01F8018281882309F4B5C59701B7
:103A400022513F452031310508F081C58FEF93E0C9
:103A50000E940D34FEEEEF0E57E0852E52E0952EBB
:103A60008823A1F180915F02877009F4BECFF8012D
:103A70008281882309F4B9CF80919F0282FDB5CF5E
:103A800082E00F900F900F900F900F90DF91CF91E9
:103A90001F910F91FF90EF90DF90CF90BF90AF906C
:103AA0009F908F907F906F905F904F903F900C947D
:103AB0000F0C811424E09206A9F2C4010E940D3477
:103AC000811101C0EA943FEF831A930AE110F1CF0C
:103AD0001C821B82442443944AE0342E74018FEFED
:103AE000E81AF80AC4010E940D3489831A828823D7
:103AF00009F4B8CF9FEF980F933000F58A8349827D
:103B000092E0890E911CC7010E940D348B8388239B
:103B100009F4A8CFFE0131967F01F701208122230D
:103B2000E9F2213009F049C091818281913041F45C
:103B3000F2E0EF0EF11C0E94A01109C04701EACF8C
:103B4000923049F422E0E20EF11C0E947E0C3FEF1D
:103B5000E31AF30AE2CF933031F432E0E30EF11CC2
:103B60000E944B0CF4CF943021F08FEFE81AF80A42
:103B7000EECF92E0E90EF11C30E020E0B7016F5F7C
:103B80007F4FF70141818053990B8A30910550F0A6
:103B900021503109E0F28FE99FE00197F1F700C071
:103BA0000000F6CF329EF001339EF00D11249C01EF
:103BB0002E0F3F1F842F7B01E1CFE22FF0E0E85171
:103BC000FE4F5490822F86958695869590E0FC0155
:103BD000E852FE4F64902770712C022E02C075943B
:103BE00067940A94E2F7E1E06E227724FC01E8533F
:103BF000FE4FA490B12C022E02C0B594A7940A9453
:103C0000E2F7F1E0AF22BB24FC01E854FE4FC49080
:103C1000D12C02C0D594C7942A95E2F721E0C222A4
:103C2000DD246114710419F081EE0E947E0CA11450
:103C3000B10419F086EE0E947E0C852D0E94A01121
:103C4000AB2819F086EE0E944B0C672819F081EE24
:103C50000E944B0CCD2809F47ACF8CE26CCF81E026
:103C60000E942B0C0E94F80BFDCE81E00E94030CF9
:103C7000F9CF82E0F5CF95EFE9169CE5F90609F456
:103C80006AC008F464C027E245EE66EEF6EFEF1670
:103C9000FCE5FF0609F484C4882309F4A3C4109248
:103CA0000B0623E0E2162DE5F20608F05BC03AEFC2
:103CB000E3163CE5F30630F4C70182509C45449777
:103CC00008F056C00E94121390939F0280939E02A8
:103CD00090E1E9169CE5F90609F433C108F0A5C0A6
:103CE000F8E0EF16FCE5FF0609F41DC108F06EC010
:103CF00034E0E3163CE5F30609F407C108F050C0D0
:103D000092E0E9169CE5F90609F4F9C080919E025B
:103D10008260E3E0EE16ECE5FE0609F4F3C0609184
:103D20009E02F0909F0284E090E00E9421346F2D6B
:103D300082E290E00E9421340E94FD1393CE27E29C
:103D400045EE65EE2DC426E241EE60EE29C427E281
:103D500045EE64EE25C426E241EE62EE21C428E27F
:103D600041E0EFCF81E6E8168DE5F80609F4AACF29
:103D7000F6E1EF16FCE5FF0609F04DC48091620202
:103D80008A7A91E009F490E090930B0269E2811144
:103D900065E388EF91E00E9452080E94580B62CEC2
:103DA00080919E028061F6E0EF16FCE5FF0609F4C3
:103DB000A9C080919E02886027E0E2162CE5F206F9
:103DC00008F4A0C080919E0280629CC080919E02F7
:103DD0008D7F3CE0E3163CE5F30609F493C078F4EC
:103DE00080919E028C609AE0E9169CE5F90609F440
:103DF00089C008F49CC080919E028E7F83C0809110
:103E00009E02877FFEE0EF16FCE5FF0609F47AC00C
:103E100080919E028B7F2FE0E2162CE5F20608F4DB
:103E200071C080919E028F7E6DC03CEFE3163CE531
:103E3000F30609F482C0A0F594E1E9169CE5F906C1
:103E400009F493C098F4F2E1EF16FCE5FF0609F4DB
:103E50007CC080919E028F7B23E1E2162CE5F20666
:103E600008F450C080919E02837F4CC03AEFE31665
:103E70003CE5F30609F44DC008F051C095E1E916A0
:103E80009CE5F90609F04BCF80919E0282FB9927B1
:103E900090F921E0922790FB82F990FB83F932C0E0
:103EA000E114EDE5FE0609F456C0A0F480919F02EE
:103EB00083602EEFE2162CE5F20671F180919F02ED
:103EC0008D7F3FEFE3163CE5F30630F180919F02D2
:103ED0008C7F22C082E0E8168DE5F80609F454C014
:103EE00008F44CC0E1E6EE16EDE5FE0609F017CF4A
:103EF00090919E02892F8F7E94FF806103C08091F4
:103F00009E02816080939E020ACF80919E0284600F
:103F1000F9CF80919F02816080939F0200CF8091B2
:103F20009F028260F9CF80919E028064EBCF0E9455
:103F3000FD1380919E028068E5CF80919F028E7F65
:103F4000EBCF80919E028F7DDDCF0E94FD1380918B
:103F50009E028F77D7CF80919F02982F9095917076
:103F60008E7F892B90FB81F9D7CF0E94FD13909112
:103F70009E02892F97FB87F98058C4CF61E08EE0BD
:103F800090E00E942134CBCE60E0F9CF85E335C3C9
:103F900081608093CE0361E086950E94721C62CDA1
:103FA00042EB5CE16BEB7CE10E94AE085BCD4BEB3E
:103FB0005CE162EB7CE1F8CF47EC57E16EEB77E137
:103FC000F3CF46EA57E162EB77E1EECF4EE857E1F7
:103FD0006AE977E1E9CF4AE957E16EE877E1E4CFB2
:103FE00041EE57E160ED77E1DFCF61E081E0D5CFD1
:103FF00065E082E00E94C51C35CD68E086E0FACF1E
:1040000064E18FE0F7CF67E185E1F4CF62E289E117
:10401000F1CF61E083E2C1CF0E94FD139FEFE4E3A3
:10402000FCE09150E040F040E1F700C000000E9449
:10403000B60D81E016C380E014C3C7010E948F0B48
:10404000D82E20C33D2D3F70C32E8D2D807F19F0BB
:10405000C29490EFC922FF20B9F0CC2069F080E231
:104060008E0D883010F0A11009C080916202C82A1C
:10407000C09262020E94580B8E2D4DC08091610249
:10408000C82AC0926102F6CF8E2D0E944B0CCC2024
:1040900009F443C080E28E0D883010F0A11004C0F6
:1040A0008C2D0E94510B06C0C09480916102C822E1
:1040B000C09261020E94580B30C08D2D8F70C82EA7
:1040C0008D2D807F803219F0C29480EFC822AA2003
:1040D00089F091E0A91609F491C0FF2009F49BC072
:1040E000BB2009F491C0F801858180FFC5CF8F7096
:1040F00085838AC020919F0222FF5DC0FF2009F4C2
:1041000053C0CC2039F080916202C82AC09262026A
:104110000E94580B80E00E947E0C282D2850330B03
:104120002430310510F40E947511FF2079F08D2D97
:10413000807F803619F436EFA31641F080910C028F
:10414000823009F0FCC183E080930C02992009F4CD
:104150004CCC80915F0280FD48CCF801128285959D
:10416000859585950E942B0CC8010E94D31C8091D7
:104170005F028595859585950F900F900F900F9014
:104180000F90DF91CF911F910F91FF90EF90DF90F3
:10419000CF90BF90AF909F908F907F906F905F90E7
:1041A0004F903F900C94030C80E00E944B0CCC206D
:1041B00009F4B3CF75CFFF20A1F0909163028C2D4D
:1041C000892BB11003C00E94410CA7CFE1E0BE12C1
:1041D000FACF22FDA2CF981709F49FCF80936302F4
:1041E0009CCFB11006C00E944B0B8C2D0E943A0C44
:1041F00094CFF1E0BF1609F490CFF5CFFF2031F056
:1042000025E02B1508F489CF8C2DDDCF34E03B154C
:1042100008F483CFEACFBB2041F3F9E3AF1218C112
:104220002FEF37EE83E0215030408040E1F700C0AF
:1042300000008E2D0E944B0C70CF8D2D869586959B
:10424000837069F0813009F068CF8E2D9D2D9370B9
:10425000F11002C090E080E00E946C085ECF8E2DCD
:104260009D2D9370F11002C090E080E00E948208C2
:1042700054CF8D2D837091F5F1104FCF4E2D429577
:1042800046954770440F440F8E2D8F70042E01C049
:10429000880F0A94EAF72E2D2071E4FE07C02FE064
:1042A00030E001C0220F4A95EAF720953D2D369562
:1042B00036953370323069F050F4409164023130F9
:1042C00029F0822B84230E94360C27CF842B822B4B
:1042D000FACF282B809164028227F5CF8695FF20A4
:1042E00011F08D2D8170882309F417CF4E2D429542
:1042F00046954770440F440F8E2D8F70042E01C0D9
:10430000880F0A94EAF72E2D2071E4FE07C02FE0F3
:1043100030E001C0220F4A95EAF720953D2D3695F1
:1043200036953370323069F050F440910C063130DC
:1043300029F0822B84230E94F40BEFCE842B822B56
:10434000FACF282B80910C068227F5CFFD2DFF7028
:10435000CF2EFF2029F08F2F0E942B0C8E2D33CFD4
:104360008E2D0E943A0C8C2D0E94030CD6CE8E2DE1
:1043700022EFA216B1F12A1570F030EFA316D1F09A
:1043800091EFA91691F0FF2009F45DC0B11074CE31
:104390008D2D8F712AC0E3EFAE1651F1F4EFAF12FD
:1043A000F2CF80919F0282FF2FC08D2D8F71FF2051
:1043B000D9F21BC0FF2081F024E02B1508F4ADCE0C
:1043C0002D2D2F7181E090E001C0880F2A95EAF72A
:1043D00090910C068927AFCF35E03B1508F49DCEB0
:1043E000EFCF8D2D8F71F110BFCF0E942B0C95CE8A
:1043F00080E0FF2009F49FCF81E09D2D9F7101C0D7
:10440000880F9A95EAF797CFFF2091F08D2D8F7145
:10441000E82E0E942B0C80919F0282FD07C0E8E0ED
:10442000EE9EC0011124836080935F028E2DDDCF4C
:1044300081E00E940F0CF1E0FB1508F06ECE82E0E7
:104440000E940F0C6ACEBB2041F0893309F4E8CEFC
:10445000EFE3FCE93197F1F7EACE8D2D8F7184CF30
:10446000E0E1EE0DE73008F03FC0F0E0E159FB4C31
:104470000C94A333FF2009F450CE8091260291E0E2
:1044800089278093260249CEF092260246CE81E00B
:104490008F25F7CFF11041CE81E0F3CFF1103DCE63
:1044A000109226023ACEFF2021F082E080930C0287
:1044B000F3CF80910C02823021F481E080930C02D2
:1044C0002CCE833009F029CE10920C02E9CFFF20C8
:1044D00039F080912502882381F2109225021DCEA9
:1044E000F4E0FB1550F619CE80912502BB20D9F0DF
:1044F000882341F08091260291E08927809326024B
:1045000010922502F110B8CD8FE39CE90197F1F7E5
:1045100000C000008E2D0E944B0C86E0F801119225
:104520008A95E9F7FACD882309F4F7CDF110F5CD96
:104530008091260291E0892780932602CECF813098
:1045400009F004CE10920C0210922602FFCDF0E189
:10455000EF16FFE5FF0609F482CB21E1E2162FE515
:10456000F20609F486CB93EFE9169CE5F90609F407
:10457000EACB08F080CBF8EDEF16FCE5FF0609F476
:10458000DECB29EDE2162CE5F20609F4E8CB37ED97
:10459000E3163CE5F30609F07FCB26E241EE61EE3F
:1045A000C8010E94EA1B5ECA30E1E3163FE5F3064C
:1045B00009F45BCB91E1E9169FE5F906A1F682E0EB
:1045C00055CB85E0DE01119601900D928A95E1F7B9
:1045D000F801228189819A8121111ECA0E948F0BC4
:1045E000F82E22CAF6E1EF16FCE5FF0609F089C0B5
:1045F00080910B028111CACC89E2EAEFF1E020E060
:1046000032E09191891303C0DF0111971C922E179C
:104610003F07B9F7C2CB2AE5E2162DE5F20609F409
:1046200008CD68F4E1148CE5F80609F4F5CC9EEDAC
:10463000E9169CE5F906B9F40E940A1813CAEBE5DD
:10464000EE16EDE5FE0609F4F6CCFCE5EF16FDE509
:10465000FF0649F480919F0282FB882780F991E050
:1046600089270E944712F8018281E080F180882327
:1046700009F4E3CCC7010E949712D82E682FC70116
:104680000E94B80BB7018D2D0E948A120E94C409A6
:10469000E82ED92EA82EF801F280B580B2943FE022
:1046A000B32280915F028770E9F09F2CFF20D9F040
:1046B000892F807F803449F090E29E0D983090F0F1
:1046C000803619F4F6EFEF1669F080919F0282FDB3
:1046D00009C082E00E940F0C80915F0287709924CC
:1046E00093948111912C8D2C82942FE082222BE0C7
:1046F000281508F412CDE82DF0E0EA58FB4C0C9494
:10470000A3338091620282722CECE2162CE5F20651
:1047100009F466CC08F073C096ECE9169CE5F9063E
:1047200009F44ACC08F042C0F3ECEF16FCE5FF06B2
:1047300009F436CC50F532ECE3163CE5F30609F00B
:1047400092CF8091CE0380FF23CC8E7F8093CE03C7
:104750006091CE037091CF038091D0039091D103EB
:104760000E94D1160E94B3088091F8028160809364
:10477000F8022FEF30E782E0215030408040E1F72F
:1047800000C000000E94DA0D6DC994ECE9169CE5AA
:10479000F90609F40CCC4EEB57E167EC77E1E5EC58
:1047A000EE16ECE5FE0609F4FFCB5DCFF9ECEF1653
:1047B000FCE5FF0609F40ACC88F437ECE3163CE587
:1047C000F30609F4FECB42EB57E166EA77E198EC99
:1047D000E9169CE5F90609F4E7CB45CFEAECEE16BD
:1047E000ECE5FE0609F4F7CB40ED57E161EE77E129
:1047F000FBECEF16FCE5FF0609F4D6CB34CF21ED38
:10480000E2162CE5F20609F4FBCBB8F48EECE816C0
:104810008CE5F80609F4ECCB08F4E7CBEFECEE16E8
:10482000ECE5FE0609F4E9CB6EE089E0F0EDEF1669
:10483000FCE5FF0609F4DECB16CF24EDE2162CE5ED
:10484000F20609F4E3CB78F482EDE8168CE5F8067D
:1048500009F4D9CB61E088E193EDE9169CE5F9060E
:1048600009F49BCB00CFE5EDEE16ECE5FE0609F46E
:10487000D0CBFDE5EF16FF0609F4F4C8F4CE1F9384
:10488000CF93DF9380912C02807FA9F4809129023D
:10489000882389F080915E02D0912D0260912702D9
:1048A00070912802A0912A02B0912B02C62FC72333
:1048B00016E0D81304C0DF91CF911F91089590E0C6
:1048C000109711F0CF3F19F401968770F2CF189F1F
:1048D0009001199F300D1124F901E25DFD4F4181D6
:1048E0004713F2CF40814613EFCF42814111ECCF05
:1048F000438154814A1B5B0B4436510528F7809154
:104900002C028F70806180932C02F901ED5CFD4FC9
:1049100080818F708061808387E292E00E94D31C47
:10492000DF91CF911F910C94850BAF92BF92CF92E4
:10493000DF92EF92FF920F931F93CF93DF93CDB748
:10494000DEB761970FB6F894DEBF0FBECDBF8C0106
:1049500085E0F801DE011D9601900D928A95E1F740
:10496000F801E28087E2A82E82E0B82E60912A0248
:1049700070912B026115710509F432C190912702E3
:1049800040912802892F84238F3F09F429C1208177
:104990003181C380D480F0902902F601E61BF70B29
:1049A000FF2009F4E8C080912C02582F507FE43694
:1049B000F10508F0ABC0511177C0FE2C431321C0A4
:1049C00092131FC0E1101DC08F70806180932C0274
:1049D000C5010E94D31C80912C02F80185838F2D84
:1049E00061960FB6F894DEBF0FBECDBFDF91CF91B9
:1049F0001F910F91FF90EF90DF90CF90BF90AF90FD
:104A00000895CD2829F0822F83238F3F09F011C10B
:104A100080E0F82FF170DF2E80FF3CC080915E02B5
:104A200040912D0256E0841315C02D873E878D8559
:104A30009E850E94C612292F22952F702230F0F0F9
:104A4000243018F59F70F1F0F8019581907FD1F432
:104A5000D12C1EC090E0589FF001599FF00D1124F9
:104A6000E25DFD4F6181361306C06081261303C0ED
:104A70006281E6120FC001968770D5CF9F7011F04A
:104A8000882331F3805E883018F3C8010E94D31C5C
:104A9000FD2CA5CFEE2009F4A2CF80912C028160DD
:104AA00080932C02F12C9BCF431306C0921304C0B9
:104AB000F801EE2009F479C0C8010E94D2128823BF
:104AC00009F1EE20F9F080912C02803270F02091F3
:104AD00027023091280238872F831986DB86CA8601
:104AE0008C87CE0107960E94D31C86E0F801A7E2CE
:104AF000B2E001900D928A95E1F70E943F24FF24D5
:104B0000F3946DCFC8010E94D31CF9CF51110AC094
:104B100087E292E00E94D31C86E0F50111928A950B
:104B2000E9F7C0CF43130FC092130DC0E1100BC0C3
:104B3000F8018583C8010E94D31C86E0F50111921B
:104B40008A95E9F74CCFC8010E94D2128823D1F28E
:104B5000EE20C1F280912C02803238F2209127029F
:104B6000309128023A8329831B82DD82CC828E8396
:104B7000CE010196B8CFE436F105F8F6FE2CEE2012
:104B800009F243131FC092131DC080912C0280FDB7
:104B900010C0982F907F69F0F8018583903F31F025
:104BA000982F907F905F8F70892B8583C8010E941A
:104BB000D31C86E0F801A7E2B2E001900D928A953D
:104BC000E1F70DCFC8010E94D21281118ECF8091E2
:104BD0002C02816080932C02C8010E94D31CFFCE5E
:104BE000EE2009F48FCFC8010E94D212F82E88233C
:104BF00009F488CF86E0F801A7E2B2E001900D92B7
:104C00008A95E1F780912702909128020E94C612AE
:104C100092959F70963051F4863F41F08091260224
:104C200091E0892780932602909325020E943F24D9
:104C3000D6CE81E08E25EDCE0F931F93CF93DF93D9
:104C4000CDB7DEB767970FB6F894DEBF0FBECDBF06
:104C50006D8B7E8B8F8B752F6111109261028E8907
:104C60009F89892B09F487C0872F84238F3F09F000
:104C70005BC07FEF4FEF7FC0902F909589237AC064
:104C800086E0FE013796DE01119601900D928A951D
:104C9000E1F78A859B85892B09F48AC08F819885E5
:104CA00089238F3F09F484C020912D0230E0C9018F
:104CB00001968770992740915E024817190671F492
:104CC0000E94FD1310922D0210925E0286E0E7E230
:104CD000F2E0DF011D928A95E9F76AC096E0929FA3
:104CE000D001939FB00D1124A25DBD4FFE013196FE
:104CF00001900D929A95E1F780932D020E94850B09
:104D000057C0819FC0011124825D9D4F0E94952450
:104D1000882309F454C080915E0290E00196877068
:104D2000992780935E0245C001E010E0042E01C087
:104D3000000F0A94EAF7A72FB0E0AF5FBD4F8C9148
:104D400090912602611102C0982F9023992309F4B3
:104D500093CF50E096E0799F400D511D1124440FF0
:104D6000551FFA01EF5BFE4F7491405C5E4FFA01F4
:104D70004491802B8C931A8A198A4B8B7C8B85E00B
:104D8000FE017396DE011D9601900D928A95E1F762
:104D900086E0FE013D96DE01179601900D928A9500
:104DA000E1F7CE0107960E949524882309F468CF85
:104DB00016E080915E0290912D028913A2CF679632
:104DC0000FB6F894DEBF0FBECDBFDF91CF911F911C
:104DD0000F9108957F928F929F92AF92BF92CF9240
:104DE000DF92EF92FF920F931F93CF93DF93CDB794
:104DF000DEB72F970FB6F894DEBF0FBECDBF8E0182
:104E00000F5F1F4F8AE0D8011D928A95E9F789E963
:104E1000C82E81E0D82EF12CE12CAA24A394B12C29
:104E200029EA822E21E0922EF60181916F018F3FB7
:104E300009F443C0F894E82FE295EF70F0E021A167
:104E40008F70A50102C0440F551F8A95E2F7CA0171
:104E5000922F982B91A392A18095892382A30E94DF
:104E6000680900C0E3EAF1E0712C31E021912F3FA5
:104E700009F47AC0A22FA295AF70B0E090968C9101
:104E800090E02F7002C0959587952A95E2F780FDF6
:104E90006BC0832F782A330F8E169F0639F7F601E1
:104EA000319780818F3F11F00E946A0950EA5A952C
:104EB000F1F7F801EE0DFF1D70828FEFE81AF80A86
:104EC00095E0E916F10409F0AFCF4AE050E0B801EF
:104ED00080EA92E00E94F7337C01892B41F08AE05E
:104EE000F801A0EAB2E001900D928A95E1F71091E5
:104EF000AB02E114F104D1F181E0809367020E94DA
:104F0000DE1B90936602809365028091650290910A
:104F100066020E94CF1B059778F0A0EAB2E0E12F6D
:104F2000F0E0EA51FD4F85EA92E02D9121938A1736
:104F30009B07D9F71092670281E090E0EF28D1F04B
:104F40002F960FB6F894DEBF0FBECDBFDF91CF9185
:104F50001F910F91FF90EF90DF90CF90BF90AF9097
:104F60009F908F907F90089580E094CF809167020A
:104F70008111CBCF0E945211D82EE091AB02DE01FD
:104F80001B967D01882309F473C085E01D928A95E4
:104F9000E9F70E2F10E00A511D4F809199028A30D7
:104FA000A0F546E45AE1B701C8010E940E1188231A
:104FB000D9F148EE59E1B701C8010E940E118823CA
:104FC00099F140EE58E1B701C8010E940E11882303
:104FD00059F144E758E1B701C8010E940E11882336
:104FE00019F1109299028091AA0290E045E050E0F8
:104FF000B7018A519D4F0E94F73321E020936E0242
:10500000892B49F5D12C8D2D9BCF809168029091F1
:1050100069020E94CF1B843F914018F680916E0276
:10502000811112C080E08CCF809199028F3F29F0CE
:105030008F5F809399028A30B0F20E94DE1B9093BA
:10504000690280936802EACF85E0F70111928A95A0
:10505000E9F710926E02A091AA02B0E0AA51BD4FEA
:1050600085E0FE013B9601900D928A95E1F7CBCF4A
:10507000F0E0EA51FD4FF89485E0A2E8B2E001903B
:105080000D928A95E1F765E070E082E892E00E9477
:105090009808809381020E946809F894E091B40214
:1050A000F0E0EF54FD4F80818B878093880261E0B0
:1050B00070E0C7010E949808809387020E946809E7
:1050C000F894C0908902D0908A02E0908B02F09010
:1050D0008C0280916A0290916B02A0916C02B09157
:1050E0006D02C816D906EA06FB06D1F0C0926A0224
:1050F000D0926B02E0926C02F0926D020E9452110B
:1051000081110EC00E944608C61AD70AE80AF90A99
:10511000C0929A02D0929B02E0929C02F0929D0271
:105120000E946809F89480919402882379F180FFA5
:105130000DC080918D0280FF2CC09091CE039160B4
:105140009093CE0360E086950E94721C8091940239
:1051500081FF09C020E04091900260918F02809110
:105160008E020E94E3168091940282FF06C0809115
:105170009302882389F00E94571C8091940283FF38
:1051800003C081E08093F302109294020E946809A8
:1051900049CF0E94F710DACF0E94B308EECF1F92DA
:1051A0001FB61F9211248F939F93AF93BF9380914B
:1051B000EA05811113C08091EB059091EC05A09157
:1051C000ED05B091EE054196A11DB11D8093EB0553
:1051D0009093EC05A093ED05B093EE05BF91AF91D0
:1051E0009F918F911F901FBE1F901895CDB7DEB76E
:1051F000AE970FB6F894DEBF0FBECDBF84B7877FE2
:1052000084BF0FB6F894A895809160008861809360
:105210006000109260000FBE80E890E00FB6F89436
:1052200080936100909361000FBE85B7806885BF51
:1052300085B7806885BF86E699E09093F7018093F3
:10524000F6010E94B6060E9481078091E200846008
:105250008093E20078948091FF058823A1F010915B
:10526000E9001F709091EC00892F817090FD80E81B
:10527000182B1092E9008091E80083FD0E94081429
:105280001F701093E90082E084BD93E095BD9AEF12
:1052900097BD80936E0010929A0210929B0210921A
:1052A0009C0210929D020E94F912811102C00E947C
:1052B00038120E94521180933C0180913C01882356
:1052C00009F46DC01092600184E2809361010E9434
:1052D000521181110E947E3180913C0180913C01EC
:1052E00095E0811190E09093AB0285E0891B80935B
:1052F000AA0209E911E0FEE9EF2EF1E0FF2ED80144
:105300008D918D018F3F11F00E946A09E016F10620
:10531000B1F703EA11E0E9EAEE2EE1E0FE2EF80132
:1053200081918F018F3F11F00E946A09E016F1060A
:10533000B1F78AE0E6EEF2E0DF01282F1D922A9510
:10534000E9F7E0EAF2E0DF011D928A95E9F70E94B1
:10535000831A811102C00E940A1882E090E00E9424
:105360000D348093DB020E94121390939F0280936E
:105370009E020E94EA26EFE3FCE93197F1F700C0B4
:1053800000000E94EA268091E60280FF0CC06FEFC9
:105390007FEF90E080E00E943F340E94B60D84E2EF
:1053A0008093600192CF83E090E00E940D340E94D0
:1053B000360C0E945211811102C00E9481310E945C
:1053C0005211882309F479C283E08093D60280FDCC
:1053D00076C280E88093D3030E9416306DE070E0BF
:1053E0008BE792E00E94E40C892BE9F58091D602CC
:1053F00063E070E081FD65C288E792E00E94E40C02
:10540000892B89F56DE070E088E692E00E94E40C5B
:10541000892B49F50E944608605A75418F4F9F4F6E
:105420006093DE057093DF058093E0059093E105BE
:10543000E6EDF3E080E092E0DF019C011D92215057
:105440003040E1F7F093DD05E093DC058FEF9FEF4F
:105450009093D5038093D40381E08093E3058093F8
:10546000E2051092D7028091AC02811138C00E94EF
:10547000831A811104C00E940A180E94F21788E062
:1054800090E00E9415346093CE037093CF03809315
:10549000D0039093D1038091F80283608093F80247
:1054A0006E7F71F40E94F21788E090E00E9415343C
:1054B0006093CE037093CF038093D0039093D10376
:1054C0000E94BA080E94B3088091CE0380FF04C0F6
:1054D00060E086950E94721C81E08093AC0280910E
:1054E0003C01811106C085EF80934A0184E98093D5
:1054F000490120914A01A22FA295AF70B0E0919688
:105500003C9191972F7081E090E0BC01022E01C088
:10551000660F0A94EAF7462F4095432391964C93E1
:10552000919792963C919297362B92963C939297B4
:1055300040914901E42FE295EF70F0E031A14F7006
:10554000042E01C0880F0A94EAF7982F90959323B0
:1055500091A392A1892B82A390968C9190E002C096
:10556000959587952A95E2F7817020A130E002C0D9
:10557000359527954A95E2F792E020FF90E0892B38
:105580008093B50290913C0181E098279093B402FA
:10559000891B8093AD028DE391E09093E7058093A2
:1055A000E60570E4672E8091FF0500E112E1853089
:1055B00009F4C3C10E94EA26E82E81110E94460820
:1055C00066EE262E62E0362EECEDF2E0D10110E020
:1055D00000E0B02EDD9081918D1509F4BDC18D25BF
:1055E000C12CFF24F394982F9F2109F4B0C10E948D
:1055F0005211882399F0C9A2BAA2DF2081E009F4F0
:1056000080E08BA30E94DE1B8160782F9DA38CA37A
:1056100049A15AA16BA18DA10E941C26F801E45258
:10562000FD4F8081F826F0828091F702882309F4EB
:1056300064C08091F602E091CE03E695E81BE0930A
:10564000F202823009F09FC1F0E0EA56FD4FE4918A
:105650000E2F10E053EEC52E50E1D52E8091F302AF
:10566000882361F01092F3020E944E1C9093F10285
:105670008093F0021092F5021092F4020E944E1CE8
:10568000E091F002F091F1029C012E1B3F0B2F3FA5
:105690003F4798F52091B0022223B1F01092B0025A
:1056A0002091AE023091AF02821B930B8F3F9F4738
:1056B00058F4205D3A483093AF022093AE028091B7
:1056C000F80288608093F802A090F402B090F5028E
:1056D000E00FF11FF093F102E093F00280EF92E00F
:1056E000F60109958091F4029091F502892B29F435
:1056F000AB2819F081E08093B0028091B502E82FC9
:10570000EE0FEE0F90914A01A92FA295AF70B0E075
:1057100090962C9130E09F7002C0359527959A9510
:10572000E2F72170332790914901A92FA295AF701C
:10573000B0E090964C9150E09F7002C0559547950F
:105740009A95E2F7CA018170992740FF02C082E072
:1057500090E0822B8E2B8093B5021091B4028F7053
:10576000E82FF0E0E755FE4F80819091B302890F5A
:105770008093B302F12C82308CF0E12FF0E0EF54F3
:10578000FD4F80818F5F80838AEA112319F01130E9
:1057900019F48BE40E94A011FF24F3948091B302CA
:1057A0008F3F8CF4E12FF0E0EF54FD4F808181506A
:1057B000808389EA112319F0113019F48EE40E94D4
:1057C000A011FF24F3948091B302082E000C990BD2
:1057D00062E070E00E946D338093B302F1100E948A
:1057E000490B8091E305882351F18091D802909173
:1057F000D9020E94CF1BC29708F01FC12091D40389
:105800003091D5032115310509F083C18091E2055E
:105810008823A9F00E9446080091DE051091DF055B
:105820002091E0053091E105601B710B820B930B19
:105830006F3F7F4F8F4F9F4710F40E94140DE11070
:1058400001C0F1100E942F0D0E9475119091DA0293
:10585000891721F00E9475118093DA028091FF056B
:10586000843009F0A0CE83E08093E9008091E800C5
:1058700082FF99CE8091E80090E085FF0CC00E94E5
:10588000D50630E2E32EF12C8E010F5F1F4F8823E7
:1058900009F41EC291E08091E8008B778093E800C4
:1058A000992309F480CEE981E150E33108F074C214
:1058B000F0E0EE57FB4C0C94A33380E086CD80E201
:1058C00089CD85E792E09ACD8091FF05843029F15A
:1058D0000E94140D1092EA0588E190E00FB6F8944A
:1058E000A895809360000FBE6092600083B7817FAF
:1058F000846083BF83B7816083BF7894889583B7C2
:105900008E7F83BF0FB6F894A89580916000886160
:1059100080936000109260000FBE8091FE05882386
:1059200061F00E94EA26E6EEF2E0819181115FC308
:10593000A0EFB2E0AE17BF07C1F78091FF05853039
:1059400009F4C2CF0E94FD130E94751133CEC39497
:10595000FF0C26E0C21247CE0F5F1F4F0A30110521
:1059600009F037CE8FEF8EA38FA318A60E94DE1BFF
:105970008160782F9AA789A74EA15FA168A58AA503
:105980000E941C2651CE863059F4F0E0ED56FD4FB2
:10599000E4910E2F10E043EDC42E40E1D42E5ECEF4
:1059A000893061F4E695F0E0E057FD4FE4910E2F69
:1059B00010E03EE1C32E30E1D32E50CE8F3061F4A3
:1059C000E695F0E0E357FD4FE4910E2F10E022E85A
:1059D000C22E2FE0D22E42CE853159F4F0E0E657A8
:1059E000FD4FE4910E2F10E098EFC92E9EE0D92EC6
:1059F00035CE08E210E0A5E6CA2EAEE0DA2E8831F8
:105A000009F42CCE833249F4E8E8F2E005911491D0
:105A100087E7C82E80E1D82E21CE04EF11E0B5E251
:105A2000CB2EBEE0DB2E843209F418CE00ED17E059
:105A3000F1E4CF2EF8E0DF2E11CE0E94DE1B909312
:105A4000D9028093D80286ED93E09093DD05809390
:105A5000DC050E94521160E0882309F455C083EDF3
:105A600092E00E94B31380910C060E94D30C88230D
:105A700041F0813021F160E084EC92E00E94B313A8
:105A800005C060E08EEC92E00E94F81360E081ECCB
:105A900092E00E94B31360E08BEB92E00E94F81357
:105AA00080910C060E94D30C823031F160F083307B
:105AB00039F160E083EA92E00E94F81309C060E0E7
:105AC00089EC92E0E1CF60E085EB92E00E94B313B5
:105AD00060E080EA92E00E94B3130E94751181FB9E
