:100000000C9421030C9465030C9480030C946503F9
:100010000C9465030C9465030C9465030C946503C0
:100020000C9465030C9465030C947D1E0C9465037D
:100030000C9465030C9465030C9465030C946503A0
:100040000C9465030C9465030C9465030C94650390
:100050000C94650307634236B79BD8A71A396856D4
:1000600018AEBAAB558C1D3CB7CC5763BD6DEDFDDA
:10007000753EF6177231BF000000803F05A84CCDD9
:10008000B2D44EB93836A9020C50B9918688083CD2
:10009000A6AAAA2ABE000000803F000000000000BF
:1000A0000000000000000000000000000000000050
:1000B00000000000000000000000000000007E0FB3
:1000C00000D4FFFFFFC70000007800000000000020
:1000D00000002A2B280000000000000000000000A3
:1000E000000000000029000000002C1E3420212206
:1000F00024342627252E362D3738271E1F2021226F
:10010000232425263333362E37381F0405060708E7
:10011000090A0B0C0D0E0F101112131415161718D7
:10012000191A1B1C1D2F3130232D35040506070815
:10013000090A0B0C0D0E0F101112131415161718B7
:10014000191A1B1C1D2F3130354C00047F3F1F64D2
:100150003214643214783C1E1E140A050001010199
:100160000101010101010202020202020202020374
:100170000303030303030304040404040404050544
:100180000505050606060606070707070708080807
:1001900008090909090A0A0A0B0B0B0C0C0C0D0DB6
:1001A0000D0E0E0E0F0F0F1010111111121213134E
:1001B0001414151516161717181819191A1A1B1BC7
:1001C0001C1D1D1E1E1F2020212222232424252623
:1001D00026272829292A2B2C2D2D2E2F303132325B
:1001E000333435363738393A3B3C3D3E3F40414267
:1001F000434445464748494A4C4D4E4F505153544D
:10020000555658595A5B5D5E5F6162646566686900
:100210006B6C6D6F7072737577787A7B7D7E808280
:10022000838587888A8C8E8F91939596989A9C9EC9
:10023000A0A2A3A5A7A9ABADAFB1B3B5B7BABCBED9
:10024000C0C2C4C6C9CBCDCFD1D4D6D8DBDDDFE2A6
:10025000E4E7E9EBEEF0F3F5F8FAFDFFFFAA7F55CE
:1002600040165C1E001F00200021002200230024F5
:10027000002500260027002D002E002A0035002B27
:100280000014001A000800150017001C0018000CCC
:1002900000120013002F00300031004C0039000420
:1002A000001600070009000A000B000D000E000FE9
:1002B0000033003400000028004B00E10001001D65
:1002C000001B000600190005001100100036003761
:1002D000003800E50052004E00E000E300E20000BC
:1002E00000000000002C0000000000E6000151E4C6
:1002F00000500051004F0035003A003B003C003DEB
:10030000003E003F004000410042004300440045E1
:10031000004C0046000100010001000100005C01EA
:100320000001000100490001000100010048000136
:1003300000010001000100010001000100010001B5
:100340000001000100010001000100000049004A15
:1003500000E10001000100010001000100010001B5
:1003600000A800010001000100E500A9004D00E027
:1003700000E300E2000000000000000100000000B7
:1003800000E6000100E4000100AA000100010001F4
:100390000001000100010001000100010001000155
:1003A0000001000100010001000100010001000145
:1003B0000001000100010001000100010001000135
:1003C00000010048000100010001000100010001DE
:1003D0000001000100010001000100010001000115
:1003E0000000000100010001000100010001000106
:1003F00000010001000100010001000100010001F5
:1004000000010001000100010001000000000000E7
:1004100000010000000000010001000100010001D6
:1004200000010001000100010001000100010001C4
:1004300000010001000100010001000100010001B4
:1004400000010001000100010001000100010001A4
:10045000000100010001000100480001000100014D
:100460000001000100010001000100010001000184
:100470000001000100010000000100010001000175
:100480000001000100010001000100010001000164
:100490000001000100010001000100010001000154
:1004A0000000000000000001000000000001000149
:1004B00000010001000100010005010902A1018500
:1004C000020901A100050919012908150025019556
:1004D00008750181020501093009311581257F95D3
:1004E000027508810609381581257F9501750881F7
:1004F00006050C0A38021581257F950175088106CD
:10050000C0C005010980A101850319012AB70015A2
:100510000126B700950175108100C0050C0901A1E5
:1005200001850419012AA002150126A00295017572
:10053000108100C00660FF0961A101096215002653
:10054000FF009520750881020963150026FF0095BC
:100550002075089102C005010906A101050719E0EF
:1005600029E7150025019508750181029501750897
:1005700081030507190029FF150026FF0095067560
:100580000881000508190129059505750191029555
:100590000175039103C01603440049005300430052
:1005A000490050004C0049004E0045000000200367
:1005B00063006F00730065007900660061006E00E3
:1005C0006E0069007400750074007400690000001A
:1005D0000403090409025B00030100A032090400BE
:1005E000000103010100092101010001224000076F
:1005F000058103080001090401000203000000094D
:1006000021010100012222000705840308000107DF
:1006100005040308000109040200010300000009A9
:100620002101010001227B0007058303080001125C
:1006300001100100000008626B69680100010200FE
:10064000010011241FBECFE5D8E0DEBFCDBF04B648
:1006500003FE24C08091220390912303A0912403E0
:10066000B09125038730904BA740B04BB9F410925E
:10067000220310922303109224031092250314BE28
:1006800084B7877F84BF0FB6F894A89581B5886139
:1006900081BD11BC0FBEE0E0F8E3099523E0A6EFB1
:1006A000B0E001C01D92A232B207E1F710E0A0E66F
:1006B000B0E0E2EDF1E502C005900D92A63FB10772
:1006C000D9F70E94A11E0C94BA280C940000A82F00
:1006D000B92F80E090E041E050EA609530E009C039
:1006E0002D9182279795879510F084279527305E66
:1006F000C8F36F5FA8F30895EADF8D939D93089583
:10070000CF93CFB7CF93DF93C395839BE9F7839BB9
:1007100010C0839B0EC0839B0CC0839B0AC0839B2D
:1007200008C0839B06C0C091FC02C395C093FC0225
:100730008EC06F93C091FB02DD27C050DD4F2F9319
:1007400065E5839B03C02F916F91E1CF0F931F93BA
:100750004F9320E040E15F9300B30C7003FB27F957
:100760003F9350E03BE039C01C7040642F77012F6D
:100770005F5F1EC0406810B31C702F7752501FC0BF
:10078000406400B32F770C70D1F15F5F00C023C0CD
:10079000406210B32F771C7091F15F5F00C025C0DD
:1007A0000C701027515012F45D5F00001150279516
:1007B0002C3F10B3C8F61C700127015027952C3F21
:1007C000C8F64227499300B30C7010274F7311509D
:1007D00027952C3FA8F64695469510B31C7079F0E6
:1007E0000127015027952C3F98F66B5A60F3315042
:1007F00000B3B0F600C010E81ABF00271CC03B5081
:100800003195C31BD04010E81ABF0881033C21F189
:100810000B3411F12091F9021981110F1213EDCF50
:100820004A81441F093679F10D3211F0013E29F752
:100830004F7009F0042F0093FF023F915F914F9199
:100840001F910F912F916F91CAB7C7FD5DCFDF91B7
:10085000CF91CFBFCF9118952091FF02222369F34A
:100860001091FD02112309F049C034300AF448C048
:100870003093FD022093FA021091FB023BE0311B02
:100880003093FB023DC00091FD020130BCF50AE54A
:100890004F7049F430917B0034FD33C000937B00EE
:1008A000C6EDD2E032C0433059F0443091F030917F
:1008B000E10234FD26C00093E102C2EED2E025C081
:1008C0003091160334FD1DC000931603C7E1D3E039
:1008D0001CC03091ED0234FD14C00093ED02CEEE49
:1008E000D2E013C0052710E000C0000002BB1AC010
:1008F000052710E0221F1DC010E021C04AE502C0FC
:1009000032ED432FC4E1D0E032E011B31C60939A82
:1009100002B311BB5CE020E865E320FF052702BBC2
:10092000279517951C3FF0F66695B8F7B1F720FFAD
:10093000052702BB279517951C3FD0F627951795DD
:1009400017FF052700001C3F02BBB0F629913A951E
:1009500019F7037F1091FE02110FC651D04002BB60
:1009600011F01093F90210E81ABF086011B3137F59
:10097000402F437F54E05A95F1F702BB11BB42BBB5
:100980005CCFFC018381833089F130F48130F1F058
:10099000823021F180E00895813209F446C082322C
:1009A000C9F7248135812130310509F45CC0211556
:1009B000310509F450C02230310561F789EB94E02C
:1009C0009093D1028093D0028BE708958FE296E056
:1009D0009093D1028093D00282E1089584ED95E056
:1009E0009093D1028093D0028BE50895828181306B
:1009F000A1F0882351F0823069F686E995E0909362
:100A0000D1028093D00286E1089580ED95E0909325
:100A1000D1028093D00284E008958EEA95E090930D
:100A2000D1028093D00280E208958281813081F0EA
:100A3000882331F0823009F0ADCF8FE196E002C01B
:100A400086EE95E09093D1028093D00289E00895DC
:100A50008FEF95E0F7CF86E595E09093D1028093F4
:100A6000D00280E4089524E335E03093D10220934E
:100A7000D002089508958091CB02089588E198E00E
:100A80000FB6F894A89581BD0FBE91BDA895F894B6
:100A9000D8E0CEE528E3299320E0299314BEFFCFC8
:100AA00008959C014FB7F89480911402909115021B
:100AB000A0911602B09117024FBF821B930B0895AD
:100AC0002FB7F8948091140290911502A09116020C
:100AD000B09117022FBF0895209112023091130296
:100AE0002817390771F09093130280931202E09156
:100AF0001002F0911102309721F00084F185E02D71
:100B00000994089520910E0230910F022817390799
:100B100071F090930F0280930E02E0911002F09119
:100B20001102309721F00680F781E02D0994089595
:100B3000E0911002F0911102309721F00190F081C4
:100B4000E02D099480E00895FA01811101C0FB01B4
:100B50000994089580910902982F9E7F61F4817015
:100B600082608093090280910C02873918F086E92F
:100B700080930C0208958A34B0F381708864F1CFB9
:100B8000AF92BF92DF92EF92FF920F931F93CF939A
:100B9000DF93082F162FE901E42FF0E0E45AFE4F0F
:100BA000611110C0E4915E2F4E2F4983E8835A8370
:100BB000DF91CF911F910F91FF90EF90DF90BF9049
:100BC000AF900895E62EF12C4491D42EE42FF0E05E
:100BD00026E0829FC00111242FEF30E0B9010E946E
:100BE0007C24802F90E0880F991F55E5569FD001F7
:100BF000579FB00D11248A1B9B0B982F990F890FBB
:100C00005901AE18BF08AE9ED001AF9EB00DBE9E7A
:100C1000B00D11245B2F189F80011124012F112783
:100C20005901A01AB10AAE9E8001AF9E100DBE9E62
:100C3000100D11245901A81AB108AE9CC001AF9C37
:100C4000900DBE9C900D1124892F9927281B390BDC
:100C50002E9FC0012F9F900D3E9F900D1124E92FD4
:100C600062307105A1F050F46115710509F49DCF52
:100C70006130710581F0EB2F512F97CF64307105F2
:100C800069F080F06630710509F48FCFF4CFE42F5E
:100C90004B2F592F8ACFE42F412F87CFEB2F542F83
:100CA000492F83CF4B2F5D2DE12F7FCF0E94600511
:100CB0009C019091940180919501982B21F03093A3
:100CC0009101209390019091960180919701982B2A
:100CD00021F030938F0120938E01E0911002F0916A
:100CE0001102309749F082E0809392010480F581EF
:100CF000E02D82E991E00994089540919401803FAC
:100D000059F48091950187FF0DC010929501411112
:100D10000BC010928C0108C0813F81F48091950135
:100D200018169CF3442381F08091960190919701CD
:100D3000892B09F05AC010928B010895823F49F423
:100D400047FFF0CF10929401809195018111ECCF73
:100D5000E0CF833F19F41416ACF3E4CF90919601E1
:100D6000893F29F41916F4F610929601DBCF8A3FD9
:100D700019F497FFD7CFF8CF909197018B3F29F4C3
:100D800097FFD0CF10929701CDCF8C3F19F4191651
:100D9000CCF3C8CF9CE0980F953090F4845F990B0A
:100DA00021E030E0B90102C0660F771F8A95E2F7B3
:100DB000CB01809590919301892380939301B2CFC9
:100DC0008D3F31F480918D018E7F80938D01AACF6C
:100DD0008E3F21F480918D018D7FF7CF8F3F09F0F9
:100DE000A1CF80918D018B7FF0CF089580918D01EF
:100DF00080FD16C081FD16C082FD16C080918B015A
:100E00008823A1F0883280F428E0829FC001112459
:100E100068E270E00E949024862F672B39F00895D5
:100E200082E0089584E0089588E0089581E00895BF
:100E300080918D0180FD14C081FD14C082FD16C01B
:100E400080918C01882381F0843180F422E3829F99
:100E5000C001112464E170E00E949024862F08955F
:100E60008CE0089589E1089585E0089582E308956E
:100E7000803F31F40E941807819580939501089571
:100E8000813F19F40E941807F8CF823F31F40E9485
:100E900018078195809394010895833F19F40E9467
:100EA0001807F8CF893F29F40E94F606809396012F
:100EB00008958A3F21F40E94F6068195F7CF8B3F73
:100EC00031F40E94F60681958093970108958C3F36
:100ED00019F40E94F606F8CF9CE0980F953070F454
:100EE000845F990B21E030E001C0220F8A95EAF778
:100EF00080919301822B8093930108958D3F31F46B
:100F000080918D01816080938D0108958E3F21F441
:100F100080918D018260F7CF8F3FB9F780918D016D
:100F20008460F1CF80E00895F894E82FE295EF70A7
:100F3000F0E031A9282F2F7081E090E001C0880FE8
:100F40002A95EAF7982F9095932391AB92A9892B34
:100F500082AB789408959091600192FF06C0282F8B
:100F600028712830F9F4877F846093FF06C0282F0A
:100F700028712831F1F4877E84612091610120FF7E
:100F800006C0382F38713830D9F4877F816021FF4F
:100F900006C0282F28712831D1F4877E816194FD05
:100FA000877E0895282F24712430F9F68B7F88607E
:100FB000DCCF282F2471243101F78B7E8861DDCFAF
:100FC000382F3171313019F78E7F8860E0CF282FAC
:100FD0002171213121F78E7E8861E1CFCF93DF939C
:100FE000EC0182389105A9F1D8F58133910509F416
:100FF00096C048F58932910509F48AC08A9709F4A8
:1010000095C0C11521E5D20708F0BCC0C11530E577
:10101000D30708F014C1C83ED10508F09CC0C03EFB
:10102000D10560F5C83AD10508F087C0C53AD105A9
:1010300008F0FDC0C130D10509F12097F9F0C430A6
:10104000D105E0F440C08533910509F45AC0C99731
:10105000C1F680916001837089F0C0EED0E00EC0CF
:10106000833E910599F170F4803E910501F1823E35
:10107000910539F68091600182FD21C0CE01DF919A
:10108000CF910895863E910561F1873E910571F1FA
:10109000843E910509F0B5CF8091610181FFEECFCB
:1010A00080916001C7EED0E084FD0DC0E7CF809154
:1010B000600180FD12C19091610190FFDFCFC3EE0E
:1010C000D0E084FFDBCFD0E0C0E0D8CF80916001DA
:1010D00082FD06C19091610190FDBFCF84FFCECF0C
:1010E000F2CF8091600183FDDDCFC8CF8091600198
:1010F00083FDF9C09091610191FFF0CFC4EED0E083
:10110000BDCF8091600185FFB9CFC9E2D0E0B6CFF5
:101110008091600185FFB2CFC5E3D0E0AFCF809171
:10112000600186FFABCFCAE2D0E0A8CF809160011A
:1011300086FFA4CFC1E3D0E0A1CFCF3BD10518F605
:10114000C85AD0E0CC0FDD1FC158DF4F0990D881BD
:10115000C02DD46493CFC11540E2D40758F4C11513
:1011600081E0D80708F08ACFC03FD10508F4ABCFA3
:10117000D06584CFC11590E4D90708F4A4CFDF70FF
:10118000D06A7CCFC11525E5D20700F5C11534E53D
:10119000D30708F08AC0C11543E5D40708F071C031
:1011A000C11582E5D80708F467C0CE01837099277E
:1011B00021E030E002C0220F331F8A95E2F7C69586
:1011C000C69580E2C89FE001112452C0C11599E57F
:1011D000D907A8F4C11528E5D20708F06BC0C115DE
:1011E00036E5D30708F06FCF8C2F0E94AB07C82FCE
:1011F000D0E0DC2FCC27CC27DF71D0623FCFC115E8
:101200004AE5D40708F45BC0CE01905681159042A0
:1012100008F059CF8D2F8F710E94AB0790E0982F67
:10122000882788279F719C012C2BE901E6CFC55A9E
:10123000D0E0C458DF4FC881D0E0D0641FCFCE01CA
:10124000E4E096958795EA95E1F783702C2F269533
:101250002695237040E2249F90011124382B8C2F77
:101260008370C1E0D0E002C0CC0FDD1F8A95E2F7A9
:10127000C22BD32BDC6802CFDC2FCC27C16FD06A06
:10128000FDCECE018370992721E030E002C0220F0D
:10129000331F8A95E2F7C695C69590E2C99FE00193
:1012A0001124C22BD32BDA68E9CEDC2FCC27C46FF4
:1012B000D06AE4CEDC2FCC27C06FD06ADFCE8C2F73
:1012C0008F700E94AB0734E0D695C7953A95E1F749
:1012D000CF709C2FEC01D069D1CEC9E3D0E0CECE47
:1012E000C2EED0E0CBCEC6EED0E0C8CE80915B019E
:1012F000811110925B010895809590915A01982375
:1013000090935A01089580915A0190915901892B27
:1013100090915801892B8093F80090915B0199235B
:1013200091F0892B8093F80020E08AEF90E0FC0197
:101330003191CF0131112F5FF1E080309F07B9F774
:1013400021110E947609E0911002F091110230976C
:1013500031F00280F381E02D88EF90E00994089548
:10136000EAEFF0E09191891303C0DF0111971C921D
:1013700091E0E030F907B1F70895AAEFB0E0EFEFA0
:1013800090E02D91821751F0EF3F19F4211101C027
:10139000E92F9F5F9630A9F7EF3F09F408950E2ECD
:1013A000000CFF0BE850FF4F828308958091560197
:1013B00090912501981301C008958F5F8770FACF2F
:1013C0002FE0929F800D1124982F97708695869517
:1013D000869523E0829FF0011124EF5FFE4F50E0DD
:1013E00040E080E0219130E0092E02C0369527953B
:1013F0000A94E2F721703327042E01C0220F0A94C9
:10140000EAF7822B4F5F5F4F4330510559F708953C
:101410002FE0929F800D1124982F977041E001C01A
:10142000440F9A95EAF786958695869593E0899F6D
:10143000F0011124EF5FFE4F90E080E070E05191E9
:10144000DF0111979B01082E02C0369527950A945B
:10145000E2F7217021952527242325272C93019637
:101460008330910561F7089590E080E00E94820545
:1014700090E080E00E946C05109259011092580192
:101480000E94830986E0E2E9F1E0DF011D928A957E
:10149000E9F710928C0110928B0110928D010C943F
:1014A00056068093D5020C94340A8091D502982F69
:1014B0009670963019F488600C94510A877FFCCF9F
:1014C00021E030E001C0220F8A95EAF72095809153
:1014D000D50282230C94510A90915701809589235B
:1014E00080935701282F277091F4282F082E000C85
:1014F000330B9217130659F09091610192FD07C0CA
:101500008595859585950E94600A109257010895EA
:1015100021E030E001C0220F8A95EAF78091D502E0
:10152000822B0C94510A80935C010C94340A88231A
:1015300021F00E947C090C9483090895882339F0D6
:1015400090915A01982B90935A010C948309089515
:10155000882309F452C0823871F40E94980581FFF3
:101560004CC089E30E94BD090E94830989E30E945F
:10157000B0090C948309833859F40E94980580FFC0
:101580003CC083E50E94BD090E94830983E5EFCF3B
:10159000843859F40E94980582FF2FC087E40E9486
:1015A000BD090E94830987E4E2CF9CEF980F913A2E
:1015B000F0F290E2980F983050F4877091E001C0FB
:1015C000990F8A95EAF7892F0E947C09D2CF9BE573
:1015D000980F933020F490E080E00C94820598E519
:1015E000980F973120F490E080E00C946C05803FD8
:1015F00020F00E947D060C9456060895CF93DF9349
:101600008091FD02835087FD14C09091FB02CCE0D5
:10161000D0E0C91BD109C050DD4F9091FA02903142
:1016200008F06BC0883009F453C01092C0021092C9
:10163000FD0280917B0084FF3EC080917A008F3F45
:10164000D1F1C82F893008F0C8E0982F9C1B9093E7
:101650007A009091D60228E892279093D6028823A8
:10166000E9F08091D0029091D1022091CF0226FF23
:1016700006C1FC012C2FA7EDB2E034913D933196C9
:101680002150D9F79C012F5F3F4F8FEF8C0F820FB6
:10169000932F911D9093D1028093D0026C2F87EDF0
:1016A00092E00E947C03CC5FCC3019F08FEF8093E6
:1016B0007A00C0937B0084E190B39C7031F4815038
:1016C000D9F71092FE021092F902DF91CF9108959E
:1016D0008091C002893108F0A8CFE82FF0E0E056F1
:1016E000FD4F9E01285F3F4F999191932C173D0725
:1016F000D9F7885F8093C0029ACF9D3209F0A3C0CA
:10170000883009F094CF83EC8093D6028AE58093E9
:101710007B001092CF028881807609F447C0803226
:1017200029F58981813099F48C819D81892BF1F48F
:1017300082EC92E09093D1028093D00288E09F8166
:10174000911131C09E81981770F5892F2CC082307D
:1017500041F481EC92E09093D1028093D00281E039
:10176000EECF8A3029F48B818093C10280E0E7CFED
:101770008930E1F78A819B818115924069F48C81DF
:101780009D81892B49F481E08093CE028E819F81D7
:101790009093CD028093CC02888187FF52C08E81C6
:1017A00090E89093CF0280937A0041CF2A811092E3
:1017B000DF02998191110AC01092E0022FED32E010
:1017C00082E03093D1022093D002B9CF953029F432
:1017D0002093FE022FED32E0F4CF9630C1F49B81CE
:1017E000913049F4CE010E94C10490E49093CF025D
:1017F0008F3F91F2A4CF9230A9F3933099F39132B5
:1018000089F3923279F390E49093CF0298CF983095
:1018100089F0993019F42093CA02DCCF9A3071F024
:101820009B30C1F69BE49093E20290931703909350
:10183000EE02D0CF2AEC32E081E0C3CF2FED32E0D0
:10184000FBCF8FEFADCF8091CF0287FFF0CE80919D
:10185000CC029091CD02892B71F08091CE02813023
:1018600051F488818093CB021092CD021092CC0269
:1018700010927A00DCCE8EE180937B00D8CEDC0122
:101880002C2FE7EDF2E03D9131932150E1F7FACEB4
:101890001F93CF93DF93E82F792F162FEA018881CA
:1018A00084FF1CC0298188E828272983CE0102965D
:1018B000DC012E2F372F512F5E0FF90121912D932F
:1018C0009F01452F4E1B1416C4F3612F0E947C0309
:1018D0001C5F1883DF91CF911F9108958AE588835B
:1018E000E5CF2091160324FF05C046E153E066E0F2
:1018F0000C94480C089590919F02981307C0209172
:101900009D0230919E0226173707B9F080939F02FF
:1019100070939E0260939D0280939A0270939C0242
:1019200060939B028091160384FF07C046E153E059
:1019300063E08AE992E00C94480C0895BC0184E0CD
:101940000C947B0CBC0183E00C947B0CCF93DF9355
:10195000CAE0D0E08091E10284FF1CC0809198022F
:1019600090919902981799F028E0829FC001112464
:1019700041EE52E068E0885E9D4F0E94480C8091E5
:10198000980290E001968F70992780939802DF91DA
:10199000CF9108950E94FE0A8FE99FE00197F1F729
:1019A00000C000002197B1F6F2CFCF93DF93EC0196
:1019B000A0919902B0E0CD0101968F7099272091F6
:1019C0009802281779F093E0AA0FBB1F9A95E1F7C8
:1019D000A85EBD4F98E0FE0101900D929A95E1F747
:1019E000809399020E94FE0A0E94A60C88E0FE01E4
:1019F000A2ECB2E001900D928A95E1F7DF91CF91D0
:101A000008958091090280FD0AC0E3EAF1E01182A5
:101A100010821282339652E0E930F507C1F7A79A97
:101A200035B33F7725B320684FB7F89483EA91E048
:101A3000FC015191CF0168E025BB000000C057FFB9
:101A400035BB550F000000C000C000C035BB00C052
:101A50006A9591F7F2E089309F0751F74FBF8FE504
:101A600094E00197F1F700C000000895EF92FF9213
:101A70000F931F93CF93DF938C01C3EAD1E0F12C36
:101A8000E12CF801948160910B0280910A02F1E14E
:101A9000EF16F10414F5992311F140910C02473926
:101AA00008F046E99E010E94C0052FEFE21AF20AF3
:101AB000239682E2E816F10421F70E94010DF80155
:101AC000848190E00196817099278483DF91CF9182
:101AD0001F910F91FF90EF9008959923F1F29E01CD
:101AE00040E0E1CF8F929F92AF92BF92CF92DF9270
:101AF000EF92FF920F931F93CF93DF93EC014C81F2
:101B0000042F10E09801D8010E9462259B01AC01CE
:101B10000E942D254B015C01E0E2F0E0E01BF10B9F
:101B2000A5E5B0E0AC019B010E942D256B017C0175
:101B30009F01DF010E94B1249B01AC010E94382566
:101B40009B01AC01280D391D4A1D5B1DC701B60163
:101B50000E944025F22E822F90E039E23F1508F4D2
:101B60003EC043E0249F9001112435952795122F04
:101B7000109593EAC92E91E0D92E00E085E5E82E74
:101B8000EF188E2D01FD8F2D412F173908F046E9F2
:101B9000960160910B020E94C0050F5F53E0C50ED5
:101BA000D11C023271F70E94010D9C8181E09923C2
:101BB00019F0903219F48FEF8093790080917900B9
:101BC000890F8C83DF91CF911F910F91FF90EF9040
:101BD000DF90CF90BF90AF909F908F90089525E5B4
:101BE00030E0A901481B590BCA019A01220F331F8B
:101BF000280F391F37FFB9CF2F5F3F4FB6CF0F9355
:101C00001F93CF93DF93C3EAD1E0FE0111821082CC
:101C10001282339682E0E930F807C1F710E000E065
:101C20008091A101082E000C990B08171907A4F147
:101C300080917800082E000C990B8017910764F1B1
:101C400040910C02473908F046E99E0160910B0271
:101C500080910A020E94C0050F5F1F4F2396023237
:101C60001105F1F60E94010D809177009091A1017C
:101C7000980F9093A10120917800280F209378006D
:101C8000121614F491321CF0819580937700DF9145
:101C9000CF911F910F910895198218821A82DCCF7B
:101CA000BF92CF92DF92EF92FF920F931F93CF9349
:101CB000DF93FC018281DD24DA9480FD02C0DD2403
:101CC000D39403EA11E0D0E0C0E022E2B22EF801A2
:101CD00011821082128294E0E92EF12CC12C8091A5
:101CE000A0018C0D83320CF440C06B2D0E946E2439
:101CF000892F082E000C990B8C179D07A9F4809151
:101D00000C028E9DA0018F9D500D11245595479575
:101D100055954795473908F046E9980160910B02BF
:101D200080910A020E94C005CD0CF1E0EF1AF10883
:101D3000B1F621960D5F1F4FC232D10541F60E94C8
:101D4000010D8091A00191E0D91215C0811111C03F
:101D500081E28093A001DF91CF911F910F91FF90BD
:101D6000EF90DF90CF90BF90089587FFC2CF8E5D38
:101D7000C0CF8150EECF90E00196BE010E9490242A
:101D8000E8CFEF92FF921F93CF93DF93EC0183EAAA
:101D9000E82E81E0F82E10E040910C02473908F05F
:101DA00046E98C81970160910B02810F0E94C0056A
:101DB000195F83E0E80EF11C1E3E71F70E94010DD1
:101DC0009A818C8190FF08C08F5F8C83DF91CF91C7
:101DD0001F91FF90EF9008958150F7CF90910902E5
:101DE00090FF0CC0E3EAF1E0818360834283339685
:101DF00092E0E930F907C1F70C94010D08950F93B3
:101E00001F93CF93DF9300D00F92CDB7DEB78C0135
:101E10008091A20181110AC09E012F5F3F4F46E9C8
:101E20006FEF0E94C0058A818093A201F80164814E
:101E3000613069F08091A20140E0662361F040E0EA
:101E4000623011F44091A20180E060E004C0609132
:101E5000A20140E080E00E94EE0EF801848190E053
:101E6000019663E070E00E94902484830F900F90AD
:101E70000F90DF91CF911F910F910895CF93DF9332
:101E800000D00F92CDB7DEB79091090290FF0DC040
:101E9000473908F046E99E012F5F3F4F0E94C00579
:101EA0004B8169818A810E94EE0E0F900F900F90F6
:101EB000DF91CF910895CF93DF93EC01E9E0F2E059
:101EC000438162818C810E943E0F8C818F5F8C8365
:101ED000DF91CF91089510929F0180916E01811141
:101EE00017C081E080936E0180910902982F917054
:101EF00090936D018E7F809309022FEF80E792E02F
:101F0000215080409040E1F700C000000C94010D8A
:101F10000895CF93C82F882309F490C08238C1F464
:101F20000E94980581FD8AC089E30E94BD090E9434
:101F300083092FEF81EE94E0215080409040E1F73B
:101F400000C0000089E30E94B009CF910C9483097E
:101F50008338A1F40E94980580FD70C083E50E943B
:101F6000BD090E9483092FEF81EE94E0215080404B
:101F70009040E1F700C0000083E5E5CF8438A1F48C
:101F80000E94980582FD5AC087E40E94BD090E9404
:101F900083092FEF81EE94E0215080409040E1F7DB
:101FA00000C0000087E4CFCF8CEF8C0F813A68F43B
:101FB000EAEFF0E08191C817D9F121E0E030F207B3
:101FC000C9F78C2F0E94BD09C0CF80E28C0F8830EA
:101FD00068F4C77021E030E001C0220FCA95EAF72B
:101FE00080915A01822B80935A01AFCFEBE5EC0F21
:101FF000E33040F4F0E0E458FF4F808190E0CF916F
:102000000C948205E8E5EC0FE73150F4F0E0EE0FB8
:10201000FF1FE158FF4F80819181CF910C946C0597
:10202000C03F60F08C2F0E943807CF910C94560669
:102030008C2F0E94B0090E948309C3CFCF910895CD
:102040001F93CF93DF93182FD0E0C0E0893311F4B2
:10205000C0E5D0E0812F0E94890F209731F4812FB5
:10206000DF91CF911F910C94A80A8FE99FE001970F
:10207000F1F700C000002197F0CF0F931F93CF938B
:10208000DF93C62FD42F022FFC0182818823A1F079
:102090006093D4020E9460059093D3028093D20291
:1020A000C77081E001C0880FCA95EAF7DF91CF9130
:1020B0001F910F910C949E0A8091D402681335C031
:1020C0008091D2029091D3020E945105883C9105E3
:1020D00060F510E21D0FCD17B9F080E28C0F88304B
:1020E00040F4C77081E001C0880FCA95EAF70E94EA
:1020F000970A183048F481E09D2F977001C0880F2F
:102100009A95EAF70E949E0A802F0E9420101830AC
:1021100098F4D77081E001C0880FDA95EAF7DF9173
:10212000CF911F910F910C94970AC77081E001C065
:10213000880FCA95EAF7F3CFDF91CF911F910F91E6
:102140000895CF93DF93CFE7D2E060E0CE010E9405
:10215000FA242196C11584E0D807B9F7DF91CF9111
:1021600008956F927F928F929F92AF92BF92CF927B
:10217000DF92EF92FF920F931F93CF93DF9381E64D
:10218000C82E82E0D82E9BEDE92EF12CE701C6592E
:10219000D10936011BC0F50185909490692DC801C5
:1021A0000E94FA24682DC80101960E94FA2482E058
:1021B000A80EB11C0E5F1F4FC017D10761F78EE14B
:1021C000680E711C6E96CE15DF0529F08E010E513A
:1021D00011095301E0CF7E0186E9E80EF11C86E982
:1021E000C80ED11C83E3E81683E0F80679F6DF9188
:1021F000CF911F910F91FF90EF90DF90CF90BF9004
:10220000AF909F908F907F906F900895CF93C82F3D
:102210006FEF811162E283E290E00E94FA246FEF97
:10222000C11165E084E290E00E94FA246FEFC111D1
:1022300066E285E290E0CF910C94FA2480E00E945F
:10224000061160E086E290E00E94FA240E94B1103C
:102250000E94A11081E00C940611CF93C0916101FE
:10226000C2FB992790F9981799F080FBC2F9C093A7
:1022700061016091600184E090E00E94FA246C2F7B
:1022800082E290E00E94FA2482E0CF910C946C0AE2
:10229000CF9108950F931F93CF93DF93C42FD0E076
:1022A000CC0FDD1F2EE1629FC00DD11D112436E938
:1022B000839FC00DD11D1124CE0187960E94E62474
:1022C000082F10E0102F0027CE0188960E94E624E8
:1022D0009801282BC901DF91CF911F910F9108958B
:1022E000462F843038F4753028F46F3018F4672F97
:1022F0000C944A1190E080E00895CF92DF92FF9213
:102300000F931F93CF93DF936C010091D5028091BF
:102310005C01082BC7E0D0E010E0FC2EC8010C2EB9
:1023200002C0959587950A94E2F780FD0CC021972D
:10233000A0F7F12C8F2DDF91CF911F910F91FF907E
:10234000DF90CF900895B6018C2F0E9470110E94EB
:10235000EE07019761F3EECFCF93DF93EC010E947C
:102360007D11BE010E947011DF91CF910C94EE0798
:10237000FC01808191810E94AC11292F2F709295D0
:102380009F7092509E3078F4E92FF0E0E454F74DBE
:102390000C94A424803F19F020F4883E20F481E0BE
:1023A0000895843FE1F380E00895883EC0F3813FC3
:1023B000D1F7F5CF822F869586958695089583E28D
:1023C00090E00E94E624823289F484E290E00E9448
:1023D000E624853059F485E290E00E94E62491E0FD
:1023E000863209F090E0892F8170089580E0FCCF5B
:1023F000CF9384E090E00E94E624C82F82E290E030
:102400000E94E624982F8C2FCF910895CF93DF93CD
:10241000EC016C8170E090E080E00E94BB2620E03F
:1024200030E04FE753E40E94DE252BED3FE049E426
:1024300050E40E94E4270E9451280E9458262BE471
:102440003AE34EE25FE30E94712520EF3BEF48ED57
:1024500052E40E94E4270E948A26462FE9E0F2E037
:10246000628181810E943E0F8C818F5F8C83DF911E
:10247000CF91089560910902669570E04BE050E0BD
:102480008CE690E00E94CC24892B19F481E08093A3
:102490009F010E946005909399018093980108958F
:1024A000CF92DF92EF92FF926B017C010E94AA050E
:1024B000B701A60188E090E0FF90EF90DF90CF9009
:1024C0000C940B255F926F927F928F929F92AF92A6
:1024D000BF92CF92DF92EF92FF920F931F93CF9311
:1024E000DF9300D00F92CDB7DEB7082F762E142FD2
:1024F000622E9091090290FF2DC0E92FE695AE2F34
:10250000B0E0AF52BF4F8C9180939E019E7F92307E
:10251000A1F5473908F046E99E012F5F3F4F672D2F
:10252000802F0E94C0054B8169818A810E94EE0E36
:1025300000930A0270920B0210930C02662051F075
:102540006091090270910A0280910B0290910C0235
:102550000E9450120F900F900F90DF91CF911F911A
:102560000F91FF90EF90DF90CF90BF90AF909F9032
:102570008F907F906F905F900895823019F4109142
:102580000C02D6CF863019F400910A02D1CF8930DF
:10259000D9F3893169F6E9518E2F8170582EE6956D
:1025A000F0E0E45AFD4FA590B490BB2483EAE82EF6
:1025B00081E0F82ED12CC12C92E2892E912CC601FB
:1025C000B4010E947C24802F511016C0860F412F29
:1025D000173908F046E99701672D0E94C005CA0C1B
:1025E000DB1C83E0E80EF11C89E0E81682E0F806C7
:1025F00031F70E94010D9CCF861BE9CFE9E0F2E0A4
:10260000438128E0421B08F440E021E0628181819F
:102610000C946212E9E0F2E0438128E0420F08F4F2
:102620004FEF21E0628181810C946212E9E0F2E0D7
:10263000628128E0621B08F460E021E0438181812F
:102640000C946212E9E0F2E0628128E0620F08F483
:102650006FEF21E0438181810C946212E9E0F2E0A6
:10266000818121E04381628188500C946212E9E00B
:10267000F2E0818121E043816281885F0C946212E3
:1026800080910D02882319F0815080930D02609192
:10269000090270910A0280910B0290910C020C9435
:1026A000501280910D02833018F48F5F80930D02D9
:1026B0006091090270910A0280910B0290910C02C4
:1026C0000C9450129091090290FF36C091708111C4
:1026D00029C0926090930902662351F0609109022B
:1026E00070910A0280910B0290910C020E9450128C
:1026F00060910902669570E04BE050E08CE690E056
:102700000E94CC24892BA9F010929F0181E0809334
:102710009B0120E040910C0260910B0280910A0223
:102720000C946212853210F09864D4CF880F982BE5
:10273000D1CF0E943A12EACF08958091090286957E
:10274000815009F484E261E00C94621380910902E3
:1027500086958F5F853208F081E061E00C9462130A
:102760009091090290FF07C09695981720F0961750
:1027700010F40C94A61361E00C946213E9E0F2E00B
:1027800083E0808311828FEF828386E983831482C2
:1027900060817181828193810C94501210925A0150
:1027A000EAEFF0E086E0DF011D928A95E9F70C94EC
:1027B000340A69EE7EEF90E080E00E94172560E029
:1027C00082E090E00E94FA2460E083E090E00E94C2
:1027D000FA2410925C0160E084E090E00E94FA2408
:1027E00060E082E290E00E94FA2460E085E090E000
:1027F0000E94FA2460E086E090E00E94FA246FEFE5
:1028000087E090E00E94FA2440E050E0BA0188E0BE
:1028100090E00E940B2560E08DE090E00E94FA2499
:1028200040E050E0BA0188E190E00E940B2560E0B2
:1028300087E190E00E94FA2440E050E0BA018CE188
:1028400090E00E940B2570E060E080E290E00E9442
:10285000172540E050E0BA0188E190E00E940B2586
:1028600080E00E9406110E941E1140E050E0BA0173
:102870008FE090E00E940B2540E050E0BA0183E138
:1028800090E00C940B253F924F925F926F927F9253
:102890008F929F92AF92BF92CF92DF92EF92FF9270
:1028A0000F931F93CF93DF9300D000D00F92CDB73B
:1028B000DEB78C01FC0183819481892B31F080810A
:1028C000918189238F3F09F0A8C50F900F900F9039
:1028D0000F900F90DF91CF911F910F91FF90EF908C
:1028E000DF90CF90BF90AF909F908F907F906F9030
:1028F0005F904F903F9008950E947D11F82E682FB1
:1029000089819A810E94080A69817A818F2D0E94AB
:1029100070117C01F8018281882309F471C5970147
:1029200022513F452031310508F03DC58FEF93E03E
:102930000E94E624FEEEEF0E5FE7852E52E0952E14
:102940008823A1F180915701877009F4BECFF80167
:102950008281882309F4B9CF8091610182FDB5CFCE
:1029600082E00F900F900F900F900F90DF91CF911A
:102970001F910F91FF90EF90DF90CF90BF90AF909D
:102980009F908F907F906F905F904F903F900C94AE
:102990006C0A811424E09206A9F2C4010E94E62484
:1029A000811101C0EA943FEF831A930AE110F1CF3D
:1029B0001C821B82442443944AE0342E74018FEF1E
:1029C000E81AF80AC4010E94E62489831A8288233F
:1029D00009F4B8CF9FEF980F933000F58A834982AE
:1029E00092E0890E911CC7010E94E6248B83882304
:1029F00009F4A8CFFE0131967F01F701208122233F
:102A0000E9F2213009F049C091818281913041F48D
:102A1000F2E0EF0EF11C0E94201009C04701EACF3E
:102A2000923049F422E0E20EF11C0E94890F3FEF40
:102A3000E31AF30AE2CF933031F432E0E30EF11CF3
:102A40000E94A80AF4CF943021F08FEFE81AF80A18
:102A5000EECF92E0E90EF11C30E020E0B7016F5FAD
:102A60007F4FF70141818053990B8A30910550F0D7
:102A700021503109E0F28FE99FE00197F1F700C0A2
:102A80000000F6CF329EF001339EF00D11249C0120
:102A90002E0F3F1F842F7B01E1CFE22FF0E0E653A2
:102AA000FF4F5490822F86958695869590E0FC0185
:102AB000E654FF4F64902770712C022E02C075946B
:102AC00067940A94E2F7E1E06E227724FC01E65570
:102AD000FF4FA490B12C022E02C0B594A7940A9483
:102AE000E2F7F1E0AF22BB24FC01E656FF4FC490B1
:102AF000D12C02C0D594C7942A95E2F721E0C222D6
:102B0000DD246114710419F081EE0E94890FA11473
:102B1000B10419F086EE0E94890F852D0E942010C5
:102B2000AB2819F086EE0E94A80A672819F081EEFA
:102B30000E94A80ACD2809F47ACF8CE26CCF81E0FC
:102B40000E94880A0E94550AFDCE81E00E94600A18
:102B5000F9CF82E0F5CF95EFE9169CE5F90609F487
:102B60006AC008F464C027E245EE66EEF6EFEF16A1
:102B7000FCE5FF0609F440C4882309F45FC4109201
:102B8000D40223E0E2162DE5F20608F05BC03AEF2E
:102B9000E3163CE5F30630F4C70182509C454497A8
:102BA00008F056C00E94F811909361018093600173
:102BB00090E1E9169CE5F90609F431C108F0A3C0DB
:102BC000F8E0EF16FCE5FF0609F41BC108F06CC045
:102BD00034E0E3163CE5F30609F405C108F04EC005
:102BE00092E0E9169CE5F90609F4F7C080916001CE
:102BF0008260E3E0EE16ECE5FE0609F4F1C06091B8
:102C00006001F090610184E090E00E94FA246F2D51
:102C100082E290E00E94FA240E94CE1393CE27E233
:102C200045EE65EEE9C326E241EE60EEE5C327E23C
:102C300045EE64EEE1C326E241EE62EEDDC328E23A
:102C400041E0EFCF81E6E8168DE5F80609F4AACF5A
:102C500080915A01F6E1EF16FCE5FF0609F0FBC38F
:102C60008A7A91E009F490E0909300018111FCC010
:102C700089E20E94BD090E94830964CE80916001AF
:102C80008061F6E0EF16FCE5FF0609F4A9C080912B
:102C90006001886027E0E2162CE5F20608F4A0C087
:102CA0008091600180629CC0809160018D7F3CE0DA
:102CB000E3163CE5F30609F493C078F480916001D3
:102CC0008C609AE0E9169CE5F90609F489C008F4DD
:102CD0009CC0809160018E7F83C080916001877F5E
:102CE000FEE0EF16FCE5FF0609F47AC08091600172
:102CF0008B7F2FE0E2162CE5F20608F471C080917C
:102D000060018F7E6DC03CEFE3163CE5F30609F4ED
:102D100082C0A0F594E1E9169CE5F90609F493C098
:102D200098F4F2E1EF16FCE5FF0609F47CC080910F
:102D300060018F7B23E1E2162CE5F20608F450C017
:102D400080916001837F4CC03AEFE3163CE5F306C7
:102D500009F44DC008F051C095E1E9169CE5F9066B
:102D600009F04DCF8091600182FB992790F921E015
:102D7000922790FB82F990FB83F932C0E114EDE5D4
:102D8000FE0609F456C0A0F48091610183602EEF25
:102D9000E2162CE5F20671F1809161018D7F3FEF23
:102DA000E3163CE5F30630F1809161018C7F22C08F
:102DB00082E0E8168DE5F80609F454C008F44CC02A
:102DC000E1E6EE16EDE5FE0609F019CF90916001FF
:102DD000892F8F7E94FF806103C0809160018160A4
:102DE000809360010CCF809160018460F9CF809165
:102DF000610181608093610102CF809161018260F5
:102E0000F9CF809160018064EBCF0E94CE13809156
:102E100060018068E5CF809161018E7FEBCF80916A
:102E200060018F7DDDCF0E94CE13809160018F778E
:102E3000D7CF80916101982F909591708E7F892BCB
:102E400090FB81F9D7CF0E94CE1390916001892F1A
:102E500097FB87F98058C4CF61E08EE090E00E9434
:102E6000FA24CDCE60E0F9CF85E303CF85E3F0C24D
:102E70008091090280FF1BC08E7F809309026091C0
:102E8000090270910A0280910B0290910C020E943B
:102E9000501210929F012FEF30E782E02150304016
:102EA0008040E1F700C000000E94010D4BCD816021
:102EB0008093090261E086950E94621343CD4DE93B
:102EC00053E166EA73E10E94A4053CCD46EA53E172
:102ED0006DE973E1F8CF47E353E16EE273E1F3CFBD
:102EE00046E153E162E273E1EECF4EEF52E16AE078
:102EF00073E1E9CF4AE053E16EEF72E1E4CF41E5DF
:102F000053E160E473E1DFCF61E081E0D5CF65E0BC
:102F100082E00E94B01316CD68E086E0FACF64E14B
:102F20008FE0F7CF67E185E1F4CF62E289E1F1CF8D
:102F300061E083E2C1CF3BE5E3163DE5F30619F11D
:102F40008CE5E8168DE5F80609F0B7C280916101BD
:102F500082FB882780F991E089270E942D11ADC25C
:102F60000E94CE139FEFE4E3FCE09150E040F0407C
:102F7000E1F700C000000E943E05E4CC0E94D91396
:102F8000E1CC81E0EACF80E0E8CFC7010E94E00910
:102F9000D82EA2C22F2D2F70C22E8F2D807F19F018
:102FA000C29490EFC922DD20B9F0CC2069F080E214
:102FB0008E0D883010F0811009C080915A01C82A06
:102FC000C0925A010E9483098E2D4DC080915901F3
:102FD000C82AC0925901F6CF8E2D0E94A80ACC2093
:102FE00009F443C080E28E0D883010F0811004C0D7
:102FF0008C2D0E947C0906C0C09480915901C82282
:10300000C09259010E94830930C03F2D3F70C32EEA
:103010008F2D807F803219F0C29480EFC8228820E3
:1030200089F081E0881609F47FC0DD2009F489C0A9
:10303000BB2009F47FC0F801858180FFC5CF8F7068
:10304000858378C02091610122FF4BC0DD2009F407
:1030500042C0CC2039F080915A01C82AC0925A014E
:103060000E94830980E00E94890F292D2850330B8C
:103070002430310510F40E949805AA2009F425CCCB
:103080008091570180FD21CCF801128285958595AC
:1030900085950E94880AC8010E94431480915701B7
:1030A0008595859585950F900F900F900F900F90B7
:1030B000DF91CF911F910F91FF90EF90DF90CF9014
:1030C000BF90AF909F908F907F906F905F904F9048
:1030D0003F900C94600A80E00E94A80ACC2029F25C
:1030E00087CFDD20A1F090915B018C2D892BB11051
:1030F00003C00E949E0AB9CFE1E0BE12FACF22FDC2
:10310000B4CF981709F4B1CF80935B01AECFB11063
:1031100006C00E9476098C2D0E94970AA6CFF1E086
:10312000BF1609F4A2CFF5CFDD2031F025E02B1535
:1031300008F49BCF8C2DDDCF34E03B1508F495CF00
:10314000EACFBB2041F3F9E38F1209C02FEF37EE2E
:1031500083E0215030408040E1F700C000008E2D18
:103160000E94A80A82CF8F2D86958695837061F084
:10317000813009F07ACFC7019370D11002C090E07E
:1031800080E00E946C0571CFC7019370D11002C01E
:1031900090E080E00E94820568CF8E2DDD2029F02E
:1031A0000E9438070E94560660CF0E947D06FACF23
:1031B0008F2D837091F5D11058CF4E2D42954695A5
:1031C0004770440F440F8E2D8F70042E01C0880F5E
:1031D0000A94EAF72E2D2071E4FE07C02FE030E0BC
:1031E00001C0220F4A95EAF720953F2D3695369576
:1031F0003370323069F050F440915C01313029F085
:10320000822B84230E94930A30CF842B822BFACF07
:10321000282B80915C018227F5CF8695DD2011F067
:103220008F2D8170882309F420CF4E2D429546952D
:103230004770440F440F8E2D8F70042E01C0880FED
:103240000A94EAF72E2D2071E4FE07C02FE030E04B
:1032500001C0220F4A95EAF720953F2D3695369505
:103260003370323069F050F44091D502313029F09A
:10327000822B84230E94510AF8CE842B822BFACF12
:10328000282B8091D5028227F5CF9F2D9F70F92E94
:10329000DD2029F0892F0E94880A8E2D2ACF8E2DBD
:1032A0000E94970A8F2D0E94600ADFCE8E2DE2EFDA
:1032B0008E16B1F1E81570F0F0EF8F16D1F021EF16
:1032C000821691F0DD2009F45EC0B1107DCE8F2D05
:1032D0008F712AC033EF831651F194EF8912F2CF28
:1032E0008091610182FF2FC08F2D8F71DD20D9F277
:1032F0001BC0DD2081F0E4E0EB1508F4B6CE2F2DE5
:103300002F7181E090E001C0880F2A95EAF7909133
:10331000D5028927AFCFF5E0FB1508F4A6CEEFCF95
:103320008F2D8F71D110BFCF0E94880A9ECE80E072
:10333000DD2009F49FCF9F2D9F7181E001C0880F90
:103340009A95EAF797CFDD2099F02F2D2F71F22E65
:10335000822F0E94880A8091610182FD07C038E0B7
:10336000F39EC00111248360809357018F2DDCCF21
:1033700081E00E946C0A81E08B1508F076CE82E035
:103380000E946C0A72CEBB2059F0893309F0E7CE57
:103390009FEFE7EEF3E09150E040F040E1F7DDCE43
:1033A0008F2D8F7180CFF0E1EF16FFE5FF0609F456
:1033B000C6CB21E1E2162FE5F20609F4CACB93EF62
:1033C000E9169CE5F90609F42ECC08F0C4CBF8ED1B
:1033D000EF16FCE5FF0609F422CC29EDE2162CE5F8
:1033E000F20609F42CCC37EDE3163CE5F30609F0C0
:1033F000C3CB26E241EE61EEC8010E943D10A2CA95
:1034000030E1E3163FE5F30609F49FCB91E1E916BD
:103410009FE5F906A1F682E099CB85E0DE011196E1
:1034200001900D928A95E1F7F801228189819A81B4
:10343000211162CA0E94E009F82E66CAF6E1EF1671
:10344000FCE5FF06D1F58091000181110FCD89E2E5
:103450000E94B00910CC82722CECE2162CE5F20628
:1034600009F44DCD08F0ABC096ECE9169CE5F906E1
:1034700009F431CD08F07AC0F3ECEF16FCE5FF0655
:1034800009F41DCD08F061C032ECE3163CE5F3060B
:1034900009F4EECC9AE5E9169DE5F90609F471CD3B
:1034A00008F049CDE114FCE5FF0609F459CD2EEDF5
:1034B000E2162CE5F20609F461CDF8018281E08084
:1034C000F180882309F461CDC7010E947D11D82EB7
:1034D000682FC7010E94080AB7018D2D0E94701144
:1034E0000E94EE077C01882EF801D280B580B2944C
:1034F0003FE0B322809157018770C1F0AD2CDD20F1
:10350000B1F08F2D807F803421F080E28E0D8830E5
:1035100068F08091610182FD09C082E00E946C0A1E
:10352000809157018770AA24A3948111A12C9F2C0C
:1035300092942FE09222FBE0F91508F496CDE92D44
:10354000F0E0E653F74D0C94A42494ECE9169CE5C6
:10355000F90609F4BBCC4EE253E167E373E1E5EC15
:10356000EE16ECE5FE0609F4AECC94CFF9ECEF16BE
:10357000FCE5FF0609F4B9CC88F437ECE3163CE52A
:10358000F30609F4ADCC42E253E166E173E198EC55
:10359000E9169CE5F90609F496CC7CCFEAECEE1628
:1035A000ECE5FE0609F4A6CC40E453E161E573E1E5
:1035B000FBECEF16FCE5FF0609F485CC6BCF21EDA3
:1035C000E2162CE5F20609F4AACCB8F48EECE81663
:1035D0008CE5F80609F49BCC08F496CCEFECEE16DB
:1035E000ECE5FE0609F498CC6EE089E0F0EDEF160C
:1035F000FCE5FF0609F48DCC4DCF24EDE2162CE559
:10360000F20609F492CC78F482EDE8168CE5F8061F
:1036100009F488CC61E088E193EDE9169CE5F906B0
:1036200009F44ACC37CFE5EDEE16ECE5FE0609F4D9
:103630007FCCFDE5EF16FF0609F484C92BCF1F935D
:10364000CF93DF9380912401807FA9F480912101A1
:10365000882389F080915601D091250160911F0146
:1036600070912001A0912201B0912301C62FC723A0
:1036700016E0D81304C0DF91CF911F91089590E018
:10368000109711F0CF3F19F401968770F2CF189F71
:103690009001199F300D1124F901EA5DFE4F41811F
:1036A0004713F2CF40814613EFCF42814111ECCF57
:1036B000438154814A1B5B0B483C510528F780919C
:1036C00024018F70806180932401F901E55DFE4F34
:1036D00080818F70806180838FE191E00E9443142C
:1036E000DF91CF911F910C94D609AF92BF92CF92E8
:1036F000DF92EF92FF920F931F93CF93DF93CDB79B
:10370000DEB761970FB6F894DEBF0FBECDBF8C0158
:1037100085E0F801DE011D9601900D928A95E1F792
:10372000F801E2808FE1A82E81E0B82E609122019D
:10373000709123016115710509F432C190911F0147
:1037400040912001892F84238F3F09F429C12081D2
:103750003181C380D480F0902101F601E61BF70B84
:10376000FF2009F4E8C080912401582F507FE83CE5
:10377000F10508F0ABC0511177C0FE2C431321C0F6
:1037800092131FC0E1101DC08F70806180932401CF
:10379000C5010E94431480912401F80185838F2D77
:1037A00061960FB6F894DEBF0FBECDBFDF91CF910B
:1037B0001F910F91FF90EF90DF90CF90BF90AF904F
:1037C0000895CD2829F0822F83238F3F09F003C16C
:1037D00080E0F82FF170DF2E80FF3CC08091560111
:1037E0004091250156E0841315C02D873E878D85B5
:1037F0009E850E94AC11292F22952F702230F0F067
:10380000243018F59F70F1F0F8019581907FD1F484
:10381000D12C1EC090E0589FF001599FF00D11244B
:10382000EA5DFE4F6181361306C06081261303C036
:103830006281E6120FC001968770D5CF9F7011F09C
:10384000882331F3805E883018F3C8010E94431446
:10385000FD2CA5CFEE2009F4A2CF80912401816038
:1038600080932401F12C9BCF431306C0921304C014
:10387000F801EE2009F479C0C8010E94B81188232C
:1038800009F1EE20F9F080912401803270F020914E
:103890001F013091200138872F831986DB86CA8665
:1038A0008C87CE0107960E94431486E0F801AFE1B1
:1038B000B1E001900D928A95E1F70E941F1BFF2451
:1038C000F3946DCFC8010E944314F9CF51110AC07F
:1038D0008FE191E00E94431486E0F50111928A95F0
:1038E000E9F7C0CF43130FC092130DC0E1100BC016
:1038F000F8018583C8010E94431486E0F501119206
:103900008A95E9F74CCFC8010E94B8118823D1F2FB
:10391000EE20C1F280912401803238F220911F0103
:10392000309120013A8329831B82DD82CC828E83F1
:10393000CE010196B8CFE83CF105F8F6FE2CEE205A
:1039400009F243131FC092131DC08091240180FD12
:1039500010C0982F907F69F0F8018583903F31F077
:10396000982F907F905F8F70892B8583C8010E946C
:10397000431486E0F801AFE1B1E001900D928A9521
:10398000E1F70DCFC8010E94B81181118ECF80914F
:103990002401816080932401C8010E944314FFCE5A
:1039A000EE2009F48FCFC8010E94B811F82E8823A9
:1039B00009F488CF86E0F801AFE1B1E001900D9203
:1039C0008A95E1F780911F01909120010E94AC112E
:1039D0000E941F1BE4CE81E08E25FBCE1F93CF9368
:1039E000DF93CDB7DEB767970FB6F894DEBF0FBE93
:1039F000CDBF4B8B5C8B6D8B7E8B8F8B611110924F
:103A000059011A8A198A85E0FE017396DE011D9616
:103A100001900D928A95E1F786E0FE013D96DE0168
:103A2000179601900D928A95E1F7CE0107960E94B4
:103A3000751B882389F016E080915601909125012D
:103A4000891349C067960FB6F894DEBF0FBECDBF8D
:103A5000DF91CF911F91089586E0FE013796DE0138
:103A6000119601900D928A95E1F78A859B85892BA5
:103A700011F38F81988589238F3FE9F220912501E9
:103A800030E0C90101968770992740915601481787
:103A9000190671F40E94CE1310922501109256015E
:103AA00086E0EFE1F1E0DF011D928A95E9F7C3CFEF
:103AB00096E0929FD001939FB00D1124AA5DBE4F56
:103AC000FE01319601900D929A95E1F780932501C0
:103AD0000E94D609B0CF819FC00111248A5D9E4FFC
:103AE0000E94751B882309F4ADCF8091560190E0A8
:103AF000019687709927809356019ECF4F925F92CF
:103B00006F927F928F929F92AF92BF92CF92DF92ED
:103B1000EF92FF920F931F93CF93DF93CDB7DEB752
:103B20002A970FB6F894DEBF0FBECDBF8E010F5F90
:103B30001F4F8AE0F80111928A95E9F79DEAE92E74
:103B400090E0F92E680122EB422E20E0522E6624EE
:103B50006394712C41EC842E40E0942EF701819106
:103B60007F018F3F09F445C0F894E82FE295EF708C
:103B7000F0E021A98F70A30102C0440F551F8A9560
:103B8000E2F7CA01922F982B91AB92A980958923D5
:103B900082AB789400C0E2EBF0E021E030E0B12CA1
:103BA000A12C41914F3F09F47EC0A42FA295AF7084
:103BB000B0E0D0968C9190E04F7002C095958795BB
:103BC0004A95E2F780FD6FC0C901A82AB92A220FE1
:103BD000331F8E169F0629F7F701319780818F3F9B
:103BE00011F00E94940750EA5A95F1F7F601B1825C
:103BF000A082F2E0CF0ED11C4E145F0409F0AECFCC
:103C00004AE050E0B80182E691E00E94D924FF2406
:103C1000F394009709F4F12C892B09F447C08AE04A
:103C2000F801A2E6B1E001900D928A95E1F781E0FA
:103C300080935F010E94600590935E0180935D0117
:103C400080915D0190915E010E945105059790F170
:103C5000809162019091630190937F0180937E0136
:103C6000809164019091650190938101809380011E
:103C70008091660190916701909383018093820106
:103C800080916801909169019093850180938401EE
:103C900080916A0190916B019093870180938601D6
:103CA00010925F0107C090E080E08FCF80915F01AC
:103CB0008111C6CF8F2D2A960FB6F894DEBF0FBEA6
:103CC000CDBFDF91CF911F910F91FF90EF90DF90CB
:103CD000CF90BF90AF909F908F907F906F905F90AC
:103CE0004F90089590E080E00E94F424893E9E4F1A
:103CF00011F40C94DF1180E0089578941F921FB6A0
:103D00001F9211248F939F93AF93BF9380911402BE
:103D100090911502A0911602B09117020196A11D73
:103D2000B11D8093140290931502A0931602B093D4
:103D30001702BF91AF919F918F911F901FBE1F904F
:103D40001895CDB7DEB760970FB6F894DEBF0FBEFB
:103D5000CDBF0E94600590938A018093890184B74A
:103D6000806884BF84B7806884BF82E997E09093BD
:103D7000F7008093F60085B7886085BF8BB78068B1
:103D80008BBF8BE48093E202809317038093EE0253
:103D90008AE58093E102809316038093ED028B9A6B
:103DA00080E0815009F0BEC28B9878948BE083BF8D
:103DB0008AEF8CBF82E089BF0E94DF11811102C0AF
:103DC0000E941E110DEA10E0E2EBEE2EE0E0FE2E66
:103DD000F80181918F018F3F11F00E949407E01646
:103DE000F106B1F702EB10E071ECE72E70E0F72E70
:103DF000D8018D918D018F3F11F00E949407E0163C
:103E0000F106B1F78AE0EEE7F1E0DF01282F1D921D
:103E10002A95E9F7E2E6F1E0DF011D928A95E9F7DC
:103E20000E94721E811102C00E94D91382E090E0AC
:103E30000E94E624809373010E94F811909361011F
:103E4000809360010E947E1DEFE3FCE93197F1F75A
:103E500000C000000E947E1D80917E0180FF08C08E
:103E60006FEF7FEF90E080E00E9417250E943E05F3
:103E700083E090E00E94E6240E94930A80916C0106
:103E8000811133C00E94721E811104C00E94D91397
:103E90000E94BE1388E090E00E94EE246093090225
:103EA00070930A0280930B0290930C026E7F71F460
:103EB0000E94BE1388E090E00E94EE246093090205
:103EC00070930A0280930B0290930C020E94AA0541
:103ED00010929F018091090280FF04C060E08695E6
:103EE0000E94621381E080936C018998919A88986E
:103EF000909A80B38695817080991CC290E0892B3E
:103F00008093710180E690E09093110280931002FB
:103F1000FFEF20E742E0F15020404040E1F700C0D1
:103F2000000052E0E52EF12C6AE4C62E61E0D62EA8
:103F30008091FC0210918801882309F4FDC1109240
:103F4000FC020E94600590938A01809389011123ED
:103F5000D9F0109288010E94CE130E949805109209
:103F60006E0180916D01882349F080910902816082
:103F70008093090260E086950E9462130E943A12C3
:103F8000809188018111DAC10E94FE0A8091CA02E3
:103F9000882309F4AAC18091E10284FFA6C10E948E
:103FA0007E1D882359F08FB7F894409114025091E8
:103FB000150260911602709117028FBFAEE7B1E053
:103FC000E4E7F1E010E000E0702F8D919D912191E8
:103FD00031912817390709F4D7C12827392760E01C
:103FE000AA24A394B12CA9014A215B21452B09F4F1
:103FF000C5C16F8378879C012A213B2191E0232B47
:1040000009F490E099870E9460058160782F9B8772
:104010008A874F81588569858B850E94EE1C000F29
:10402000111FF801EC58FE4F80819181A826B92616
:10403000B182A08280919F018823D1F180919E015D
:10404000E0910902E695E81BE0939A01823009F0BD
:10405000B2C1F0E0E85AFE4FE4910E2F10E096E076
:10406000A92E92E1B92E80919B01882361F01092D4
:104070009B010E9460059093990180939801109292
:104080009D0110929C010E946005E0919801F091C1
:1040900099018E1B9F0B8F3F9F4750F4E00FF11F3C
:1040A000F0939901E093980188E991E0F501099571
:1040B000E0917101EE0FEE0FE093710180B381FB8F
:1040C000662460F88099D0C180E08629E82BE093CF
:1040D0007101EF70F0E0EF53FF4F8081909170011C
:1040E000890F8093700120E082304CF080916F0145
:1040F0008F5F80936F018AEA0E94201021E08091F7
:1041000070018F3F4CF480916F01815080936F015B
:1041100089EA0E94201021E080917001082E000C95
:10412000990BB7010E94902480937001222359F0CB
:104130008FB7F894409114025091150260911602C5
:10414000709117028FBF86E0E2E9F1E0DE0111967F
:1041500001900D928A95E1F7B0909401A09095019D
:10416000109196010091970110929401109295017F
:1041700010929601109297018B2D8A2909F448C05C
:1041800080919001909191010E9451059C01909124
:104190008C01992309F49DC323333105C8F19F3F56
:1041A00019F09F5F90938C01BB2059F00E94180773
:1041B0009FEF1B140CF491E0899F802D11248093B4
:1041C0009401AA2059F00E9418079FEF1A140CF4CA
:1041D00091E0899F802D1124809395013091940165
:1041E0003323B1F020919501222391F045EB340364
:1041F000C0011124992309F43AC19093940145EB2D
:10420000240390011124332309F435C1309395011F
:10421000812F802B09F448C080918E0190918F01ED
:104220000E9451059C0190918B01992309F44CC384
:1042300025363105C8F19F3F19F09F5F90938B01A0
:10424000112359F00E94F6069FEF11160CF491E02D
:10425000899F802D112480939601002359F00E949C
:10426000F6069FEF10160CF491E0899F802D112423
:1042700080939701309196013323B1F020919701FB
:10428000222391F045EB3403C0011124992309F452
:10429000F6C09093960145EB24039001112433233B
:1042A00009F4F1C0309397018091940190919501A8
:1042B000892B90919601892B90919701892B11F070
:1042C0000E94560686E0FE013196A2E9B1E0019017
:1042D0000D928A95E1F70E949805909172018917D5
:1042E00021F00E949805809372010E94A60C0E9402
:1042F000FE0A8091CA02882309F41ACE809116031F
:1043000084FF16CE8091C002803209F011CEE09178
:10431000A002E150E33108F02DC1F0E0EA52F74D80
:104320000C94A424A895AFE9BFE01197F1F700C061
:10433000000037CD92E0E3CD112389F00E946B0F8E
:104340000E947E1DEEE7F1E088E891E02191319135
:10435000232B09F092C28E179F07C1F7E9CD8091F8
:10436000890190918A010E945105069708F40CCEAC
:1043700081E0809388010E946B0F02CE6F5FAA0CD0
:10438000BB1C6F3009F02FCE0F5F1F4F053011059A
:1043900009F01ACE8FEF8C878D871E860E946005EC
:1043A0008160782F988B8F874C855D856E85888995
:1043B0000E94EE1C3FCE863059F4F0E0EB5AFE4FDF
:1043C000E4910E2F10E08BE5A82E8FE0B82E4BCE97
:1043D000893061F4E695F0E0EE5AFE4FE4910E2F3D
:1043E00010E0B1ECAB2EBEE0BB2E3DCE8F3061F4C1
:1043F000E695F0E0E15BFE4FE4910E2F10E0A0E5C2
:10440000AA2EAEE0BA2E2FCE853159F4F0E0E45B4F
:10441000FE4FE4910E2F10E0FFEFAF2EFDE0BF2E18
:1044200022CE08E210E062E7A62E6DE0B62E8831BB
:1044300009F419CE833241F4F60105911491EFEF9E
:10444000AE2EEEE0BE2E0FCE04EF11E076E3A72EE7
:104450007DE0B72E843209F406CE00ED17E059EA6C
:10446000A52E55E0B52EFFCD82E090E02ECE81E066
:1044700080939401C4CE81E080939501C9CE81E000
:104480008093960108CF81E0809397010DCF109221
:10449000A10289E08093A2021FC08091A102823014
:1044A00009F405C28330D9F0813009F063C02FB719
:1044B000F894609114027091150280911602909107
:1044C00017022FBF0E94AA246093A2027093A30236
:1044D0008093A4029093A50200EA12E0ADC18091FE
:1044E0007E0190917F019827892798279093A302B6
:1044F0008093A20280918001909181019827892761
:1045000098279093A5028093A402809182019091B4
:1045100083019827892798279093A7028093A60262
:1045200080918401909185019827892798279093FD
:10453000A9028093A8028091860190918701982713
:10454000892798279093AB028093AA02C5CF8091C8
:10455000A102823079F46091A2027091A30280914D
:10456000A4029091A5020E94AA2486E290E00E94F3
:10457000FA24B2CF8FEF8093A002AECF4091A30276
:104580006091A2028091A1020E944A119827892776
:1045900098279093A5028093A4029ECFA090A40296
:1045A000B090A502BA24AB24BA248091A102009154
:1045B000A2029EE1099F80011124A6E98A9F000DB5
:1045C000111D11248091A30290E0880F991F080FFC
:1045D000191F6B2DC80187960E94FA246A2DC80105
:1045E0008896C5CF0E94B11077CF8091A102813803
:1045F000D9F068F4803809F06FCF20E04091A20232
:1046000060910B0280910A020E94621265CF82388B
:1046100079F1833809F060CF20E040910C0260917D
:10462000A3028091A202F0CF60E08091A2020E94DA
:1046300062139091A20280910902911111C08E7FA4
:104640008093090210929F01BFEFE0E7F2E0B150C2
:10465000E040F040E1F700C000000E94010D3CCFB7
:1046600081608093090260E086950E94621334CFD6
:104670008091A20280930D022FCF8091A1028138F8
:10468000A9F030F4803809F027CF80910C0202CFD6
:104690008238A1F0833809F01FCF80910A028093FD
:1046A000A20280910B028093A30216CF809109028F
:1046B00080FF02C08695EECE80E0ECCE80910D02A8
:1046C000E9CE6091090270910A0280910B029091EB
:1046D0000C020E94501200CF80E18093A102FCCE18
:1046E00081E08093A10281E8D5CE0091A1021091D2
:1046F000A20210270127102730EAA32E32E0B32EA2
:104700008090A302912CC40180569D4F4C01C8019A
:1047100081589D4F8A149B0409F4DECE0138A1E034
:104720001A0750F40E94E624F50184830F5F1F4F9F
:10473000BFEFAB1ABB0AEBCFD50114961C92F6CF94
:104740000091A1021091A20210270127102720EA50
:10475000822E22E0922EA090A302A00EB12EB11CB8
:10476000C80181589D4F0A151B0509F4B5CE0138C3
:10477000E1E01E0728F4D40114966C910E94FA24FB
:10478000BFEF8B1A9B0A0F5F1F4FEACF0E94A11049
:10479000A3CE84E0A2CF0091A1021091A202102723
:1047A0000127102790EA892E92E0992EA090A3026B
:1047B000B12CF501E056FD4F5F01C80187968A14C0
:1047C0009B0409F489CE0835F2E01F0758F40E94D3
:1047D000E624D40114968C930F5F1F4FFFEF8F1ABE
:1047E0009F0AEBCFF4011482F7CF0091A102109140
:1047F000A20210270127102780EA882E82E0982E37
:10480000A090A302A00EB12EB11CC8018796A016DD
:10481000B10609F461CE083522E0120728F4D4016C
:1048200014966C910E94FA24BFEF8B1A9B0A0F5FBB
:104830001F4FEBCF0E94FE0A8091ED0284FFFACF5A
:104840004DEE52E068E0C8010E94480C085F1F4F1F
:10485000E2E0003C1E0781F78091ED0284FF0AC070
:104860004DEE52E060E090E080E00E94480C109233
:10487000C0025ECB0E94FE0AEFCFF89421B3939A58
:10488000822F8C6081BB92B33CE0932792BBFFE701
:1048900048E381E0F15040408040E1F700C0000073
:1048A00082B3832782BB21BB9398789441CB86E265
:1048B00090E00E94E6241092A2021092A3021092AD
:1048C000A4028093A50208CE2D32314008F0B5CC69
:1048D000EBCC2D32314008F064CC9ACC87FB082E0B
:1048E000062687FD819567FD61950E94C0240EF420
:1048F000919507FC81950895AA1BBB1B51E107C048
:10490000AA1FBB1FA617B70710F0A61BB70B881F5F
:10491000991F5A95A9F780959095BC01CD010895EE
:1049200097FB072E16F4009407D077FD09D00E945C
:104930007C2407FC05D03EF4909581959F4F089507
:10494000709561957F4F0895EE0FFF1F0590F491CC
:10495000E02D0994692796276927782787277827E4
:1049600008950E946225332312F48A1B9B0B0C943A
:10497000BB240E946225B7FF0895821B930B089504
:10498000991B79E004C0991F961708F0961B881FA1
:104990007A95C9F780950895FC014150504030F058
:1049A00001900616D1F73197CF01089588279927EE
:1049B0000895FB01DC0104C08D910190801921F460
:1049C00041505040C8F7881B990B0895E199FECFDC
:1049D0009FBB8EBBE09A99278DB30895A6E1B0E006
:1049E00044E050E00C941F25A8E1B0E042E050E024
:1049F0000C941F25262FE199FECF9FBB8EBBE09A1A
:104A000001970DB2021631F02DBB0FB6F894E29A61
:104A1000E19A0FBE08950396272F0E94FB240E945F
:104A2000FA24252F0E94FB24242F0C94FB240196AA
:104A3000272F0E94FB240C94FA24DC01CB01FC01FB
:104A4000E199FECF06C0FFBBEEBBE09A31960DB2F6
:104A50000D9241505040B8F708950E946225A59FDD
:104A6000900DB49F900DA49F800D911D1124089569
:104A7000B7FF0C942D250E942D25821B930B0895C2
:104A8000A1E21A2EAA1BBB1BFD010DC0AA1FBB1F52
:104A9000EE1FFF1FA217B307E407F50720F0A21BC4
:104AA000B30BE40BF50B661F771F881F991F1A9431
:104AB00069F760957095809590959B01AC01BD015B
:104AC000CF010895A29FB001B39FC001A39F700DB5
:104AD000811D1124911DB29F700D811D1124911D06
:104AE00008955058BB27AA270E9489250C94342783
:104AF0000E94262738F00E942D2720F039F49F3F8E
:104B000019F426F40C94FC260EF4E095E7FB0C94C3
:104B1000F626E92F0E94452758F3BA176207730754
:104B20008407950720F079F4A6F50C9467270EF416
:104B3000E0950B2EBA2FA02D0B01B90190010C01AD
:104B4000CA01A0011124FF27591B99F0593F50F4C5
:104B5000503E68F11A16F040A22F232F342F44271D
:104B6000585FF3CF469537952795A795F040539515
:104B7000C9F77EF41F16BA0B620B730B840BBAF0E5
:104B80009150A1F0FF0FBB1F661F771F881FC2F750
:104B90000EC0BA0F621F731F841F48F48795779564
:104BA0006795B795F7959E3F08F0B0CF9395880F1E
:104BB00008F09927EE0F9795879508950E94F225A2
:104BC0000C9434270E942D2758F00E94262740F08D
:104BD00029F45F3F29F00C94F62651110C946827B4
:104BE0000C94FC260E94452768F39923B1F35523C2
:104BF00091F3951B550BBB27AA27621773078407F0
:104C000038F09F5F5F4F220F331F441FAA1FA9F385
:104C100035D00E2E3AF0E0E832D091505040E69573
:104C2000001CCAF72BD0FE2F29D0660F771F881FD4
:104C3000BB1F261737074807AB07B0E809F0BB0BC7
:104C4000802DBF01FF2793585F4F3AF09E3F5105DB
:104C500078F00C94F6260C9468275F3FE4F3983EB6
:104C6000D4F3869577956795B795F7959F5FC9F7C4
:104C7000880F911D9695879597F90895E1E0660F45
:104C8000771F881FBB1F621773078407BA0720F0BE
:104C9000621B730B840BBA0BEE1F88F7E095089527
:104CA00029F416F00C94F6260C9467270C94FC2635
:104CB0000E944D27A8F39638A0F707F80F92E894C2
:104CC0002BE33AEA48EB5FE70E94FA270F920F9234
:104CD0000F924DB75EB70F920E94B027E4E5F0E067
:104CE0000E94FF264F915F91EF91FF91E595EE1F96
:104CF000FF1F49F0FE57E0684427EE0F441FFA9566
:104D0000E1F74195550B0E947A270F9007FE0C940E
:104D10006E2708950E944D2788F09F5798F0B92F6D
:104D20009927B751B0F0E1F0660F771F881F991FE0
:104D30001AF0BA95C9F714C0B13091F00E946727F4
:104D4000B1E008950C946727672F782F8827B85F04
:104D500039F0B93FCCF3869577956795B395D9F738
:104D60003EF490958095709561957F4F8F4F9F4F42
:104D70000895E89409C097FB3EF49095809570954E
:104D800061957F4F8F4F9F4F9923A9F0F92F96E997
:104D9000BB279395F695879577956795B795F1110C
:104DA000F8CFFAF4BB0F11F460FF1BC06F5F7F4FA9
:104DB0008F4F9F4F16C0882311F096E911C07723BB
:104DC00021F09EE8872F762F05C0662371F096E8C4
:104DD000862F70E060E02AF09A95660F771F881F93
:104DE000DAF7880F9695879597F9089597F99F6751
:104DF00080E870E060E008959FEF80EC0895DF9315
:104E0000CF931F930F93FF92EF92DF927B018C0160
:104E1000689406C0DA2EEF010E94F727FE01E8949D
:104E2000A5912591359145915591A6F3EF010E94E9
:104E30008925FE019701A801DA9469F7DF90EF90C8
:104E4000FF900F911F91CF91DF91089500240A9454
:104E50001616170618060906089500240A94121655
:104E60001306140605060895092E0394000C11F488
:104E7000882352F0BB0F40F4BF2B11F460FF04C035
:104E80006F5F7F4F8F4F9F4F089557FD9058440F8E
:104E9000551F59F05F3F71F04795880F97FB991F99
:104EA00061F09F3F79F08795089512161306140656
:104EB000551FF2CF4695F1DF08C0161617061806E3
:104EC000991FF1CF86957105610508940895E894BE
:104ED000BB2766277727CB0197F908959B01AC0183
:104EE00060E070E080E89FE30C94DE250C94F626E9
:104EF0000C9459280E944D27D8F39923C9F3940F95
:104F0000511DA3F39150504094F059F0882332F092
:104F1000660F771F881F91505040C1F79E3F510583
:104F20002CF7880F911D9695879597F908955F3F07
:104F3000ACF0983E9CF0BB27869577956795B79522
:104F400008F4B1609395C1F7BB0F58F711F460FFF7
:104F5000E8CF6F5F7F4F8F4F9F4FE3CF0C94682751
:104F6000FA01DC01AA0FBB1F9B01AC01BF5728F45B
:104F7000222733274427507820C0B75190F4AB2F15
:104F80000024469537952795011CA395D2F3002060
:104F900071F0220F331F441FB395DAF30ED00C9437
:104FA000712561307105A0E88A07B94630F49B018C
:104FB000AC016627772788279078309621F02083E8
:104FC00031834283538308950E94F7270C9434273A
:104FD0000E94262738F00E942D2720F0952311F0FB
:104FE0000C94F6260C94FC2611240C9468270E943D
:104FF000452770F3959FC1F3950F50E0551F629FB1
:10500000F001729FBB27F00DB11D639FAA27F00D21
:10501000B11DAA1F649F6627B00DA11D661F829F48
:105020002227B00DA11D621F739FB00DA11D621F2D
:10503000839FA00D611D221F749F3327A00D611D4A
:10504000231F849F600D211D822F762F6A2F11242C
:105050009F5750409AF0F1F088234AF0EE0FFF1F5F
:10506000BB1F661F771F881F91505040A9F79E3FB6
:10507000510580F00C94F6260C9468275F3FE4F30A
:10508000983ED4F3869577956795B795F795E7950C
:105090009F5FC1F7FE2B880F911D9695879597F915
:1050A00008959F930E9469280F9007FCEE5F0C946F
:1050B00092289F3F31F0915020F48795779567951E
:1050C000B795880F911D9695879597F908950C943B
:1050D000FC260E944D27D8F3E894E0E0BB279F57B9
:1050E000F0F02AED3FE049EC06C0EE0FBB0F661F63
:1050F000771F881F28F0B23A62077307840728F0E9
:10510000B25A620B730B840BE3959A9572F7803851
:1051100030F49A95BB0F661F771F881FD2F790480F
:105120000C945B28EF93E0FF07C0A2EA2AED3FE072
:1051300049EC5FEB0E9489250E9434270F9003946D
:1051400001FC9058ECE7F0E00C94A6289F938F9315
:105150007F936F93FF93EF939B01AC010E94E42731
:10516000EF91FF910E94FF262F913F914F915F9108
:105170000C94E427F894FFCFCA11CA11D311D311AC
:10518000D511D311D311D311CA11CA11DA11D31108
:10519000D311DA11CA17CA1705180518B318CD1894
:1051A00035183518D81845195619561947224D2261
:1051B000A722BE22CE22F222F5223D236123BA226B
:1051C000BA226C2370237523A023C623C923CB23C3
:0251D000F523C5
:1051D2003B05D50C710CA20C9E0C3A0501191A1B49
:1051E2001C1D1E1F202122010201FF5A818283E21F
:1051F20000E900EA00B500B600B700CD008301CC9B
:10520200008A01920194012102230224022502262E
:105212000227022A02B300B4006F0070006291619B
:10522200906092639364940506363534333231309C
:105232000700FF0100010000FFFF0000010001FF65
:10524200000001020202020606060909090909090B
:105252000F0F0F0F0F0F1515151819191919191905
:065262001919191923249B
:00000001FF
