:100000000C94AC020C94E4020C94E4020C94E40210
:100010000C94E4020C94E4020C94E4020C94E402C8
:100020000C94E4020C94E4020C94BC210C949022F5
:100030000C94DC1B0C94E4020C94E4020C94E40297
:100040000C94E4020C94E4020C94E4020C94E40298
:100050000C94E4020C94631C0C94E4020C94E402EF
:100060000C94E4020C94E4020C94E4020C94E40278
:100070000C94E4020C94E4020C94E4020C94E40268
:100080000C94E4020C94E4020C94E4020C94E40258
:100090000C94E4020C94E4020C94E4020C94E40248
:1000A0000C94E4020C94E4020C94E402165C1E002E
:1000B0001F0020002100220023002400250026002C
:1000C00027002D002E00310035002B0014001A00EF
:1000D0000800150017001C0018000C001200130087
:1000E0002F0030002A004B003900040016000700E2
:1000F00009000A000B000D000E000F003300340051
:10010000280000004E00E1001D001B000600190041
:10011000050011001000360037003800E50000002F
:1001200052000151E0000000E20000002C00E3005A
:1001300000002C000000E60000000000500051000C
:100140004F0001003A003B003C003D003E003F00F4
:10015000400041004200430044004500010001000E
:100160000100010001000100005C0100010001002C
:10017000010001000100010001004C00010001002C
:100180000100010001000100010001000100010067
:100190000100010001000100000001000100010058
:1001A0000100010001000100010001000100010047
:1001B0000100010000000100010001000000010039
:1001C000000001000100000001000000010000002B
:1001D0000000010001000100010001000100010018
:1001E0000100010001000100010001000100010007
:1001F00001000100010001000100010001000100F7
:1002000001000100010001000100010001000100E6
:1002100001000100010001000100010001000100D6
:1002200001000100010001000100010001000000C7
:1002300001000100010001000100010001000100B6
:1002400001000100010001000100000001000100A7
:100250000100000001000000010001000000010099
:100260000000010000000000010001000100010089
:100270000100010001000100010001000100010076
:100280000100010001000100010001000100010066
:100290000100010001000100010001000100010056
:1002A0000100010001000100010001000100010046
:1002B0000100010001000100010001000100010036
:1002C0000100010000000100010001000100010027
:1002D0000100010001000100010001000100010016
:1002E0000000010001000100000001000000010009
:1002F00001000000010000000100000000000100FA
:100300000100010000000000000000002A2B28006E
:1003100000000000000000000000000000000029B4
:10032000000000002C1E3420212224342627252EF4
:10033000362D3738271E1F2021222324252633332C
:10034000362E37381F0405060708090A0B0C0D0E58
:100350000F101112131415161718191A1B1C1D2F24
:100360003130232D350405060708090A0B0C0D0E44
:100370000F101112131415161718191A1B1C1D2F04
:100380003130354C0000000000000000000000008B
:10039000000000000000000000000000000000005D
:1003A00000000000000000007E0F00D4FFFFFFC728
:1003B000000000780C0341007200690073007500B2
:1003C00000000A0346006100740065000000040399
:1003D000090409025B00030100A0FA0904000001FE
:1003E00003010100092111010001224000070581DC
:1003F00003080001090401000203000000092111A3
:1004000001000122220007058203200001070503E5
:10041000032000010904020001030000000921116A
:1004200001000122B600070584032000011201002B
:1004300002000000087EFA0000010001020001062F
:1004400060FF0961A1010962150026FF0095207572
:100450000881020963150026FF00952075089102A6
:10046000C005010902A10185020901A100050919C0
:10047000012908150025019508750181020501096A
:100480003009311581257F950275088106093815D7
:1004900081257F950175088106050C0A38021581B2
:1004A000257F950175088106C0C005010980A1015D
:1004B000850319012AB700150126B70095017510AB
:1004C0008100C0050C0901A101850419012AA002BF
:1004D000150126A002950175108100C005010906CD
:1004E000A1018506050719E029E7150025019508F2
:1004F000750181020507190029EF1500250195F006
:1005000075018102050819012905950575019102FA
:10051000950175039101C005010906A1010507199F
:10052000E029E715002501950875018102950175FF
:100530000881010507190029FF150026FF0095060F
:1005400075088100050819012905950575019102B5
:10055000950175039101C00011241FBECFEFDAE0B1
:10056000DEBFCDBF04B603FE18C08091BD029091DE
:10057000BE02A091BF02B091C0028730904BA7404D
:10058000B04B59F41092BD021092BE021092BF02FD
:100590001092C002E0E0F8E3099511E0A0E0B1E0BC
:1005A000ECE4FAE402C005900D92AC39B107D9F73A
:1005B00022E0ACE9B1E001C01D92AD3BB207E1F72A
:1005C0000E94DF110C94FB240C94000084E0089539
:1005D00081E0089581E008950E94EA020895089557
:1005E0000E94EF020895A5E0B0E0E9EFF2E00C947C
:1005F000672449835A833091A30189819A813111FB
:1006000019C0662399F0222389F00E94E208182F6E
:10061000682F89819A810E94BE0869817A81812F21
:100620000E94C7182596E3E00C9483240E94D0080A
:10063000182FF3CF0E94E20869817A81F1CFFC0183
:10064000262F408151816281738184810E94F3024F
:10065000089581E00895CF93DF93EC0160E00E945C
:100660001F03BE010E94F002DF91CF910895E1E0E7
:10067000F0E0DF0102C0AA0FBB1F6A95E2F7BD01DF
:10068000DF0102C0AA0FBB1F4A95E2F76A2B01C027
:10069000EE0F2A95EAF7962F9823961302C08E2B19
:1006A0000895E0958E230895242F462F682F80917A
:1006B000C2010E9437030E941E0808950E94841000
:1006C00008950E948810089508950E94B0070E941E
:1006D00064032FEF84E39CE0215080409040E1F7D9
:1006E00000C0000008950E9465030E94871C0895C1
:1006F0000E9465030E94AB1C08950F931F93CF9334
:10070000DF938C0161E00E941F03EC01B8010E949D
:10071000D514811106C080E0DF91CF911F910F9118
:100720000895B801CE010E94EC028823A1F3B8011C
:10073000CE010E940D1A882371F3B801CE010E94E8
:10074000C415882341F3B801CE010E947F19882384
:1007500011F3F8018281882361F0CA35FDE5DF07D6
:1007600001F158F4C115ECE5DE0791F0CE3DDC4512
:1007700091F0C8010E94E802CFCFCC358DE5D807B3
:1007800069F090F0C73ADD45A1F70E947803C3CF26
:100790000E947303C0CF0E949B0DF7CF0E94D50C1F
:1007A000E8CF0E94DF0CE5CF0E94E30CE2CF0E946D
:1007B000B81B0E94F40308950E94F8030E94BD1B19
:1007C000089508950E94E103089581E008950E942C
:1007D000E50308950895CF93C82F0E94E2038C2F5C
:1007E0000E94E703CF91089580E00E94EB030895F3
:1007F0000E94691A0E94EB030895CF930E94691A20
:10080000C82F80919E018C1779F0C0939E010E94A1
:10081000481C60939F017093A0018093A101909365
:10082000A2018C2F0E94EB03CF910895ABE0B0E0C2
:10083000ECE1F4E00C9468244F83588769877A8749
:100840008B8761110E94200C1E821D8285E0FE01B3
:100850003796DE01119601900D928A95E1F78C8111
:100860009D81892B61F449815A816B817C818D81C5
:100870009E810E94490B2B96E2E00C94842489818E
:100880009A8189238F3F79F3CE0101960E94290333
:100890008111E9CFF0CFFC01808191810E940F0985
:1008A0000895CF93C82F8823C9F08238C9F40E94D5
:1008B000691A81FD13C089E30E94D80B0E94410C84
:1008C0002FEF87EE93E0215080409040E1F700C089
:1008D000000089E30E94E00B0E94410CCF91089533
:1008E0008338A1F40E94691A80FDF8CF83E50E9445
:1008F000D80B0E94410C2FEF81EE94E021508040F4
:100900009040E1F700C0000083E5E4CF8438A1F413
:100910000E94691A82FDE2CF87E40E94D80B0E94F0
:10092000410C2FEF81EE94E0215080409040E1F7A0
:1009300000C0000087E4CECF8CEF8C0F813A90F49A
:100940006C2F80910001909101010E94DE1A882392
:1009500029F08C2F0E94E00B0E94410C8C2F0E94EA
:10096000D80BBACF80E28C0F883048F4C77081E092
:1009700001C0880FCA95EAF70E94030CADCFEBE5E2
:10098000EC0FE33040F4F0E0EB5BFE4F808190E051
:100990000E949E1AA3CFE8E5EC0FE73150F4F0E097
:1009A000EE0FFF1FE95EFE4F808191810E94B41A15
:1009B00095CFC03F08F492CF8C2F0E9463120E9403
:1009C00036138CCF882309F455C0823879F40E94FD
:1009D000691A81FF4FC089E30E94D80B0E94410C25
:1009E00089E30E94E00B0E94410C0895833859F47A
:1009F0000E94691A80FF3EC083E50E94D80B0E94C6
:100A0000410C83E5EECF843859F40E94691A82FFC5
:100A100031C087E40E94D80B0E94410C87E4E1CFEB
:100A20009CEF980F913AE8F290E2980F983050F4CA
:100A3000877091E001C0990F8A95EAF7892F0E948B
:100A4000090CD1CF9BE5980F933028F490E080E01B
:100A50000E949E1A089598E5980F973128F490E027
:100A600080E00E94B41A0895803F20F00E94BD12D9
:100A70000E94361308951F93CF93DF93182FEB0135
:100A80000E945104209739F4812F0E94E204DF91E3
:100A9000CF911F9108958FE99FE00197F1F700C072
:100AA00000002197EFCF70E060E0893311F460E53A
:100AB00070E00E943B050895882321F00E94030CFA
:100AC0000E94410C0895882321F00E94090C0E9485
:100AD000410C0895B0E0A0E0E0E7F5E00C9461245B
:100AE0006C01D62FC72FFC011281F580F2949FE094
:100AF000F9220E94F90BE82E8823B9F0E12E112388
:100B0000A1F08C2F807F803421F080E28D0F88301F
:100B1000D0F08091970282FF16C082E00E94A40C60
:100B20000E94F90B91E0E82EE926BC2EB2948FE0EA
:100B3000B822FBE0FB1508F468C0EB2DF0E0E350B1
:100B4000FB4D0C944B24E12CF0CF0C2F0F70C07F89
:100B500011F00295007F112399F0002359F080E2F3
:100B60008D0F883010F0D11107C0802F0E94030C28
:100B70000E94410C8D2F41C0802F0E94130CF8CF92
:100B80008D2F0E94E204002309F43FC080E28D0F04
:100B9000883010F0D11104C0802F0E94090C03C0CE
:100BA000802F0E94190C0E94410C2FC00C2F0F7037
:100BB000C07FC03211F00295007FDD2381F0D1307B
:100BC00009F463C0112309F46DC0FF2009F463C068
:100BD000F601858180FFCECF8F7085835CC08091C8
:100BE000970282FD33C0112359F0002329F0802F92
:100BF0000E94030C0E94410C80E00E94510405C039
:100C000080E00E94E2040111C7CFEB2DE850FF0BFA
:100C1000349720F40E94691A0E94EB03EE2089F0B9
:100C20000E94F50B80FD0DC0F60112820E94EF0BB1
:100C30000E943208C6010E9470070E94EF0B0E94BA
:100C40003E08CDB7DEB7E9E00C947D24112389F08E
:100C5000F11006C00E94230C802B0E945C05D5CFAA
:100C600021E0F212F7CF0E94230C802B0E942A0C65
:100C7000CCCFF11006C00E94370C802F0E94630574
:100C8000C4CF31E0F31609F2F6CF112331F085E03D
:100C90008F1508F4BACF802FE0CF94E09F1508F4A9
:100CA000B4CFEBCFFF2049F3D93349F4FFEF27EE60
:100CB00033E0F15020403040E1F700C000008D2FBC
:100CC0000E94E204A2CF8C2F86958695837069F0EE
:100CD000813009F09ACF8D2F9C2F9370111102C093
:100CE00090E080E00E94B41A90CF8D2F9C2F9370DB
:100CF000111102C090E080E00E949E1A86CF8D2FD5
:100D0000112329F00E9463120E9436137ECF0E94A5
:100D1000BD12FACF8C2F837079F5111176CF4D2F3C
:100D2000429546954770440F440F8D2F8F70042EC7
:100D300001C0880F0A94EAF72D2F2071D4FF07C055
:100D40002FE030E001C0220F4A95EAF72095C695C2
:100D5000C695C370822BC23049F058F4C13019F0E7
:100D60000E940C0852CF0E9406084FCF0E94120822
:100D70004CCF0E94030849CF8695112311F08C2F88
:100D80008170882309F441CF4D2F429546954770D5
:100D9000440F440F8D2F8F70042E01C0880F0A94CA
:100DA000EAF72D2F2071D4FF07C02FE030E001C0FB
:100DB000220F4A95EAF72095C695C695C370822BF7
:100DC000C23049F058F4C13019F00E945D081DCFBF
:100DD0000E9457081ACF0E94630817CF0E941E086E
:100DE00014CFCF70112329F08C2F0E9432088D2F41
:100DF00034CF8D2F0E9463058C2F0E943E0805CFB3
:100E0000D23F51F160F4D03FB9F0D13F81F01123CE
:100E100009F449C0F110AECE8C2F8F7121C0D33FA1
:100E200011F1D43FA1F78091970282FD26C08C2F4B
:100E30008F71112311F314C0112349F084E08F1531
:100E400008F4E3CE8C2F8F710E944B08DECE95E024
:100E50009F1508F4DACEF6CF8C2F8F711111CDCFFC
:100E60000E943208D2CE112329F08C2F8F710E945C
:100E70002908CBCE0E942508C8CE112349F0CF7196
:100E80008C2F0E94320863E08C2F0E94860CBDCE0E
:100E900081E00E94A40CE1E0EF1508F0B6CE82E0FC
:100EA0000E94A40CB2CEF110FFCE8C2F8F71A5CF73
:100EB0000F931F93CF93DF93EC01688179818A812F
:100EC0000E941A098C010E9469080E940208B80158
:100ED000CE010E946A05DF91CF911F910F91089575
:100EE000CF93DF93EC018B819C81892B29F0888142
:100EF000998189238F3F51F4DF91CF910895CE01DD
:100F00000E945807CE010E942B03F6CFCE010E940B
:100F10007D038111F4CF0E94F90B882369F38A8144
:100F2000882351F38091970282FFE6CF82E00E94EE
:100F3000A40CE2CF90E080E00E949E1A90E080E056
:100F40000E94B41A0E94200C0E94410C0E9452136D
:100F50000E94361308950E94E80B0E949A07089594
:100F60000E94100C0E94AB07089592959F709630D6
:100F700091F058F4925F9F70923058F4803F19F0CE
:100F800030F4883E30F481E008959A5FF4CF843FD6
:100F9000D1F380E00895883EB0F3813FD1F7F3CFDD
:100FA000FC0183819481892B29F08081918189239F
:100FB0008F3F11F480E00895808191810E940F0994
:100FC0000E94B5070895A5E0B0E0E9EEF7E00C94C3
:100FD00068242596E2E00C948424A6E0B0E0E3EFD8
:100FE000F7E00C9468242696E2E00C94842408959B
:100FF0000E94F70708950E94F8078093C3010E949A
:101000009A07089508950E94FB0708959091C301DF
:10101000892B0E94FB0708959091C30189230E94A8
:10102000FB0708959091C30189270E94FB0708954B
:101030000E94F70708950E94180808950E941B084F
:101040008093C2010E949A07089580E00E941E08C2
:10105000089591E001C0990F8A95EAF7892F0E94BF
:101060001E08089521E030E001C0220F8A95EAF7BA
:101070008091C201822B0E941E08089521E030E079
:1010800001C0220F8A95EAF720958091C201822340
:101090000E941E08089521E030E001C0220F8A95C9
:1010A000EAF78091C20182270E941E08089590915C
:1010B000C201892B0E941E0808959091C2018923C4
:1010C0000E941E0808959091C20189270E941E085F
:1010D00008950895262F277091E001C0990F2A9551
:1010E000EAF723E0769567952A95E1F7FB01EE0F85
:1010F000FF1FE60FF71FE40FF51F50E040E0682FD9
:1011000070E08191DF0111979B01042E02C036959A
:1011100027950A94E2F7217021952827292328276B
:101120002C934F5F5F4F4330510559F70895A82F17
:10113000A77023E0969587952A95E1F7FC01EE0FBD
:10114000FF1FE80FF91FE60FF71F50E040E080E0B7
:10115000219130E00A2E02C0369527950A94E2F7D5
:1011600021703327042E01C0220F0A94EAF7822B44
:101170004F5F5F4F4330510559F70895262F953043
:1011800070F48F3060F4682F70E08FE0989F600DEE
:10119000711D112444EA51E0822F0E946A080895CB
:1011A000292F953068F48F3058F490E064EA71E0AC
:1011B0003FE0239F800D911D11240E949708089500
:1011C00080E00895CF92DF92FF920F931F93CF9309
:1011D000DF936C010091C2018091C301082BC7E02D
:1011E000D0E010E0FC2EC8010C2E02C0959587952A
:1011F0000A94E2F780FD0CC02197A0F7F12C8F2D07
:10120000DF91CF911F910F91FF90DF90CF900895C4
:10121000B6018C2F0E94620F019771F3F0CFCF932C
:10122000DF93EC010E94E208BE010E94620FDF9191
:10123000CF9108951F93CF93DF93EB019091A3017A
:10124000992339F0CB010E940F09DF91CF911F91B3
:101250000895882369F0CB010E94E208182F682FB7
:10126000CE010E94BE08BE01812F0E94620FEDCF09
:10127000CB010E94D008182FF6CF1F93CF93DF9396
:10128000C091C40116E08091C5018C1304C0DF91A8
:10129000CF911F910895D0E01C9FF0011D9FF00D8C
:1012A0001124EA53FE4F4081518162817381848110
:1012B00095810E94ED072196C770E5CF4091F60118
:1012C0005091F7016091F8017091F9018091FA0154
:1012D0009091FB010E94ED0708951F93CF93DF9338
:1012E0008091FB01807F09F049C08091F80188233B
:1012F00009F444C08091C401C091C5016091F60118
:101300007091F701A091F901B091FA01D62FD7237E
:1013100016E0C81799F190E0109711F0DF3F19F42B
:1013200001968770F6CF189F9001199F300D1124F8
:10133000F901EA53FE4F41814713F2CF4081461332
:10134000EFCF42814111ECCF438154814A1B5B0BAB
:10135000483C510528F78091FB018F708061809394
:10136000FB01F901E553FE4F80818F70806180831E
:1013700086EF91E00E9470070E943D09DF91CF91B6
:101380001F910895A1E1B0E0E8ECF9E00C9460242D
:101390008C0185E0F801DE011D9601900D928A9581
:1013A000E1F7F801E28086EFC82E81E0D82E609147
:1013B000F9017091FA016115710509F44EC190911E
:1013C000F6012091F701892F82238F3F09F445C14F
:1013D00040815181A380B480F090F801F501E61BB3
:1013E000F70BFF2009F4EAC08091FB01382F307F12
:1013F000E83CF10508F0A3C031116DC0FE2C2513A7
:1014000016C0941314C0E11012C08F7080618093D5
:10141000FB010E945E09C6010E9470078091FB01DA
:10142000F80185838F2D6196EAE00C947C24A11449
:10143000B10429F0842F85238F3F09F027C180E074
:10144000F82FF170DF2E80FF3CC08091C401209105
:10145000C50136E0821315C04D875E878D859E8558
:101460000E940F09292F22952F702230F0F024308E
:1014700018F59F70F1F0F8019581907FD1F4D12C8F
:101480001EC090E0389FF001399FF00D1124EA53FF
:10149000FE4F6181651306C06081641303C06281E1
:1014A000E6120FC001968770D5CF9F7011F0882388
:1014B00031F3805E883018F3C8010E947007FD2C5C
:1014C000B1CFEE2009F4AECF8091FB018160809313
:1014D000FB01F12CA7CF251306C0941304C0F8011B
:1014E000EE2009F487C0C8010E94D007882319F1B3
:1014F000EE2009F18091FB01803270F02091F6011D
:101500003091F70138872F831986BB86AA868C878E
:10151000CE0107960E94700786E0F801A6EFB1E0C1
:1015200001900D928A95E1F70E946D090E945E0973
:10153000FF24F39477CFC8010E947007F9CF3111CF
:1015400013C07A2DB98AA88A6E2D89890E94E30773
:1015500086EF91E00E94700786E0F60111928A956D
:10156000E9F70E945E09B5CF25130FC094130DC093
:10157000E1100BC0F8018583C8010E94700786E066
:10158000F60111928A95E9F74DCFC8010E94D00764
:10159000882389F2EE2079F28091FB01803208F4F1
:1015A000BBCF2091F6013091F7013A8329831B824A
:1015B000BD82AC828E83CE010196ACCFE83CF105B2
:1015C00008F03EC0FE2CEE2009F4B5CF25132AC04A
:1015D000941328C08091FB0180FD1BC0982F907F41
:1015E000C1F0F8018583903F31F0982F907F905F94
:1015F0008F70892B8583C8010E94700786E0F801EF
:10160000A6EFB1E001900D928A95E1F70E945E0984
:1016100009CF86E0F801A6EFB1E001900D928A951E
:10162000E1F700CFC8010E94D007811175CF8091EA
:10163000FB0181608093FB01C8010E947007F2CE1C
:101640007A2DB98AA88A6E2D89890E94E30786E0DF
:10165000F60111928A95E9F7D9CFEE2009F46BCF04
:10166000C8010E94D007F82E882309F464CF86E0D1
:10167000F801A6EFB1E001900D928A95E1F786EFAF
:1016800091E00E944B040E946D09C0CF81E08E253D
:10169000D7CEACE0B0E0EFE4FBE00C9467244F83DE
:1016A000588769877A878B879C87CE0107960E9427
:1016B000C209882369F08A859B85892B39F04F817F
:1016C0005885842F85238F3F09F06BC016E05FC0DB
:1016D00086E0FE013796DE01119601900D928A9503
:1016E000E1F78A859B85892B89F38F8198858923EA
:1016F0008F3F61F32091C50130E0C90101968770E9
:1017000099274091C4014817190671F40E94B00747
:101710001092C5011092C40186E0E6EFF1E0DF010E
:101720001D928A95E9F7D2CF96E0929FD001939FC0
:10173000B00D1124AA53BE4FFE01319601900D92B7
:101740009A95E1F78093C5010E943D09BFCF819F23
:10175000C00111248A539E4F0E94C2098823E9F0D8
:10176000E091C4011E9FF0011124EA53FE4F408115
:10177000518162817381848195810E94ED078091FE
:10178000C40190E00196877099278093C4018091ED
:10179000C4019091C5018913DACF2C96E3E00C9433
:1017A000832469857A858B859C850E94ED078ECF81
:1017B000682F80910001909101010E945E1B0895A5
:1017C000682F80910001909101010E946C1B089587
:1017D00080910001909101010E947A1B08958091EF
:1017E0001C02859585958595089580911C028770CA
:1017F000089590911C02977081E009F480E00895AB
:1018000080913F02089590913F02892B80933F027F
:101810000895809590913F02982390933F020895F8
:1018200010923F02089590913E02892B80933E02D0
:101830000895809590913E02982390933E020895DA
:1018400010923E02089580911D02089508950E940D
:10185000260C08959091970292FF08C090911D0266
:10186000981721F080931D020E94270C0895809103
:101870001D02882329F010921D0280E00E94270C8F
:101880000895CF93DF93E0910001F09101018091E1
:101890003F028083E0910001F091010180819091ED
:1018A0003E02892B808390911D02992381F0E09163
:1018B0000001F09101018081892B808380910001DA
:1018C000909101010E94CA1A81110E94370CC091A7
:1018D0000001D091010140E250E06CEF71E0CE01D7
:1018E0000E94A324892B59F080E2FE01ACEFB1E005
:1018F00001900D928A95E1F7CE010E94761ADF9150
:10190000CF91089508950E94820C089590919702B6
:1019100092FF11C098E0899F90011124622B60937F
:101920001C020E94320880911C0285958595859540
:101930000E94830C08950E943208089510921C02A0
:1019400080E00E94830C089590911C028095892369
:1019500080931C02282F277091F4282F082E000C4A
:10196000330B9217130659F09091970292FF07C01C
:101970008595859585950E943E080E949E0C089548
:101980009091970292FB222720F9281769F080FB9B
:1019900092F99093970280919602909197020E94FB
:1019A000120D82E00E94A40C08958091970282FBA0
:1019B000882780F991E089270E94C00C089581E072
:1019C0000E94C00C089580E00E94C00C08956FEF43
:1019D0007FEF90E080E00E94E524089590E080E0B1
:1019E0000E94C124883E9E4F19F40E9470140895ED
:1019F00080E0089582E090E00E94B924089583E099
:101A000090E00E94B9240895CF9384E090E00E9472
:101A1000B924C82F82E290E00E94B924982F8C2F1D
:101A2000CF910895CF93C92F682F84E090E00E9452
:101A3000C7246C2F82E290E00E94C724CF910895C2
:101A4000AB01BC018FE090E00E94D9240895AB0166
:101A5000BC0183E190E00E94D924089560E070E029
:101A6000CB010E94270D089560E070E0CB010E9439
:101A7000200D0E942E0D089568EE7EEF90E080E02C
:101A80000E94E52460E082E090E00E94C72460E0CC
:101A900083E090E00E94C7241092C30160E084E0DC
:101AA00090E00E94C72464E082E290E00E94C72494
:101AB00060E085E090E00E94C72460E086E090E06E
:101AC0000E94C7246FEF87E090E00E94C72440E0A7
:101AD00050E0BA0188E090E00E94D92460E08DE0F7
:101AE00090E00E94C72440E050E0BA0188E190E015
:101AF0000E94D92460E087E190E00E94C72440E082
:101B000050E0BA018CE190E00E94D92470E060E0DE
:101B100080E290E00E94E52440E050E0BA0188E1D4
:101B200090E00E94D92480E00E9489140E94B81499
:101B30000E94340D08950E943C0D0895682F8EE098
:101B400090E00E94C72408950E94481C60935002B0
:101B500070935102809352029093530260934C020F
:101B600070934D0280934E0290934F020895089512
:101B700008950E94B80D089508950E94BC0D08951F
:101B80008CE490E10E945F1A0E94B70D0E94B90D8B
:101B9000089581E008950E94C90D0895089508955B
:101BA0000E94CE0D0E94CF0D08950E9468100E94E1
:101BB000EA0308950E94331C0E94C8140E94401139
:101BC0000E94D50D0E94BD0D0895AAE0B0E0EBEE95
:101BD000FDE00C945D240E94561122E4822E22E046
:101BE000922E640110E0F601E190F1906F01812FD7
:101BF0000E948B101F5F153009F449C0E816F906E2
:101C000091F38091540281FD0E9494100E94CB0DAB
:101C1000782E10E0812F0E948B107C01F401A1909E
:101C2000B1904F018A159B0561F1A826BF2400E001
:101C3000CC24C394D12CC5018C219D21892BC1F0CA
:101C40007720B1F00E831F8321E0C7018C219D21F5
:101C5000892B09F420E028870E943C1C8160782FA2
:101C60009A8789874E815F8168858A850E941604DC
:101C70000F5FCC0CDD1C0F30F1F6F4013297F182CE
:101C8000E0821F5F153031F60E94A40D22C0E816D5
:101C9000F90609F0B6CF0E943C1C8C0180914002ED
:101CA0009091410208171907A1F08FEF89838A8369
:101CB0001B820E943C1C8160782F9D838C8349810C
:101CC0005A816B818D810E9416041093410200930A
:101CD00040020E9474130E94FD032A96EDE00C94CA
:101CE0007924CF93DF930E94670FEC01811521E5E2
:101CF000920708F042C0811530E5930708F09FC0B5
:101D0000883E910530F5803E910508F094C0883AF0
:101D1000910588F4853A910508F086C081309105D7
:101D200009F489C0009709F486C0049708F083C0BD
:101D3000D0E0C0E080C08F3B9105D0F7C85AD0E01A
:101D4000CC0FDD1FC85BDE4F0990D881C02DD46455
:101D500072C0811540E2940750F4C11581E0D807A4
:101D600008F069C0C03FD10518F3D06564C0811583
:101D70009044F0F2DF70D06A5EC0811535E59307BC
:101D800018F5811544E5940708F085C0C11583E571
:101D9000D80708F06CC0C11522E5D20708F462C06C
:101DA000CE018370992721E030E002C0220F331F5B
:101DB0008A95E2F7C695C69580E2C89FE001112496
:101DC000C22BD32BDC6837C0811539E59307A8F403
:101DD000811548E5940708F063C0C11586E5D8076A
:101DE00008F0A6CF8C2F0E940910C82FD0E0DC2F5E
:101DF000CC27CC27DF71D0621EC081152AE592075F
:101E000008F453C090568115904208F091CF8D2F61
:101E10008F710E94091090E0982F882788279F7162
:101E20009C012C2BE901E7CFC55AD0E0CA58DE4F00
:101E3000C881D0E0D064CE01DF91CF910895837046
:101E4000992721E030E002C0220F331F8A95E2F784
:101E5000C695C69540E2C49FE0011124C22BD32B46
:101E6000DD68E9CFDC2FCC27C16FD06AE4CFCE018B
:101E70008370992721E030E002C0220F331F8A953A
:101E8000E2F7C695C69540E2C49FE0011124C22B3B
:101E9000D32BDA68D0CFD82FCC27C46FD06ACBCF62
:101EA000D82FCC27C06FD06AC6CF8F700E94091080
:101EB00034E0D695C7953A95E1F7CF709C2FEC01A9
:101EC000D069B9CF0E94C7180E94710E0895823858
:101ED0009105B9F1B0F48133910509F47DC048F45E
:101EE0008932910509F46DC08A32910509F47BC0ED
:101EF00008958533910509F45FC08933910509F18F
:101F00000895833E9105D9F138F4803E910529F179
:101F1000823E910579F10895863E9105D9F1873E7B
:101F2000910509F43EC0843E910541F52091970248
:101F300021FF24C08091960284FD19C087EE90E0B5
:101F4000089520919602237009F05AC020919702BB
:101F500023FF14C089E290E008952091960220FDAD
:101F600038C03091970230FF09C024FF43C090E091
:101F700080E008952091960222FDF7CF08952091E8
:101F8000960222FD3AC03091970230FD39C024FFFD
:101F9000F5CFEDCF2091960223FFF0CF24FDE7CFC0
:101FA000CDCF2091960223FD2EC03091970231FFB4
:101FB000EECF84EE90E008952091960225FFDECFCB
:101FC000C9CF2091960225FD21C02091970223FFC1
:101FD000D5CF89E390E0D2CF2091960226FFCECFD5
:101FE0008AE290E008952091960226FFC7CF81E310
:101FF00090E0089583EE90E0089582EE90E00895D9
:1020000080EE90E0089586EE90E0089585E390E0FC
:1020100008959091960292FF06C0282F28712830CB
:10202000F9F4877F846093FF06C0282F2871283138
:10203000F1F4877E84612091970220FF06C0382F3B
:1020400038713830D9F4877F816021FF06C0282F8E
:1020500028712831D1F4877E816194FD877E0895AF
:10206000282F24712430F9F68B7F8860DCCF282F4D
:102070002471243101F78B7E8861DDCF382F3171D7
:10208000313019F78E7F8860E0CF282F2171213100
:1020900021F78E7E8861E1CF80E008950E94E70CF1
:1020A00008950E9456118FE39CE90197F1F700C053
:1020B00000000E94561180E00E948B1080FF04C037
:1020C0000E944E100E94871C08950E94511008958E
:1020D0000E94EE0C811102C00E949B0D0E94FA0C1E
:1020E000809354020E94040D90939702809396026D
:1020F0000E9465100E94FF0C0E9403088091C2019B
:102100000E941B08089508950E9483100895089561
:102110000E9487100895E82FF0E0EE0FFF1FEE55A4
:10212000FD4F808191810895089580EA8A95F1F7A5
:10213000089500C008950E9495100895F894E82F1E
:10214000E295EF70F0E031A1282F2F7081E090E050
:1021500001C0880F2A95EAF7982F9095932391A3B1
:1021600092A1892B82A378940895CF93DF93C8E836
:10217000D1E089918F3F11F00E949E1081E0CD380F
:10218000D807B9F7C9E7D1E089918F3F11F00E94D4
:102190009E1081E0C838D807B9F7DF91CF91089534
:1021A000AF92BF92DF92EF92FF920F931F93CF9364
:1021B000DF938C01D62EC62FD0E0CE0188579E4FDC
:1021C0007C01FC0120812F3F09F44DC0F894E22FDF
:1021D000E295EF70F0E031A12F7081E090E001C056
:1021E000880F2A95EAF7932F982B91A392A18095B7
:1021F000892382A378940E949910E9E7F1E048E8E6
:1022000051E021E030E0B12CA12C61916F3FA9F1A8
:10221000A62FA295AF70B0E090968C9190E06F7071
:1022200002C0959587956A95E2F780FD26C0C901A1
:10223000A82AB92A220F331F4E175F0731F7F7017B
:1022400080818F3F11F00E949E1061E0A114B104C3
:1022500009F460E08D2D0E949B10CC0FDD1FC00F94
:10226000D11FB982A882DF91CF911F910F91FF906A
:10227000EF90DF90BF90AF90089590E080E0D8CFCE
:102280000E94B5108AE0E2EAF2E0DF01982F1D9289
:102290009A95E9F7E8E9F2E0DF011D928A95E9F7FE
:1022A00085E00E9491110E945E030895AAE0B0E0CB
:1022B000ECE5F1E10C9465248E010F5F1F4F8AE07D
:1022C000F80111928A95E9F7F12C6F2DC8010E944F
:1022D000D010F394F5E0FF12F8CF4AE050E0B801D7
:1022E00088E992E00E94A32421E0009709F420E00D
:1022F000892B41F08AE0F801A8E9B2E001900D9243
:102300008A95E1F745E062EA72E088E992E00E948E
:102310009211182F0E946103812F2A96E5E00C94F8
:1023200081240895CF92DF92EF92FF921F93CF9373
:10233000DF936C017B01C42F222349F081E080935D
:1023400057020E943C1C90935602809355021091B4
:10235000570211110AC010E0812FDF91CF911F9118
:10236000FF90EF90DF90CF9008958091550290916B
:1023700056020E94541C059770F3D0E0CC0FDD1F6D
:10238000AE01B601C7010E94A324892B41F0AE0122
:10239000B601C7010E94B02410925702DDCF10E0B1
:1023A000FBCF0E94961E0E94DA0D0E94A31E089584
:1023B0000E94A81E0E94E50D0E94C21E08950E9460
:1023C000D51B0E947C1E0E94C00D0E94D1110E944C
:1023D000D8110E94D00DFBCF80915E0280FF0DC00E
:1023E0006091070170E0660F771F6038710570F526
:1023F0006115710569F1862F089581FF07C060910D
:10240000070184E0689FB0011124EFCF60910701BC
:1024100082FD0AC080915D028823A9F02091060107
:1024200060910701821710F088E0ECCF869FC00111
:10243000112433E0880F991F3A95E1F7622F70E07D
:102440000E943724D2CF68E070E0D5CF8FE708959F
:1024500081E0089580915E0280FF0CC060910301CD
:1024600070E075956795759567956115710549F1EA
:10247000862F089581FF06C06091030170E0759575
:102480006795F3CF6091030182FD0BC090915C02D0
:102490009923A1F06091020180910301961738F011
:1024A000682F70E06038710500F38FE70895899F09
:1024B000C001112470E00E943724F4CF61E070E085
:1024C000D7CF81E00895803F31F40E94EC118195CF
:1024D000809362020895813F19F40E94EC11F8CFB5
:1024E000823F31F40E94EC1181958093610208953E
:1024F000833F19F40E94EC11F8CF893F29F40E9420
:102500002A128093630208958A3F21F40E942A12BE
:102510008195F7CF8B3F31F40E942A1281958093E9
:10252000640208958C3F19F40E942A12F8CF9CE0AF
:10253000980F953070F4845F990B21E030E001C072
:10254000220F8A95EAF780916002822B80936002C5
:1025500008958D3F31F480915E02816080935E0228
:1025600008958E3F21F480915E028260F7CF8F3F05
:10257000B9F780915E028460F1CF40916102803FA3
:1025800059F48091620287FF0DC0109262024111DE
:102590000BC010925D0208C0813F81F480916202FD
:1025A00018169CF3442381F0809163029091640299
:1025B000892B09F05AC010925C020895823F49F4B9
:1025C00047FFF0CF10926102809162028111ECCF3F
:1025D000E0CF833F19F41416ACF3E4CF909163027B
:1025E000893F29F41916F4F610926302DBCF8A3F73
:1025F00019F497FFD7CFF8CF909164028B3F29F45D
:1026000097FFD0CF10926402CDCF8C3F19F41916EA
:10261000CCF3C8CF9CE0980F953090F4845F990B71
:1026200021E030E0B90102C0660F771F8A95E2F71A
:10263000CB01809590916002892380936002B2CF94
:102640008D3F31F480915E028E7F80935E02AACF2F
:102650008E3F21F480915E028D7FF7CF8F3F09F08E
:10266000A1CF80915E028B7FF0CF08950E943C1C29
:102670009C019091610280916202982B21F030932D
:102680005B0220935A029091630280916402982B1E
:1026900021F030935902209358028FE592E00E9476
:1026A000901A089586E0EFE5F2E0DF011D928A9529
:1026B000E9F710925D0210925C0210925E0208959A
:1026C000FC01828181110EC0838181110BC0848144
:1026D000811108C091E08581811101C090E0892FAE
:1026E0008170089581E0FCCFA6E0B0E0EAE7F3E175
:1026F0000C94672486E0EFE5F2E0DE01119601908C
:102700000D928A95E1F71092610210926202109286
:102710006302109264028B819C81892B89F08091E5
:102720005A0290915B020E94541CAC0190915D0290
:102730009923C9F1809108018417150608F440C057
:102740008D819E81892B91F0809158029091590240
:102750000E94541CAC0190915C02992309F471C051
:10276000809104018417150608F479C0BE016F5FDB
:102770007F4F8FE592E00E948C1B811105C08FE591
:1027800092E00E94601381110E94361386E0FE01E0
:102790003196AFE5B2E001900D928A95E1F7269669
:1027A000E3E00C948324209109018AE0289F9001A2
:1027B00011242417350720F69F5F90935D0202C015
:1027C0009F3FD1F71B81112359F00E94EC119FEF1D
:1027D00011160CF491E0899F802D112480936102E1
:1027E0001C81112359F00E94EC119FEF11160CF47B
:1027F00091E0899F802D11248093620230916102C3
:10280000332309F49DCF20916202222309F498CF4B
:1028100045EB3403C0011124992359F090936102D0
:1028200045EB240390011124332339F030936202E5
:1028300087CF81E080936102F3CF81E080936202D1
:102840007FCF209105018AE0289F90011124241751
:10285000350708F08BCF9F5F90935C0202C09F3FCB
:10286000D1F71D81112359F00E942A129FEF1116F2
:102870000CF491E0899F802D1124809363021E81C6
:10288000112359F00E942A129FEF11160CF491E0C7
:10289000899F802D11248093640230916302332339
:1028A00009F464CF20916402222309F45FCF45EB41
:1028B0003403C0011124992359F09093630245EB2E
:1028C000240390011124332339F0309364024ECF56
:1028D00081E080936302F3CF81E08093640246CF6E
:1028E00083E290E00E94B924833289F484E290E08C
:1028F0000E94B924863059F485E290E00E94B92400
:1029000091E0813009F090E0892F8170089580E096
:10291000FCCFCF93C82F6FEF811163E283E290E089
:102920000E94C7246FEFC11166E084E290E00E942C
:10293000C7246FEFC11161E085E290E00E94C724D7
:10294000CF910895089586E290E00E94B924682FFF
:1029500070E090E080E008950895CF93C62F0E9424
:10296000AC146C2F86E290E00E94C724CF910895AA
:1029700080E00E94891460E070E0CB010E94AD14F9
:102980000E9445180E94241981E00E94891408952C
:102990000E94A2140E94A3140E94AC140E947014FE
:1029A000811102C00E94B8140895CF93FB01C28127
:1029B000CC2309F19C0122513F452031310520F5FE
:1029C00082510E943419C0E08C2FCF91089581E08C
:1029D0000E94320843E062E081E00E945403F3CF9A
:1029E00081E00E943E0843E062E081E00E945403DF
:1029F000EBCF82E0F6CF8031FFE59F0789F381318D
:102A00009F45B9F3C1E0E0CF8031EFE59E07F9F2D1
:102A100081319F45C9F682E0DBCF2FEFFC01208397
:102A20000895EF92FF920F931F93CF93DF93EC01E2
:102A3000062FE881E150E33108F05DC0F0E0E75F88
:102A4000FA4D0C944B2419828AE08A83602FCE01C0
:102A50000E944F1DCDB7DEB7E6E00C94802489813B
:102A6000823069F0833071F08130D9F40E94481CC3
:102A70000E9451246A837B838C839D83E7CF0E94CD
:102A8000A314F6CF7E0110E0812F0E948B10F70176
:102A9000928383831F5FF2E0EF0EF11C1530A1F7E4
:102AA000D5CF602FCE010E940D15D0CF8981823005
:102AB000C1F76A817B818C819D810E9451240E9493
:102AC000AD14C4CF4B816A8189810E940718982771
:102AD000892798279D838C83B9CF2C813D8132270C
:102AE000232732274B816A8189810E942918AECF22
:102AF0000E944518ABCF8FEF8883A8CF0E94D518CE
:102B00008983A4CF0E94D7189827892798279A836A
:102B100089839CCF6B8170E089819A81AE014C5F83
:102B20005F4F9827892798270E94DA188FCF6B81EB
:102B300070E089819A81AE014C5F5F4F98278927A9
:102B400098270E94FF1882CF0E9424197FCF0E94ED
:102B5000F517D6CF6B8170E089819A81AE014C5F09
:102B60005F4F9827892798270E947F186FCF6B8126
:102B700070E089819A81AE014C5F5F4F9827892769
:102B800098270E94A31862CFCF93DF93EC01FB013B
:102B90008281882309F464C1C330FDE5DF07E0F5D5
:102BA000CA3F9CE5D90730F49E0122503C452431B0
:102BB0003105D8F50E94040D9093970280939602F8
:102BC000C231ECE5DE0709F41FC108F06EC0C93060
:102BD0008CE5D80709F4F2C008F03FC0C530ECE539
:102BE000DE0709F4DBC058F5C3308CE5D80709F4DB
:102BF000CDC008F0CFC0809196028160C230DC4524
:102C000009F4AEC080919602909197020E94120D35
:102C10000E94B00780E009C0C53AEDE5DE0751F239
:102C200038F4C1369DE5D90729F2DF91CF91089597
:102C30009E012D5A3D4523303105B8F7BBCF809119
:102C400096028062C730FCE5DF0709F489C008F40A
:102C5000B1C080919602806483C0CD309CE5D907D5
:102C600009F4BAC070F4809196028E7FCB30FCE5F7
:102C7000DF0709F475C008F4A7C0809196028D7F24
:102C80006FC0CF309CE5D90709F4B6C008F4A8C0DE
:102C9000C031FCE5DF0709F4B3C0C131DC4509F000
:102CA000B1CF809196028F7B5BC0CF3F9CE5D90767
:102CB00009F4B4C098F5CA3FFCE5DF0709F472C017
:102CC000B8F4C4319CE5D90709F4B6C008F4A2C031
:102CD000C531DC4509F096CF8091960282FB992799
:102CE00090F921E0922790FB82F990FB83F938C09C
:102CF000CC3F8CE5D80709F477C008F457C0CD3F26
:102D0000ECE5DE0709F474C0809197028360CE3F42
:102D1000DC4509F077CF8093970274CFC1368DE5FB
:102D2000D80709F496C068F4C130EDE5DE0709F470
:102D30008CC008F477C0C230DD4509F063CF80E075
:102D400085C0CD3A9DE5D907E9F068F490919602E7
:102D5000892F8E7F90FF8160C53ADD4509F052CF03
:102D6000809396024FCFCE3A8DE5D80789F1CF3ABE
:102D7000DD4509F047CF90919702892F877F93FF18
:102D80008860C9CF809197028860C5CF80919602F4
:102D90008260E6CF809196028460E2CF80919602B5
:102DA0008860DECF809197028160B5CF80919702D5
:102DB0008260B1CF809196028061D2CF0E94B0072D
:102DC000809196028068CCCF809196028C60C8CFAB
:102DD00080919702877F9FCF809196028B7FC0CF93
:102DE00080919602877FBCCF809197028E7F93CF90
:102DF000809197028D7F8FCF809196028F7EB0CF8A
:102E0000809196028F7DACCF0E94B0078091960290
:102E10008F77A6CF80919602837FA2CF8091970271
:102E20008C7F79CF80919702982F909591708E7FAB
:102E3000892B90FB81F96FCF0E94B0079091960289
:102E4000892F97FB87F980588BCF81E00E949E0DD8
:102E5000D9CE90919602892F8F7E94FF806180CF8A
:102E600081E0E3CEB0E0A0E0E8E3F7E10C94632476
:102E7000E82FF0E0EC5FFC4FD490282F26952695A4
:102E8000269530E0F901EC55FC4F0491877010E075
:102E9000082E02C0159507950A94E2F701701127D4
:102EA000F901EC56FC4FE490F12C082E02C0F59489
:102EB000E7940A94E2F791E0E922FF24F901EC5744
:102EC000FC4FC491D0E002C0D595C7958A95E2F732
:102ED000C170DD270115110519F081EE0E94510422
:102EE000E114F10419F086EE0E9451048D2D0E9428
:102EF0005305E114F10419F086EE0E94E204011575
:102F0000110519F081EE0E94E204CD2B19F08CE23C
:102F10000E945305CDB7DEB7E7E00C947F24EF9213
:102F2000FF920F931F93CF93DF93EC01162F0AE0CC
:102F30008881882309F454C0813009F04EC089810A
:102F4000813099F47E0122E0E20EF11C8A810E9418
:102F50005305E7012196812F815050F3EFE9FFE0FF
:102F60003197F1F700C00000F7CF823041F47E01C5
:102F700082E0E80EF11C8A810E945104EACF83307E
:102F800041F47E01E2E0EE0EF11C8A810E94E2042F
:102F9000E0CF843011F02196DDCF2A81229690E097
:102FA00080E0AE014F5F5F4F2053330B2A30310575
:102FB00048F0019778F2EFE9FFE03197F1F700C0B0
:102FC0000000F7CF089FB001099F700D1124C901BF
:102FD000860F971F2981EA01E4CF0E943217BACFEA
:102FE000CDB7DEB7E6E00C94802484E0089550E08D
:102FF000440F551F9EE1699F400D511D112496E914
:10300000899F400D511D1124CA01879608950F9381
:103010001F93CF93DF938430C8F46530B8F44F30FA
:10302000A8F40E94F7178C010E94B924C82FD0E0A1
:10303000DC2FCC27C80101960E94B9249E01282BC1
:10304000C901DF91CF911F910F91089590E080E029
:10305000F8CF0F931F93CF93DF93122F032F84305A
:1030600078F4653068F44F3058F40E94F717EC019B
:10307000602F0E94C724612FCE0101960E94C724B1
:10308000DF91CF911F910F910895B0E0A0E0EBE4A4
:10309000F8E10C9460248CEAC82E80E0D82ED0E0B1
:1030A000C0E0760110E01CC00E94E60221E030E0A2
:1030B0008C171D0621F01CF0F50125913491402F4D
:1030C000612F8C2F0E94291882E0A80EB11C0F5F7F
:1030D0000F3051F71F5F8EE1E80EF11C153019F02B
:1030E000570100E0E1CF219686E9C80ED11CC4301B
:1030F000D105B9F6CDB7DEB7EAE00C947C24EF92A7
:10310000FF920F931F93CF93DF93EC018A017C0111
:10311000E60EF71ECE018796CE15DF0529F4CDB752
:10312000DEB7E6E00C948024C83522E0D20740F4F4
:103130000E94B924F80180830F5F1F4F2196EACFC8
:10314000F8011082F9CFB0E0A0E0E9EAF8E10C94D0
:1031500062247C016A018C01060F171FEC01CE016D
:103160008796C017D10729F4CDB7DEB7E8E00C94F5
:103170007E24C83522E0D20740F4FE01EE19FF0993
:10318000EC0DFD1D60810E94C7242196E8CF462FDB
:10319000843040F4753030F46F3020F4672F0E9493
:1031A0000718089590E080E0089580E1089581E88F
:1031B00091E00895EF92FF920F931F93CF93DF93C7
:1031C000EC018A017C01E60EF71ECE0181589D4F6D
:1031D000CE15DF0529F4CDB7DEB7E6E00C948024E8
:1031E000C13821E0D20740F40E94B924F80180835D
:1031F0000F5F1F4F2196E9CFF8011082F9CFB0E0A1
:10320000A0E0E5E0F9E10C9462247C016A018C0104
:10321000060F171FEC01CE0181589D4FC017D10733
:1032200029F4CDB7DEB7E8E00C947E24C13821E064
:10323000D20740F4FE01EE19FF09EC0DFD1D60817F
:103240000E94C7242196E7CFCF93DF93CFE7D2E048
:1032500060E0CE010E94C7242196C11584E0D80702
:10326000B9F7DF91CF910895A4E0B0E0EAE3F9E186
:103270000C946324F82E8FE08F1548F18FEF93E0C4
:103280000E94B924811123C00FE712E0F11023C07E
:1032900019821A821B821C82DD24D39478018FEF5D
:1032A000E81AF80AC8010E94B92489831A8288237F
:1032B00071F09FEF980F9330D8F48A83D9820E5F14
:1032C0001F4FC7010E94B9248B83811112C024961D
:1032D000E7E00C947F24011584E01807C1F3C801CE
:1032E0000E94B924811101C0FA940F5F1F4FCECF05
:1032F000870160E0CE0101960E948F17CFCFCF9358
:10330000DF93EB0186319C4511F50E94000C9A81F8
:10331000992399F08A7A91E009F490E090936502FC
:10332000811109C089E20E94D80B0E94410C80E003
:10333000DF91CF91089585E3F6CF809165028111E9
:1033400004C089E20E94E00BF0CF85E3FBCF81E06F
:10335000EFCF0F931F93CF93DF93C42FD22FFC0196
:1033600082818823C9F0409368020E943C1C90939C
:1033700067028093660280E28C0F883040F4C77049
:1033800081E001C0880FCA95EAF70E945C05DF91D1
:10339000CF911F910F91089510916802141332C0BC
:1033A00080916602909167020E94541C883C9105AE
:1033B00048F5C0E2CD0F1D17B9F080E2810F8830CB
:1033C00040F4177081E001C0880F1A95EAF70E9457
:1033D0006305C83048F481E09D2F977001C0880FC5
:1033E0009A95EAF70E945C05802F0E945305C83029
:1033F00070F6D77081E001C0880FDA95EAF70E9475
:103400006305C5CF80E28C0F883008F6C77081E075
:1034100001C0880FCA95EAF7F2CF0F939C01CB0148
:10342000233F4CE5340759F1A8F4283DFCE53F075C
:1034300001F1293D4CE53407D1F1273D3C4591F49C
:1034400006E221EE41EE67ED7CE50E94A91980E0DD
:103450000F910895253FFCE53F07E9F0B0F0263FC6
:103460003C45F9F0FC018281882339F11092680211
:10347000EFCF07E225EE45EE68ED7CE5E6CF06E20C
:1034800021EE40EE63EF7CE5E0CF07E225EE44EE6F
:1034900064EF7CE5DACF06E221EE42EE65EF7CE5F3
:1034A000D4CF07E225EE46EE66EF7CE5CECF08E20C
:1034B00021E045EE69ED7CE5C8CF81E0C9CF90936E
:1034C0009D0180939C01089590936E0280936D02FC
:1034D0000895E0916D02F0916E02309729F001900D
:1034E000F081E02D0995089580E00895E0916D0246
:1034F000F0916E02309799F020911601222359F035
:103500002091960227FF07C0DC012C9111962C9385
:10351000119726E02C930280F381E02D0995089500
:10352000E0916D02F0916E02309739F022E0DC01FB
:103530002C930480F581E02D0995089520916B026C
:1035400030916C022817390771F090936C028093C8
:103550006B02E0916D02F0916E02309721F00680CF
:10356000F781E02D099508952091690230916A0252
:103570002817390771F090936A0280936902E091ED
:103580006D02F0916E02309721F00084F185E02DFC
:1035900009950895FC01329680911601882321F047
:1035A000809196029EE187FF96E080E0915008F4BA
:1035B000089521912223D1F38F5FF8CF662301F183
:1035C000209116012223F1F02091960227FF1AC0C4
:1035D000462F4695469546954E3190F4677021E00A
:1035E00030E002C0220F331F6A95E2F7840F911D6D
:1035F000FC01828190E02823392381E0232B69F4A8
:1036000080E00895FC01329608962191261721F05A
:10361000E817F907D1F7F4CF81E008959C01FC0188
:1036200032969FEF80E04191461751F09F3F19F489
:10363000411101C0982F8F5F8630A9F79F3F09F491
:103640000895290F311D97FD3A95F9016283089578
:10365000FC01329608962191261303C0DF011197D1
:103660001C92E817F907B9F70895E62FE695E69555
:10367000E695EE3168F4E80FF92FF11D677021E04F
:1036800030E001C0220F6A95EAF78281822B8283A3
:103690000895E62FE695E695E695EE3170F4E80F8D
:1036A000F92FF11D677021E030E001C0220F6A950B
:1036B000EAF720958281282322830895209116011C
:1036C000222339F02091960227FF03C00E94351B68
:1036D00008950E940E1B089520911601222339F0AF
:1036E0002091960227FF03C00E94491B08950E9463
:1036F000281B0895FC01329680911601882351F011
:103700008091960287FF06C08EE1DF011D928A95A7
:10371000E9F7089586E0F9CF46E050E00E94A3243F
:1037200021E0892B09F420E0822F089508950E945A
:10373000961B0895811106C081E080936F020E945C
:10374000971B089582E0F9CF83E080936F020E9477
:10375000971B08950E949A1B089581E080936F0241
:103760000E94971B08950E94AD1B08950895089527
:103770000E94B71B0895089508950E94B61B0895EE
:10378000CF930E94BB1B0E9456110E94BC1BC0E03D
:103790008C2F0E948B10892B31F4CF5FC530C1F77D
:1037A00080E0CF91089581E0FCCF85B7806885BF28
:1037B00085B7806885BF08951F921FB61F92112498
:1037C0008F939F93AF93BF9380917002811113C029
:1037D0008091AC029091AD02A091AE02B091AF0287
:1037E0004196A11DB11D8093AC029093AD02A093B0
:1037F000AE02B093AF02BF91AF919F918F911F9096
:103800001FBE1F9018958091B402843031F10E9440
:10381000D7031092700288E190E020E40FB6F8948C
:10382000A895809360000FBE2093600083B7817FCE
:10383000846083BF83B7816083BF7894889583B7A2
:103840008E7F83BF0FB6F894A89580916000886141
:1038500080936000109260000FBE08950E94B00730
:103860000E94DC03089582E084BD93E095BD9AEF49
:1038700097BD80936E0008952FB7F8948091AC02A5
:103880009091AD02A091AE02B091AF022FBF08950A
:103890002FB7F8946091AC027091AD028091AE02A6
:1038A0009091AF022FBF08959C014FB7F89480917B
:1038B000AC029091AD02A091AE02B091AF024FBFA9
:1038C000821B930B089578941F921FB61F921124A8
:1038D0008F939F93AF93BF938091AC029091AD0271
:1038E000A091AE02B091AF020196A11DB11D8093CF
:1038F000AC029093AD02A093AE02B093AF02BF9121
:10390000AF919F918F911F901FBE1F90189581E0DE
:103910008093E00080E28093D8001092C9008FE18C
:103920009EE40197F1F700C0000087E090EBDC0116
:103930008093BD029093BE02A093BF02B093C002D9
:1039400088E19CE00FB6F894A895809360000FBEC4
:1039500090936000FFCF88E19CE00FB6F894A895A3
:10396000809360000FBE90936000FFCF809194021F
:10397000089508959C0184E08093E9009FEF809171
:10398000E800915085FD06C085ED8A95F1F70000AD
:103990009111F5CF8091E80085FF0CC050E040E028
:1039A00066E070E0C9010E94611F8091E8008E7797
:1039B0008093E8000895CF93DF93EC018091160186
:1039C0008823B1F18091960287FF32C060E284E0E3
:1039D0008093E9008FEF9091E800815095FD06C03B
:1039E00095ED9A95F1F700008111F5CF8091E800EF
:1039F00085FF1BC08091160170E050E040E081110E
:103A000004C050E040E068E070E0CE010E94611F19
:103A10008091E8008E778093E80080E2FE01A4E7C1
:103A2000B2E001900D928A95E1F7DF91CF91089570
:103A300068E081E0CDCF8093710270937302609350
:103A400072028091B4028430F9F48093E9008FEF20
:103A50009091E800815095FD06C095ED9A95F1F79B
:103A600000008111F5CF8091E80085FF0DC050E086
:103A700040E063E070E081E792E00E94611F809186
:103A8000E8008E778093E8000895BC0184E00E94EE
:103A90001B1D0895BC0183E00E941B1D0895CF9358
:103AA000FC01603221F58091B402843001F5C091AF
:103AB000E900CF702091EC00922F917020FD90E8EA
:103AC000C92B82E08093E9008091E80080FF0CC060
:103AD00050E040E060E270E0CF010E94611F809101
:103AE000E8008E778093E800CF70C093E900CF9113
:103AF00008958091B302811109C00E9440210E9463
:103B00009D218091E20084608093E20008951092EC
:103B1000B30208950E94AD1B08956091B00281E048
:103B2000611101C080E00E94A41B08959091B4022D
:103B300081E0943009F080E06091B0020E94AA1BFD
:103B4000089542E061EC81E00E94BC2042E261EC19
:103B500084E00E94BC2042E261EC82E00E94BC2032
:103B600042E260EC83E00E94BC209091B40281E0CC
:103B7000943009F080E06091B0020E949A1B089591
:103B80008091B602833009F463C030F48130E1F1F2
:103B9000823009F4A0C008958A3009F48CC08B30BB
:103BA00009F471C0893009F052C08091B5028132A8
:103BB00009F04DC08091B9029091BA02009719F0B6
:103BC000029709F044C08091E800877F8093E80065
:103BD0008091E80082FF37C09091F3008091F2005D
:103BE000029731F48091F100813011F0863021F498
:103BF0008091F100809394028091E8008B7780930C
:103C0000E8000E94F02023C08091B502813AF9F4C7
:103C10008091E800877F8093E8008091B9029091BD
:103C2000BA02892B61F460E284E792E070E00E94BE
:103C3000FF1F8091E8008B778093E800089560E093
:103C400090E080E0F3CF8091B4028111C1CF08955C
:103C50008091B502813AD9F78091B9029091BA0268
:103C6000892BA9F78091E800877F8093E8008091F5
:103C7000E80080FFFCCF809116018093F1008091D5
:103C8000E8008E77BCCF8091B502813201F7809138
:103C9000B9029091BA02892BD1F68091E800877F12
:103CA0008093E8000E94F0208091B7028093160173
:103CB0000E94B00708958091B502813241F680914B
:103CC000E800877F8093E8000E94F0208091B8028E
:103CD0008093950208958091B502813A09F0B7CF9B
:103CE0008091E800877F8093E8008091E80080FF62
:103CF000FCCF80919502C1CF84B7877F84BF0FB678
:103D0000F894A8958091600088618093600010927B
:103D100060000FBE80E890E00FB6F89480936100D9
:103D2000909361000FBE0E94B31B08950E94402132
:103D30000E949D21E2EEF0E080818460808378948F
:103D40000E941C2408958AE091E00E94641A08955C
:103D50008091B402853031F48091B402853019F03D
:103D60000E942E1C08950E94031C8091B202882399
:103D700099F30E94C01B882379F30E944B1F0E9475
:103D8000B007EACFA0E2B0E0E8ECFEE10C946824D2
:103D90008091B402843009F583E08093E90080913A
:103DA000E80082FF1AC08091E80090E085FF09C01A
:103DB00050E040E060E270E0CE0101960E94B01F4A
:103DC00091E08091E8008B778093E800992329F0B7
:103DD00060E2CE0101960E941115A096E2E00C94DB
:103DE00084240E94F41E0895292F3327233031059F
:103DF00021F168F42130310509F443C02230310546
:103E000009F444C090E080E030E020E026C0213298
:103E1000310551F122323105A9F76330710590F770
:103E2000FB01EE0FFF1FE057FE4F208131816357EA
:103E30007E4FFB01808190E010C099278130910571
:103E400081F0009729F00297E9F6E4EBF3E002C075
:103E5000EEECF3E0849190E09F01FA01318320833E
:103E60000895E2ECF3E0F6CF6330710558F6660F83
:103E7000771FFB01EA56FE4F2081318189E090E0F7
:103E8000ECCF82E190E02DE234E0E7CF8BE590E0EB
:103E900022ED33E0E2CF80E189BD82E189BD09B442
:103EA00000FEFDCF8091D8008F7D8093D800809157
:103EB000E00082608093E0008091E00081FDFCCF13
:103EC0000895AF92BF92CF92DF92FF920F931F930C
:103ED000CF93DF936C01EB018A010E940F21F82E32
:103EE000811123C00115110539F0F80180819181FC
:103EF000C81BD90BC80ED91EB12CA12C2097A9F034
:103F00008091E80085FD22C08091E8008E77809343
:103F1000E80001151105A1F0F80180819181A80E3A
:103F2000B91EB182A08285E0F82E8F2DDF91CF914E
:103F30001F910F91FF90DF90CF90BF90AF900895A9
:103F40000E940F218823D1F2F82EEFCFF601819144
:103F50006F018093F1002197FFEFAF1ABF0ACECF18
:103F6000AF92BF92CF92DF92FF920F931F93CF93A6
:103F7000DF936C01EB018A010E940F21F82E811161
:103F800023C00115110539F0F80180819181C81B0A
:103F9000D90BC80ED91EB12CA12C2097A9F0809165
:103FA000E80085FD22C08091E8008B778093E800CF
:103FB00001151105A1F0F80180819181A80EB91EAB
:103FC000B182A08285E0F82E8F2DDF91CF911F91D5
:103FD0000F91FF90DF90CF90BF90AF9008950E9417
:103FE0000F218823D1F2F82EEFCF8091F100F60156
:103FF00081936F012197FFEFAF1ABF0ACECFFC016B
:104000008091BB029091BC0286179707A0F06115C2
:10401000710529F49091E8009E779093E80090E074
:104020006115710551F4911108C08091E80082FF7B
:1040300034C080E00895BC01F2CF8091B40288239F
:10404000C1F18530C1F18091E80083FD30C08091DD
:10405000E80082FDEACF8091E80080FFE1CF809107
:10406000F3002091F200382F6115710519F0283006
:10407000310558F091E02830310509F090E02091A9
:10408000E8002E772093E800CBCF81918093F10058
:10409000615071092F5F3F4FE7CF8091B4028823B1
:1040A00041F0853041F08091E80083FFBECF81E090
:1040B000089582E0089583E00895FC018091BB0299
:1040C0009091BC0286179707A0F06115710529F43D
:1040D0008091E8008E778093E80090E0611571058B
:1040E00051F4911108C08091E80082FF35C080E052
:1040F0000895BC01F2CF8091B4028823C9F18530C4
:10410000C9F18091E80083FD31C08091E80082FD13
:10411000EACF8091E80080FFE1CF8091F300209109
:10412000F200382F6115710519F02830310558F06B
:1041300091E02830310509F090E08091E8008E7719
:104140008093E800CBCF84918093F1003196615049
:1041500071092F5F3F4FE6CF8091B402882341F071
:10416000853041F08091E80083FFBDCF81E0089564
:1041700082E0089583E00895982F973028F08F709B
:104180008093E90081E008959093E900242F762F31
:1041900050E0981731F07091EC002091ED005091B3
:1041A000F00021FD02C09F5FE8CF3091EB003E7F21
:1041B0003093EB003091ED003D7F3093ED00309176
:1041C000EB0031603093EB007093EC002093ED0036
:1041D0005093F0002091EE0027FDE5CF80E0089598
:1041E0008091B50287FF13C08091E80082FF06C06E
:1041F0008091E8008B778093E80004C08091B4023E
:104200008111F2CF08958091B4028823D9F380916F
:10421000E80080FFF8CF8091E8008E77ECCF209106
:10422000E4003091E50095E6A9012091EC00822F91
:10423000817020FF06C08091E80080FF06C080E00A
:1042400008952091E80022FD1AC08091B4028823CD
:1042500089F0853089F08091EB0085FD0FC02091B9
:10426000E4003091E50042175307F9F29150E1F66E
:1042700084E0089582E0089583E0089581E0089540
:104280000E94AF210E94B721E0EEF0E080818160C2
:104290008083E8EDF0E080818F77808319BCA7ED03
:1042A000B0E08C918E7F8C9380818F7E8083109282
:1042B000B30208950F931F93CF93DF930E94AF2112
:1042C0000E94B721C8EDD0E088818F7788838881EC
:1042D0008068888388818F7D888319BC1092B4029E
:1042E0001092B0021092B2021092B10200EE10E0F1
:1042F000F80180818B7F808388818160888342E0A0
:1043000060E080E00E94BC20E1EEF0E080818E7FE2
:104310008083E2EEF0E0808181608083808188602C
:104320008083F80180818E7F80838881806188838B
:10433000DF91CF911F910F910895E8EDF0E080811A
:104340008F7E8083E7EDF0E080818160808384E070
:1043500082BF81E08093B3020E945A210895E8ED64
:10436000F0E080818E7F80831092E20008951092A9
:10437000DA001092E10008951F920F920FB60F928B
:1043800011242F933F934F935F936F937F938F935A
:104390009F93AF93BF93EF93FF938091E10082FFD0
:1043A0000BC08091E20082FF07C08091E1008B7F0B
:1043B0008093E1000E941B248091DA0080FF19C0E5
:1043C0008091D80080FF15C08091DA008E7F8093A5
:1043D000DA008091D90080FF96C080E189BD82E13A
:1043E00089BD09B400FEFDCF81E08093B4020E9434
:1043F000791D8091E10080FF19C08091E20080FF6B
:1044000015C08091E2008E7F8093E2008091E200EF
:1044100080618093E2008091D80080628093D80010
:1044200019BC85E08093B4020E948D1D8091E1004B
:1044300084FF2BC08091E20084FF27C080E189BD0A
:1044400082E189BD89B5982F917080FFFBCF809163
:10445000D8008F7D8093D8008091E1008F7E80937B
:10446000E1008091E2008F7E8093E2008091E20083
:1044700081608093E2008091B002882309F449C0F2
:1044800084E08093B4020E94961D8091E10083FF36
:1044900029C08091E20083FF25C08091E100877FE1
:1044A0008093E10082E08093B4021092B002809188
:1044B000E1008E7F8093E1008091E2008E7F809307
:1044C000E2008091E20080618093E20042E060E0DF
:1044D00080E00E94BC208091F00088608093F00012
:1044E0000E948A1DFF91EF91BF91AF919F918F9193
:1044F0007F916F915F914F913F912F910F900FBEE0
:104500000F901F90189519BC1092B4020E94871D3D
:1045100070CF8091E30087FD93E09093B402B3CF16
:104520001F920F920FB60F9211242F933F934F9328
:104530005F936F937F938F939F93AF93BF93CF932B
:10454000DF93EF93FF93D091E900DF708091EC004F
:10455000C82FC17080FDC0E81092E9008091F00082
:10456000877F8093F00078940E94D4221092E90013
:104570008091F00088608093F000CD2BCF70C093C5
:10458000E900FF91EF91DF91CF91BF91AF919F91A2
:104590008F917F916F915F914F913F912F910F90EC
:1045A0000FBE0F901F901895AAE2B0E0EAEDF2E27C
:1045B0000C94672485EB92E02091F100FC0121939B
:1045C000CF01F2E08D3B9F07B9F70E94C01D80919B
:1045D000E80083FF1EC18091B5029091B6029A3027
:1045E00008F017C1E92FF0E0E45EFA4D0C944B247B
:1045F000803899F0823809F00CC18091B9028F702F
:10460000873008F006C18093E9008091EB0085FBBC
:10461000882780F91092E90006C08091B10290913C
:10462000B202911182609091E800977F9093E80028
:104630008093F1001092F1008091E8008E77E5C040
:10464000882309F4D3C0823009F0E3C08091B70217
:104650008111D6C08091B9028F702FEF280F2630BC
:1046600008F0D7C08093E9002091EB0020FFC8C07C
:10467000933031F48091EB0080628093EB00C0C0F6
:104680009091EB0090619093EB0021E030E001C04D
:10469000220F8A95EAF72093EA001092EA008091AF
:1046A000EB008860EACF8111B4C01091B7021F7788
:1046B0008091E3008078812B8093E3008091E80073
:1046C000877F8093E8000E94F0208091E80080FFBF
:1046D000FCCF8091E30080688093E30082E01111B9
:1046E00083E08093B40295C08058823008F091C076
:1046F0008091B7029091B8028C3D23E09207A1F51A
:1047000083E08A838AE289834FB7F894DE011396A7
:1047100020E03EE051E2E32FF0E050935700E491B7
:1047200020FF03C0E295EF703F5FEF708E2F90E0A7
:10473000EA30C0F0C7968D939D932F5F243159F7CF
:104740004FBF8091E800877F8093E8006AE270E0C5
:10475000CE0101960E94FF1F8091E8008B77809325
:10476000E80057C0C096E7CF6091B9027091BA02D5
:10477000AE014F5F5F4F0E94F11EBC01892B09F40F
:1047800048C09091E800977F9093E80089819A81D2
:104790000E945D20E1CF8038E1F58091E800877FBD
:1047A0008093E8008091B0028093F10045CF8111A1
:1047B00030C09091B702923060F58091E800877F19
:1047C0008093E8009093B0020E94F0208091B002A4
:1047D000882311F084E005C08091E30087FDFACFC3
:1047E00081E08093B4020E94A11D13C08091B702A2
:1047F000813079F481E0933009F080E08093B20257
:104800001092E9008091E800877F8093E8000E9481
:10481000F0208091E80083FF0AC08091E800877F44
:104820008093E8008091EB0080628093EB00AA9671
:10483000E3E00C9483240895CF938091B4028823FD
:10484000A1F0C091E900CF709091EC00892F8170A8
:1048500090FD80E8C82B1092E9008091E80083FD6C
:104860000E94D422CF70C093E900CF91089597FBA6
:10487000072E16F4009407D077FD09D00E948F24EC
:1048800007FC05D03EF4909581959F4F0895709553
:1048900061957F4F0895EE0FFF1F0590F491E02D75
:1048A0000994692796276927782787277827089505
:1048B0002F923F924F925F926F927F928F929F9230
:1048C000AF92BF92CF92DF92EF92FF920F931F931E
:1048D000CF93DF93CDB7DEB7CA1BDB0B0FB6F894CF
:1048E000DEBF0FBECDBF09942A88398848885F840F
:1048F0006E847D848C849B84AA84B984C884DF8080
:10490000EE80FD800C811B81AA81B981CE0FD11D63
:104910000FB6F894DEBF0FBECDBFED010895AA1B00
:10492000BB1B51E107C0AA1FBB1FA617B70710F09A
:10493000A61BB70B881F991F5A95A9F780959095CC
:10494000BC01CD010895FB01DC0104C08D910190F3
:10495000801921F441505040C8F7881B990B0895E5
:10496000FB01DC0102C001900D9241505040D8F78C
:104970000895F999FECF92BD81BDF89A992780B527
:104980000895A8E1B0E042E050E00C94ED24262F19
:10499000F999FECF92BD81BDF89A019700B4021635
:1049A00039F01FBA20BD0FB6F894FA9AF99A0FBEE3
:1049B00008950396272F0E94C8240E94C724252FFC
:1049C0000E94C824242F0C94C8240196272F0E94EB
:1049D000C8240C94C724DC01CB01FC01F999FECF5B
:1049E00006C0F2BDE1BDF89A319600B40D92415077
:1049F0005040B8F70895F894FFCFA505A505D60552
:104A0000D60563067F06050605068A06F106000739
:104A1000000723152F15561562156D1578157B1592
:104A20007B157B157B157B157E1582158A159715D1
:104A3000A415A715AA15B715F822202309242023A9
:0C4A40000924532374230924CB23D7231B
:104A4C001E02280850011E0A1401B61CDB1CBA1CDD
:104A5C004A1D451DB91C01E200E900EA00B500B68B
:104A6C0000B700CD008301CC008A01920194012192
:104A7C0002230224022502260227022A02B300B4D2
:104A8C00006F007000818283E200E900EA00B5004B
:104A9C00B600B700CD008301CC008A0192019401CD
:104AAC002102230224022502260227022A02B30035
:104ABC00B4006F007000818283F0F1C66766369493
:104ACC00313037353497963390919293954022B686
:0C4ADC0017053F046104E403FD031D0402
:00000001FF
