:100000000C947D020C94C4020C94C4020C94C4029F
:100010000C94C4020C94C4020C94C4020C94C40248
:100020000C94C4020C94C4020C944C210C94202215
:100030000C9401190C94C4020C94C4020C94C402D4
:100040000C94C4020C94C4020C94C4020C94C40218
:100050000C94C4020C9458190C94C4020C94C4025D
:100060000C94C4020C94C4020C94C4020C94C402F8
:100070000C94C4020C94C4020C94C4020C94C402E8
:100080000C94C4020C94C4020C94C4020C94C402D8
:100090000C94C4020C94C4020C94C4020C94C402C8
:1000A0000C94C4020C94C4020C94C40229001E00D7
:1000B0001F0020002100220023002400250026002C
:1000C00027002D002E002A002A004C002B001400CF
:1000D0001A000800150017001C0018000C00120080
:1000E00013002F0030003100E0000400160007006C
:1000F00009000A000B000D000E000F003300340051
:1001000031002800E10064001D001B0006001900FA
:10011000050011001000360037003800E5000151DD
:10012000E300E2002C00E600015135023A003B00FA
:100130003C003D003E003F004000410042004300C3
:1001400043004400010001000100010001005200D1
:100150000100010001000100010001000100010097
:100160000100010001000100500051004F0001009A
:100170000100010001000100010001000100010077
:100180000100010001000100010001000100010067
:100190000100010001000100010001000100010057
:1001A0000100010001000100010001000100010047
:1001B0000100010001000100010001000100010037
:1001C0000100010001000100010001000100010027
:1001D0000100010001000100010001000100010017
:1001E0000100010001000100010001000100010007
:1001F00001000100010001000100010001000100F7
:1002000001000100010001000100010001000100E6
:1002100001000100010001000100010001000100D6
:1002200001000100010001000100010001000100C6
:1002300001000100010001000100010001000100B6
:1002400001000100010001000100010001000100A6
:100250000100010001000100010001000100010096
:100260000100010001000100010001000100010086
:100270000100010001000100010001000100010076
:100280000100010001000100010001000100010066
:100290000100010001000100010001000100010056
:1002A0000100010000000000000000002A2B2800CF
:1002B0000000000000000000000000000000002915
:1002C000000000002C1E3420212224342627252E55
:1002D000362D3738271E1F2021222324252633338D
:1002E000362E37381F0405060708090A0B0C0D0EB9
:1002F0000F101112131415161718191A1B1C1D2F85
:100300003130232D350405060708090A0B0C0D0EA4
:100310000F101112131415161718191A1B1C1D2F64
:100320003130354C000000000000000000000000EB
:1003300000000000000000007E0F00D4FFFFFFC798
:10034000000000780E0375006E006900780036002A
:1003500030000000140346005200340042006F00D9
:1003600061007200640073000000040309040902C4
:100370005B00030100A0FA09040000010301010071
:100380000921110100012240000705810308000A2C
:1003900009040100020300000009211101000122EB
:1003A0002200070582032000010705030320000146
:1003B00009040200010300000009211101000122CB
:1003C000BC000705840320000A1201100100000090
:1003D00008524658550100010200010660FF0961FC
:1003E000A1010962150026FF009520750881020908
:1003F00063150026FF00952075089102C0050109CC
:1004000002A10185020901A10005091901290515AB
:10041000002501950575018102950175038101058E
:1004200001093009311581257F950275088106097A
:10043000381581257F950175088106050C0A38025B
:100440001581257F950175088106C0C005010980C9
:10045000A101850319012AB700150126B7009501EE
:1004600075108100C0050C0901A101850419012A3C
:10047000A002150126A002950175108100C005019A
:100480000906A1018505050719E029E715002501E1
:100490009508750181020507190029EF150025014E
:1004A00095F0750181020508190129059505750169
:1004B0009102950175039101C005010906A101058D
:1004C0000719E029E71500250195087501810295B6
:1004D00001750881010507190029FF150026FF0095
:1004E000950675088100050819012905950575010E
:1004F0009102950175039101C00011241FBECFEF39
:10050000DAE0DEBFCDBF04B603FE27C08091A002B3
:100510009091A102A091A202B091A3028730904BCA
:10052000A740B04BD1F41092A0021092A1021092F9
:10053000A2021092A30214BE84B7877F84BF0FB6B5
:10054000F894A89580916000886180936000109273
:1005500060000FBEE0E0F8E3099511E0A0E0B1E033
:10056000ECE0F9E402C005900D92A639B107D9F785
:1005700022E0A6E9B1E001C01D92A03AB207E1F77E
:100580000E94121E0C9449240C94000081E00895EE
:1005900081E008950C94C80208950C94CC021F9336
:1005A000CF93DF9300D000D00F92CDB7DEB7498351
:1005B0005A836B833091B20189819A8131111DC0B8
:1005C0006623B9F02223A9F00E94FB15182F682F8B
:1005D00089819A810E94A71569817A81812F0F9064
:1005E0000F900F900F900F90DF91CF911F910C946F
:1005F000C6090E94D315182FEFCF0E94FB15698101
:100600007A81EDCFFC01262F408151816281738177
:1006100084810C94CF02CF93DF93EC0160E00E94C1
:100620000203BE01DF91CF910C94CD02FF920F9394
:100630001F93CF93DF93E82FF0E0EC55FD4FF4903C
:10064000C82FC695C695C695D0E0FE01EC5CFC4F60
:100650000491877010E0082E02C0159507950A9442
:10066000E2F701701127CC5DDC4FFE01C491D0E0B0
:1006700002C0D595C7958A95E2F7C170DD270115AF
:10068000110519F081EE0E94050E209719F086EEF3
:100690000E94050E8F2D0E94820ECD2B19F086EE42
:1006A0000E94530E012B41F081EEDF91CF911F91FB
:1006B0000F91FF900C94530EDF91CF911F910F91EA
:1006C000FF900895EF92FF920F931F93CF93DF93C4
:1006D000EC01162F0AE08881882309F454C0813088
:1006E00009F04EC08981813099F47E0122E0E20E4A
:1006F000F11C8A810E94820EE7012196812F815090
:1007000050F3EFE9FFE03197F1F700C00000F7CFB9
:10071000823041F47E0182E0E80EF11C8A810E9461
:10072000050EEACF833041F47E01E2E0EE0EF11CCB
:100730008A810E94530EE0CF843011F02196DDCFE4
:100740002A81229690E080E0AE014F5F5F4F2053F8
:10075000330B2A30310548F0019778F2EFE9FFE0DA
:100760003197F1F700C00000F7CF089FB001099F53
:10077000700D1124C901860F971F2981EA01E4CF6A
:100780000E941603BACFDF91CF911F910F91FF9076
:10079000EF90089560E00C9462038F929F92AF9265
:1007A000BF92CF92DF92EF92FF920F931F936B0154
:1007B0007C0181E090E0A0E0B0E04C015D0104C06C
:1007C000880C991CAA1CBB1C4A95D2F7B501A40140
:1007D0004C015D0104C0880C991CAA1CBB1C2A9505
:1007E000D2F7482959296A297B2904C0880F991F03
:1007F000AA1FBB1F0A95D2F78A019B010C211D215C
:100800002E213F21041715072607370789F48C2965
:100810009D29AE29BF29BC01CD011F910F91FF90E9
:10082000EF90DF90CF90BF90AF909F908F90089502
:1008300080959095A095B0958C219D21AE21BF21EA
:10084000EACF0F93382F262F609113027091140274
:100850008091150290911602042F432F0E94CD0320
:100860000F910C94E5140E948F190E944517811175
:1008700002C00E94E9170C949C060C949F060895F0
:100880000E9411110E943F042FEF84E39CE021504D
:1008900080409040E1F700C000000C947C190F9359
:1008A0001F93CF93DF93EC0161E00E9402038C0160
:1008B000BE010E94FD07882359F1BE01C8010E94B4
:1008C000CA02882329F1BE01C8010E94FD0A8823BB
:1008D000F9F0BE01C8010E944F0B8823C9F0BE0188
:1008E000C8010E94720C882399F08A81882339F00C
:1008F00001158CE5180751F00F3D1C4579F0CE012C
:10090000DF91CF911F910F910C94C6020E94400479
:1009100080E0DF91CF911F910F9108950E94E91718
:10092000F7CF08950C94910481E008950C949404F9
:10093000CF93C82F0E9492048C2FCF910C949604D1
:1009400090E080E008950895FC01EE0FFF1FEC5B3E
:10095000FC4F859194910895CF93DF930E94C6092F
:100960000E94C105EC01811520E5920708F042C004
:10097000811530E4930708F0BDC0883E910528F545
:10098000803E910508F09DC0883A910588F4853A2B
:10099000910508F08FC08130910509F492C000974D
:1009A00009F48FC0049708F08CC0D0E0C0E089C083
:1009B0008F3B910508F489C0805C9109C03CD1054A
:1009C000A0F30E94A404EC017CC08115904250F475
:1009D000C11581E0D80708F074C0C03FD10528F3E5
:1009E000D0656FC0C11590E3D90708F079C0CE017A
:1009F0009F70E7CF811525E5920758F5811534E5FD
:100A0000930708F0A6C0811542E5940750F4C1157C
:100A100081E5D80708F471C0DC2FCC27C16FD06AFC
:100A200050C0982F969596959E0123703327C11537
:100A3000D34508F07FC0C1E0D0E002C0CC0FDD1F7D
:100A40002A95E2F720E2929FC0011124C82BD92BEE
:100A50006FC0C11589E5D807A8F4C11598E5D90775
:100A600008F07CC0C11526E5D20708F09ECF8C2F78
:100A70000E945806C82FD0E0DC2FCC27CC27DF718E
:100A8000D0621FC0C1153AE5D30708F46CC0CE018F
:100A900090568115904208F088CF8D2F8F710E945B
:100AA000580690E0982F882788279F719C012C2B4F
:100AB000E901E6CFC55AD0E0CD5BDE4FC881D0E07A
:100AC000D064CE01DF91CF910895C85AD0E0CC0F09
:100AD000DD1FCB5EDE4F0990D881C02DD464F1CFED
:100AE000CE019927D3FF03C0EC01D86CEACFEC010B
:100AF000D06CE7CFDF70D06AE4CFCE01E4E096950A
:100B00008795EA95E1F783702C2F2695269523701B
:100B100090E2299F90011124382B8C2F8370C1E023
:100B2000D0E002C0CC0FDD1F8A95E2F7C22BD32B99
:100B3000DC68C7CFC1E0D0E002C0CC0FDD1F2A9532
:100B4000E2F730E2939FC0011124C82BD92BDA6859
:100B5000B8CFD82FCC27C46FD06AB3CFDC2FCC2727
:100B6000C06FD06AAECF8C2F8F700E94580634E0D1
:100B7000D695C7953A95E1F7CF709C2FEC01D069D7
:100B8000A0CF82389105B1F1B0F48133910509F419
:100B900075C048F48932910509F469C08A3291051B
:100BA00009F473C008958533910509F459C0893358
:100BB000910501F10895833E9105A9F138F4803E35
:100BC0009105F9F0823E910549F10895863E91051F
:100BD000A9F1873E9105C9F1843E910519F520914F
:100BE000920221FF1FC08091910284FD14C087EE04
:100BF00090E00895209191022370A1F080EE90E0A2
:100C000008952091910220FD47C03091920230FF5B
:100C100009C024FF44C090E080E004C0209191020C
:100C200022FDF7CF08952091910222FD3BC0309123
:100C3000920230FDE3CF24FFF5CFEDCF209191025A
:100C400023FFF0CF24FDE7CFD2CF2091910223FDE7
:100C50002CC03091920231FFEECF84EE90E00895E7
:100C60002091910225FFDECF89E290E00895209146
:100C7000910225FFD7CF85E390E00895209191025E
:100C800026FFD0CF8AE290E008952091910226FFBE
:100C9000C9CF81E390E0089589E390E0089583EE61
:100CA00090E0089582EE90E0089586EE90E0089539
:100CB0009091910292FF06C0282F28712830F9F4F4
:100CC000877F846093FF06C0282F28712831F1F4B4
:100CD000877E84612091920220FF06C0382F3871F0
:100CE0003830D9F4877F816021FF06C0282F287112
:100CF0002831D1F4877E816194FD877E0895282F65
:100D000024712430F9F68B7F8860DCCF282F247182
:100D1000243101F78B7E8861DDCF382F317131307E
:100D200019F78E7F8860E0CF282F2171213121F7BC
:100D30008E7E8861E1CF08950C949B0608950C94F3
:100D40009E06E82FF0E0EE0FFF1FE158FD4F808177
:100D500091810895089580EA8A95F1F70895F894AD
:100D6000E82FE295EF70F0E031A1282F2F7081E09D
:100D700090E001C0880F2A95EAF7982F9095932369
:100D800091A392A1892B82A378940895CF93DF93A6
:100D9000CFE4D1E089910E94AF0681E0C635D80743
:100DA000C9F7C6E4D1E089910E94AF0681E0CF3453
:100DB000D807C9F7E1E7F2E0AFE7B2E0119211928C
:100DC0001D921D9282E0EF37F807C1F787E00E947D
:100DD0006B07DF91CF910C943304AF92BF92DF92F7
:100DE000EF92FF920F931F93CF93DF93CFE4D1E065
:100DF00001E712E0D12CEE24E394F12C8991F894D0
:100E0000E82FE295EF70F0E021A18F70A70102C0FA
:100E1000440F551F8A95E2F7CA01922F982B91A390
:100E200092A18095892382A378940E94AB06E6E480
:100E3000F1E030E020E0B12CA12C4191A42FA2954B
:100E4000AF70B0E090968C9190E04F7002C0959595
:100E500087954A95E2F780FD39C0C701022E02C08E
:100E6000880F991F0A94E2F7A82AB92A2F5F3F4FEB
:100E70002930310511F7FE01319780810E94AF06BC
:100E8000F80180819181A816B90619F1B182A0827A
:100E900081E0D82A0E5F1F4FF1E0C635DF0709F069
:100EA000ADCF2D2D47E06FE772E081E792E00E9421
:100EB0006C070E943D048D2DDF91CF911F910F9102
:100EC000FF90EF90DF90BF90AF90089590E080E0AA
:100ED000CBCF80E0DECF0895FF920F931F93CF9387
:100EE000DF93F82E092F162FD72FC42F222349F076
:100EF00081E0809398010E9431199093970180932B
:100F00009601809198018823A1F08091960190919B
:100F100097010E944919069760F0EF2DF02FA12F3D
:100F2000BD2F90E080E0D0E08C179D0744F0109238
:100F30009801DF91CF911F910F91FF90089521911A
:100F400031912D933D930196EFCF82E290E00E9484
:100F50000724813289F483E290E00E9407248230E2
:100F600059F484E290E00E94072491E0813209F074
:100F700090E0892F8170089580E0FCCFCF93DF93BC
:100F8000D82FCFEF8111C1E26C2F82E290E00E9456
:100F900015246FEFD11162E083E290E00E941524E6
:100FA0006C2F84E290E0DF91CF910C94152480E0C7
:100FB0000E94BE070C943F17089585E290E00E94BE
:100FC0000724682F70E090E080E0089585E290E0CB
:100FD0000C9415240E94DC070E94A50781110CC007
:100FE00060E070E0CB010E94E6070E943E090E948B
:100FF0002A0A81E00C94BE070895CF93FB01C281B9
:10100000CC2309F19C0122513F452031310520F5C7
:1010100082510E943A0AC0E08C2FCF91089581E05E
:101020000E940B1543E062E081E00E942104F3CFAF
:1010300081E00E942C1543E062E081E00E942104DF
:10104000EBCF82E0F6CF8031FFE59F0789F3813156
:101050009F45B9F3C1E0E0CF8031EFE59E07F9F29B
:1010600081319F45C9F682E0DBCF2FEFFC01208361
:101070000895EF92FF920F931F93CF93DF93EC01AC
:10108000062FE881E150E33108F05EC0F0E0E55B57
:10109000FB4D0C94E623198289E08A83602FCE01F0
:1010A000DF91CF911F910F91FF90EF900C94061D4F
:1010B0008981823069F0833071F08130D9F40E94E7
:1010C0003D190E94EC236A837B838C839D83E6CF4A
:1010D0000E94DD07F6CF7E0110E0812F0E94A1065D
:1010E000F701928383831F5FF2E0EF0EF11C17304C
:1010F000A1F7D4CF602FCE010E943508CFCF8981D0
:101100008230C1F76A817B818C819D810E94EC23B2
:101110000E94E607C3CF4B816A8189810E94100932
:101120009827892798279D838C83B8CF2C813D8170
:101130003227232732274B816A8189810E9429091E
:10114000ADCF0E943E09AACF8FEF8883A7CF0E9420
:10115000D3098983A3CF0E94D50998278927982787
:101160009A8389839BCF6B8170E089819A81AE01DC
:101170004C5F5F4F9827892798270E94D8098ECF08
:101180006B8170E089819A81AE014C5F5F4F982737
:10119000892798270E94FF0981CF0E942A0A7ECFC3
:1011A0000E94FE08D6CF6B8170E089819A81AE01E2
:1011B0004C5F5F4F9827892798270E9476096ECF4A
:1011C0006B8170E089819A81AE014C5F5F4F9827F7
:1011D000892798270E949C0961CF0E94D7075ECF7C
:1011E0000E94061D2FEF81EE94E021508040904038
:1011F000E1F700C000000E947C1950CF84E0089500
:1012000050E0440F551F92E1699F400D511D11247C
:101210009EE7899F400D511D1124CA0186960895AD
:101220000F931F93CF93DF930E9400098C010E94BC
:101230000724C82FD0E0DC2FCC27C80101960E94DC
:1012400007249E01282BC901DF91CF911F910F9197
:1012500008950F931F93CF93DF93122F032F0E94B4
:101260000009EC01602F0E941524612FCE01019628
:10127000DF91CF911F910F910C941524AF92BF92E3
:10128000CF92DF92EF92FF921F93CF93DF938CEA7E
:10129000C82E80E0D82ED0E07601C0E014C0F50161
:1012A00025913491412F6C2F8D2F0E94290982E0C6
:1012B000A80EB11C1F5F193091F782E1E80EF11CF6
:1012C000CF5FC73019F0570110E0E9CFDF5F8EE73D
:1012D000C80ED11CD43001F7DF91CF911F91FF9040
:1012E000EF90DF90CF90BF90AF900895EF92FF9274
:1012F0000F931F93CF93DF93EC018A017C01E60EDD
:10130000F71ECE018696CE15DF0539F4DF91CF9119
:101310001F910F91FF90EF900895C83F21E0D207F1
:1013200040F40E940724F80180830F5F1F4F21962D
:10133000E8CFF8011082F9CFCF92DF92EF92FF92BF
:101340000F931F93CF93DF937C016A018C01060FEB
:10135000171FEC01CE018696C017D10749F4DF9123
:10136000CF911F910F91FF90EF90DF90CF90089554
:10137000C83F21E0D20740F4FE01EE19FF09EC0D51
:10138000FD1D60810E9415242196E4CF462F8430F4
:1013900038F4773028F4693018F4672F0C9410096A
:1013A00090E080E0089580E1089582EE91E0089554
:1013B000EF92FF920F931F93CF93DF93EC018A017B
:1013C0007C01E60EF71ECE01825E9D4FCE15DF0535
:1013D00039F4DF91CF911F910F91FF90EF90089515
:1013E000C23E21E0D20740F40E940724F801808326
:1013F0000F5F1F4F2196E7CFF8011082F9CFCF92F0
:10140000DF92EF92FF920F931F93CF93DF937C01B4
:101410006A018C01060F171FEC01CE01825E9D4F01
:10142000C017D10749F4DF91CF911F910F91FF9021
:10143000EF90DF90CF900895C23E21E0D20740F4B4
:10144000FE01EE19FF09EC0DFD1D60810E941524BF
:101450002196E3CFCF93DF93CEE1D2E060E0CE01DF
:101460000E9415242196C11584E0D807B9F7DF91B1
:10147000CF910895DF92EF92FF920F931F93CF9336
:10148000DF9300D000D0CDB7DEB7F82E8FE08F15F8
:1014900040F08FEF93E00E9407240EE112E08823D2
:1014A000C1F00F900F900F900F90DF91CF911F918F
:1014B0000F91FF90EF90DF900895011584E01807D9
:1014C00081F3C8010E940724811101C0FA940F5FC3
:1014D0001F4FF110F2CF19821A821B821C82DD2469
:1014E000D39478018FEFE81AF80AC8010E94072404
:1014F00089831A828823A9F29FEF980F933078F49A
:101500008A83D9820E5F1F4FC7010E9407248B83F5
:10151000882339F2CE0101960E94CA03E2CF8701E7
:10152000F9CF0F931F93CF93DF93C42FD22FFC01DA
:1015300082818823C9F040939B010E9431199093C6
:101540009A018093990180E28C0F883008F050C096
:10155000C77081E001C0880FCA95EAF7DF91CF918B
:101560001F910F910C94950E10919B01141335C08F
:101570008091990190919A010E944919883C9105A6
:1015800060F5C0E2CD0F1D17B9F080E2810F883001
:1015900040F4177081E001C0880F1A95EAF70E94A5
:1015A0009C0EC83048F481E09D2F977001C0880FD1
:1015B0009A95EAF70E94950E802F0E94820EC830FD
:1015C000B8F4D77081E001C0880FDA95EAF7DF91AF
:1015D000CF911F910F910C949C0E80E28C0F88305C
:1015E00038F4C77081E001C0880FCA95EAF7EFCFE1
:1015F000DF91CF911F910F9108950F939C01CB0123
:10160000243F4CE5340759F1A8F4293DFCE53F0798
:1016100001F12A3D4CE53407D1F1283D3C4591F4D8
:1016200006E221EE41EE68ED7CE50E94910A80E041
:101630000F910895263FFCE53F07E9F0B0F0273F02
:101640003C45F9F0FC018281882339F110929B011D
:10165000EFCF07E225EE45EE69ED7CE5E6CF06E249
:1016600021EE40EE64EF7CE5E0CF07E225EE44EEAC
:1016700065EF7CE5DACF06E221EE42EE66EF7CE52F
:10168000D4CF07E225EE46EE67EF7CE5CECF08E249
:1016900021E045EE6AED7CE5C8CF81E0C9CFCF936C
:1016A000DF93EC01FB018281882309F419C1C23068
:1016B000FCE5DF07C0F1C6319CE5D90730F09E019B
:1016C0002B5F3C452930310570F50E9458179093E7
:1016D000920280939102C031ECE5DE0709F4CFC09D
:1016E00008F05BC0C8308CE5D80709F4B6C088F5AF
:1016F000C430ECE5DE0709F4A8C0C0F4C2308CE5C4
:10170000D80709F49CC0809191028260C330DC4507
:1017100009F498C080919102909192020E946617FC
:101720000E94111180E0DF91CF9108958091910284
:101730008061C630ECE5DE0709F484C08091910237
:101740008860C730DC4508F47DC0809191028062DA
:1017500079C0CC308CE5D80709F489C070F4809149
:1017600091028C60CA30ECE5DE0709F46BC008F426
:1017700078C0809191028E7F65C0CE308CE5D8070D
:1017800009F479C0809191028B7FCF30DC4508F459
:1017900059C0809191028F7E55C0CC3FECE5DE07A9
:1017A00009F457C030F5C3318CE5D80709F46FC090
:1017B00078F4C131ECE5DE0709F465C0C231DC45DF
:1017C00009F0A8CF0E941111809191028F773AC041
:1017D000C5318CE5D80709F462C008F476C0809161
:1017E00092028160CB3FDC4509F094CF8093920256
:1017F00091CFC115FDE5DF0709F44DC088F4809154
:1018000092028D7FCE3F9CE5D90781F380919202B1
:101810008E7FCF3FDC4550F3809192028360E6CF0C
:10182000C230FDE5DF0709F459C008F444C080E088
:10183000C330DD4509F06ECF0E94EB176BCF80916E
:10184000910281608093910265CF809191028460C2
:10185000F9CF809192028260C9CF80919102806419
:10186000F1CF0E941111809191028068EBCF80919D
:1018700091028D7FE7CF80919102877FE3CF8091A6
:1018800091028F7DDFCF809191028F7BDBCF8091A2
:101890009102837FD7CF809192028C7FA7CF8091D6
:1018A000910282FB992790F921E0922790FB82F91F
:1018B00090FB83F9C7CF80919202982F90959170F9
:1018C0008E7F892B90FB81F991CF0E94111190910D
:1018D0009102892F97FB87F98058B4CF81E0ACCF74
:1018E00081E021CFCF93DF93EB0186319C4511F549
:1018F0000E9490169A81992399F08A7A91E009F4CE
:1019000090E090939C01811109C089E20E946B16BE
:101910000E94DC1680E0DF91CF91089585E3F6CF39
:1019200080919C01811104C089E20E947216F0CF5F
:1019300085E3FBCF81E0EFCF9093A2018093A101DB
:101940000895E091A101F091A201309721F001905A
:10195000F081E02D099480E00895E091A101F091DB
:10196000A201309799F020911401222359F020917F
:10197000910227FF07C0DC012C9111962C9311973F
:1019800025E02C930280F381E02D09940895E091E5
:10199000A101F091A201309739F022E0DC012C93F3
:1019A0000480F581E02D0994089520919F013091E4
:1019B000A0012817390771F09093A00180939F012F
:1019C000E091A101F091A201309721F00680F7810A
:1019D000E02D0994089520919D0130919E012817D2
:1019E000390771F090939E0180939D01E091A101D0
:1019F000F091A201309721F00084F185E02D099447
:101A0000089585B7806885BF85B7806885BF0895CC
:101A1000089508950C94080D08950C940C0D0E94DF
:101A2000010D0E94090D0C940A0D81E008950C949B
:101A3000150D089508950E9428190E94C6060E9457
:101A4000EA070E94A3190C940D0D9F92AF92BF92CA
:101A5000CF92DF92EF92FF920F931F93CF93DF937A
:101A6000CDB7DEB72A970FB6F894DEBF0FBECDBF55
:101A70000E94190D0E941A0D0E94ED060E94170D7A
:101A8000882309F470C054EAA52E51E0B52E10E069
:101A900000E0902E802F0E94A1066C01F501E190DC
:101AA000F1905F01E816F90609F457C080914002F1
:101AB00081FD0E94AA0697012C253D2580E0EE2499
:101AC000E394F12CA9014E215F21452B09F43FC07D
:101AD0008E839F82CE20DF2081E0CD2809F480E034
:101AE00088870E9431198160782F9A8789874E8173
:101AF0005F8168858A850E94D60D000F111FF8014D
:101B0000EC55FE4F80819181E826F926F182E08232
:101B10000E944E1B0E94A10C9091A3018917A1F174
:101B20000E94A10C8093A3012A960FB6F894DEBF01
:101B30000FBECDBFDF91CF911F910F91FF90EF901E
:101B4000DF90CF90BF90AF909F900C9498048F5FE0
:101B5000EE0CFF1C893009F0B5CF0F5F1F4F073027
:101B6000110509F096CF8FEF89838A831B820E942B
:101B700031198160782F9D838C8349815A816B81D3
:101B80008D810E94D60DC4CF2A960FB6F894DEBF81
:101B90000FBECDBFDF91CF911F910F91FF90EF90BE
:101BA000DF90CF90BF90AF909F900895CF93DF9339
:101BB000CDB7DEB72B970FB6F894DEBF0FBECDBF03
:101BC0004F83588769877A878B871E821D8285E0BD
:101BD000FE013796DE01119601900D928A95E1F78C
:101BE00049815A816B817C818D819E812B960FB6B4
:101BF000F894DEBF0FBECDBFDF91CF910C94871359
:101C0000FC01808191810C943D16CF93C82F8823CD
:101C100009F447C08CEF8C0F813AA0F46C2F8091AF
:101C20000001909101010E940418882329F08C2F53
:101C30000E9472160E94DC168C2F0E946B16CF91A8
:101C40000C94DC1680E28C0F883048F4C77081E079
:101C500001C0880FCA95EAF70E949316F0CFEBE512
:101C6000EC0FE33040F4F0E0EC57FE4F808190E061
:101C7000CF910C94D50CE8E5EC0FE73150F4F0E08F
:101C8000EE0FFF1FEA5AFE4F80819181CF910C9495
:101C9000EB0CC03F30F08C2F0E94481ACF910C946F
:101CA000331BCF910895882361F19CEF980F913AEF
:101CB00020F40E9472160C94DC1690E2980F983073
:101CC00050F4877091E001C0990F8A95EAF7892F47
:101CD0000E949916F0CF9BE5980F933020F490E086
:101CE00080E00C94D50C98E5980F973120F490E0A3
:101CF00080E00C94EB0C803F20F00E94B01A0C9412
:101D0000331B0895CF93C82F0E94050EC93349F4A1
:101D10002FEF87EE93E0215080409040E1F700C024
:101D200000008C2FCF910C94530E882321F00E9439
:101D300093160C94DC160895882321F00E949916BE
:101D40000C94DC160895BF92CF92DF92EF92FF922F
:101D50000F931F93CF93DF936C01D62FC72FFC01F6
:101D6000058102950F70128111110E94B0160E9418
:101D70008916E82E882391F01123D1F08C2F807FD3
:101D8000803421F080E28D0F883090F082E00E9454
:101D900027170E94891691E0E82EE926BC2EB294FE
:101DA0009FE0B922EB2DF0E0E25AFB4D0C94E623C4
:101DB000E12CF4CF0C2F0F70C07F11F00295007F43
:101DC0001123A9F0002359F080E28D0F883010F024
:101DD000D11109C0802F0E9493160E94DC168D2F0E
:101DE0000E94050E14C0802F0E94A316F6CF8D2FDF
:101DF0000E94530E002359F080E28D0F883010F0BE
:101E0000D1112CC0802F0E9499160E94DC162B2D18
:101E10002850330B2430310520F40E94A10C0E947D
:101E20009804EE2009F49EC10E94851680FD9AC197
:101E3000F60112820E947F160E940B15C6010E94B5
:101E4000D3100E947F16DF91CF911F910F91FF90C9
:101E5000EF90DF90CF90BF900C942C15802F0E94B4
:101E6000A916D3CFFC2FFF70FF2EC07FC03219F010
:101E7000F29480EFF822DD2369F0D13049F111238B
:101E800091F1002351F1F601858180FFA8CF8F7079
:101E9000858323C0112381F0011106C00E94C3165F
:101EA0008F290E94950EB3CF0130C1F70E94C3164F
:101EB0008F290E94C916ABCF011106C00E94D2160D
:101EC0008F2D0E949C0EA3CF013009F4A0CFF6CF36
:101ED000112329F0063008F09ACF8F2DE2CF05307C
:101EE00008F095CFEDCF002359F3D93349F4FFEF34
:101EF00027EE33E0F15020403040E1F700C0000011
:101F00008D2F0E94530E83CF8C2F869586958370DC
:101F100069F0813009F07BCF8D2F9C2F93701111C8
:101F200002C090E080E00E94EB0C71CF8D2F9C2FBF
:101F30009370111102C090E080E00E94D50C67CF31
:101F40008D2F112329F00E94481A0E94331B5FCF66
:101F50000E94B01AFACF8C2F837009F041C0111182
:101F600056CF4D2F429546954770440F440F0D2F85
:101F70000F7010E030E020E0042E04C0000F111FAD
:101F8000221F331F0A94D2F760E070E0CB01D4FF28
:101F90000FC06FE070E080E090E004C0660F771F34
:101FA000881F991F4A95D2F76095709580959095F6
:101FB000C695C695C370602B712B822B932BC230B4
:101FC00049F058F4C13019F00E94BD1420CF0E948E
:101FD000AB141DCF0E94CF141ACF0E94A91417CFA3
:101FE0008695112311F08C2F8170882309F40FCF6F
:101FF0004D2F429546954770440F440F0D2F0F709B
:1020000010E030E020E0042E04C0000F111F221F5A
:10201000331F0A94D2F760E070E0CB01D4FF0FC009
:102020006FE070E080E090E004C0660F771F881FCB
:10203000991F4A95D2F76095709580959095C695B1
:10204000C695C370602B712B822B932BC23049F045
:1020500058F4C13019F00E948215D9CE0E94701533
:10206000D6CE0E949415D3CE0E94E514D0CECF7068
:10207000112329F08C2F0E940B158D2F12CF8D2F3D
:102080000E949C0E8C2F0E942C15C1CED23F89F14C
:1020900060F4D03FC9F0D13F29F1112309F442C0C7
:1020A00001119DCE8C2F8F7121C0D33F39F1D43FC8
:1020B000A1F7112369F1CF718C2F0E940B1563E0FA
:1020C0008C2F0E941217A3CE112341F0053008F087
:1020D0009ECE8C2F8F710E944F1599CE063008F03E
:1020E00096CEF7CF8C2F8F71112369F20E940B15BA
:1020F0008ECE8C2F8F711123C9F3C5CF112329F0F8
:102100008C2F8F710E94F61482CE0E94F1147FCE24
:1021100081E00E942717023008F479CE82E00E9405
:10212000271775CE002359F0D93309F0E9CE8FEF88
:1021300097EEE3E081509040E040E1F7DFCE8C2F56
:102140008F71A1CF4C2F4F706D2FC6010E94A0043C
:102150000E9421145CCE4C2F4F706D2FC6010E943F
:10216000A30455CEDF91CF911F910F91FF90EF9077
:10217000DF90CF90BF9008950F931F93CF93DF937D
:10218000EC01688179818A810E9447168C010E9446
:10219000A6150E94A814B801CE01DF91CF911F911E
:1021A0000F910C94A30ECF93DF93EC018B819C8154
:1021B000892B29F08881998189238F3F59F4DF91F8
:1021C000CF910895CE010E94BC10CE01DF91CF9136
:1021D0000C940B03CE010E944F048111F3CF0E9497
:1021E0008916882361F38A81882349F382E0DF918D
:1021F000CF910C9427170E94B0160E94C0160E941F
:10220000DC160E945A1C0E94331B90E080E00E9462
:10221000D50C90E080E00C94EB0C0E9479160C94A5
:10222000FB100E94A0160C940D11E92FE295EF709F
:10223000E250EE3070F4F0E0E259FB4D0C94E623EE
:10224000803F19F020F4883E20F481E00895843F17
:10225000E1F380E00895883EC0F3813FD1F7F5CFE8
:1022600093FB882780F908950E943D160C94151160
:10227000CF93DF9300D000D00F92CDB7DEB70F9091
:102280000F900F900F900F90DF91CF910895CF9303
:10229000DF9300D000D000D0CDB7DEB726960FB6C2
:1022A000F894DEBF0FBECDBFDF91CF9108951F938D
:1022B000CF93DF93C091B30116E08091B4018C13EA
:1022C00004C0DF91CF911F910895D0E01C9FF001D1
:1022D0001D9FF00D1124EB54FE4F4081518162810E
:1022E0007381848195810E9447112196C770E5CF43
:1022F0004091E5015091E6016091E7017091E8019C
:102300008091E9019091EA010C9447111F93CF93BA
:10231000DF938091EA01807FA9F48091E70188230F
:1023200089F08091B301C091B4016091E501709191
:10233000E601A091E801B091E901D62FD72316E07C
:10234000C81304C0DF91CF911F91089590E01097BA
:1023500011F0DF3F19F401968770F2CF189F9001BA
:10236000199F300D1124F901EB54FE4F41814713A1
:10237000F2CF40814613EFCF42814111ECCF438130
:1023800054814A1B5B0B483C510528F78091EA01B8
:102390008F7080618093EA01F901E654FE4F8081DD
:1023A0008F708061808385EE91E00E94D310DF9171
:1023B000CF911F910C945711AF92BF92CF92DF92A1
:1023C000EF92FF920F931F93CF93DF93CDB7DEB7BA
:1023D00061970FB6F894DEBF0FBECDBF8C0185E0CC
:1023E000F801DE011D9601900D928A95E1F7F80142
:1023F00040815181E28085EEC82E81E0D82E609127
:10240000E8017091E9016115710509F461C19091CC
:10241000E5012091E601892F82238F3F09F458C1FD
:10242000A380B480F090E701F501E61BF70BFF20D5
:1024300009F4FCC08091EA01382F307FE83CF105B7
:1024400008F0B2C0311179C0FE2C251323C09413BB
:1024500021C0E1101FC08F7080618093EA010E944B
:102460007811C6010E94D3108091EA01F80185839A
:102470008F2D61960FB6F894DEBF0FBECDBFDF91F2
:10248000CF911F910F91FF90EF90DF90CF90BF9071
:10249000AF900895AB2829F0842F85238F3F09F052
:1024A00033C180E0F82FF170DF2E80FF3CC08091B7
:1024B000B3012091B40136E0821315C04D875E87C9
:1024C0008D859E850E943D16292F22952F702230E2
:1024D000F0F0243018F59F70F1F0F8019581907FAD
:1024E000D1F4D12C1EC090E0389FF001399FF00D3F
:1024F0001124EB54FE4F6181651306C060816413A3
:1025000003C062816E110FC001968770D5CF9F7096
:1025100011F0882331F3805E883018F3C8010E94DF
:10252000D310FD2CA5CFEE2009F4A2CF8091EA01B3
:1025300081608093EA01F12C9BCF251306C0941390
:1025400004C0F801EE2009F48DC04D875E878D85AB
:102550009E850E943411882319F1EE2009F18091A3
:10256000EA01803270F02091E5013091E601388770
:102570002F831986BB86AA868C87CE0107960E9478
:10258000D31086E0F801A5EEB1E001900D928A9596
:10259000E1F70E9486110E947811FF24F39468CF1E
:1025A000C8010E94D310F9CF311113C07A2DB98A16
:1025B000A88A6E2D89890E94381185EE91E00E94CB
:1025C000D31086E0F60111928A95E9F70E947811FE
:1025D000B2CF25130FC094130DC0E1100BC0F8014A
:1025E0008583C8010E94D31086E0F60111928A9576
:1025F000E9F73ECF4D875E878D859E850E94341119
:10260000882371F2EE2061F28091EA01803208F4B1
:10261000B8CF2091E5013091E6013A8329831B82EE
:10262000BD82AC828E83CE010196A9CFE83CF10534
:1026300008F041C0FE2CEE2009F4B2CF25132AC0C9
:10264000941328C08091EA0180FD1BC0982F907FD1
:10265000C1F0F8018583903F31F0982F907F905F13
:102660008F70892B8583C8010E94D31086E0F80102
:10267000A5EEB1E001900D928A95E1F70E947811E4
:10268000F7CE86E0F801A5EEB1E001900D928A95B3
:10269000E1F7EECE4D875E878D859E850E943411D1
:1026A00081116FCF8091EA0181608093EA01C801B6
:1026B0000E94D310DDCE7A2DB98AA88A6E2D898921
:1026C0000E94381186E0F60111928A95E9F7D6CF7B
:1026D000EE2009F465CF4D875E878D859E850E942B
:1026E0003411F82E882309F45BCF86E0F801A5EEBB
:1026F000B1E001900D928A95E1F785EE91E00E949C
:10270000000E0E948611BACF81E08E25CBCE1F939A
:10271000CF93DF93CDB7DEB72C970FB6F894DEBF1B
:102720000FBECDBF4F83588769877A878B879C8779
:10273000CE0107960E94DC11882369F08A859B856B
:10274000892B39F04F815885842F85238F3F09F0DD
:1027500071C016E05FC086E0FE013796DE0111967B
:1027600001900D928A95E1F78A859B85892B89F3E3
:102770008F81988589238F3F61F32091B40130E0E8
:10278000C9010196877099274091B301481719062E
:1027900071F40E9411111092B4011092B30186E0FD
:1027A000E5EEF1E0DF011D928A95E9F7D2CF96E0E0
:1027B000929FD001939FB00D1124AB54BE4FFE01E8
:1027C000319601900D929A95E1F78093B4010E94A1
:1027D0005711BFCF819FC00111248B549E4F0E947F
:1027E000DC118823E9F0E091B3011E9FF001112470
:1027F000EB54FE4F408151816281738184819581C8
:102800000E9447118091B30190E00196877099274B
:102810008093B3018091B3019091B4018913DACF11
:102820002C960FB6F894DEBF0FBECDBFDF91CF91CF
:102830001F91089569857A858B859C850E94471133
:1028400088CFEF92FF920F931F93CF93DF938C016A
:10285000892B81F0F12CEE24E394E8012196F80114
:102860008491843770F4843008F05FC08130B1F017
:102870008230A1F1DF91CF911F910F91FF90EF90E6
:102880000895853709F44CC008F43DC09CE7980FC3
:10289000903780F78F770E94530E49C00E5F1F4F0D
:1028A000FE01849190E2980F983060F48770FE2DBD
:1028B00001C0FF0F8A95EAF78F2F0E94B3160E947E
:1028C000DC1602C00E94050E8F2D815030F2EFE918
:1028D000FFE03197F1F700C00000F7CF0E5F1F4F08
:1028E000FE01849190E2980F983050F48770FE2D8D
:1028F00001C0FF0F8A95EAF78F2F0E94B916DFCF2C
:102900000E94530EE1CF0E5F1F4FFE01C491C150D4
:10291000D8F28FE99FE00197F1F700C00000F7CFF0
:102920000E5F1F4FFE01F490CFCF0E94050E8E0167
:10293000CBCF08950C9499140E949A1460931702B7
:10294000709318028093190290931A020C94FB1052
:1029500008950C949C140F931F93009117021091EB
:1029600018022091190230911A02602B712B822BD0
:10297000932B1F910F910C949C140F931F93009114
:102980001702109118022091190230911A02602347
:102990007123822393231F910F910C949C140F9306
:1029A0001F93009117021091180220911902309183
:1029B0001A0260277127822793271F910F910C9489
:1029C0009C140C9499140C94E1140E94E3146093E9
:1029D00013027093140280931502909316020C94C4
:1029E000FB1060E070E0CB010C94E5140F931F9393
:1029F00041E050E060E070E08A019B0104C0000FFC
:102A0000111F221F331F8A95D2F7C901B8011F91E8
:102A10000F910C94E5140F931F9341E050E060E098
:102A200070E004C0440F551F661F771F8A95D2F7C8
:102A30008091130290911402A0911502B091160298
:102A40008A019B01082B192B2A2B3B2BC901B801AA
:102A50001F910F910C94E5140F931F9341E050E0E8
:102A600060E070E004C0440F551F661F771F8A9511
:102A7000D2F7CB01BA016095709580959095009141
:102A80001302109114022091150230911602602356
:102A90007123822393231F910F910C94E5140F93BC
:102AA0001F9341E050E060E070E004C0440F551F08
:102AB000661F771F8A95D2F78091130290911402B6
:102AC000A0911502B09116028A019B0108271927CF
:102AD0002A273B27C901B8011F910F910C94E514D7
:102AE0000F931F930091130210911402209115026D
:102AF00030911602602B712B822B932B1F910F911B
:102B00000C94E5140F931F9300911302109114027B
:102B100020911502309116026023712382239323A2
:102B20001F910F910C94E5140F931F9300911302C2
:102B3000109114022091150230911602602771271E
:102B4000822793271F910F910C94E514089529E093
:102B5000929F800D1124982F977041E001C0440F7F
:102B60009A95EAF786958695869595E0899FF00176
:102B70001124E551FE4F90E080E070E05191DF01BB
:102B800011979B01082E02C0369527950A94E2F70B
:102B9000217021952527242325272C930196853004
:102BA000910561F7089529E0929F800D1124982FD7
:102BB000977086958695869525E0829FF001112471
:102BC000E551FE4F50E040E080E0219130E0092ED9
:102BD00002C0369527950A94E2F721703327042E18
:102BE00001C0220F0A94EAF7822B4F5F5F4F4530F6
:102BF000510559F70895BF92CF92DF92EF92FF925D
:102C00000F931F93CF93DF938C01C0901302D0904A
:102C10001402E0901502F090160280911702909134
:102C20001802A0911902B0911A02C82AD92AEA2AD8
:102C3000FB2ACFE1D0E0BC2ED701C6010C2E04C088
:102C4000B695A795979587950A94D2F780FD0EC003
:102C5000219788F7B12C8B2DDF91CF911F910F9188
:102C6000FF90EF90DF90CF90BF900895B8018C2F28
:102C70000E94AC04019761F3EECFCF93DF93EC0198
:102C80000E94FB15BE01DF91CF910C94AC041F9301
:102C9000CF93DF93EB019091B201992331F0CB01F7
:102CA000DF91CF911F910C943D16882379F0CB01D1
:102CB0000E94FB15182F682FCE010E94A715BE0198
:102CC000812FDF91CF911F910C94AC04CB010E9416
:102CD000D315182FF4CF682F809100019091010136
:102CE0000C948418682F80910001909101010C943C
:102CF0008F1880910001909101010C949A18809195
:102D00001B02859585958595089580911B02877096
:102D1000089590911B02977081E009F480E0089576
:102D200080913F02089590913F02892B80933F024A
:102D30000895809590913F02982390933F020895C3
:102D400010923F02089590913E02892B80933E029B
:102D50000895809590913E02982390933E020895A5
:102D600010923E02089590913D02892B80933D027E
:102D70000895809590913D02982390933D02089587
:102D800010923D02089580911C02089508950C94BC
:102D9000C61690911C02981721F080931C020C9487
:102DA000C716089580911C02882329F010921C02F6
:102DB00080E00C94C7160895E0910001F0910101A4
:102DC00080913F028083E0910001F09101018081B8
:102DD00090913E02892B8083E0910001F0910101E6
:102DE000808190913D02892B808390911C029923D0
:102DF00081F0E0910001F09101018081892B8083B5
:102E000080910001909101010E94F01781110E94B0
:102E1000D21680910001909101010C94AD0C08959F
:102E20000C940F1798E0899F90011124622B6093F6
:102E30001B020E940B1580911B0285958595859537
:102E40000C94101710921B0280E00C9410179091B4
:102E50001B028095892380931B02282F277071F411
:102E6000282F082E000C330B9217130639F0859586
:102E7000859585950E942C150C94221708956FEF67
:102E80007FEF90E080E00C94332490E080E00E949B
:102E90000F2421E08C3E9E4F09F020E0822F089500
:102EA00082E090E00C94072483E090E00C940724E7
:102EB000CF9384E090E00E940724C82F81E290E045
:102EC0000E940724982F8C2FCF910895CF93C92F5C
:102ED000682F84E090E00E9415246C2F81E290E03E
:102EE000CF910C941524AB01BC018FE090E00C94C1
:102EF0002724AB01BC0183E190E00C94272460E01F
:102F000070E0CB010C94791760E070E0CB010E9477
:102F100073170C947F176CEE7EEF90E080E00E94B8
:102F2000332460E082E090E00E94152460E083E0BA
:102F300090E00E941524109217021092180210922D
:102F4000190210921A0260E084E090E00E941524B9
:102F500060E081E290E00E94152460E085E090E06E
:102F60000E94152460E086E090E00E9415246FEF37
:102F700087E090E00E94152440E050E0BA0188E02C
:102F800090E00E94272460E08DE090E00E941524EC
:102F900040E050E0BA0188E190E00E94272460E020
:102FA00087E190E00E94152440E050E0BA018CE1F6
:102FB00090E00E94272460E080E290E00E941524C7
:102FC00040E050E0BA0188E190E00E9427240C9490
:102FD00084170C948B17682F8EE090E00C941524C6
:102FE000FC01329680911401882321F08091910296
:102FF0009EE187FF96E080E0915008F408952191CA
:103000002223D1F38F5FF8CF662301F120911401C1
:103010002223F1F02091910227FF1AC0462F4695F6
:10302000469546954E3190F4677021E030E002C03D
:10303000220F331F6A95E2F7840F911DFC018281F4
:1030400090E02823392381E0232B69F480E0089560
:10305000FC01329608962191261721F0E817F9070E
:10306000D1F7F4CF81E008959C01FC0132969FEFE7
:1030700080E04191461751F09F3F19F4411101C082
:10308000982F8F5F8630A9F79F3F09F40895290F85
:10309000311D97FD3A95F90162830895FC0132963E
:1030A00008962191261303C0DF0111971C92E8179F
:1030B000F907B9F70895E62FE695E695E695EE311E
:1030C00068F4E80FF92FF11D677021E030E001C0CE
:1030D000220F6A95EAF78281822B82830895E62F78
:1030E000E695E695E695EE3170F4E80FF92FF11DBF
:1030F000677021E030E001C0220F6A95EAF7209561
:10310000828128232283089520911401222329F00B
:103110002091910227FD0C945B180C943418209197
:103120001401222329F02091910227FD0C946F189D
:103130000C944E18FC01329680911401882351F0B2
:103140008091910287FF06C08EE1DF011D928A9572
:10315000E9F7089586E0F9CF089508950C94AD1825
:103160000E94AE1880919702843049F1109241027A
:1031700088E190E020E40FB6F894A8958093600071
:103180000FBE2093600080E00E9498040E94AE1859
:1031900083B7817F846083BF83B7816083BF789466
:1031A000889583B78E7F83BF0FB6F894A8958091DA
:1031B0006000886180936000109260000FBE0895E7
:1031C0000895CF930E94AC180E94ED060E94E0186B
:1031D000C0E08C2F0E94A106892B31F4CF5FC7304D
:1031E000C1F780E0CF91089581E0FCCF08950C9461
:1031F000F6180E9411110E94A10C0E9498040C94D0
:10320000F7181F921FB61F9211248F939F93AF93AD
:10321000BF9380914102811113C080918D029091E2
:103220008E02A0918F02B09190024196A11DB11D16
:1032300080938D0290938E02A0938F02B0939002A0
:10324000BF91AF919F918F911F901FBE1F901895B6
:1032500082E084BD93E095BD9AEF97BD80936E00A8
:1032600008952FB7F89480918D0290918E02A091CD
:103270008F02B09190022FBF08952FB7F8946091FC
:103280008D0270918E0280918F02909190022FBFDB
:1032900008959C014FB7F89480918D0290918E0211
:1032A000A0918F02B09190024FBF821B930B0895A3
:1032B00078941F921FB61F9211248F939F93AF9300
:1032C000BF9380918D0290918E02A0918F02B09158
:1032D00090020196A11DB11D80938D0290938E02E4
:1032E000A0938F02B0939002BF91AF919F918F9165
:1032F0001F901FBE1F90189587E797E790930108CE
:103300008093000888E19AE00FB6F894A89580931E
:1033100060000FBE90936000FFCF0C94D7070E940F
:10332000ED068FE39CE90197F1F700C000000E94D1
:10333000ED0680E00E94A10680FF04C00E948D1966
:103340000C947C1908950E944517811102C00E94B7
:10335000E9170E945017809340020E9458179093DB
:103360009202809391020E945417682F70E090E0BF
:1033700080E00E94A9146091130270911402809160
:103380001502909116020C94E3148091480280FF7C
:1033900012C06091070185E0689FB0011124759506
:1033A00067957595679560387105A8F56115710584
:1033B000A1F1862F089581FF09C06091070185E082
:1033C000689FB001112475956795EDCF6091070155
:1033D00082FD0AC0809147028823D1F090910601B6
:1033E00060910701891728F085E0689FB0011124DA
:1033F000DACF869FB001112485E0869F9001879FD8
:10340000300D1124692F70E0C9010E94D223CBCF67
:1034100065E070E0CECF8FE7089581E00895809158
:10342000480280FF0CC06091030170E075956795BC
:10343000759567956115710549F1862F089581FF8E
:1034400006C06091030170E075956795F3CF6091B8
:10345000030182FD0BC0909146029923A1F0609177
:10346000020180910301961738F0682F70E06038F0
:10347000710500F38FE70895899FC001112470E062
:103480000E94D223F4CF61E070E0D7CF81E00895AD
:10349000803F31F40E94C519819580934C020895B4
:1034A000813F19F40E94C519F8CF823F31F40E9480
:1034B000C519819580934B020895833F19F40E94AA
:1034C000C519F8CF893F29F40E940F1A80934D0245
:1034D00008958A3F21F40E940F1A8195F7CF8B3F00
:1034E00031F40E940F1A819580934E0208958C3F0B
:1034F00019F40E940F1AF8CF843F31F480914A02E8
:10350000816080934A020895853F21F480914A02A8
:103510008260F7CF863F21F480914A028460F1CF28
:10352000873F21F480914A028860EBCF883F21F4E5
:1035300080914A028061E5CF8D3F31F4809148024D
:1035400081608093480208958E3F21F48091480263
:103550008260F7CF8F3FB9F7809148028460F1CF46
:1035600090914B02803F59F480914C0287FF0DC02F
:1035700010924C0291110BC01092470208C0813F7B
:1035800081F480914C0218169CF3992381F080916C
:103590004D0290914E02892B09F064C010924602B0
:1035A0000895823F49F497FFF0CF10924B0280912B
:1035B0004C028111ECCFE0CF833F19F41916ACF324
:1035C000E4CF20914D02893F29F41216F4F61092AF
:1035D0004D02DBCF8A3F19F427FFD7CFF8CF2091D8
:1035E0004E028B3F29F427FFD0CF10924E02CDCF51
:1035F0008C3F19F41216CCF3C8CF843F31F480917C
:103600004A028E7F80934A02C0CF853F21F4809189
:103610004A028D7FF7CF863F21F480914A028B7F4B
:10362000F1CF873F21F480914A02877FEBCF883F1B
:1036300021F480914A028F7EE5CF8D3F31F4809155
:1036400048028E7F80934802A0CF8E3F21F4809164
:1036500048028D7FF7CF8F3F09F097CF80914802C6
:103660008B7FF0CF08950E9431199C0190914B02FD
:1036700080914C02982B21F0309345022093440214
:1036800090914D0280914E02982B21F0309343028D
:103690002093420289E492E00C94C70CEF92FF92CF
:1036A0000F931F93CF93DF9300D000D000D0CDB7FE
:1036B000DEB786E0E9E4F2E0DE01119601900D92BA
:1036C0008A95E1F7E0904B02F0904C0200914D0298
:1036D00010914E0210924B0210924C0210924D0229
:1036E00010924E028E2D8F2991F08091440290917C
:1036F00045020E944919AC0190914702992309F4AF
:103700003FC0809108018417150608F447C0802F38
:10371000812B91F080914202909143020E944919BD
:10372000AC0190914602992309F477C0809104017D
:103730008417150608F47FC080914B0290914C02CB
:10374000892B90914D02892B90914E02892B11F07B
:103750000E94331B86E0FE013196A9E4B2E001909D
:103760000D928A95E1F726960FB6F894DEBF0FBE4C
:10377000CDBFDF91CF911F910F91FF90EF900895F2
:10378000209109018AE0289F900111242417350710
:1037900008F0BDCF9F5F9093470202C09F3FD1F7D3
:1037A000EE2059F00E94C5199FEF1E140CF491E011
:1037B000899F802D112480934B02FF2059F00E9495
:1037C000C5199FEF1F140CF491E0899F802D1124DF
:1037D00080934C0230914B02332309F498CF20910F
:1037E0004C02222309F493CF45EB3403C00111248A
:1037F000992359F090934B0245EB24039001112437
:10380000332339F030934C0282CF81E080934B0216
:10381000F3CF81E080934C027ACF209105018AE0BA
:10382000289F900111242417350708F085CF9F5F4A
:103830009093460202C09F3FD1F7002359F00E94A7
:103840000F1A9FEF10160CF491E0899F802D112420
:1038500080934D02112359F00E940F1A9FEF111609
:103860000CF491E0899F802D112480934E023091B9
:103870004D02332309F460CF20914E02222309F434
:103880005BCF45EB3403C0011124992359F0909389
:103890004D0245EB240390011124332339F030937A
:1038A0004E024ACF81E080934D02F3CF81E08093B6
:1038B0004E0242CF86E0E9E4F2E0DF011D928A95F4
:1038C000E9F71092470210924602109248020895BA
:1038D00080916F020895CF93DF9300D00F92CDB700
:1038E000DEB790919702943011F589837B836A83C8
:1038F0009093E9008FEF9091E800815095FD06C00C
:1039000095ED9A95F1F700008111F5CF8091E800CF
:1039100085FF0DC050E040E063E070E0CE0101960D
:103920000E94F21E8091E8008E778093E8000F904D
:103930000F900F90DF91CF910895BC0184E00C941B
:103940006B1CBC0183E00C946B1C9C0184E0809395
:10395000E9009FEF8091E800915085FD06C085ED5C
:103960008A95F1F700009111F5CF8091E80085FF6D
:103970000CC050E040E066E070E0C9010E94F21E19
:103980008091E8008E778093E8000895CF93DF93CD
:10399000EC01809114018823B1F18091910287FF9D
:1039A00032C060E284E08093E9008FEF9091E800FC
:1039B000815095FD06C095ED9A95F1F700008111B3
:1039C000F5CF8091E80085FF1BC08091140170E065
:1039D00050E040E0811104C050E040E068E070E059
:1039E000CE010E94F21E8091E8008E778093E8005D
:1039F00080E2FE01AFE4B2E001900D928A95E1F71A
:103A0000DF91CF91089568E081E0CDCFCF93FC01A5
:103A1000603221F580919702843001F5C091E90070
:103A2000CF702091EC00922F917020FD90E8C92B6F
:103A300082E08093E9008091E80080FF0CC050E0B4
:103A400040E060E270E0CF010E94F21E8091E80049
:103A50008E778093E800CF70C093E900CF910895EE
:103A600080919602811109C00E94D1200E942E21CE
:103A70008091E20084608093E200089510929602A3
:103A80000895089508950C94F91842E061EC81E0DE
:103A90000E944D2042E261EC84E00E944D2042E20F
:103AA00061EC82E00E944D2042E260EC83E00C94E5
:103AB0004D2080919902833009F461C030F4813047
:103AC000D1F1823009F49DC008958A3009F489C08B
:103AD0008B3009F46FC0893009F050C08091980292
:103AE000813209F04BC080919C0290919D02009719
:103AF00019F0029709F042C08091E800877F809317
:103B0000E8008091E80082FF35C09091F300809139
:103B1000F200029729F48091F1008B7F813021F42B
:103B20008091F10080936F028091E8008B77809301
:103B3000E8000C94812080919802813AF9F48091F8
:103B4000E800877F8093E80080919C0290919D021D
:103B5000892B61F460E28FE492E070E00E94901F94
:103B60008091E8008B778093E800089560E090E012
:103B700080E0F3CF809197028111C3CF08958091A7
:103B80009802813AD9F780919C0290919D02892BED
:103B9000A9F78091E800877F8093E8008091E80092
:103BA00080FFFCCF809114018093F1008091E800A8
:103BB0008E77BDCF80919802813201F780919C026F
:103BC00090919D02892BD1F68091E800877F8093A8
:103BD000E8000E94812080919A02809314010C9445
:103BE000111180919802813249F68091E800877F17
:103BF0008093E8000E94812080919B028093700254
:103C0000089580919802813A09F0B8CF8091E80038
:103C1000877F8093E8008091E80080FFFCCF80914F
:103C20007002C2CFCDB7DEB7A0970FB6F894DEBF53
:103C30000FBECDBF84B7877F84BF0FB6F894A89519
:103C400080916000886180936000109260000FBED8
:103C500080E890E00FB6F894809361009093610043
:103C60000FBE0E940F0D0E94D1200E942E21809134
:103C7000E20084608093E20078940E94B7230E945F
:103C80001B0D8AE091E00E949C0C13E0809197024A
:103C9000853059F00E94250D80919702843091F073
:103CA0000E94190D0E941A0DF1CF0E94B018809148
:103CB0009502882359F30E94E118882339F30E9462
:103CC000DC1EE4CF1093E9008091E80082FFE8CF8A
:103CD0008091E80090E085FF09C050E040E060E29C
:103CE00070E0CE0101960E94411F91E08091E800B2
:103CF0008B778093E800992399F260E2CE010196D8
:103D00000E943908CDCF0C94851E292F33272330EC
:103D1000310521F168F42130310509F443C0223026
:103D2000310509F444C090E080E030E020E026C096
:103D30002132310551F122323105A9F76330710585
:103D400090F7FB01EE0FFF1FE657FE4F20813181F8
:103D500069577E4FFB01808190E010C09927813028
:103D6000910581F0009729F00297E9F6E4E4F3E089
:103D700002C0EAE6F3E0849190E09F01FA0131830A
:103D800020830895E4E5F3E0F6CF6330710558F63B
:103D9000660F771FFB01E057FE4F2081318189E0DC
:103DA00090E0ECCF82E190E029EC33E0E7CF8BE5C7
:103DB00090E02EE633E0E2CF80E189BD82E189BD6B
:103DC00009B400FEFDCF8091D8008F7D8093D8008C
:103DD0008091E00082608093E0008091E00081FDAE
:103DE000FCCF0895AF92BF92CF92DF92FF920F93D4
:103DF0001F93CF93DF936C01EB018A010E94A020F7
:103E0000F82E811123C00115110539F0F8018081C8
:103E10009181C81BD90BC80ED91EB12CA12C20979B
:103E2000A9F08091E80085FD22C08091E8008E779E
:103E30008093E80001151105A1F0F80180819181BE
:103E4000A80EB91EB182A08285E0F82E8F2DDF91D9
:103E5000CF911F910F91FF90DF90CF90BF90AF90C7
:103E600008950E94A0208823D1F2F82EEFCFF6010A
:103E700081916F018093F1002197FFEFAF1ABF0A84
:103E8000CECFAF92BF92CF92DF92FF920F931F934C
:103E9000CF93DF936C01EB018A010E94A020F82EE2
:103EA000811123C00115110539F0F801808191813C
:103EB000C81BD90BC80ED91EB12CA12C2097A9F074
:103EC0008091E80085FD22C08091E8008B77809387
:103ED000E80001151105A1F0F80180819181A80E7B
:103EE000B91EB182A08285E0F82E8F2DDF91CF918F
:103EF0001F910F91FF90DF90CF90BF90AF900895EA
:103F00000E94A0208823D1F2F82EEFCF8091F100FB
:103F1000F60181936F012197FFEFAF1ABF0ACECF51
:103F2000FC0180919E0290919F0286179707A0F056
:103F30006115710529F49091E8009E779093E8004F
:103F400090E06115710551F4911108C08091E8006D
:103F500082FF34C080E00895BC01F2CF80919702C7
:103F60008823C1F18530C1F18091E80083FD30C024
:103F70008091E80082FDEACF8091E80080FFE1CFE8
:103F80008091F3002091F200382F6115710519F02E
:103F90002830310558F091E02830310509F090E0E3
:103FA0002091E8002E772093E800CBCF8191809379
:103FB000F100615071092F5F3F4FE7CF8091970269
:103FC000882341F0853041F08091E80083FFBECF27
:103FD00081E0089582E0089583E00895FC018091D6
:103FE0009E0290919F0286179707A0F061157105B8
:103FF00029F48091E8008E778093E80090E06115C5
:10400000710551F4911108C08091E80082FF35C01C
:1040100080E00895BC01F2CF809197028823C9F116
:104020008530C9F18091E80083FD31C08091E800BE
:1040300082FDEACF8091E80080FFE1CF8091F3001C
:104040002091F200382F6115710519F028303105E3
:1040500058F091E02830310509F090E08091E800B7
:104060008E778093E800CBCF84918093F1003196D6
:10407000615071092F5F3F4FE6CF809197028823EF
:1040800041F0853041F08091E80083FFBDCF81E0B1
:10409000089582E0089583E00895982F973028F0DE
:1040A0008F708093E90081E008959093E900242FB8
:1040B000762F50E0981731F07091EC002091ED00D0
:1040C0005091F00021FD02C09F5FE8CF3091EB00DE
:1040D0003E7F3093EB003091ED003D7F3093ED005B
:1040E0003091EB0031603093EB007093EC00209343
:1040F000ED005093F0002091EE0027FDE5CF80E029
:1041000008958091980287FF13C08091E80082FF94
:1041100006C08091E8008B778093E80004C080910E
:1041200097028111F2CF0895809197028823D9F3E5
:104130008091E80080FFF8CF8091E8008E77ECCF87
:104140002091E4003091E50095E6A9012091EC0072
:10415000822F817020FF06C08091E80080FF06C09A
:1041600080E008952091E80022FD1AC08091970216
:10417000882389F0853089F08091EB0085FD0FC0A0
:104180002091E4003091E50042175307F9F2915075
:10419000E1F684E0089582E0089583E0089581E0E7
:1041A00008950E943F210E944721E0EEF0E08081C7
:1041B00081608083E8EDF0E080818F77808319BC97
:1041C000A7EDB0E08C918E7F8C9380818F7E808371
:1041D0001092960208950F931F93CF93DF930E943E
:1041E0003F210E944721C8EDD0E088818F778883E6
:1041F00088818068888388818F7D888319BC10922C
:10420000970210929302109295021092940200EE7F
:1042100010E0F80180818B7F8083888181608883B2
:1042200042E060E080E00E944D20E1EEF0E080811D
:104230008E7F8083E2EEF0E08081816080838081E8
:1042400088608083F80180818E7F8083888180618F
:104250008883DF91CF911F910F910895E8EDF0E0F1
:1042600080818F7E8083E7EDF0E0808181608083B4
:1042700084E082BF81E0809396020C94EB20E8ED0D
:10428000F0E080818E7F80831092E200089510928A
:10429000DA001092E10008951F920F920FB60F926C
:1042A00011242F933F934F935F936F937F938F933B
:1042B0009F93AF93BF93EF93FF938091E10082FFB1
:1042C0000BC08091E20082FF07C08091E1008B7FEC
:1042D0008093E1000E94B6238091DA0080FF19C02C
:1042E0008091D80080FF15C08091DA008E7F809386
:1042F000DA008091D90080FF96C080E189BD82E11B
:1043000089BD09B400FEFDCF81E0809397020E9431
:10431000301D8091E10080FF19C08091E20080FF94
:1043200015C08091E2008E7F8093E2008091E200D0
:1043300080618093E2008091D80080628093D800F1
:1043400019BC85E0809397020E94421D8091E10094
:1043500084FF2BC08091E20084FF27C080E189BDEB
:1043600082E189BD89B5982F917080FFFBCF809144
:10437000D8008F7D8093D8008091E1008F7E80935C
:10438000E1008091E2008F7E8093E2008091E20064
:1043900081608093E20080919302882309F449C0F0
:1043A00084E0809397020E94431D8091E10083FF87
:1043B00029C08091E20083FF25C08091E100877FC2
:1043C0008093E10082E080939702109293028091A3
:1043D000E1008E7F8093E1008091E2008E7F8093E8
:1043E000E2008091E20080618093E20042E060E0C0
:1043F00080E00E944D208091F00088608093F00062
:104400000E94411DFF91EF91BF91AF919F918F91BC
:104410007F916F915F914F913F912F910F900FBEC0
:104420000F901F90189519BC109297020E943E1D84
:1044300070CF8091E30087FD93E090939702B3CF14
:104440001F920F920FB60F9211242F933F934F9309
:104450005F936F937F938F939F93AF93BF93CF930C
:10446000DF93EF93FF93D091E900DF708091EC0030
:10447000C82FC17080FDC0E81092E9008091F00063
:10448000877F8093F00078940E9464221092E90064
:104490008091F00088608093F000CD2BCF70C093A6
:1044A000E900FF91EF91DF91CF91BF91AF919F9183
:1044B0008F917F916F915F914F913F912F910F90CD
:1044C0000FBE0F901F9018951F93CF93DF93CDB71A
:1044D000DEB7AA970FB6F894DEBF0FBECDBF88E94E
:1044E00092E02091F100FC012193CF01F2E0803AAB
:1044F0009F07B9F70E94591D8091E80083FF1EC1F4
:1045000080919802909199029A3008F017C1E92F92
:10451000F0E0E458FB4D0C94E623803899F08238A3
:1045200009F00CC180919C028F70873008F006C1A1
:104530008093E9008091EB0085FB882780F9109239
:10454000E90006C0809194029091950291118260D9
:104550009091E800977F9093E8008093F10010928B
:10456000F1008091E8008E77E5C0882309F4D3C07C
:10457000823009F0E3C080919A028111D6C0809107
:104580009C028F702FEF280F263008F0D7C0809341
:10459000E9002091EB0020FFC8C0933031F48091F6
:1045A000EB0080628093EB00C0C09091EB009061C3
:1045B0009093EB0021E030E001C0220F8A95EAF7EA
:1045C0002093EA001092EA008091EB008860EACF25
:1045D0008111B4C010919A021F778091E300807816
:1045E000812B8093E3008091E800877F8093E8002F
:1045F0000E9481208091E80080FFFCCF8091E30041
:1046000080688093E30082E0111183E08093970239
:1046100095C08058823008F091C080919A029091A4
:104620009B028C3D23E09207A1F583E08A838AE216
:1046300089834FB7F894DE01139620E03EE051E203
:10464000E32FF0E050935700E49120FF03C0E29580
:10465000EF703F5FEF708E2F90E0EA30C0F0C796AA
:104660008D939D932F5F243159F74FBF8091E800C0
:10467000877F8093E8006AE270E0CE0101960E9495
:10468000901F8091E8008B778093E80057C0C09618
:10469000E7CF60919C0270919D02AE014F5F5F4F2A
:1046A0000E94831EBC01892B09F448C09091E80048
:1046B000977F9093E80089819A810E94EE1FE1CF55
:1046C0008038E1F58091E800877F8093E800809151
:1046D00093028093F10045CF811130C090919A02EE
:1046E000923060F58091E800877F8093E800909396
:1046F00093020E94812080919302882311F084E02C
:1047000005C08091E30087FDFACF81E08093970296
:104710000E94451D13C080919A02813079F481E096
:10472000933009F080E0809395021092E900809127
:10473000E800877F8093E8000E9481208091E80054
:1047400083FF0AC08091E800877F8093E800809112
:10475000EB0080628093EB00AA960FB6F894DEBF60
:104760000FBECDBFDF91CF911F9108950895CF93D4
:10477000809197028823A1F0C091E900CF709091B9
:10478000EC00892F817090FD80E8C82B1092E90021
:104790008091E80083FD0E946422CF70C093E900FD
:1047A000CF91089597FB072E16F4009407D077FD5C
:1047B00009D00E94F32307FC05D03EF49095819523
:1047C0009F4F0895709561957F4F0895EE0FFF1FDD
:1047D0000590F491E02D0994692796276927782799
:1047E000872778270895AA1BBB1B51E107C0AA1F82
:1047F000BB1FA617B70710F0A61BB70B881F991F82
:104800005A95A9F780959095BC01CD010895F99925
:10481000FECF92BD81BDF89A992780B50895A8E191
:10482000B0E042E050E00C943B24262FF999FECFF3
:1048300092BD81BDF89A019700B4021639F01FBAF3
:1048400020BD0FB6F894FA9AF99A0FBE0895039610
:10485000272F0E9416240E941524252F0E9416241B
:10486000242F0C9416240196272F0E9416240C94B2
:104870001524DC01CB01FC01F999FECF06C0F2BD85
:10488000E1BDF89A319600B40D9241505040B8F70E
:104890000895F894FFCF4B0858087F088B089608B6
:1048A000A108A408A408A408ED08F008A708AB080C
:1048B000B308C008CD08D008D308E008DA0EDA0E35
:1048C000320F320F840FA00F070F070FAB0F3710F7
:1048D00046104610A210070F070FAB102011201131
:1048E000291129112B112911291129112011201108
:1048F00030112911291130118D22B5229E23B522A4
:0C4900009E23E82209239E2360236C23E1
:10490C001D022808641E140A321E681CC61CA51C35
:10491C00A11C9D1C01E200E900EA00B500B600B73D
:10492C0000CD008301CC008A019201940121022365
:10493C000224022502260227022A02B300B4006FC9
:10494C00007000818283C63435F4F5F6F731339369
:10495C00929190946697E200E900EA00B500B600E7
:10496C00B700CD008301CC008A0192019401210291
:10497C00230224022502260227022A02B300B400D5
:10498C006F0070008182834022BCB904DB03FD03FD
:06499C0080039903B9033A
:00000001FF
