:100000000C94020B0C94460B0C94610B0C94460B55
:100010000C94460B0C94460B0C94460B0C94460B1C
:100020000C94460B0C94460B0C94631A0C94460BE0
:100030000C94460B0C94460B0C94460B0C94460BFC
:100040000C94460B0C94460B0C94460B0C94460BEC
:100050000C94460B07634236B79BD8A71A396856EB
:1000600018AEBAAB558C1D3CB7CC5763BD6DEDFDDA
:10007000753EF6177231BF000000803F05A84CCDD9
:10008000B2D44EB93836A9020C50B9918688083CD2
:10009000A6AAAA2ABE000000803F000000000000BF
:1000A0000000000000000000000000000000000050
:1000B0000000000000000000000000000000000040
:1000C0000000000000000000000000000080800030
:1000D0000000000080404020202020101010100858
:1000E00004020101020C304080000000000000000A
:1000F000F8F8F8F800000000008080000000000020
:1001000000000000000000000000000000000000EF
:10011000000000000000008080800000000000005F
:1001200000000000000000000000000000000000CF
:1001300000000000000000000000000000000000BF
:1001400000000000000000000000001EE1000001AF
:100150000102028180800000808000000000000019
:10016000000000800030300000010102040810206F
:100170004387070100B8BCBE9F5F5F4F4C20202023
:1001800020101010100808080808040404040402D1
:100190000202020101010100000000000000000055
:1001A000000000000000000000000000000000004F
:1001B000000000000000000000000000000000003F
:1001C0000000000000000000000080700C03000030
:1001D000180605989984437C414140402021221211
:1001E000111111090808080804040808101010105B
:1001F00010110F013D7CFCFCFCFCFC3C0C000000E1
:1002000000000000000000000000000000000000EE
:1002100000000000000000000000000000000000DE
:10022000000000000000000000000080808080804E
:100230004040404040202020202010101010100886
:10024000080808080404040404020302020101016E
:10025000010101000000000000000000000000009B
:10026000000000000000000000000000000000008E
:100270000000000000000001030300000000000077
:10028000000000000000000000000000000000006E
:10029000000000000000000000000000000000005E
:1002A000000000000000000000000000000000004E
:1002B000000000000000000000000000000000003E
:1002C000000000000000000000000000008080002E
:1002D0000000000080404020202020101010100856
:1002E00004020101020C3040800000000000000008
:1002F00000000000000000000000000000000000FE
:1003000000000000000000000000000000000000ED
:10031000000000000000008080800000000000005D
:1003200000000000000000000000000000000000CD
:1003300000000000000000000000000000000000BD
:1003400000000000000000000000001EE1000001AD
:100350000102020100000000808000000000000097
:1003600000000080003030000001E11A060931353C
:10037000018A7C0000808080804040404020202016
:1003800020101010100808080808040404040402CF
:100390000202020101010100000000000000000053
:1003A000000000000000000000000000000000004D
:1003B000000000000000000000000000000000003D
:1003C0000000000000000000000080700C0300002E
:1003D000000000000000000001010040A0212212E6
:1003E0001111110908080808040404040404020295
:1003F00002010101010000000000000000000000F7
:1004000000000000000000000000000000000000EC
:1004100000000000000000000000000000000000DC
:10042000000000000000000000000080808080804C
:100430004040404040202020202010101010100884
:1004400008080808040404040402037A7A79797914
:10045000793931020204040808088888878000007E
:10046000000000000000000000000000000000008C
:10047000000000000000000000000000000000007C
:10048000000000000000000000000000000000006C
:10049000000000000000000000000000000000005C
:1004A000000000000000000000000000000000004C
:1004B000000000000000000000000000000000003C
:1004C000000000000000000000000000008080002C
:1004D0000000000080404020202020101010100854
:1004E00004020101020C3040800000000000000006
:1004F00000000000000000000000000000000000FC
:1005000000000000000000000000000000000000EB
:10051000000000000000008080800000000000005B
:1005200000000000000000000000000000000000CB
:1005300000000000000000000000000000000000BB
:1005400000000000000000000000001EE1000001AB
:100550000102028180800000808000000000000015
:1005600000000080003030000001E11A060931353A
:10057000018A7C0000808080804040404020202014
:1005800020101010100808080808040404040402CD
:100590000202020101010100000000000000000051
:1005A000000000000000000000000000000000004B
:1005B000000000000000000000000000000000003B
:1005C0000000000000000000000080700C0300002C
:1005D000180605989984C37C41414040202122128D
:1005E0001111110908080808040404040404020293
:1005F00002010101010000000000000000000000F5
:1006000000000000000000000000000000000000EA
:1006100000000000000000000000000000000000DA
:10062000000000000000000000000080808080804A
:100630004040404040202020202010101010100882
:10064000080808080404040404020302020101016A
:100650000101010000000000000000000000000097
:10066000000000000000000000000000000000008A
:10067000000000000000000000000000000000007A
:10068000000000000000000000000000000000006A
:10069000000000000000000000000000000000005A
:1006A000000000000000000000000000000000004A
:1006B000000000000000000000000000000000003A
:1006C000000000000000000000000000000000002A
:1006D000000000008040402020202010101010104A
:1006E00008080404040830408000000000000000F6
:1006F00000000000000000000000000000000000FA
:1007000000000000000000000000000000000000E9
:100710000000000000000080808000000000000059
:1007200000000000000000000000000000000000C9
:1007300000000000000000000000000000000000B9
:1007400000000000000000000000001864820202A7
:100750000202020100000000808000000000000092
:100760000000008000303000C0C1C1C20408102069
:100770004080000000808080804040404020202059
:1007800020101010100808080808040404040402CB
:10079000020202010101010000000000000000004F
:1007A0000000000000000000000000000000000049
:1007B0000000000000000000000000000000000039
:1007C00000000000000000000000C038040300002A
:1007D00000000000000C0C0C0D010040A0212212B2
:1007E0001111110908080808040408081010101055
:1007F00010110F01010000000000000000000000C7
:1008000000000000000000000000000000000000E8
:1008100000000000000000000000000000000000D8
:100820000000000000000000000000808080808048
:100830004040404040202020202010101010100880
:100840000808080804040404040203020201010168
:10085000010101020204040808080808070000005A
:100860000000000000000000000000000000000088
:100870000000000000000000000000000000000078
:100880000000000000000000000000000000000068
:100890000000000000000000000000000000000058
:1008A0000000000000000000000000000000000048
:1008B0000000000000000000000000000000000038
:1008C0000000000000000000000000000000000028
:1008D0000000000080404020202020101010101048
:1008E00008080404040830408000000000000000F4
:1008F00000000000000000000000000000000000F8
:1009000000000000000000000000000000000000E7
:100910000000000000000080808000000000000057
:1009200000000000000000000000000000000000C7
:1009300000000000000000000000000000000000B7
:1009400000000000000000000000001864820202A5
:100950000202020100000000808000000000000090
:100960000000008000303000C0C1C1C20408102067
:100970004080000000808080804040404020202057
:1009800020101010100808080808040404040402C9
:10099000020202010101010000000000000000004D
:1009A0000000000000000000000000000000000047
:1009B0000000000000000000000000000000000037
:1009C00000000000000000000000C0380403000028
:1009D00000000000000C0C0C0D010040A0212212B0
:1009E0001111110908080808040408081010101053
:1009F00010110F01010000000000000000000000C5
:100A000000000000000000000000000000000000E6
:100A100000000000000000000000000000000000D6
:100A20000000000000000000000000808080808046
:100A3000404040404020202020201010101010087E
:100A40000808080804040404040203020201010166
:100A50000101010202040408080808080700000058
:100A60000000000000000000000000000000000086
:100A70000000000000000000000000000000000076
:100A80000000000000000000000000000000000066
:100A90000000000000000000000000000000000056
:100AA0000000000000000000000000000000000046
:100AB0000000000000000000000000000000000036
:100AC0000000000000000000000000000000000026
:100AD0000000000000808040404040202020201086
:100AE00008040202041860800000000000000000FA
:100AF00000000000000000000000000000000000F6
:100B000000000000000000000000000000000000E5
:100B10000000000000000080808000000000000055
:100B200000000000000000000000000000000000C5
:100B300000000000000000000000000000000000B5
:100B400000000000000000000000003CC2010102A3
:100B50000204040201000000000000000000000088
:100B60000000000000606000818282840810204044
:100B70008000000000808080804040404020202095
:100B800020101010100808080808040404040402C7
:100B9000020202010101010000000000000000004B
:100BA0000000000000000000000000000000000045
:100BB0000000000000000000000000000000000035
:100BC0000000000000000000000080701906000016
:100BD00000000000001818181B030040A022241475
:100BE0001212120B08080808050509091010101048
:100BF00010110F01010000000000000000000000C3
:100C000000000000000000000000000000000000E4
:100C100000000000000000000000000000000000D4
:100C20000000000000000000000000808080808044
:100C3000404040404020202020201010101010087C
:100C40000808080804040404040203020201010164
:100C50000101010202040408080808080700000056
:100C60000000000000000000000000000000000084
:100C70000000000000000000000000000000000074
:100C80000000000000000000000000000000000064
:100C90000000000000000000000000000000000054
:100CA0000000000000000000000000000000000044
:100CB0000000000000000000000000000000000034
:100CC0000000000000000000000000000080800024
:100CD000000000008040402020202010101010084C
:100CE00004020101020C30408000000000000000FE
:100CF00000000000000000000000000000000000F4
:100D000000000000000000000000000000000000E3
:100D10000000000000000080808000000000000053
:100D200000000000000000000000000000000000C3
:100D300000000000000000000000000000000000B3
:100D400000000000000000000000001EE1000001A3
:100D5000010202010000000080800000000000008D
:100D60000000008000303000C0C1C1C20408102063
:100D70004080000000808080804040404020202053
:100D800020101010100808080808040404040402C5
:100D90000202020101010100000000000000000049
:100DA0000000000000000000000000000000000043
:100DB0000000000000000000000000000000000033
:100DC0000000000000000000000080700C03000024
:100DD00000000000000C0C0C0D010040A0212212AC
:100DE000111111090808080804040808101010104F
:100DF00010110F01010000000000000000000000C1
:100E000000000000000000000000000000000000E2
:100E100000000000000000000000000000000000D2
:100E20000000000000000000000000808080808042
:100E3000404040404020202020201010101010087A
:100E40000808080804040404040203020201010162
:100E50000101010202040408080808080700000054
:100E60000000000000000000000000000000000082
:100E70000000000000000000000000000000000072
:100E80000000000000000000000000000000000062
:100E90000000000000000000000000000000000052
:100EA0000000000000000000000000000000000042
:100EB0000000000000000000000000000000000032
:100EC0000000000000000000000000000000000022
:100ED000000000008040402020202010101010084A
:100EE00008040202020438408000000000000000F4
:100EF00000000000000000000000000000000000F2
:100F000000000000000000000000000000000000E1
:100F10000000000000000080808000000000000051
:100F200000000000000000000000000000000000C1
:100F300000000000000000000000000000000000B1
:100F400000000000000000000000001CE20101029F
:100F5000020202010000000080800000000000008A
:100F60000000008000303000C0C1C1C20408102061
:100F70004080000000808080804040404020202051
:100F800020101010100808080808040404040402C3
:100F90000202020101010100000000000000000047
:100FA0000000000000000000000000000000000041
:100FB0000000000000000000000000000000000031
:100FC0000000000000000000000080700C03000022
:100FD00000000000000C0C0C0D010040A0212212AA
:100FE000111111090808080804040808101010104D
:100FF00010110F01010000000000000000000000BF
:1010000000000000000000000000000000000000E0
:1010100000000000000000000000000000000000D0
:101020000000000000000000000000808080808040
:101030004040404040202020202010101010100878
:101040000808080804040404040203020201010160
:101050000101010202040408080808080700000052
:101060000000000000000000000000000000000080
:101070000000000000000000000000000000000070
:101080000000000000000000000000000000000060
:101090000000000000000000000000000000000050
:1010A0000000000000000000000000000000000040
:1010B00000000000000000000000000000007E0FA3
:1010C00000D4FFFFFFC70000007800000000000010
:1010D00000002A2B28000000000000000000000093
:1010E000000000000029000000002C1E34202122F6
:1010F00024342627252E362D3738271E1F2021225F
:10110000232425263333362E37381F0405060708D7
:10111000090A0B0C0D0E0F101112131415161718C7
:10112000191A1B1C1D2F3130232D35040506070805
:10113000090A0B0C0D0E0F101112131415161718A7
:10114000191A1B1C1D2F3130354C00DA0281FFD9D2
:10115000F1DB20A4A62EAF00A0C000A1C800AED530
:1011600080A81FD300408D14200000047F3F1F641F
:101170003214643214783C1E1E140A050001010169
:101180000101010101010202020202020202020344
:101190000303030303030304040404040404050514
:1011A00005050506060606060707070707080808D7
:1011B00008090909090A0A0A0B0B0B0C0C0C0D0D86
:1011C0000D0E0E0E0F0F0F1010111111121213131E
:1011D0001414151516161717181819191A1A1B1B97
:1011E0001C1D1D1E1E1F20202122222324242526F3
:1011F00026272829292A2B2C2D2D2E2F303132322B
:10120000333435363738393A3B3C3D3E3F40414236
:10121000434445464748494A4C4D4E4F505153541C
:10122000555658595A5B5D5E5F61626465666869D0
:101230006B6C6D6F7072737577787A7B7D7E808250
:10124000838587888A8C8E8F91939596989A9C9E99
:10125000A0A2A3A5A7A9ABADAFB1B3B5B7BABCBEA9
:10126000C0C2C4C6C9CBCDCFD1D4D6D8DBDDDFE276
:10127000E4E7E9EBEEF0F3F5F8FAFDFFFFAA7F559E
:101280004000AF00AE480029001E001F00200021D2
:10129000002200230024002500260027002D002E18
:1012A000002A0046002B0014001A00080015001741
:1012B000001C0018000C00120013002F0030003139
:1012C000003E00390004001600070009000A000B68
:1012D000000D000E000F00330034002A002800002B
:1012E00000E1001D001B00060019000500050011AB
:1012F000001000360037003800E50001510000E022
:10130000000000E20000002C00E30000002C0000C0
:1013100000E60000000000E4000000010035003A93
:10132000003B003C003D003E003F004000410042C9
:10133000004300440045004C00010001004A0052F7
:10134000004D004B000100010001000100010001FF
:101350000001000100010001003900500051004F60
:10136000004E000100010001000100010001000128
:10137000004C00010000000100010001000100011B
:10138000000100AA00A900A800AC00AB00AE00015B
:101390000001000000010000000100000001000148
:1013A000000000010000000100000000000100003A
:1013B00000010035003A003B003C003D003E003F8C
:1013C000004000410042004300440045004C000141
:1013D0000001004A0052004D004B000100010001D5
:1013E00000010001000100010001000100010039BD
:1013F00000500051004F004E0001000100010001AB
:10140000000100010001004C00010000000100018A
:10141000000100010001000100AA00A900A800AC21
:1014200000AB00AE0001000100000001000000015F
:1014300000000001000100000001000000010000A8
:1014400000000001000000010035003A003B003CB4
:10145000003D003E003F0040004100420043004488
:101460000045004C00010001004A0052004D004BB5
:101470000001000100010001000100010001000164
:1014800000010001003900500051004F004E0001E2
:10149000000100010001000100010001004C0001F9
:1014A000000000010001000100010001000100AA8C
:1014B00000A900A800AC00AB00AE000100010000D4
:1014C0000001000000010000000100010000000117
:1014D00000000001000000000001000000050109FB
:1014E00080A101850319012AB700150126B70095CF
:1014F0000175108100C0050C0901A10185041901C5
:101500002AA002150126A002950175108100C006CF
:1015100060FF0961A1010962150026FF0095207591
:101520000881020963150026FF00952075089102C5
:10153000C005010906A101050719E029E7150025E5
:101540000195087501810295017508810305071948
:101550000029FF150026FF00950675088100050883
:1015600019012905950575019102950175039103EE
:10157000C00E0353006500730061006D006500003C
:101580000010036B0062002D0065006C006D006FA1
:101590000000000403090409025B00030100A0FA33
:1015A00009040000010301010009210101000122D9
:1015B000400007058103080001090401000203003F
:1015C000000009210101000122220007058403080F
:1015D00000010705040308000109040200010300DB
:1015E00000000921010100012232000705830308E0
:1015F000000112011001000000088CA6BDE20100EC
:101600000102000111241FBECFE5D8E0DEBFCDBF2F
:1016100004B603FE24C08091450590914605A09133
:101620004705B09148058730904BA740B04BB9F4BF
:1016300010924505109246051092470510924805F4
:1016400014BE84B7877F84BF0FB6F894A89581B580
:10165000886181BD11BC0FBEE0E0F8E3099525E08B
:10166000A6EFB0E001C01D92A534B207E1F710E08B
:10167000A0E6B0E0E6E1F5E602C005900D92A63FD7
:10168000B107D9F70E94AD260C945C320C9400008F
:10169000A82FB92F80E090E041E050EA609530E05B
:1016A00009C02D9182279795879510F0842795275B
:1016B000305EC8F36F5FA8F30895EADF8D939D93C2
:1016C0000895CF93CFB7CF93DF93C395839BE9F76B
:1016D000839B10C0839B0EC0839B0CC0839B0AC05E
:1016E000839B08C0839B06C0C0911F05C395C09310
:1016F0001F058EC06F93C0911E05DD27CD5DDA4FAB
:101700002F9365E5839B03C02F916F91E1CF0F93DA
:101710001F934F9320E040E15F9300B30C7003FBF5
:1017200027F93F9350E03BE039C01C7040642F77AD
:10173000012F5F5F1EC0406810B31C702F7752509E
:101740001FC0406400B32F770C70D1F15F5F00C001
:1017500023C0406210B32F771C7091F15F5F00C00F
:1017600025C00C701027515012F45D5F000011501D
:1017700027952C3F10B3C8F61C7001270150279500
:101780002C3FC8F64227499300B30C7010274F73C3
:10179000115027952C3FA8F64695469510B31C701E
:1017A00079F00127015027952C3F98F66B5A60F38A
:1017B000315000B3B0F600C010E81ABF00271CC0BB
:1017C0003B503195C31BD04010E81ABF0881033C41
:1017D00021F10B3411F120911C051981110F121305
:1017E000EDCF4A81441F093679F10D3211F0013EE7
:1017F00029F74F7009F0042F009322053F915F9164
:101800004F911F910F912F916F91CAB7C7FD5DCF77
:10181000DF91CF91CFBFCF91189520912205222340
:1018200069F310912005112309F049C034300AF4FE
:1018300048C03093200520931D0510911E053BE004
:10184000311B30931E053DC0009120050130BCF5D1
:101850000AE54F7049F43091830034FD33C00093A2
:101860008300C9EFD4E032C0433059F0443091F0E6
:101870003091040534FD26C000930405C5E0D5E091
:1018800025C03091390534FD1DC000933905CAE3E8
:10189000D5E01CC03091100534FD14C00093100534
:1018A000C1E1D5E013C0052710E000C0000002BB75
:1018B0001AC0052710E0221F1DC010E021C04AE514
:1018C00002C032ED432FC4E1D0E032E011B31C601E
:1018D000939A02B311BB5CE020E865E320FF052783
:1018E00002BB279517951C3FF0F66695B8F7B1F740
:1018F00020FF052702BB279517951C3FD0F627959B
:10190000179517FF052700001C3F02BBB0F6299171
:101910003A9519F7037F10912105110FC651D04058
:1019200002BB11F010931C0510E81ABF086011B338
:10193000137F402F437F54E05A95F1F702BB11BB50
:1019400042BB5CCFCF93DF934091F7045091F804F2
:10195000475F52409A013E5F21303240C0F020E0A4
:1019600032E0241B350B6091F5027091F602FC0108
:10197000CA01240F351FC1E0D0E08217930750F051
:101980007093F6026093F502DF91CF91089520E005
:1019900032E0E9CF4491DC01A950BD4F5C9145177D
:1019A00081F04C93AC01A5E056954795AA95E1F7D7
:1019B000DE0102C0AA0FBB1F4A95E2F7AD016A2BF8
:1019C000752B01963196D9CFFC018381833089F143
:1019D00030F48130F1F0823021F180E008958132DD
:1019E00009F446C08232C9F724813581213031059E
:1019F00009F45CC02115310509F450C022303105CD
:101A000061F78DED94E19093F0028093EF0282E311
:101A1000089582EF95E19093F0028093EF0282E1C6
:101A2000089587E995E19093F0028093EF028BE5AA
:101A3000089582818130A1F0882351F0823069F6C7
:101A400081E795E19093F0028093EF028EE0089594
:101A500083E995E19093F0028093EF0284E008958A
:101A600081E895E19093F0028093EF0280E1089580
:101A70008281813081F0882331F0823009F0ADCF4E
:101A800082EE95E102C089EA95E19093F00280939D
:101A9000EF0289E0089582EC95E1F7CF81E395E1CB
:101AA0009093F0028093EF0280E408952FE035E1F7
:101AB0003093F0022093EF02089508950895089559
:101AC0008091EA02089588E198E00FB6F894A8950D
:101AD00081BD0FBE91BDA895F894D8E0CEE528E36E
:101AE000299320E0299314BEFFCF08952FB7F894CF
:101AF00060913302709134028091350290913602E8
:101B00002FBF08959C01FC0132969FEF80E0419128
:101B1000461751F09F3F19F4411101C0982F8F5F74
:101B20008630A9F79F3F09F40895290F311D97FDCD
:101B30003A95F90162830895209131023091320281
:101B40002817390771F09093320280933102E091A7
:101B50002F02F0913002309721F00084F185E02DC2
:101B60000994089520912D0230912E0228173907EB
:101B700071F090932E0280932D02E0912F02F0914C
:101B80003002309721F00680F781E02D0994089506
:101B9000E0912F02F0913002309721F00190F08116
:101BA000E02D099480E00895FA01811101C0FB0144
:101BB000099480912202982F9E7F61F48170826047
:101BC0008093220280912502873918F086E980935C
:101BD000250208958A34B0F381708864F1CFAF9202
:101BE000BF92DF92EF92FF920F931F93CF93DF93F9
:101BF000082F162FE901E42FF0E0E458FE4E6111A2
:101C000010C0E4915E2F4E2F4983E8835A83DF9101
:101C1000CF911F910F91FF90EF90DF90BF90AF9009
:101C20000895E62EF12C4491D42EE42FF0E026E026
:101C3000829FC00111242FEF30E0B9010E94F12DE5
:101C4000802F90E0880F991F55E5569FD001579F30
:101C5000B00D11248A1B9B0B982F990F890F5901E6
:101C6000AE18BF08AE9ED001AF9EB00DBE9EB00DA7
:101C700011245B2F189F80011124012F1127590176
:101C8000A01AB10AAE9E8001AF9E100DBE9E100D2F
:101C900011245901A81AB108AE9CC001AF9C900D47
:101CA000BE9C900D1124892F9927281B390B2E9F3C
:101CB000C0012F9F900D3E9F900D1124E92F62309F
:101CC0007105A1F050F46115710509F49DCF6130E3
:101CD000710581F0EB2F512F97CF6430710569F0BA
:101CE00080F06630710509F48FCFF4CFE42F4B2FCD
:101CF000592F8ACFE42F412F87CFEB2F542F492F15
:101D000083CF4B2F5D2DE12F7FCF80E00895F89496
:101D1000E82FE295EF70F0E031A9282F2F7081E0D5
:101D200090E001C0880F2A95EAF7982F90959323A9
:101D300091AB92A9892B82AB7894089590919F01E1
:101D400092FF06C0282F28712830F9F4877F84601D
:101D500093FF06C0282F28712831F1F4877E846113
:101D60002091A00120FF06C0382F38713830D9F4F7
:101D7000877F816021FF06C0282F28712831D1F488
:101D8000877E816194FD877E0895282F24712430F9
:101D9000F9F68B7F8860DCCF282F2471243101F77E
:101DA0008B7E8861DDCF382F3171313019F78E7F0E
:101DB0008860E0CF282F2171213121F78E7E886144
:101DC000E1CFCF93DF93EC0182389105A9F1D8F5EB
:101DD0008133910509F496C048F58932910509F4DB
:101DE0008AC08A9709F495C0C11522E5D20708F088
:101DF000B6C0C11531E5D30708F026C1C83ED105EC
:101E000008F09CC0C03ED10560F5C83AD10508F085
:101E100087C0C53AD10508F0EFC0C130D10509F13E
:101E20002097F9F0C430D105E0F440C08533910526
:101E300009F45AC0C997C1F680919F01837089F057
:101E4000C0EED0E00EC0833E910599F170F4803E63
:101E5000910501F1823E910539F680919F0182FD45
:101E600021C0CE01DF91CF910895863E910561F1A9
:101E7000873E910571F1843E910509F0B5CF8091BF
:101E8000A00181FFEECF80919F01C7EED0E084FDDD
:101E90000DC0E7CF80919F0180FD07C19091A00107
:101EA00090FFDFCFC3EED0E084FFDBCFD0E0C0E017
:101EB000D8CF80919F0182FDFBC09091A00190FD41
:101EC000BFCF84FFCECFF2CF80919F0183FDDDCFC6
:101ED000C8CF80919F0183FDEEC09091A00191FF3A
:101EE000F0CFC4EED0E0BDCF80919F0185FFB9CF88
:101EF000C9E2D0E0B6CF80919F0185FFB2CFC5E3A4
:101F0000D0E0AFCF80919F0186FFABCFCAE2D0E097
:101F1000A8CF80919F0186FFA4CFC1E3D0E0A1CFDD
:101F2000CF3BD10518F6C85AD0E0CC0FDD1FC957FA
:101F3000DF4F0990D881C02DD46493CFC11540E5FF
:101F4000D40708F064C0C11580E4D80708F05CC06D
:101F5000CE019A9581159F4108F483CFA7CFC11573
:101F600036E5D30718F5C11545E5D40708F084C058
:101F7000C11584E5D80708F07AC09C2F96959695F0
:101F80009E0123703327C115D34508F462C0C1E018
:101F9000D0E002C0CC0FDD1F2A95E2F730E2939F1C
:101FA000C0011124C82BD92BDA685BCFC1158AE593
:101FB000D80778F4C11599E5D90708F068C0C115AC
:101FC00028E5D20708F472CFDC2FCC27C06FD06A87
:101FD00048CFCE0190568115904208F067CF8D2FE3
:101FE0008F710E949E0E90E0982F882788279F71FE
:101FF0009C012C2BE90149C0C55AD0E0CC57DF4FDA
:10200000C881D0E0D0642DCFDF70D06A2ACFCE0156
:10201000E4E096958795EA95E1F783702C2F269555
:102020002695237040E2249F90011124382B8C2F99
:102030008370C1E0D0E002C0CC0FDD1F8A95E2F7CB
:10204000C22BD32BDC680DCFDC2FCC27C16FD06A1D
:1020500008CFC1E0D0E002C0CC0FDD1F2A95E2F727
:1020600020E2929FC0011124C82BD92BEBCFDC2F8B
:10207000CC27C46FD06AF5CE8C2F0E949E0EC82F3D
:10208000D0E0DC2FCC27CC27DF71D062EACE8C2FBA
:102090008F700E949E0E34E0D695C7953A95E1F771
:1020A000CF709C2FEC01D069DCCEC9E3D0E0D9CE53
:1020B000C2EED0E0D6CEC6EED0E0D3CE80915D01A8
:1020C000811110925D010895809590915C01982393
:1020D00090935C01089580915C0190915B01892B44
:1020E00090915A01892B8093F80090915D0199237A
:1020F00091F0892B8093F80020E08AEF90E0FC01BA
:102100003191CF0131112F5FF1E080309F07B9F796
:1021100021110E945E10E0912F02F0913002309761
:1021200031F00280F381E02D88EF90E0099408956A
:102130008091580190912701981301C008958F5FF5
:102140008770FACF2FE0929F800D1124982F9770FF
:1021500086958695869523E0829FF0011124ED5F98
:10216000FE4F50E040E080E0219130E0092E02C0B7
:10217000369527950A94E2F721703327042E01C083
:10218000220F0A94EAF7822B4F5F5F4F43305105CD
:1021900059F708952FE0929F800D1124982F977082
:1021A00041E001C0440F9A95EAF786958695869599
:1021B00093E0899FF0011124ED5FFE4F90E080E0F5
:1021C00070E05191DF0111979B01082E02C03695F6
:1021D00027950A94E2F721702195252724232527A6
:1021E0002C9301968330910561F7089590E080E08B
:1021F0000E94B20D90E080E00E949C0D10925B0165
:1022000010925A010C946B108093F4020C94F61007
:102210008091F402982F9670963019F488600C948F
:102220000411877FFCCF21E030E001C0220F8A95A6
:10223000EAF720958091F40282230C940411909186
:1022400059018095892380935901282F277091F493
:10225000282F082E000C330B9217130659F090917B
:10226000A00192FD07C08595859585950E94131163
:1022700010925901089521E030E001C0220F8A95A3
:10228000EAF78091F402822B0C94041180935E0192
:102290000C94F610882321F00E9464100C946B10AB
:1022A0000895882339F090915C01982B90935C01FC
:1022B0000C946B100895882381F19CEF980F913A4C
:1022C00078F4EAEFF0E020E031E09191891303C067
:1022D000DF0111971C922E173F07B9F70C946B1072
:1022E00090E2980F983050F4877091E001C0990FF8
:1022F0008A95EAF7892F0E946410F0CF9BE5980F2A
:10230000933020F490E080E00C94B20D885A87312D
:1023100020F490E080E00C949C0D0895CF93C82F9A
:10232000882309F44EC08CEF8C0F813AF8F4EAEF61
:10233000F0E080E091E0DF012D91C21759F08A179B
:102340009B07D1F76C2F88EF90E00E94820DCF9110
:102350000C946B102191C21303C0DF0111971C92E2
:102360008E179F07B9F70E946B10ECCF80E28C0F9D
:10237000883068F4C77021E030E001C0220FCA95B0
:10238000EAF780915C01822B80935C01E0CFEBE562
:10239000EC0FE33040F4F0E0EC57FF4F808190E029
:1023A000CF910C94B20DC85AC73158F4EC2FF0E01D
:1023B000EE0FFF1FE957FF4F80819181CF910C9461
:1023C0009C0DCF9108958091AF018F31D0F4809111
:1023D000010190E0019665E070E00E94132E809369
:1023E000010124E030E0A901481B590BCA01982FD4
:1023F0008827990F8656994F0C94A20C8AE994E08D
:10240000FBCF8832D8F32091000130E02F5F3F4F9F
:10241000217033272093000181E090E0821B930B11
:10242000982F8827990F86569F4FE6CFCF92DF923D
:10243000EF92FF920F931F93CF93DF936C017B0179
:1024400064E670E088E70E94002DEC0197FD12C061
:1024500010E000E0F601E00FF11F849164E670E007
:102460000E94712DEC01892B29F40F5F1F4F0E156F
:102470001F0581F70E94EE2DCE01DF91CF911F91B4
:102480000F91FF90EF90DF90CF90089580912B02F5
:1024900090912C02911103C091E08927089588231F
:1024A00069F062E070E083E892E10E941612892BE5
:1024B00019F080912B02089510922B0280912B022B
:1024C000EBCFCF93C0912B0280912C028823D1F0C7
:1024D0000E94760D605679478E4F9F4F609327027A
:1024E000709328028093290290932A02C11108C098
:1024F00062E070E081E892E10E941612892B29F0D7
:10250000C0912B028C2FCF91089581E080932B02F4
:10251000F7CFCF93DF9380912005835087FD14C0C0
:1025200090911E05CCE0D0E0C91BD109CD5DDA4FFA
:1025300090911D05903108F06BC0883009F453C0AC
:102540001092DF02109220058091830084FF3EC02C
:10255000809182008F3FD1F1C82F893008F0C8E008
:10256000982F9C1B909382009091F90428E8922761
:102570009093F9048823E9F08091EF029091F002A2
:102580002091EE0226FF06C1FC012C2FAAEFB4E039
:1025900034913D9331962150D9F79C012F5F3F4FE5
:1025A0008FEF8C0F820F932F911D9093F0028093E9
:1025B000EF026C2F8AEF94E00E945D0BCC5FCC3071
:1025C00019F08FEF80938200C093830084E190B371
:1025D0009C7031F48150D9F71092210510921C059E
:1025E000DF91CF9108958091DF02893108F0A8CF63
:1025F000E82FF0E0E154FD4F9E01285F3F4F999195
:1026000091932C173D07D9F7885F8093DF029ACF0B
:102610009D3209F0A3C0883009F094CF83EC8093F9
:10262000F9048AE5809383001092EE028881807617
:1026300009F447C0803229F58981813099F48C8171
:102640009D81892BF1F481EE92E09093F0028093CA
:10265000EF0288E09F81911131C09E81981770F53B
:10266000892F2CC0823041F480EE92E09093F002EA
:102670008093EF0281E0EECF8A3029F48B81809342
:10268000E00280E0E7CF8930E1F78A819B81811504
:10269000924069F48C819D81892B49F481E080937B
:1026A000ED028E819F819093EC028093EB028881F2
:1026B00087FF52C08E8190E89093EE028093820053
:1026C00041CF2A8110920205998191110AC010927E
:1026D000030522E035E082E03093F0022093EF0220
:1026E000B9CF953029F42093210522E035E0F4CFCD
:1026F0009630C1F49B81913049F4CE010E94E40CE4
:1027000090E49093EE028F3F91F2A4CF9230A9F320
:10271000933099F3913289F3923279F390E4909364
:10272000EE0298CF983089F0993019F42093E9029D
:10273000DCCF9A3071F09B30C1F69BE49093050595
:1027400090933A0590931105D0CF29EE32E081E0C5
:10275000C3CF22E035E0FBCF8FEFADCF8091EE020B
:1027600087FFF0CE8091EB029091EC02892B71F003
:102770008091ED02813051F488818093EA021092B9
:10278000EC021092EB0210928200DCCE8EE180937C
:102790008300D8CEDC012C2FEAEFF4E03D91319399
:1027A0002150E1F7FACE1F93CF93DF93E82F792FD3
:1027B000162FEA01888184FF1CC0298188E8282718
:1027C0002983CE010296DC012E2F372F512F5E0F69
:1027D000F90121912D939F01452F4E1B1416C4F32F
:1027E000612F0E945D0B1C5F1883DF91CF911F91B9
:1027F00008958AE58883E5CF9091BE02981307C0BB
:102800002091BC023091BD0226173707B9F08093A2
:10281000BE027093BD026093BC028093B9027093B4
:10282000BB026093BA028091390584FF07C049E377
:1028300055E063E089EB92E00C94D3130895BC015A
:1028400084E00C94FC13BC0183E00C94FC13CF9344
:10285000DF93CAE0D0E08091040584FF1CC0809122
:10286000B7029091B802981799F028E0829FC001B2
:10287000112444E055E068E0895C9D4F0E94D31329
:102880008091B70290E001968F7099278093B702EC
:10289000DF91CF9108950E9489128FE99FE00197FF
:1028A000F1F700C000002197B1F6F2CFCF93DF938C
:1028B000EC01A091B802B0E0CD0101968F7099278C
:1028C0002091B702281779F093E0AA0FBB1F9A95C1
:1028D000E1F7A95CBD4F98E0FE0101900D929A9539
:1028E000E1F78093B8020E9489120E94271488E0C1
:1028F000FE01A1EEB2E001900D928A95E1F7DF9121
:10290000CF9108958091220280FD0AC0EEEFF1E0A0
:10291000118210821282339652E0E232F507C1F73B
:10292000B89A38B33E7F28B321604FB7F8948EEF42
:1029300091E0FC015191CF0168E028BB000000C08C
:1029400057FF38BB550F000000C000C000C038BBA7
:1029500000C06A9591F7F2E082329F0751F74FBFAE
:102960008FE594E00197F1F700C000000895EF9221
:10297000FF920F931F93CF93DF938C01CEEFD1E0A3
:10298000F12CE12CF80194816091240280912302C2
:10299000F6E0EF16F10414F5992311F140912502A8
:1029A000473908F046E99E010E94EF0D2FEFE21A29
:1029B000F20A23968CE0E816F10421F70E948214B3
:1029C000F801848190E00196817099278483DF91DA
:1029D000CF911F910F91FF90EF9008959923F1F2FD
:1029E0009E0140E0E1CF8F929F92AF92BF92CF9233
:1029F000DF92EF92FF920F931F93CF93DF93EC013F
:102A00004C81042F10E09801D8010E94042F9B01F3
:102A1000AC010E94CF2E4B015C01E0E2F0E0E01B34
:102A2000F10BA5E5B0E0AC019B010E94CF2E6B013C
:102A30007C019F01DF010E94342E9B01AC010E94AA
:102A4000DA2E9B01AC01280D391D4A1D5B1DC70103
:102A5000B6010E94E22EF22E822F90E039E23F155D
:102A600008F43EC043E0249F90011124359527953A
:102A7000122F10959EEFC92E91E0D92E00E085E52A
:102A8000E82EEF188E2D01FD8F2D412F173908F0FC
:102A900046E99601609124020E94EF0D0F5F53E01A
:102AA000C50ED11C0C3071F70E9482149C8181E00C
:102AB000992319F0903219F48FEF8093810080915F
:102AC0008100890F8C83DF91CF911F910F91FF902F
:102AD000EF90DF90CF90BF90AF909F908F90089530
:102AE00025E530E0A901481B590BCA019A01220FC4
:102AF000331F280F391F37FFB9CF2F5F3F4FB6CF96
:102B00000F931F93CF93DF93CEEFD1E0FE0111829D
:102B100010821282339682E0E232F807C1F710E0A9
:102B200000E08091FC01082E000C990B0817190792
:102B3000A4F180918000082E000C990B801791075A
:102B400064F140912502473908F046E99E01609101
:102B50002402809123020E94EF0D0F5F1F4F2396E6
:102B60000C301105F1F60E94821480917F00909143
:102B7000FC01980F9093FC0120918000280F209376
:102B80008000121614F49B301CF0819580937F0016
:102B9000DF91CF911F910F910895198218821A82A7
:102BA000DCCFBF92CF92DF92EF92FF920F931F93F1
:102BB000CF93DF93FC018281DD24DA9480FD02C093
:102BC000DD24D3940EEF11E0D0E0C0E02CE0B22E73
:102BD000F80111821082128294E0E92EF12CC12CAE
:102BE0008091FB018C0D8D300CF440C06B2D0E9448
:102BF000052E892F082E000C990B8C179D07A9F420
:102C0000809125028E9DA0018F9D500D1124559518
:102C1000479555954795473908F046E998016091E1
:102C20002402809123020E94EF0DCD0CF1E0EF1AF7
:102C3000F108B1F621960D5F1F4FCC30D10541F65A
:102C40000E9482148091FB0191E0D91215C081117C
:102C500011C08BE08093FB01DF91CF911F910F9109
:102C6000FF90EF90DF90CF90BF90089587FFC2CF85
:102C7000845FC0CF8150EECF90E00196BE010E94EC
:102C8000132EE8CFEF92FF921F93CF93DF93EC01C7
:102C90008EEFE82E81E0F82E10E0409125024739B2
:102CA00008F046E98C81970160912402810F0E940F
:102CB000EF0D1B5E83E0E80EF11C1C3F71F70E94D4
:102CC00082149A818C8190FF08C08F5F8C83DF9182
:102CD000CF911F91FF90EF9008958150F7CF909181
:102CE000220290FF0CC0EEEFF1E08183608342830B
:102CF000339692E0E232F907C1F70C9482140895FA
:102D00000F931F93CF93DF9300D00F92CDB7DEB711
:102D10008C018091FD0181110AC09E012F5F3F4F00
:102D200046E96FEF0E94EF0D8A818093FD01F80163
:102D30006481613069F08091FD0140E0662361F0BB
:102D400040E0623011F44091FD0180E060E004C099
:102D50006091FD0140E080E00E946F16F8018481DF
:102D600090E0019663E070E00E94132E84830F9040
:102D70000F900F90DF91CF911F910F910895CF93F6
:102D8000DF9300D00F92CDB7DEB79091220290FF73
:102D90000DC0473908F046E99E012F5F3F4F0E9462
:102DA000EF0D4B8169818A810E946F160F900F9001
:102DB0000F90DF91CF910895CF93DF93EC01E2E282
:102DC000F2E0438162818C810E94BF168C818F5F0B
:102DD0008C83DF91CF9108951092FA018091AD011B
:102DE000811117C081E08093AD0180912202982F5C
:102DF00091709093AC018E7F809322022FEF80E739
:102E000092E0215080409040E1F700C000000E9415
:102E100082140C9446121F93CF93DF93182FD0E0A7
:102E2000C0E0893311F4C0E5D0E0812F0E948E11FB
:102E3000209731F4812FDF91CF911F910C945B117A
:102E40008FE99FE00197F1F700C000002197F0CFD4
:102E5000CF93DF93CFE7D2E060E0CE010E947D2EDA
:102E60002196C11584E0D807B9F7DF91CF91089575
:102E70006F927F928F929F92AF92BF92CF92DF928A
:102E8000EF92FF920F931F93CF93DF9385E8C82EA5
:102E900082E1D82E9BEDE92EF12CE701C659D1092C
:102EA00036011BC0F50185909490692DC8010E94E0
:102EB0007D2E682DC80101960E947D2E82E0A80E0D
:102EC000B11C0E5F1F4FC017D10761F78EE1680E6E
:102ED000711C6E96CE15DF0529F08E010E51110979
:102EE0005301E0CF7E0186E9E80EF11C86E9C80EA9
:102EF000D11C83E3E81683E0F80679F6DF91CF91E1
:102F00001F910F91FF90EF90DF90CF90BF90AF9007
:102F10009F908F907F906F900895CF93C82F6FEF01
:102F2000811162E283E290E00E947D2E6FEFC11179
:102F300065E084E290E00E947D2E6FEFC11161E3B5
:102F400085E290E0CF910C947D2E80E00E948D1759
:102F500060E086E290E00E947D2E0E9438170E9479
:102F6000281781E00C948D17CF93C091A001C2FB6C
:102F7000992790F9981799F080FBC2F9C093A001A6
:102F800060919F0184E090E00E947D2E6C2F82E290
:102F900090E00E947D2E82E0CF910C941F11CF9182
:102FA00008950F931F93CF93DF93C42FD0E0CC0FDE
:102FB000DD1F2EE1629FC00DD11D112436E9839FD4
:102FC000C00DD11D1124CE0187960E94692E082FB5
:102FD00010E0102F0027CE0188960E94692E9801DC
:102FE000282BC901DF91CF911F910F910895462F92
:102FF000843038F4753028F46F3018F4672F0C944F
:10300000D11790E080E00895CF92DF92FF920F9366
:103010001F93CF93DF936C010091F40280915E01C6
:10302000082BC7E0D0E010E0FC2EC8010C2E02C037
:10303000959587950A94E2F780FD0CC02197A0F73B
:10304000F12C8F2DDF91CF911F910F91FF90DF9089
:10305000CF900895B6018C2F0E94F7170E94E10EC1
:10306000019761F3EECFCF93DF93EC010E94041838
:10307000BE010E94F717DF91CF910C94E10EFC0185
:10308000808191810E943318292F2F7092959F7013
:1030900092509E3078F4E92FF0E0E25AFD4C0C9407
:1030A000272E803F19F020F4883E20F481E0089517
:1030B000843FE1F380E00895883EC0F3813FD1F77B
:1030C000F5CF822F869586958695089583E290E0C8
:1030D0000E94692E823289F484E290E00E94692E77
:1030E000853059F485E290E00E94692E91E08133A9
:1030F00009F090E0892F8170089580E0FCCFCF9394
:1031000084E090E00E94692EC82F82E290E00E9445
:10311000692E982F8C2FCF910895CF93DF93EC01D8
:103120006C8170E090E080E00E945D3020E030E053
:103130004FE753E40E94802F2BED3FE049E450E439
:103140000E9486310E94F3310E94FA2F2BE43AE369
:103150004EE25FE30E94132F20EF3BEF48ED52E475
:103160000E9486310E942C30462FE2E2F2E062811A
:1031700081810E94BF168C818F5F8C83DF91CF91FC
:103180000895CF92DF92EF92FF926B017C010E9433
:10319000D90DB701A60188E090E0FF90EF90DF9095
:1031A000CF900C948E2E5F926F927F928F929F920F
:1031B000AF92BF92CF92DF92EF92FF920F931F9345
:1031C000CF93DF9300D00F92CDB7DEB7082F762EC6
:1031D000142F622E9091220290FF2DC0E92FE695C8
:1031E000AE2FB0E0AF52BF4F8C918093F9019E7F1C
:1031F0009230A1F5473908F046E99E012F5F3F4F15
:10320000672D802F0E94EF0D4B8169818A810E947A
:103210006F160093230270922402109325026620F9
:1032200051F06091220270912302809124029091CA
:1032300025020E94C1180F900F900F90DF91CF913F
:103240001F910F91FF90EF90DF90CF90BF90AF90C4
:103250009F908F907F906F905F900895823019F4C7
:1032600010912502D6CF863019F400912302D1CFD8
:103270008930D9F3893169F6E9518E2F8170582E42
:10328000E695F0E0E458FD4EA590B490BB248EEF97
:10329000E82E81E0F82ED12CC12C9CE0892E912CB7
:1032A000C601B4010E94F12D802F511016C0860F67
:1032B000412F173908F046E99701672D0E94EF0D5D
:1032C000CA0CDB1C83E0E80EF11C82E2E81682E007
:1032D000F80631F70E9482149CCF861BE9CFE2E208
:1032E000F2E0438128E0421B08F440E021E06281E3
:1032F00081810C94D318E2E2F2E0438128E0420F8E
:1033000008F44FEF21E0628181810C94D318E2E24E
:10331000F2E0628128E0621B08F460E021E0438172
:1033200081810C94D318E2E2F2E0628128E0620F1E
:1033300008F46FEF21E0438181810C94D318E2E21D
:10334000F2E0818121E04381628188500C94D3189E
:10335000E2E2F2E0818121E043816281885F0C94A6
:10336000D31880912602882319F081508093260279
:103370006091220270912302809124029091250293
:103380000C94C11880912602833018F48F5F8093CB
:103390002602609122027091230280912402909172
:1033A00025020C94C118E2E2F2E083E080831182EE
:1033B0008FEF828386E983831482608171818281A9
:1033C00093810C94C11810925C01EAEFF0E086E062
:1033D000DF011D928A95E9F70C94F61069EE7EEFF5
:1033E00090E080E00E949A2E60E082E090E00E94EF
:1033F0007D2E60E083E090E00E947D2E10925E01C1
:1034000060E084E090E00E947D2E60E082E290E047
:103410000E947D2E60E085E090E00E947D2E60E0BD
:1034200086E090E00E947D2E6FEF87E090E00E94A2
:103430007D2E40E050E0BA0188E090E00E948E2EA0
:1034400060E08DE090E00E947D2E40E050E0BA0107
:1034500088E190E00E948E2E60E087E190E00E947B
:103460007D2E40E050E0BA018CE190E00E948E2E6B
:1034700070E060E080E290E00E949A2E40E050E030
:10348000BA0188E190E00E948E2E80E00E948D17A4
:103490000E94A51740E050E0BA018FE090E00E9442
:1034A0008E2E40E050E0BA0183E190E00C948E2E25
:1034B00090E080E00E94772E893E9E4F11F40C949C
:1034C000661880E0089578941F921FB61F92112409
:1034D0008F939F93AF93BF93809133029091340267
:1034E000A0913502B09136020196A11DB11D8093C5
:1034F000330290933402A0933502B0933602BF9109
:10350000AF919F918F911F901FBE1F9018959C01A6
:103510004FB7F8948091330290913402A091350214
:10352000B09136024FBF821B930B08952FB7F894CA
:103530008091330290913402A0913502B09136020D
:103540002FBF08950F931F93CF93DF93C62FD42FD0
:10355000022FFC0182818823A1F06093F3020E9474
:10356000961A9093F2028093F102C77081E001C035
:10357000880FCA95EAF7DF91CF911F910F910C94B4
:1035800051118091F302681335C08091F10290913E
:10359000F2020E94871A883C910560F510E21D0F27
:1035A000CD17B9F080E28C0F883040F4C77081E00D
:1035B00001C0880FCA95EAF70E944A11183048F4F2
:1035C00081E09D2F977001C0880F9A95EAF70E94BD
:1035D0005111802F0E940B17183098F4D77081E09A
:1035E00001C0880FDA95EAF7DF91CF911F910F9113
:1035F0000C944A11C77081E001C0880FCA95EAF7A0
:10360000F3CFDF91CF911F910F9108956091220226
:10361000669570E04BE050E084E790E00E944F2E0A
:10362000892B19F481E08093FA010E94961A9093F5
:10363000F4018093F30108959091220290FF36C027
:103640009170811129C0926090932202662351F0FB
:1036500060912202709123028091240290912502B0
:103660000E94C11860912202669570E04BE050E024
:1036700084E790E00E944F2E892BA9F01092FA0166
:1036800081E08093F60120E04091250260912402C0
:10369000809123020C94D318853210F09864D4CF13
:1036A000880F982BD1CF0E94061BEACF08958091F6
:1036B00022028695815009F484E261E00C941C1B7F
:1036C0008091220286958F5F853208F081E061E06B
:1036D0000C941C1B9091220290FF07C0969598179E
:1036E00020F0961710F40C94601B61E00C941C1BE6
:1036F0003F924F925F926F927F928F929F92AF9282
:10370000BF92CF92DF92EF92FF920F931F93CF93CE
:10371000DF9300D000D00F92CDB7DEB78C01FC0153
:1037200083819481892B31F08081918189238F3F1E
:1037300009F0CFC50F900F900F900F900F90DF9171
:10374000CF911F910F91FF90EF90DF90CF90BF909E
:10375000AF909F908F907F906F905F904F903F9031
:1037600008950E940418F82E682F89819A810E947A
:10377000CA1069817A818F2D0E94F7177C01F801A8
:103780002281222309F498C590568115F0E29F0703
:1037900050F0905E811530E1930728F0915C81151F
:1037A0009F4108F04DC0C7019927AC014450510911
:1037B0004432510518F08B970E9740F4E091680160
:1037C000F0E0E359FE4F80818F5F8083C701825113
:1037D0009F45409708F043C58FEF93E00E94692E04
:1037E0002EEEE20E5FE7852E52E0952E882309F437
:1037F0003EC080915901877009F49CCFF801828105
:10380000882309F497CF8091A00182FD93CF82E0B5
:103810000F900F900F900F900F90DF91CF911F910D
:103820000F91FF90EF90DF90CF90BF90AF909F905F
:103830008F907F906F905F904F903F900C941F11EE
:1038400090E080E0FFEFEF16F10411F008F0ADCF4B
:10385000C701ABCF811434E0930659F2C4010E9432
:10386000692E811101C0EA948FEF881A980AE1103D
:10387000F1CF1C821B82442443944AE0342E74010D
:103880009FEFE91AF90AC4010E94692E89831A82FE
:10389000882309F4AECF9FEF980F933008F58A8301
:1038A0004982E2E08E0E911CC7010E94692E8B8333
:1038B000882309F49ECF9E012F5F3F4F7901F701C6
:1038C00020812223E1F2213009F049C091818281D7
:1038D000913041F4F2E0EF0EF11C0E940B1709C089
:1038E0004701E9CF923049F422E0E20EF11C0E9438
:1038F0008E113FEFE31AF30AE2CF933031F432E056
:10390000E30EF11C0E945B11F4CF943021F08FEF95
:10391000E81AF80AEECF92E0E90EF11C30E020E060
:10392000B7016F5F7F4FF70141818053990B8A3058
:10393000910550F021503109E0F28FE99FE00197A5
:10394000F1F700C00000F6CF329EF001339EF00D7B
:1039500011249C012E0F3F1F842F7B01E1CFE22F0A
:10396000F0E0E653FF4E5490822F8695869586951B
:1039700090E0FC01E654FF4E64902770712C022EFB
:1039800002C0759467940A94E2F7E1E06E2277240E
:10399000FC01E655FF4EA490B12C022E02C0B59456
:1039A000A7940A94E2F7F1E0AF22BB24FC01E656AB
:1039B000FF4EC490D12C02C0D594C7942A95E2F74B
:1039C00021E0C222DD246114710419F081EE0E940D
:1039D0008E11A114B10419F086EE0E948E11852D6E
:1039E0000E940B17AB2819F086EE0E945B11672826
:1039F00019F081EE0E945B11CD2809F47ACF8CE298
:103A00006CCF81E00E943B110E940811F2CE81E050
:103A10000E941311F9CF222309F459C482E0F2CF96
:103A200085EFE8168CE5F80609F467C008F461C074
:103A3000E6EFEE16ECE5FE0609F463C0222309F476
:103A400059C41092F302F3E0EF16FDE5FF0608F00B
:103A50005FC02AEFE2162CE5F20630F4C70182506F
:103A60009C45449708F05AC00E947F189093A0018B
:103A700080939F0180E1E8168CE5F80609F438C1CF
:103A800008F0A6C0E8E0EE16ECE5FE0609F41EC15B
:103A900008F072C024E0E2162CE5F20609F408C131
:103AA00008F054C082E0E8168CE5F80609F4FAC084
:103AB00080919F01826093E0E9169CE5F90609F484
:103AC000F4C060919F01F090A00184E090E00E941A
:103AD0007D2E6F2D82E290E00E947D2E0E94E319E0
:103AE00088CE27E245EE65EEE3C326E241EE60EEC6
:103AF000DFC327E245EE64EEDBC326E241EE62EE71
:103B0000D7C327E245EE66EED3C328E241E0EBCF10
:103B100031E6E3163DE5F30609F4A6CF80915C019A
:103B2000E6E1EE16ECE5FE0609F0FDC38A7A91E0C7
:103B300009F490E09093020169E2811165E388EF56
:103B400090E00E94820D0E946B1053CE80919F01E5
:103B50008061E6E0EE16ECE5FE0609F4A6C0809171
:103B60009F018860F7E0EF16FCE5FF0608F49DC0B2
:103B700080919F01806299C080919F018D7F2CE090
:103B8000E2162CE5F20609F490C060F48AE0E8162B
:103B90008CE5F80609F4A4C008F49CC080919F014C
:103BA0008E7F83C080919F01877FEEE0EE16ECE56B
:103BB000FE0609F47AC080919F018B7FFFE0EF162B
:103BC000FCE5FF0608F471C080919F018F7E6DC0F7
:103BD0002CEFE2162CE5F20609F486C0A0F584E18C
:103BE000E8168CE5F80609F497C098F4E2E1EE16C1
:103BF000ECE5FE0609F480C080919F018F7BF3E124
:103C0000EF16FCE5FF0608F450C080919F01837F0A
:103C10004CC02AEFE2162CE5F20609F44DC008F07C
:103C200051C085E1E8168CE5F80609F04ACF80918D
:103C30009F0182FB992790F921E0922790FB82F95E
:103C400090FB83F932C0E1149DE5F90609F45AC0EE
:103C5000A0F48091A0018360FEEFEF16FCE5FF0663
:103C600071F18091A0018D7F2FEFE2162CE5F20615
:103C700030F18091A0018C7F22C032E0E3163DE557
:103C8000F30609F458C008F450C091E6E9169DE522
:103C9000F90609F016CF90919F01892F8F7E94FF2E
:103CA000806103C080919F01816080939F0109CF53
:103CB00080919F018460F9CF8091A0018160809301
:103CC000A001FFCE8091A0018260F9CF80919F0179
:103CD0008064EBCF0E94E31980919F018068E5CF5B
:103CE00080919F018C60E1CF8091A0018E7FE7CF12
:103CF00080919F018F7DD9CF0E94E31980919F0110
:103D00008F77D3CF8091A001982F909591708E7F5F
:103D1000892B90FB81F9D3CF0E94E31990919F01E9
:103D2000892F97FB87F98058C0CF61E08EE090E043
:103D30000E947D2EC6CE60E0F9CF85E3E6C2809179
:103D4000220280FF1BC08E7F80932202609122029C
:103D50007091230280912402909125020E94C11843
:103D60001092FA01FFEF20E732E0F150204030409E
:103D7000E1F700C000000E9482143BCD8160809377
:103D8000220261E086950E941C1B33CD47E55BE172
:103D900060E67BE10E94D40D2CCD40E65BE167E557
:103DA0007BE1F8CF48EA59E16FE979E1F3CF47E8E1
:103DB00059E163E979E1EECF4FE659E16BE779E14B
:103DC000E9CF4BE759E16FE679E1E4CF42EC59E105
:103DD00061EB79E1DFCF61E081E0D5CF65E082E0A2
:103DE0000E946A1B06CD68E086E0FACF64E18FE0AE
:103DF000F7CF67E185E1F4CF62E289E1F1CF61E0DD
:103E000083E2C1CF2BE5E2162DE5F20619F13CE580
:103E1000E3163DE5F30609F0B8C28091A00182FBEC
:103E2000882780F991E089270E94B417AEC20E94CA
:103E3000E3198FEF94E3ECE081509040E040E1F72C
:103E400000C000000E94630DD4CC0E94EE19D1CCBA
:103E500081E0EACF80E0E8CFC7010E94A210D82E0F
:103E6000A3C22F2D2F70C22E8F2D807F19F0C294E8
:103E700090EFC922DD20B9F0CC2069F080E28E0DF0
:103E8000883010F0811009C080915C01C82AC0926E
:103E90005C010E946B108E2D4DC080915B01C82A81
:103EA000C0925B01F6CF8E2D0E945B11CC2009F4ED
:103EB00043C080E28E0D883010F0811004C08C2D3C
:103EC0000E94641006C0C09480915B01C822C09219
:103ED0005B010E946B1030C03F2D3F70C32E8F2DB1
:103EE000807F803219F0C29480EFC822882089F048
:103EF00081E0881609F47FC0DD2009F489C0BB2069
:103F000009F47FC0F801858180FFC5CF8F7085835C
:103F100078C02091A00122FF4BC0DD2009F442C0EF
:103F2000CC2039F080915C01C82AC0925C010E94CB
:103F30006B1080E00E948E11292D2850330B243005
:103F4000310510F40E94C80DAA2009F4F3CB80912A
:103F5000590180FDEFCBF8011282859585958595F5
:103F60000E943B11C8010E94781B809159018595E0
:103F7000859585950F900F900F900F900F90DF9182
:103F8000CF911F910F91FF90EF90DF90CF90BF9056
:103F9000AF909F908F907F906F905F904F903F90E9
:103FA0000C94131180E00E945B11CC2029F287CF82
:103FB000DD20A1F090915D018C2D892BB11003C003
:103FC0000E945111B9CFE1E0BE12FACF22FDB4CF69
:103FD000981709F4B1CF80935D01AECFB11006C040
:103FE0000E945E108C2D0E944A11A6CFF1E0BF16F0
:103FF00009F4A2CFF5CFDD2031F025E02B1508F430
:104000009BCF8C2DDDCF34E03B1508F495CFEACF64
:10401000BB2041F3F9E38F1209C02FEF37EE83E0A5
:10402000215030408040E1F700C000008E2D0E94FA
:104030005B1182CF8F2D86958695837061F08130DC
:1040400009F07ACFC7019370D11002C090E080E0F0
:104050000E949C0D71CFC7019370D11002C090E0F7
:1040600080E00E94B20D68CF8F2D837091F5D11042
:1040700063CF4E2D429546954770440F440F8E2DC9
:104080008F70042E01C0880F0A94EAF72E2D20713C
:10409000E4FE07C02FE030E001C0220F4A95EAF7A6
:1040A00020953F2D369536953370323069F050F4B7
:1040B00040915E01313029F0822B84230E94461109
:1040C0003BCF842B822BFACF282B80915E01822755
:1040D000F5CF8695DD2011F08F2D8170882309F4AE
:1040E0002BCF4E2D429546954770440F440F8E2D91
:1040F0008F70042E01C0880F0A94EAF72E2D2071CC
:10410000E4FE07C02FE030E001C0220F4A95EAF735
:1041100020953F2D369536953370323069F050F446
:104120004091F402313029F0822B84230E94041143
:1041300003CF842B822BFACF282B8091F402822785
:10414000F5CF9F2D9F70F92EDD2029F0892F0E9439
:104150003B118E2D35CF8E2D0E944A118F2D0E943E
:104160001311EACE8E2DE2EF8E16B1F1E81570F044
:10417000F0EF8F16D1F021EF821691F0DD2009F4D7
:104180005EC0B11088CE8F2D8F712AC033EF831699
:1041900051F194EF8912F2CF8091A00182FF2FC0DC
:1041A0008F2D8F71DD20D9F21BC0DD2081F0E4E07E
:1041B000EB1508F4C1CE2F2D2F7181E090E001C0E6
:1041C000880F2A95EAF79091F4028927AFCFF5E09E
:1041D000FB1508F4B1CEEFCF8F2D8F71D110BFCF6B
:1041E0000E943B11A9CE80E0DD2009F49FCF9F2DD6
:1041F0009F7181E001C0880F9A95EAF797CFDD2083
:1042000099F02F2D2F71F22E822F0E943B11809159
:10421000A00182FD07C038E0F39EC0011124836035
:10422000809359018F2DDCCF81E00E941F1181E026
:104230008B1508F081CE82E00E941F117DCEBB203D
:1042400059F0893309F0F2CE9FEFE7EEF3E0915099
:10425000E040F040E1F7E8CE8F2D8F7180CFF0E1A4
:10426000EF16FFE5FF0609F4CCCB31E1E3163FE59D
:10427000F30609F4D0CB83EFE8168CE5F80609F4D1
:1042800034CC08F0CDCBE8EDEE16ECE5FE0609F4F3
:1042900028CCF9EDEF16FCE5FF0609F436CC37ED36
:1042A000E3163CE5F30609F0C9CB26E241EE61EEE8
:1042B000C8010E94A21A9DCA80E1E8168FE5F8069F
:1042C00009F4A5CB91E1E9169FE5F906A1F682E094
:1042D0009FCB85E0DE01119601900D928A95E1F762
:1042E000F801228189819A8121113BCA0E94A21082
:1042F000F82E3FCAF6E1EF16FCE5FF0609F045C0CF
:1043000080910201811119CD89E2EAEFF0E020E00D
:1043100031E09191891303C0DF0111971C922E1790
:104320003F07B9F710CC82722CECE2162CE5F206AE
:1043300009F44CCD08F0ABC096ECE9169CE5F90603
:1043400009F430CD08F07AC0F3ECEF16FCE5FF0677
:1043500009F41CCD08F061C032ECE3163CE5F3062D
:1043600009F4EDCC8AE5E8168DE5F80609F470CD80
:1043700008F048CDE114ECE5FE0609F458CDFEED59
:10438000EF16FCE5FF0609F460CDF8018281E080BC
:10439000F180882309F460CDC7010E940418D82E4B
:1043A000682FC7010E94CA10B7018D2D0E94F71710
:1043B0000E94E10E7C01882EF801D280B580B29473
:1043C0003FE0B322809159018770C1F0AD2CDD2010
:1043D000B1F08F2D807F803421F080E28E0D883007
:1043E00068F08091A00182FD09C082E00E941F1147
:1043F000809159018770AA24A3948111A12C9F2C2C
:1044000092942FE09222FBE0F91508F495CDE92D66
:10441000F0E0E459FD4C0C94272E94ECE9169CE551
:10442000F90609F4BACC4FE959E168EA79E1E5EC1B
:10443000EE16ECE5FE0609F4ADCC94CFF9ECEF16E0
:10444000FCE5FF0609F4B8CC88F437ECE3163CE54C
:10445000F30609F4ACCC43E959E167E879E198EC5B
:10446000E9169CE5F90609F495CC7CCFEAECEE164A
:10447000ECE5FE0609F4A5CC41EB59E162EC79E1EB
:10448000FBECEF16FCE5FF0609F484CC6BCF21EDC5
:10449000E2162CE5F20609F4A9CCB8F48EECE81685
:1044A0008CE5F80609F49ACC08F495CCEFECEE16FE
:1044B000ECE5FE0609F497CC6EE089E0F0EDEF162E
:1044C000FCE5FF0609F48CCC4DCF24EDE2162CE57B
:1044D000F20609F491CC78F482EDE8168CE5F80642
:1044E00009F487CC61E088E193EDE9169CE5F906D3
:1044F00009F449CC37CFE5EDEE16ECE5FE0609F4FC
:104500007ECCFDE5EF16FF0609F473C92BCF1F9390
:10451000CF93DF9380912601807FA9F480912301BE
:10452000882389F080915801D09127016091210161
:1045300070912201A0912401B0912501C62FC723BB
:1045400016E0D81304C0DF91CF911F91089590E039
:10455000109711F0CF3F19F401968770F2CF189F92
:104560009001199F300D1124F901E85DFE4F418142
:104570004713F2CF40814613EFCF42814111ECCF78
:10458000438154814A1B5B0B483C510528F78091BD
:1045900026018F70806180932601F901E35DFE4F53
:1045A00080818F708061808381E291E00E94781B1E
:1045B000DF91CF911F910C949810AF92BF92CF9240
:1045C000DF92EF92FF920F931F93CF93DF93CDB7BC
:1045D000DEB761970FB6F894DEBF0FBECDBF8C017A
:1045E00085E0F801DE011D9601900D928A95E1F7B4
:1045F000F801E28081E2A82E81E0B82E60912401CA
:10460000709125016115710509F432C19091210164
:1046100040912201892F84238F3F09F429C12081F1
:104620003181C380D480F0902301F601E61BF70BA3
:10463000FF2009F4E8C080912601582F507FE83C04
:10464000F10508F0ABC0511177C0FE2C431321C017
:1046500092131FC0E1101DC08F70806180932601EE
:10466000C5010E94781B80912601F80185838F2D5A
:1046700061960FB6F894DEBF0FBECDBFDF91CF912C
:104680001F910F91FF90EF90DF90CF90BF90AF9070
:104690000895CD2829F0822F83238F3F09F003C18D
:1046A00080E0F82FF170DF2E80FF3CC08091580130
:1046B0004091270156E0841315C02D873E878D85D4
:1046C0009E850E943318292F22952F702230F0F0FA
:1046D000243018F59F70F1F0F8019581907FD1F4A6
:1046E000D12C1EC090E0589FF001599FF00D11246D
:1046F000E85DFE4F6181361306C06081261303C05A
:104700006281E6120FC001968770D5CF9F7011F0BD
:10471000882331F3805E883018F3C8010E94781B2B
:10472000FD2CA5CFEE2009F4A2CF80912601816057
:1047300080932601F12C9BCF431306C0921304C033
:10474000F801EE2009F479C0C8010E943F188823BF
:1047500009F1EE20F9F080912601803270F020916D
:1047600021013091220138872F831986DB86CA8682
:104770008C87CE0107960E94781B86E0F801A1E2A3
:10478000B1E001900D928A95E1F70E948722FF2403
:10479000F3946DCFC8010E94781BF9CF51110AC064
:1047A00081E291E00E94781B86E0F50111928A95E2
:1047B000E9F7C0CF43130FC092130DC0E1100BC037
:1047C000F8018583C8010E94781B86E0F5011192EB
:1047D0008A95E9F74CCFC8010E943F188823D1F28F
:1047E000EE20C1F280912601803238F22091210121
:1047F000309122013A8329831B82DD82CC828E8311
:10480000CE010196B8CFE83CF105F8F6FE2CEE207B
:1048100009F243131FC092131DC08091260180FD31
:1048200010C0982F907F69F0F8018583903F31F098
:10483000982F907F905F8F70892B8583C8010E948D
:10484000781B86E0F801A1E2B1E001900D928A9513
:10485000E1F70DCFC8010E943F1881118ECF8091E2
:104860002601816080932601C8010E94781BFFCE3B
:10487000EE2009F48FCFC8010E943F18F82E88233C
:1048800009F488CF86E0F801A1E2B1E001900D9231
:104890008A95E1F780912101909122010E943318BD
:1048A0000E948722E4CE81E08E25FBCE1F93CF931A
:1048B000DF93CDB7DEB767970FB6F894DEBF0FBEB4
:1048C000CDBF4B8B5C8B6D8B7E8B8F8B6111109270
:1048D0005B011A8A198A85E0FE017396DE011D9636
:1048E00001900D928A95E1F786E0FE013D96DE018A
:1048F000179601900D928A95E1F7CE0107960E94D6
:10490000DD22882389F016E08091580190912701DB
:10491000891349C067960FB6F894DEBF0FBECDBFAE
:10492000DF91CF911F91089586E0FE013796DE0159
:10493000119601900D928A95E1F78A859B85892BC6
:1049400011F38F81988589238F3FE9F22091270108
:1049500030E0C901019687709927409158014817A6
:10496000190671F40E94E319109227011092580160
:1049700086E0E1E2F1E0DF011D928A95E9F7C3CF1D
:1049800096E0929FD001939FB00D1124A85DBE4F79
:10499000FE01319601900D929A95E1F780932701DF
:1049A0000E949810B0CF819FC0011124885D9E4F56
:1049B0000E94DD22882309F4ADCF8091580190E058
:1049C000019687709927809358019ECF4F925F92EE
:1049D0006F927F928F929F92AF92BF92CF92DF920F
:1049E000EF92FF920F931F93CF93DF93CDB7DEB774
:1049F0002A970FB6F894DEBF0FBECDBF8E010F5FB2
:104A00001F4F8AE0F80111928A95E9F725EBE22E13
:104A100020E0F22E68013AEB432E30E0532E66245C
:104A20006394712C59EC852E50E0952EF7018191FD
:104A30007F018F3F09F445C0F894E82FE295EF70AD
:104A4000F0E021A98F70A30102C0440F551F8A9581
:104A5000E2F7CA01922F982B91AB92A980958923F6
:104A600082AB789400C0EAEBF0E021E030E0B12CBA
:104A7000A12C41914F3F09F47EC0A42FA295AF70A5
:104A8000B0E0D0968C9190E04F7002C095958795DC
:104A90004A95E2F780FD6FC0C901A82AB92A220F02
:104AA000331F8E169F0629F7F701319780818F3FBC
:104AB00011F00E94870E50EA5A95F1F7F601B18283
:104AC000A082F2E0CF0ED11C4E145F0409F0AECFED
:104AD0004AE050E0B80181EA91E00E945C2EFF2498
:104AE000F394009709F4F12C892B09F447C08AE06C
:104AF000F801A1EAB1E001900D928A95E1F781E019
:104B0000809361010E94961A9093600180935F01E7
:104B100080915F01909160010E94871A059790F142
:104B20008091A1019091A2019093E7018093E60109
:104B30008091A3019091A4019093E9018093E801F1
:104B40008091A5019091A6019093EB018093EA01D9
:104B50008091A7019091A8019093ED018093EC01C1
:104B60008091A9019091AA019093EF018093EE01A9
:104B70001092610107C090E080E08FCF80916101C9
:104B80008111C6CF80906D01082C000C9908AA08ED
:104B9000BB082091600030E081E090E028173907E1
:104BA0000CF0C8C08091690190916A01A0916B01DD
:104BB000B0916C016FB7F89440903302509034027A
:104BC00060903502709036026FBF481A590A6A0A1F
:104BD0007B0A1091600045E644165104610471049B
:104BE000FCF08091680190E0019662E370E00E9421
:104BF000132E8093680183599E4FFC011082812FF0
:104C0000113308F080E38F5F809360000E94760D7F
:104C10006093690170936A0180936B0190936C01BA
:104C2000F2E08F169104A104B1040CF492C0A0E646
:104C3000BAEEA50194010E94CF2E4B015C0144E61F
:104C4000149F90011124032E000C440B550B240DCE
:104C5000351D461D571DA5E0B0E00E94CF2E9B01DB
:104C6000AC01C501B4010E94E22E29013A0151EFC5
:104C7000451651046104710428F080EF482E512C30
:104C8000612C712C8091640190916501A091660165
:104C9000B09167012FB7F89480903302909034025E
:104CA000A0903502B09036022FBF881A990AAA0A3E
:104CB000BB0A85E688169104A104B10484F00E9421
:104CC000760D609364017093650180936601909303
:104CD00067018091AF01809363014092620110915E
:104CE0006301A0916201A11BBB0BA50194010E946D
:104CF000DA2E24E630E040E050E00E94B02E120FA1
:104D00001093AF018F2D2A960FB6F894DEBF0FBE19
:104D1000CDBFDF91CF911F910F91FF90EF90DF906A
:104D2000CF90BF90AF909F908F907F906F905F904B
:104D30004F900895FC01E359FE4F4081042E000C72
:104D4000550B660B770B840E951EA61EB71E01969B
:104D500025CF412C512C320195CFCDB7DEB72C9702
:104D60000FB6F894DEBF0FBECDBF0E94961A909387
:104D7000F2018093F10184B7806884BF84B78068B2
:104D800084BF85E89EE09093F7008093F60085B796
:104D9000886085BF8BB780688BBF8BE480930505E7
:104DA00080933A05809311058AE5809304058093EA
:104DB0003905809310058B9A80E0815009F0A0C2DC
:104DC0008B9878948BE083BF8AEF8CBF82E089BF99
:104DD0000E946618811102C00E94A51705EB10E021
:104DE0007AEBE72E70E0F72EF80181918F018F3F6B
:104DF00011F00E94870EE016F106B1F70AEB10E001
:104E0000D8018D918D018F3F11F00E94870EB0E087
:104E1000093C1B07A9F78AE0E6EEF1E0DF01282F45
:104E20001D922A95E9F7E1EAF1E0DF011D928A95EA
:104E3000E9F70E94581A811102C00E94EE1982E01F
:104E400090E00E94692E8093DB010E947F1890936E
:104E5000A00180939F010E94E624EFE3FCE93197D3
:104E6000F1F700C000000E94E6248091E60181FF76
:104E700008C06FEF7FEF90E080E00E949A2E0E94C2
:104E8000630D83E090E00E94692E0E94461110920B
:104E9000D80180E88093AE010E94F02C6DE070E0B4
:104EA0008DE591E10E941612892BE9F58091D801D8
:104EB00063E070E081FD2CC28AE591E10E94161248
:104EC000892B89F56DE070E08AE491E10E94161269
:104ED000892B49F50E94760D605679478E4F9F4F7A
:104EE00060932702709328028093290290932A02EC
:104EF000E7EFF2E080E092E0DF019C011D9221509B
:104F00003040E1F7F093F804E093F7048FEF9FEF60
:104F10009093F6028093F50281E080932C028093B7
:104F20002B021092D9018091AB01811133C00E94F4
:104F3000581A811104C00E94EE190E94D31988E00A
:104F400090E00E94712E609322027093230280935E
:104F50002402909325026E7F71F40E94D31988E099
:104F600090E00E94712E609322027093230280933E
:104F70002402909325020E94D90D1092FA0180918B
:104F8000220280FF04C060E086950E941C1B81E025
:104F90008093AB0181E690E09093300280932F02E2
:104FA0003FEF40E782E0315040408040E1F700C0F1
:104FB000000057EF652E52E0752E22242394312CE9
:104FC00080911F051091F001882309F4A4C110926B
:104FD0001F050E94961A9093F2018093F10111230C
:104FE000D9F01092F0010E94E3190E94C80D1092AE
:104FF000AD018091AC01882349F08091220281604B
:105000008093220260E086950E941C1B0E94061B72
:105010008091F001811181C10E9489128091E90281
:10502000882309F450C18091040584FF4CC10E947B
:10503000E624D82E81110E94760DE6EEF1E0ACED6B
:10504000B1E010E000E0702F819191912D913D91A0
:105050002817390709F486C12827392760E0EE248C
:10506000E394F12CA9014E215F21452B09F474C171
:1050700069837A839C012E213F2191E0232B09F43F
:1050800090E09B830E94961A8160782F9D838C8389
:1050900049815A816B818D810E945624000F111F16
:1050A000F801E452FE4F80819181E826F926F182D1
:1050B000E0828091FA018823D1F18091F901E09199
:1050C0002202E695E81BE093F501823009F061C108
:1050D000F0E0E858FE4EE4910E2F10E05DE8E52E7A
:1050E00058E1F52E8091F601882361F01092F601C7
:1050F0000E94961A9093F4018093F3011092F801A4
:105100001092F7010E94961AE091F301F091F401D8
:105110008E1B9F0B8F3F9F4750F4E00FF11FF093C2
:10512000F401E093F30183EF91E0F7010995809199
:105130002C02882309F4BAC07092F8046092F70434
:105140008091AF01882309F47EC10E9461124091D1
:10515000B4015091B5016091B6017091B7012FB7BC
:10516000F8948091330290913402A0913502B0916D
:1051700036022FBF841B950BA60BB70B893C9105FC
:10518000A105B10560F00E94760D6093B4017093A3
:10519000B5018093B6019093B7010E94E3110E947C
:1051A000760D6093B0017093B1018093B20190933A
:1051B000B30180912C02882309F45FC02091F5028D
:1051C0003091F6022115310509F457C08091D901BB
:1051D000811153C0082F10E07101082E02C0EE0C9F
:1051E000FF1C0A94E2F7A9014E215F21452B09F427
:1051F00073C19091D80190FD71C18295880F80761E
:1052000080936F00980136952795369527952093C2
:105210007200815E809370001092730024E630E08B
:1052200047E050E06DE670E088E70E949C2D892BF6
:1052300021F5A80175E0440F551F7A95E1F780919B
:10524000D80180FD59C149505D4F04E610E020E2CD
:1052500030E060E488E70E94C22D892B71F40E943F
:105260006112E094F0948091F5029091F602E822A8
:10527000F922F092F602E092F50280912B02882347
:10528000A9F00E94760D009127021091280220912A
:10529000290230912A02601B710B820B930B6F3F26
:1052A0007F4F8F4F9F4710F40E944612D1100E94EB
:1052B00061120E94C80D9091DA01891721F00E94B5
:1052C000C80D8093DA010E9427140E9489128091F0
:1052D000E902882309F474CE8091390584FF70CEE9
:1052E0008091DF02803209F06BCEE091BF02E15085
:1052F000E33108F0CBC1F0E0E858FD4C0C94272EC8
:10530000A895AFE9BFE01197F1F700C0000055CDB7
:1053100087E591E1D3CD112381F00E94EC160E9424
:10532000E624E6EEF1E081919191892B09F031C3F9
:1053300091E0E03FF907B9F743CE8091F1019091F8
:10534000F2010E94871A069708F466CE81E08093E6
:10535000F0010E94EC165CCE6F5FEE0CFF1C6F300C
:1053600009F080CE0F5F1F4F0530110509F06BCE9D
:105370008FEF8E838F8318860E94961A8160782F14
:105380009A8789874E815F8168858A850E94562425
:1053900090CE863059F4F0E0EB58FE4EE4910E2F9B
:1053A00010E04CEDE42E46E1F42E9CCE893061F401
:1053B000E695F0E0EE58FE4EE4910E2F10E032E458
:1053C000E32E36E1F32E8ECE8F3061F4E695F0E0D9
:1053D000E159FE4EE4910E2F10E021EDE22E25E181
:1053E000F22E80CE853159F4F0E0E459FE4EE4917E
:1053F0000E2F10E090E8E92E95E1F92E73CE08E229
:1054000010E0A3EFEA2EA4E1FA2E883109F46ACE67
:10541000833249F4EAE6F1E10591149180E8E82E3F
:1054200086E1F82E5FCE04EF11E0B7EBEB2EB4E18E
:10543000FB2E843209F456CE00ED17E0FEE5EF2E88
:10544000FDE0FF2E4FCE4091B0015091B10160912F
:10545000B2017091B3012FB7F8948091330290910B
:105460003402A0913502B09136022FBF841B950BF8
:10547000A60BB70B813A9648A140B10518F00E94DF
:10548000461297CE4091B4015091B5016091B6019A
:105490007091B7012FB7F894809133029091340244
:1054A000A0913502B09136022FBF841B950BA60B3D
:1054B000B70B893C9105A105B10508F47ACE0E948D
:1054C000760D6093B4017093B5018093B60190930B
:1054D000B7010E94E3116DCE8F5F7CCE880F880FDD
:1054E000880F80936F0010927200895F8093700024
:1054F00083E08093730092CE80E2A8EBB1E01D922E
:105500008A95E9F7EDECF0E0FC87EB8709EC10E019
:10551000AB85BC852D91BC87AB87F80141908F018D
:10552000440E552E511CC20189509D4F2C01E22F73
:10553000F0E0E854FE4F30E020E067E0962E921A4B
:10554000C22C022E01C0CC0C0A94EAF7520190E062
:10555000D5018D915D018C21692D691B6770862EA7
:10556000062E000C770BB82F01C0BB0F8A94EAF708
:105570008B2E7195619571096770772701C08695AB
:105580006A95EAF7882A8081882A80829F5F98300E
:10559000F9F62F5F3F4F31962830310571F6EB85D4
:1055A000FC85E15DF04009F0B3CF04E610E020E2B5
:1055B00030E048EB51E04DCE1092C00289E080937C
:1055C000C10216C08091C002823009F4FCC1833050
:1055D00091F0813009F05AC00E94760D0E942D2E64
:1055E0006093C1027093C2028093C3029093C4027D
:1055F0000FEB12E0ADC18091E6019091E701982791
:10560000892798279093C2028093C1028091E80174
:105610009091E9019827892798279093C402809355
:10562000C3028091EA019091EB019827892798277E
:105630009093C6028093C5028091EC019091ED0198
:105640009827892798279093C8028093C702809152
:10565000EE019091EF019827892798279093CA022D
:105660008093C902C5CF8091C002823079F46091E5
:10567000C1027091C2028091C3029091C4020E9443
:105680002D2E86E290E00E947D2EB2CF8FEF809388
:10569000BF02AECF4091C2026091C1028091C002B0
:1056A0000E94D1179827892798279093C402809346
:1056B000C3029ECFE090C302F090C402FE24EF2408
:1056C000FE248091C0020091C1024EE1049F80013E
:1056D000112496E9899F000D111D11248091C202A9
:1056E00090E0880F991F080F191F6F2DC80187962A
:1056F0000E947D2E6E2DC8018896C5CF0E94381756
:1057000077CF8091C0028138D9F068F4803809F0F1
:105710006FCF20E04091C10260912402809123026A
:105720000E94D31865CF823879F1833809F060CFB1
:1057300020E0409125026091C2028091C102F0CF29
:1057400060E08091C1020E941C1B9091C102809177
:105750002202911111C08E7F809322021092FA01D1
:10576000AFEFB0E7E2E0A150B040E040E1F700C0A9
:1057700000000E9482143CCF81608093220260E08E
:1057800086950E941C1B34CF8091C1028093260213
:105790002FCF8091C0028138A9F030F4803809F011
:1057A00027CF809125020BCF8238A1F0833809F0F2
:1057B0001FCF809123028093C102809124028093A5
:1057C000C20216CF8091220280FF02C08695F7CEDA
:1057D00080E0F5CE80912602F2CE60912202709197
:1057E000230280912402909125020E94C11800CFCB
:1057F00080E18093C002FCCE81E08093C00281E80A
:10580000DECE0091C0021091C1021027012710279F
:105810003FEBE32E32E0F32EC090C202D12C960172
:1058200021543D4F6901C80181589D4FCE14DF04BA
:1058300009F4DECE013831E0130758F40E94692ED6
:10584000D70114968C930F5F1F4FFFEFEF1AFF0ADB
:10585000EACFF7011482F7CF0091C0021091C10284
:105860001027012710272FEBC22E22E0D22EE09026
:10587000C202E00EF12EF11CC80181589D4F0E1599
:105880001F0509F4B5CE013821E0120728F4D6012E
:1058900014966C910E947D2EBFEFCB1ADB0A0F5F2E
:1058A0001F4FEACF0E942817A3CE84E0A2CF009119
:1058B000C0021091C1021027012710279FEBC92EAB
:1058C00092E0D92EE090C202F12CF701E154FD4F95
:1058D0007F01C8018796CE14DF0409F489CE08350C
:1058E000F2E01F0758F40E94692ED60114968C939B
:1058F0000F5F1F4FFFEFCF1ADF0AEBCFF6011482C5
:10590000F7CF0091C0021091C10210270127102784
:105910008FEBC82E82E0D82EE090C202E00EF12E6E
:10592000F11CC8018796E016F10609F461CE08352E
:1059300022E0120728F4D60114966C910E947D2E65
:10594000BFEFCB1ADB0A0F5F1F4FEBCF0E9489120C
:105950008091100584FFFACF40E155E068E0C8016E
:105960000E94D313085F1F4FE2E00F3D1E0781F72F
:105970008091100584FF0AC040E155E060E090E0AE
:1059800080E00E94D3131092DF021ACB0E9489128A
:10599000EFCFF89421B3939A822F8C6081BB92B39E
:1059A0003CE0932792BBFFE748E381E0F1504040A1
:1059B0008040E1F700C0000082B3832782BB21BB97
:1059C00093987894FDCA86E290E00E94692E109226
:1059D000C1021092C2021092C3028093C40208CE88
:1059E00011B88CE080B985B3836085BB86B78460CD
:1059F00086BF86B7816086BF86B7806486BF0895FC
:105A00009F92AF92BF92CF92DF92EF92FF920F934D
:105A10001F93CF93DF93B82EEB010E94961A6C016F
:105A2000EE24E394F12CC431D10560F025E0E22EA0
:105A3000F12CCF3FDC0731F0CE0164E170E00E9431
:105A4000F12D7B0184EAA82E94E8992E16BEA6BEFD
:105A50000E94961A8C0106B607FE0BC081B1887FA2
:105A6000883031F181B1887F803111F10FEF1FEF64
:105A700009C00E94961A801B910B8E159F0558F342
:105A80000EEF1FEFCF3FDC0709F3C6010E94871A14
:105A90008C179D07D8F2C801DF91CF911F910F910C
:105AA000FF90EF90DF90CF90BF90AF909F900895C0
:105AB000B3B896BE0E94961A8C0106B607FE09C0BE
:105AC00081B1887F883111F0803481F610E000E0E8
:105AD000E2CF0E94961A801B910B8E159F0568F3EA
