:100000000C945A030C94A1030C94A1030C94A10327
:100010000C94A1030C94A1030C94A1030C94A103D0
:100020000C94A1030C94A1030C9465200C94212042
:100030000C9462210C94A1030C94A1030C94A103D1
:100040000C94A1030C94A1030C94A1030C94A103A0
:100050000C94A1030C943E210C94A1030C94A103D5
:100060000C94A1030C94A1030C94A1030C94A10380
:100070000C94A1030C94A1030C94A1030C94A10370
:100080000C94A1030C94A1030C94A1030C94A10360
:100090000C94A1030C94A1030C94A1030C94A10350
:1000A0000C94A1030C94A1030C94A10307634236A2
:1000B000B79BD8A71A39685618AEBAAB558C1D3CF9
:1000C000B7CC5763BD6DEDFD753EF6177231BF00BD
:1000D0000000803F05A84CCDB2D44EB93836A902F5
:1000E0000C50B9918688083CA6AAAA2ABE00000036
:1000F000803F05010902A10185020901A10005094E
:1001000019012908150025019508750181020501CD
:10011000093009311581257F950275088106093856
:100120001581257F950175088106050C0A38021591
:1001300081257F950175088106C0C005010980A150
:1001400001850319012AB700150126B7009501752D
:10015000108100C0050C0901A101850419012AA024
:1001600002150126A002950175108100C005010944
:1001700006A1018506050719E029E7150025019567
:1001800008750181020507190029EF150025019561
:10019000F075018102050819012905950575019180
:1001A00002950175039101C00660FF0961A1010973
:1001B00062150026FF00952075088102096315006D
:1001C00026FF00952075089102C005010906A101CE
:1001D000050719E029E71500250195087501810239
:1001E0009501750881010507190029FF150026FFF3
:1001F0000095067508810005081901290595057502
:10020000019102950175039101C0000000000000FA
:1002100000000000000000000000000000000000DE
:1002200000000000000000000000000000007E0F41
:1002300000D4FFFFFFC700000078000000000000AE
:1002400000002A2B28000000000000000000000031
:10025000000000000029000000002C1E3420212294
:1002600024342627252E362D3738271E1F202122FD
:10027000232425263333362E37381F040506070876
:10028000090A0B0C0D0E0F10111213141516171866
:10029000191A1B1C1D2F3130232D350405060708A4
:1002A000090A0B0C0D0E0F10111213141516171846
:1002B000191A1B1C1D2F3130354C00047F3F1F6461
:1002C0003214643214783C1E1E140A050001010128
:1002D0000101010101010202020202020202020303
:1002E00003030303030303040404040404040505D3
:1002F0000505050606060606070707070708080896
:1003000008090909090A0A0A0B0B0B0C0C0C0D0D44
:100310000D0E0E0E0F0F0F101011111112121313DC
:100320001414151516161717181819191A1A1B1B55
:100330001C1D1D1E1E1F20202122222324242526B1
:1003400026272829292A2B2C2D2D2E2F30313232E9
:10035000333435363738393A3B3C3D3E3F404142F5
:10036000434445464748494A4C4D4E4F50515354DB
:10037000555658595A5B5D5E5F616264656668698F
:100380006B6C6D6F7072737577787A7B7D7E80820F
:10039000838587888A8C8E8F91939596989A9C9E58
:1003A000A0A2A3A5A7A9ABADAFB1B3B5B7BABCBE68
:1003B000C0C2C4C6C9CBCDCFD1D4D6D8DBDDDFE235
:1003C000E4E7E9EBEEF0F3F5F8FAFDFFFFAA7F555D
:1003D00040165C1E001F0020002100220023002484
:1003E000002500260027002D002E00310035002BAF
:1003F0000014001A000800150017001C0018000C5B
:1004000000120013002F0030002A004B00390004B6
:10041000001600070009000A000B000D000E000F77
:100420000033003400280000004E00E1001D001BD6
:1004300000060019000500110010003600370038D2
:1004400000E500000052000151E0000000E2000061
:10045000002C00E30000002C000000E6000000007B
:1004600000500051004F0001003A003B003C003DAD
:10047000003E003F00400041004200430044004570
:1004800000010001000100010001000100005C0109
:100490000001000100010001000100010001004C09
:1004A0000001000100010001000100010001000144
:1004B0000001000100010001000100010000000135
:1004C0000001000100010001000100010001000124
:1004D0000001000100010001000000010001000115
:1004E0000000000100000001000100000001000008
:1004F00000010000000000010001000100010001F6
:1005000000010001000100010001000100010001E3
:1005100000010001000100010001000100010001D3
:1005200000010001000100010001000100010001C3
:1005300000010001000100010001000100010001B3
:1005400000010001000100010001000100010001A3
:100550000001000000010001000100010001000194
:100560000001000100010001000100010001000084
:100570000001000100010000000100000001000175
:100580000000000100000001000000000001000167
:100590000001000100010001000100010001000153
:1005A0000001000100010001000100010001000143
:1005B0000001000100010001000100010001000133
:1005C0000001000100010001000100010001000123
:1005D0000001000100010001000100010001000113
:1005E0000001000100010001000000010001000104
:1005F00000010001000100010001000100010001F3
:1006000000010001000000010001000100000001E4
:1006100000000001000100000001000000010000D6
:1006200000000001000100010009025B000301005D
:10063000A0FA0904000001030101000921110100D1
:10064000012240000705810308000A090401000295
:100650000300000009211101000122220007058288
:100660000320000107050303200001090402000123
:100670000300000009211101000122B600070584D2
:100680000320000A12010002000000087EFA0000A8
:100690000100010200010C03610072006900730097
:1006A000750000000A034600610074006500000048
:1006B0000403090411241FBECFEFDAE0DEBFCDBF73
:1006C00004B603FE27C08091C3029091C402A0919A
:1006D000C502B091C6028730904BA740B04BD1F411
:1006E0001092C3021092C4021092C5021092C60268
:1006F00014BE84B7877F84BF0FB6F894A895809105
:100700006000886180936000109260000FBEE0E09E
:10071000F8E3099511E0A0E0B1E0EEE0F7E502C0F2
:1007200005900D92A439B107D9F722E0A4E9B1E010
:1007300001C01D92A33CB207E1F70E9489210C94ED
:100740004E2B0C940000E8EDF0E080818E7F8083DA
:100750001092E2001092DA001092E100A0EEB0E0F8
:100760008C9181608C9380818F77808319BCA7EDF9
:10077000B0E08C918E7F8C9380818F7E80831092ED
:10078000900208952091E4003091E50095E6A901DA
:100790002091EC00822F817020FF06C08091E8003C
:1007A00080FF06C080E008952091E80022FD1AC075
:1007B0008091B502882389F0853089F08091EB0023
:1007C00085FD0FC02091E4003091E50042175307EA
:1007D000F9F29150E1F684E0089582E0089583E013
:1007E000089581E00895EF92FF920F931F93CF93A6
:1007F0007C018B010E94C203C82F811117C0809118
:10080000E80085FD0BC08091E8008E778093E800BA
:100810000E94C203882399F3C82F08C0F701819171
:100820007F018093F1000150110949F78C2FCF917E
:100830001F910F91FF90EF9008958091B70287FF6D
:1008400013C08091E80082FF06C08091E8008B779A
:100850008093E80004C08091B5028111F2CF089521
:100860008091B5028823D9F38091E80080FFF8CF0A
:100870008091E8008E77ECCF982F9093E900242F99
:10088000762F50E0891731F07091EC002091ED0047
:100890005091F00021FD07C09F5F973071F7809362
:1008A000E90081E008953091EB003E7F3093EB004A
:1008B0003091ED003D7F3093ED003091EB003160E1
:1008C0003093EB007093EC002093ED005093F00018
:1008D0002091EE0027FDE0CF80E00895CF92DF92D7
:1008E000EF92FF920F931F93CF93DF93C8EDD0E069
:1008F00088818F7E8883E7EDF0E08081816080834E
:1009000084E082BF81E08093900288818E7F88831B
:1009100002EE10E0F80110821092DA0081EEC82E8B
:10092000D12CF601108288818F7788838881806836
:10093000888388818F7D888319BC1092B5021092BC
:10094000B6021092B4021092B30290EEE92EF12C8E
:10095000F70180818B7F808388818160888342E07A
:1009600060E080E00E943C04F60180818E7F8083FD
:10097000F801808181608083808188608083F701B5
:1009800080818E7F8083888180618883DF91CF9191
:100990001F910F91FF90EF90DF90CF900895FC0191
:1009A0008091BD029091BE0286179707A0F0611555
:1009B000710529F49091E8009E779093E80090E00B
:1009C0006115710551F4911108C08091E80082FF12
:1009D00034C080E00895BC01F2CF8091B502882335
:1009E000C1F18530C1F18091E80083FD30C0809174
:1009F000E80082FDEACF8091E80080FFE1CF80919E
:100A0000F3002091F200382F6115710519F028309C
:100A1000310558F091E02830310509F090E020913F
:100A2000E8002E772093E800CBCF81918093F100EE
:100A3000615071092F5F3F4FE7CF8091B502882346
:100A400041F0853041F08091E80083FFBECF81E026
:100A5000089582E0089583E00895089580919202B8
:100A6000089587E797E7909301088093000888E14D
:100A70009AE00FB6F894A895809360000FBE90930B
:100A80006000FFCF9C014FB7F8948091870290914E
:100A90008802A0918902B0918A024FBF821B930BFA
:100AA00008952FB7F8948091870290918802A091C1
:100AB0008902B0918A022FBF08952091840230915B
:100AC00085022817390771F090938502809384027C
:100AD000E0918202F0918302309721F00084F18549
:100AE000E02D099408952091800230918102281709
:100AF000390771F09093810280938002E091820225
:100B0000F0918302309721F00680F781E02D09945F
:100B10000895E0918202F0918302309721F00190D4
:100B2000F081E02D099480E00895FA01811101C05F
:100B3000FB010994089580917B02982F9E7F61F4B8
:100B40008170826080937B0280917E02873918F0E9
:100B500086E980937E0208958A34B0F381708864B8
:100B6000F1CFAF92BF92DF92EF92FF920F931F935C
:100B7000CF93DF93082F162FE901E42FF0E0E45321
:100B8000FD4F611110C0E4915E2F4E2F4983E88321
:100B90005A83DF91CF911F910F91FF90EF90DF90DB
:100BA000BF90AF900895E62EF12C4491D42EE42FFF
:100BB000F0E026E0829FC00111242FEF30E0B90160
:100BC0000E940F27802F90E0880F991F55E5569FB0
:100BD000D001579FB00D11248A1B9B0B982F990FA2
:100BE000890F5901AE18BF08AE9ED001AF9EB00D5F
:100BF000BE9EB00D11245B2F189F80011124012F80
:100C000011275901A01AB10AAE9E8001AF9E100DA6
:100C1000BE9E100D11245901A81AB108AE9CC00146
:100C2000AF9C900DBE9C900D1124892F9927281BF5
:100C3000390B2E9FC0012F9F900D3E9F900D1124C8
:100C4000E92F62307105A1F050F46115710509F4C6
:100C50009DCF6130710581F0EB2F512F97CF64301C
:100C6000710569F080F06630710509F48FCFF4CF1B
:100C7000E42F4B2F592F8ACFE42F412F87CFEB2F13
:100C8000542F492F83CF4B2F5D2DE12F7FCF0E9413
:100C900051059C019091420280914302982B21F0D2
:100CA00030933F0220933E0290914402809145028E
:100CB000982B21F030933D0220933C02E091820278
:100CC000F0918302309749F082E0809340020480E3
:100CD000F581E02D80E492E009940895409142026C
:100CE000803F59F48091430287FF0DC01092430268
:100CF00041110BC010923A0208C0813F81F48091EB
:100D0000430218169CF3442381F080914402909191
:100D10004502892B09F05AC0109239020895823F8A
:100D200049F447FFF0CF10924202809143028111B3
:100D3000ECCFE0CF833F19F41416ACF3E4CF9091DD
:100D40004402893F29F41916F4F610924402DBCFCD
:100D50008A3F19F497FFD7CFF8CF909145028B3F88
:100D600029F497FFD0CF10924502CDCF8C3F19F4D4
:100D70001916CCF3C8CF9CE0980F953090F4845F9F
:100D8000990B21E030E0B90102C0660F771F8A9508
:100D9000E2F7CB0180959091410289238093410233
:100DA000B2CF8D3F31F480913B028E7F80933B0226
:100DB000AACF8E3F21F480913B028D7FF7CF8F3FEA
:100DC00009F0A1CF80913B028B7FF0CF08958091F5
:100DD0003B0280FD16C081FD16C082FD16C08091C9
:100DE00039028823A1F0883280F428E0829FC00174
:100DF000112468E270E00E942327862F672B39F0C8
:100E0000089582E0089584E0089588E0089581E0DF
:100E1000089580913B0280FD14C081FD14C082FDC5
:100E200016C080913A02882381F0843180F422E355
:100E3000829FC001112464E170E00E942327862F65
:100E400008958CE0089589E1089585E0089582E38E
:100E50000895803F31F40E940907819580934302F1
:100E60000895813F19F40E940907F8CF823F31F4B9
:100E70000E9409078195809342020895833F19F4E7
:100E80000E940907F8CF893F29F40E94E706809362
:100E9000440208958A3F21F40E94E7068195F7CF26
:100EA0008B3F31F40E94E7068195809345020895B7
:100EB0008C3F19F40E94E706F8CF9CE0980F95301C
:100EC00070F4845F990B21E030E001C0220F8A9515
:100ED000EAF780914102822B8093410208958D3F71
:100EE00031F480913B02816080933B0208958E3FF4
:100EF00021F480913B028260F7CF8F3FB9F7809158
:100F00003B028460F1CF80E00895F894E82FE295E9
:100F1000EF70F0E031A1282F2F7081E090E001C048
:100F2000880F2A95EAF7982F9095932391A392A181
:100F3000892B82A37894089590918B0292FF06C02A
:100F4000282F28712830F9F4877F846093FF06C02A
:100F5000282F28712831F1F4877E846120918C023A
:100F600020FF06C0382F38713830D9F4877F816070
:100F700021FF06C0282F28712831D1F4877E816196
:100F800094FD877E0895282F24712430F9F68B7FF5
:100F90008860DCCF282F2471243101F78B7E886193
:100FA000DDCF382F3171313019F78E7F8860E0CF77
:100FB000282F2171213121F78E7E8861E1CFCF93D7
:100FC000DF93EC0182389105A9F1D8F581339105C1
:100FD00009F496C048F58932910509F48AC08A97C8
:100FE00009F495C0C11521E5D20708F0BCC0C115B0
:100FF00030E5D30708F014C1C83ED10508F09CC005
:10100000C03ED10560F5C83AD10508F087C0C53AA1
:10101000D10508F0FDC0C130D10509F12097F9F0E4
:10102000C430D105E0F440C08533910509F45AC0BD
:10103000C997C1F680918B02837089F0C0EED0E031
:101040000EC0833E910599F170F4803E910501F147
:10105000823E910539F680918B0282FD21C0CE013E
:10106000DF91CF910895863E910561F1873E91050C
:1010700071F1843E910509F0B5CF80918C0281FF1A
:10108000EECF80918B02C7EED0E084FD0DC0E7CF9C
:1010900080918B0280FD12C190918C0290FFDFCF76
:1010A000C3EED0E084FFDBCFD0E0C0E0D8CF8091AA
:1010B0008B0282FD06C190918C0290FDBFCF84FF10
:1010C000CECFF2CF80918B0283FDDDCFC8CF809150
:1010D0008B0283FDF9C090918C0291FFF0CFC4EE9A
:1010E000D0E0BDCF80918B0285FFB9CFC9E2D0E0BF
:1010F000B6CF80918B0285FFB2CFC5E3D0E0AFCFF2
:1011000080918B0286FFABCFCAE2D0E0A8CF80915E
:101110008B0286FFA4CFC1E3D0E0A1CFCF3BD105A6
:1011200018F6C85AD0E0CC0FDD1FC25EDE4F099022
:10113000D881C02DD46493CFC11540E2D40758F4B0
:10114000C11581E0D80708F08ACFC03FD10508F467
:10115000ABCFD06584CFC11590E4D90708F4A4CFF4
:10116000DF70D06A7CCFC11525E5D20700F5C11527
:1011700034E5D30708F08AC0C11543E5D40708F069
:1011800071C0C11582E5D80708F467C0CE0183702D
:10119000992721E030E002C0220F331F8A95E2F741
:1011A000C695C69580E2C89FE001112452C0C115C2
:1011B00099E5D907A8F4C11528E5D20708F06BC056
:1011C000C11536E5D30708F06FCF8C2F0E949C071E
:1011D000C82FD0E0DC2FCC27CC27DF71D0623FCFE7
:1011E000C1154AE5D40708F45BC0CE0190568115BD
:1011F000904208F059CF8D2F8F710E949C0790E08C
:10120000982F882788279F719C012C2BE901E6CF16
:10121000C55AD0E0C55EDE4FC881D0E0D0641FCF94
:10122000CE01E4E096958795EA95E1F783702C2F3F
:1012300026952695237040E2249F90011124382B97
:101240008C2F8370C1E0D0E002C0CC0FDD1F8A95E7
:10125000E2F7C22BD32BDC6802CFDC2FCC27C16F87
:10126000D06AFDCECE018370992721E030E002C024
:10127000220F331F8A95E2F7C695C69590E2C99F63
:10128000E0011124C22BD32BDA68E9CEDC2FCC2766
:10129000C46FD06AE4CEDC2FCC27C06FD06ADFCE1B
:1012A0008C2F8F700E949C0734E0D695C7953A9595
:1012B000E1F7CF709C2FEC01D069D1CEC9E3D0E02B
:1012C000CECEC2EED0E0CBCEC6EED0E0C8CE80917E
:1012D00011028111109211020895809590911002CF
:1012E00098239093100208958091100290910F021C
:1012F000892B90910E02892B809396019091110277
:101300009923A1F0892B8093960180911A0188235B
:1013100041F180918B0287FF24C08EE1E8E9F1E082
:1013200090E0815000F591110E946709E0918202DE
:10133000F09183023097E1F080911A01882359F0EF
:1013400080918B0287FF07C080919601809397015F
:1013500086E0809396010280F381E02D86E991E09A
:10136000099486E0DBCF21912223D9F29F5FD9CF68
:10137000089590911A019923D1F090918B0297FFD3
:1013800016C0E82FE695E695E695EE31E0F4F0E03C
:10139000EA56FE4F282F277081E090E001C0880FA9
:1013A0002A95EAF780959281892382830895E8E956
:1013B000F1E09191891303C0DF0111971C9291E034
:1013C000EE39F907B1F7089590911A019923C1F008
:1013D00090918B0297FF14C0E82FE695E695E6956D
:1013E000EE31F8F4F0E0EA56FE4F877021E030E08D
:1013F00001C0220F8A95EAF78281822B82830895A9
:10140000A8E9B1E0EFEF90E02D91821751F0EF3FA6
:1014100019F4211101C0E92F9F5F9630A9F7EF3F22
:1014200009F408950E2E000CFF0BEA56FE4FE6CF8E
:1014300080910C029091DB01981301C008958F5F99
:101440008770FACF2FE0929F800D1124982F97700C
:1014500086958695869523E0829FF0011124E954B4
:10146000FE4F50E040E080E0219130E0092E02C0C4
:10147000369527950A94E2F721703327042E01C090
:10148000220F0A94EAF7822B4F5F5F4F43305105DA
:1014900059F708952FE0929F800D1124982F97708F
:1014A00041E001C0440F9A95EAF7869586958695A6
:1014B00093E0899FF0011124E954FE4F90E080E011
:1014C00070E05191DF0111979B01082E02C0369503
:1014D00027950A94E2F721702195252724232527B3
:1014E0002C9301968330910561F7089590E080E098
:1014F0000E94730590E080E00E945D0510920F024B
:1015000010920E020E94740986E0E0E4F2E0DF012E
:101510001D928A95E9F710923A02109239021092C0
:101520003B020C9447068093C2020C94760A809189
:10153000C202982F9670963019F488600C94930A22
:10154000877FFCCF21E030E001C0220F8A95EAF7C7
:1015500020958091C20282230C94930A90910D02EF
:101560008095892380930D02282F277091F4282FCE
:10157000082E000C330B9217130659F090918C0231
:1015800092FD07C08595859585950E94A20A1092C7
:101590000D02089521E030E001C0220F8A95EAF79C
:1015A0008091C202822B0C94930A809312020C94B5
:1015B000760A882321F00E946D090C94740908951D
:1015C000882339F090911002982B909310020C947C
:1015D00074090895882309F452C0823871F40E9476
:1015E000890581FF4CC089E30E94E4090E947409C7
:1015F00089E30E94B9090C947409833859F40E9454
:10160000890580FF3CC083E50E94E4090E947409BB
:1016100083E5EFCF843859F40E94890582FF2FC0FB
:1016200087E40E94E4090E94740987E4E2CF9CEFFA
:10163000980F913AF0F290E2980F983050F487703A
:1016400091E001C0990F8A95EAF7892F0E946D09F0
:10165000D2CF9BE5980F933020F490E080E00C947B
:10166000730598E5980F973120F490E080E00C9492
:101670005D05803F20F00E946E060C944706089599
:1016800080938D0270938F0260938E028091B502D9
:101690008430F9F48093E9008FEF9091E800815055
:1016A00095FD06C095ED9A95F1F700008111F5CFF3
:1016B0008091E80085FF0DC050E040E063E070E0FD
:1016C0008DE892E00E94F3038091E8008E7780938A
:1016D000E8000895BC0184E00C94400BBC0183E059
:1016E0000C94400B9C0184E08093E9009FEF809173
:1016F000E800915085FD06C085ED8A95F1F7000060
:101700009111F5CF8091E80085FF0CC050E040E0DA
:1017100066E070E0C9010E94F3038091E8008E77D3
:101720008093E8000895CF93DF93EC0180911A0134
:101730008823B1F180918B0287FF32C060E284E0A0
:101740008093E9008FEF9091E800815095FD06C0ED
:1017500095ED9A95F1F700008111F5CF8091E800A1
:1017600085FF1BC080911A0170E050E040E08111BC
:1017700004C050E040E068E070E0CE010E94F30356
:101780008091E8008E778093E80080E2FE01A3E973
:10179000B2E001900D928A95E1F7DF91CF91089523
:1017A00068E081E0CDCF80917B0280FD0AC0E1E559
:1017B000F2E0118210821282339652E0EB37F50785
:1017C000C1F7879A31B33F7721B320684FB7F894B8
:1017D00081E592E0FC015191CF0168E021BB00005E
:1017E00000C057FF31BB550F000000C000C000C053
:1017F00031BB00C06A9591F7F2E08B379F0751F734
:101800004FBF8FE594E00197F1F700C00000089505
:10181000EF92FF920F931F93CF93DF938C01C1E55B
:10182000D2E0F12CE12CF801948160917D0280914D
:101830007C02F7E0EF16F10414F5992311F14091C1
:101840007E02473908F046E99E010E94B1052FEF5C
:10185000E21AF20A23968EE0E816F10421F70E94BC
:10186000D30BF801848190E00196817099278483DD
:10187000DF91CF911F910F91FF90EF9008959923E1
:10188000F1F29E0140E0E1CF8F929F92AF92BF9222
:10189000CF92DF92EF92FF920F931F93CF93DF933C
:1018A000EC014C81042F10E09801D8010E946E27B2
:1018B0009B01AC010E9484274B015C01E0E2F0E057
:1018C000E01BF10BA5E5B0E0AC019B010E94842771
:1018D0006B017C019F01DF010E9466279B01AC0127
:1018E0000E948F279B01AC01280D391D4A1D5B1DED
:1018F000C701B6010E943727F22E822F90E039E20D
:101900003F1508F43EC043E0249F90011124359513
:101910002795122F109591E5C92E92E0D92E00E05F
:1019200085E5E82EEF188E2D01FD8F2D412F1739FB
:1019300008F046E9960160917D020E94B1050F5FB3
:1019400053E0C50ED11C0E3071F70E94D30B9C8161
:1019500081E0992319F0903219F48FEF80931901E7
:1019600080911901890F8C83DF91CF911F910F9185
:10197000FF90EF90DF90CF90BF90AF909F908F90AF
:10198000089525E530E0A901481B590BCA019A01C9
:10199000220F331F280F391F37FFB9CF2F5F3F4F5B
:1019A000B6CF0F931F93CF93DF93C1E5D2E0FE0133
:1019B000118210821282339682E0EB37F807C1F76A
:1019C00010E000E080914F02082E000C990B0817E0
:1019D0001907A4F180911801082E000C990B8017AB
:1019E000910764F140917E02473908F046E99E0173
:1019F00060917D0280917C020E94B1050F5F1F4FB4
:101A000023960E301105F1F60E94D30B8091170139
:101A100090914F02980F90934F0220911801280F38
:101A200020931801121614F49D301CF081958093B8
:101A30001701DF91CF911F910F910895198218829C
:101A40001A82DCCFBF92CF92DF92EF92FF920F9378
:101A50001F93CF93DF93FC018281DD24DA9480FD14
:101A600002C0DD24D39401E512E0D0E0C0E02EE016
:101A7000B22EF80111821082128294E0E92EF12C2C
:101A8000C12C80914E028C0D8F300CF440C06B2D18
:101A90000E940127892F082E000C990B8C179D0797
:101AA000A9F480917E028E9DA0018F9D500D11247E
:101AB0005595479555954795473908F046E998015A
:101AC00060917D0280917C020E94B105CD0CF1E015
:101AD000EF1AF108B1F621960D5F1F4FCE30D105F8
:101AE00041F60E94D30B80914E0291E0D91215C0AD
:101AF000811111C08DE080934E02DF91CF911F9133
:101B00000F91FF90EF90DF90CF90BF90089587FFE7
:101B1000C2CF825FC0CF8150EECF90E00196BE0170
:101B20000E942327E8CFEF92FF921F93CF93DF937A
:101B3000EC0181E5E82E82E0F82E10E040917E0273
:101B4000473908F046E98C81970160917D02810F49
:101B50000E94B1051E5E83E0E80EF11C1C3F71F788
:101B60000E94D30B9A818C8190FF08C08F5F8C8379
:101B7000DF91CF911F91FF90EF9008958150F7CFA3
:101B800090917B0290FF0CC0E1E5F2E081836083DD
:101B90004283339692E0EB37F907C1F70C94D30BED
:101BA00008950F931F93CF93DF9300D00F92CDB77B
:101BB000DEB78C018091500281110AC09E012F5F17
:101BC0003F4F46E96FEF0E94B1058A818093500232
:101BD000F8016481613069F08091500240E0662331
:101BE00061F040E0623011F44091500280E060E02A
:101BF00004C06091500240E080E00E94C00DF801F6
:101C0000848190E0019663E070E00E942327848342
:101C10000F900F900F90DF91CF911F910F9108952A
:101C2000CF93DF9300D00F92CDB7DEB790917B02B8
:101C300090FF0DC0473908F046E99E012F5F3F4FE6
:101C40000E94B1054B8169818A810E94C00D0F906D
:101C50000F900F90DF91CF910895CF93DF93EC0118
:101C6000EBE7F2E0438162818C810E94100E8C814F
:101C70008F5F8C83DF91CF910895CF93C82F8823F6
:101C800009F4AEC08238C1F40E94890581FDA8C064
:101C900089E30E94E4090E9474092FEF81EE94E029
:101CA000215080409040E1F700C0000089E30E948D
:101CB000B909CF910C9474098338A1F40E94890565
:101CC00080FD8EC083E50E94E4090E9474092FEF15
:101CD00081EE94E0215080409040E1F700C0000088
:101CE00083E5E5CF8438A1F40E94890582FD78C0A0
:101CF00087E40E94E4090E9474092FEF81EE94E0CA
:101D0000215080409040E1F700C0000087E4CFCF31
:101D10008CEF8C0F813A88F580911A01882301F1AC
:101D200080918B0287FF1CC0EC2FE695E695E69527
:101D3000F0E0EA56FE4F828190E04C2F477021E0A0
:101D400030E002C0220F331F4A95E2F7822393232B
:101D5000892B79F08C2F0E94B9090E94740909C05F
:101D6000E8E9F1E08191C817A9F321E0EE39F20723
:101D7000C9F78C2F0E94E4099CCF80E28C0F883039
:101D800068F4C77021E030E001C0220FCA95EAF77D
:101D900080911002822B809310028BCFEBE5EC0F29
:101DA000E33040F4F0E0E55EFE4F808190E0CF91BB
:101DB0000C947305E8E5EC0FE73150F4F0E0EE0F1A
:101DC000FF1FE25EFE4F80819181CF910C945D05F3
:101DD000C03F30F08C2F0E942907CF910C9447060A
:101DE000CF9108951F93CF93DF93182FD0E0C0E0D9
:101DF000893311F4C0E5D0E0812F0E943D0E209779
:101E000031F4812FDF91CF911F910C94EA0A8FE971
:101E10009FE00197F1F700C000002197F0CF0F93EA
:101E20001F93CF93DF93C62FD42F022FFC01828103
:101E30008823A1F06093C1020E9451059093C002D3
:101E40008093BF02C77081E001C0880FCA95EAF78E
:101E5000DF91CF911F910F910C94E00A8091C10204
:101E6000681335C08091BF029091C0020E94420564
:101E7000883C910560F510E21D0FCD17B9F080E2A6
:101E80008C0F883040F4C77081E001C0880FCA957C
:101E9000EAF70E94D90A183048F481E09D2F977024
:101EA00001C0880F9A95EAF70E94E00A802F0E94ED
:101EB000F20E183098F4D77081E001C0880FDA95DF
:101EC000EAF7DF91CF911F910F910C94D90AC77057
:101ED00081E001C0880FCA95EAF7F3CFDF91CF9177
:101EE0001F910F910895CF93DF93CFE7D2E060E089
:101EF000CE010E94B7272196C11584E0D807B9F713
:101F0000DF91CF9108956F927F928F929F92AF92BF
:101F1000BF92CF92DF92EF92FF920F931F93CF93D6
:101F2000DF9381EDC82E83E0D82E9BEDE92EF12CB6
:101F3000E701C659D10936011BC0F501859094907F
:101F4000692DC8010E94B727682DC80101960E941B
:101F5000B72782E0A80EB11C0E5F1F4FC017D10734
:101F600061F78EE1680E711C6E96CE15DF0529F0C3
:101F70008E010E5111095301E0CF7E0186E9E80E72
:101F8000F11C86E9C80ED11C83E3E81683E0F8064D
:101F900079F6DF91CF911F910F91FF90EF90DF9035
:101FA000CF90BF90AF909F908F907F906F9008954B
:101FB000CF93C82F6FEF811162E283E290E00E941D
:101FC000B7276FEFC11167E084E290E00E94B72766
:101FD0006FEFC11163E185E290E0CF910C94B727D8
:101FE00080E00E94D80F60E086E290E00E94B72770
:101FF0000E94830F0E94730F81E00C94D80FCF933F
:10200000C0918C02C2FB992790F9981799F080FB38
:10201000C2F9C0938C0260918B0284E090E00E9430
:10202000B7276C2F82E290E00E94B72782E0CF9121
:102030000C94AE0ACF9108950F931F93CF93DF9323
:10204000C42FD0E0CC0FDD1F2EE1629FC00DD11D4B
:10205000112436E9839FC00DD11D1124CE0187962E
:102060000E94A327082F10E0102F0027CE0188968A
:102070000E94A3279801282BC901DF91CF911F91BE
:102080000F910895462F843038F4753028F46F305E
:1020900018F4672F0C941C1090E080E00895CF9204
:1020A000DF92FF920F931F93CF93DF936C01009108
:1020B000C20280911202082BC7E0D0E010E0FC2E93
:1020C000C8010C2E02C0959587950A94E2F780FD11
:1020D0000CC02197A0F7F12C8F2DDF91CF911F918C
:1020E0000F91FF90DF90CF900895B6018C2F0E9442
:1020F00042100E94DF07019761F3EECFCF93DF9389
:10210000EC010E944F10BE010E944210DF91CF915E
:102110000C94DF07FC01808191810E947E10292FA1
:102120002F7092959F7092509E3078F4E92FF0E0D6
:10213000E05BF44D0C945927803F19F020F4883E61
:1021400020F481E00895843FE1F380E00895883E23
:10215000C0F3813FD1F7F5CF822F8695869586957E
:10216000089583E290E00E94A327823289F484E2FA
:1021700090E00E94A327873059F485E290E00E9406
:10218000A32791E0833109F090E0892F81700895B1
:1021900080E0FCCFCF9384E090E00E94A327C82F7B
:1021A00082E290E00E94A327982F8C2FCF91089570
:1021B000CF93DF93EC016C8170E090E080E00E94AF
:1021C000352920E030E04FE753E40E9458282BEDFA
:1021D0003FE049E450E40E945E2A0E94CB2A0E941C
:1021E000D2282BE43AE34EE25FE30E94EB2720EF94
:1021F0003BEF48ED52E40E945E2A0E940429462FDC
:10220000EBE7F2E0628181810E94100E8C818F5F8A
:102210008C83DF91CF91089560917B02669570E089
:102220004BE050E08CE091E00E94342B892B19F4B4
:1022300081E080934D020E94510590934702809364
:1022400046020895CF92DF92EF92FF926B017C01DC
:102250000E949B05B701A60188E090E0FF90EF90F7
:10226000DF90CF900C94C9275F926F927F928F92EC
:102270009F92AF92BF92CF92DF92EF92FF920F9315
:102280001F93CF93DF9300D00F92CDB7DEB7082F07
:10229000762E142F622E90917B0290FF2DC0E92F95
:1022A000E695AE2FB0E0A05ABE4F8C9180934C02C1
:1022B0009E7F9230A1F5473908F046E99E012F5FD5
:1022C0003F4F672D802F0E94B1054B8169818A8124
:1022D0000E94C00D00937C0270927D0210937E02DA
:1022E000662051F060917B0270917C0280917D02AA
:1022F00090917E020E9422110F900F900F90DF911B
:10230000CF911F910F91FF90EF90DF90CF90BF90F2
:10231000AF909F908F907F906F905F9008958230E4
:1023200019F410917E02D6CF863019F400917C0208
:10233000D1CF8930D9F3893169F6E9518E2F817077
:10234000582EE695F0E0E453FC4FA590B490BB24E2
:1023500081E5E82E82E0F82ED12CC12C9EE0892E5A
:10236000912CC601B4010E940F27802F511016C076
:10237000860F412F173908F046E99701672D0E9413
:10238000B105CA0CDB1C83E0E80EF11C8BE7E816F4
:1023900082E0F80631F70E94D30B9CCF861BE9CF71
:1023A000EBE7F2E0438128E0421B08F440E021E043
:1023B000628181810C943411EBE7F2E0438128E0E3
:1023C000420F08F44FEF21E0628181810C943411B7
:1023D000EBE7F2E0628128E0621B08F460E021E0B4
:1023E000438181810C943411EBE7F2E0628128E0B3
:1023F000620F08F46FEF21E0438181810C94341166
:10240000EBE7F2E0818121E04381628188500C9406
:102410003411EBE7F2E0818121E043816281885F42
:102420000C94341180917F02882319F0815080939D
:102430007F0260917B0270917C0280917D0290917D
:102440007E020C94221180917F02833018F48F5FFA
:1024500080937F0260917B0270917C0280917D026B
:1024600090917E020C94221190917B0290FF36C0D5
:102470009170811129C0926090937B02662351F084
:1024800060917B0270917C0280917D0290917E022E
:102490000E94221160917B02669570E04BE050E053
:1024A0008CE091E00E94342B892BA9F010924D0210
:1024B00081E08093490220E040917E0260917D029C
:1024C00080917C020C943411853210F09864D4CF42
:1024D000880F982BD1CF0E940C11EACF08958091DC
:1024E0007B028695815009F484E261E00C943412F9
:1024F00080917B0286958F5F853208F081E061E0F4
:102500000C94341290917B0290FF07C09695981717
:1025100020F0961710F40C94781261E00C943412A9
:10252000EBE7F2E083E0808311828FEF828386E91C
:102530008383148260817181828193810C94221142
:102540001092100280911A01E8E9F1E0882359F015
:1025500080918B0287FF07C08EE1DF011D928A9573
:10256000E9F70C94760A86E0F8CF1F93CF93DF93B8
:10257000CDB7DEB7AA970FB6F894DEBF0FBECDBFBA
:1025800087EB92E02091F100DC012D93CD01B2E0C8
:102590008F3B9B07B9F78091B802833009F472C072
:1025A000B8F4813009F449C0823009F4B3C0809195
:1025B000E80083FF8BC28091B7029091B8029A30F5
:1025C00008F084C2E92FF0E0E25AF44D0C94592748
:1025D0008A3009F48EC08B3009F471C0893039F724
:1025E0008091B702813219F78091BB029091BC02B1
:1025F000009711F00297D9F68091E800877F8093C9
:10260000E8008091E80082FF38C09091F30080914B
:10261000F200029731F48091F100813011F08630A0
:1026200021F48091F100809392028091E8008B77F1
:102630008093E8000E941D04BACF8091B702813ACE
:1026400009F0B5CF8091E800877F8093E800809102
:10265000BB029091BC02892B61F460E283E992E0B5
:1026600070E00E94CF048091E8008B778093E800AF
:102670009ECF60E090E080E0F3CF8091B5028111C1
:10268000C0CF95CF8091B702813A09F090CF809169
:10269000BB029091BC02892B09F089CF8091E800A0
:1026A000877F8093E8008091E80080FFFCCF8091D5
:1026B0001A018093F1008091E8008E77B9CF809164
:1026C000B702813209F073CF8091BB029091BC02B6
:1026D000892B09F06CCF8091E800877F8093E80018
:1026E0000E941D048091B90280931A010E94A012D9
:1026F0005ECF8091B702813209F059CF8091E80016
:10270000877F8093E8000E941D048091BA02809325
:1027100091024DCF8091B702813A09F048CF809164
:10272000E800877F8093E8008091E80080FFFCCF7D
:1027300080919102BECF803899F0823809F0C6C1ED
:102740008091BB028F70873008F0C0C18093E90090
:102750008091EB0085FB882780F91092E90006C084
:102760008091B3029091B402911182609091E8003F
:10277000977F9093E8008093F1001092F100809190
:10278000E8008E779FC1882309F48DC1823009F05B
:102790009DC18091B902811190C18091BB028F705F
:1027A0002FEF280F263008F091C18093E900209187
:1027B000EB0020FF82C1933031F48091EB00806206
:1027C0008093EB007AC19091EB0090619093EB00C5
:1027D00021E030E001C0220F8A95EAF72093EA0059
:1027E0001092EA008091EB008860EACF81116EC1FF
:1027F0001091B9021F778091E3008078812B80933C
:10280000E3008091E800877F8093E8000E941D0428
:102810008091E80080FFFCCF8091E3008068809386
:10282000E30082E0111183E08093B5024FC180582C
:10283000823008F04BC12091B9023091BA022C3D90
:10284000E3E03E07A1F583E08A838AE289834FB7FC
:10285000F894DE01139620E03EE051E2E32FF0E031
:1028600050935700E49120FF03C0E295EF703F5F63
:10287000EF708E2F90E0EA30C0F0C7968D939D9355
:102880002F5F243159F74FBF8091E800877F8093F5
:10289000E8006AE270E0CE0101960E94CF048091C8
:1028A000E8008B778093E80011C1C096E7CF809154
:1028B000BB029091BC02432F55274330510509F4C8
:1028C0004AC078F54130510509F47AC08BE590E0B3
:1028D000E9E2F6E04230510509F0F8C02091E80045
:1028E000277F2093E8002091BD023091BE0282171D
:1028F000930708F49C0140E02115310509F065C0FB
:10290000411163C08091E80082FDC9CF8091B5027A
:10291000882329F2853019F28091E80083FFF2CFF5
:10292000BECF4132510509F43CC04232510509F095
:10293000CDC08330910508F0C9C0FC01EE0FFF1F28
:10294000E857FE4F0190F081E02D8B579E4FDC0140
:102950008C9190E01AC0332721303105D1F0211538
:10296000310561F02230310509F0B0C0E6E9F6E04A
:10297000E4918E2F90E0E6E9F6E007C0E0EBF6E0A8
:10298000E4918E2F90E0E0EBF6E0009709F49EC012
:10299000A5CFE4EAF6E0E4918E2F90E0E4EAF6E0D9
:1029A000F4CF8330910508F091C0880F991FFC0186
:1029B000E257FE4F0190F081E02D89E090E08ECF4C
:1029C00082E190E0E4E8F6E089CF8091B5028823C7
:1029D00009F465CF853009F462CF8091E80083FD6A
:1029E0005ECF8091E80082FD8DCF8091E80080FF6E
:1029F00083CF9091F3008091F2002115310519F0F9
:102A00008830910550F041E0089709F040E080914E
:102A1000E8008E778093E8006FCF44914093F100F7
:102A20003196215031090196E8CF803809F04EC027
:102A30008091E800877F8093E8008091B6028093C0
:102A4000F1009DCE811142C01091B9021230F0F513
:102A50008091E800877F8093E8001093B6020E947F
:102A60001D04112311F084E005C08091E30087FD6F
:102A7000FACF81E08093B50242E061EC81E00E94F0
:102A80003C0442E261EC84E00E943C0442E261ECDE
:102A900082E00E943C0442E260EC83E00E943C043D
:102AA0008091B50213C08091B902813079F481E040
:102AB000933009F080E08093B4021092E900809195
:102AC000E800877F8093E8000E941D048091E80061
:102AD00083FF0AC08091E800877F8093E80080919F
:102AE000EB0080628093EB00AA960FB6F894DEBFED
:102AF0000FBECDBFDF91CF911F91089569EE7EEF9C
:102B000090E080E00E94D52760E082E090E00E94A3
:102B1000B72760E083E090E00E94B727109212028E
:102B200060E084E090E00E94B72760E082E290E0FD
:102B30000E94B72760E085E090E00E94B72760E040
:102B400086E090E00E94B7276FEF87E090E00E9458
:102B5000B72740E050E0BA0188E090E00E94C92722
:102B600060E08DE090E00E94B72740E050E0BA01BD
:102B700088E190E00E94C92760E087E190E00E9430
:102B8000B72740E050E0BA018CE190E00E94C927ED
:102B900070E060E080E290E00E94D52740E050E0E5
:102BA000BA0188E190E00E94C92780E00E94D80F16
:102BB0000E94F00F40E050E0BA018FE090E00E94E8
:102BC000C92740E050E0BA0183E190E00C94C927A6
:102BD0003F924F925F926F927F928F929F92AF92AD
:102BE000BF92CF92DF92EF92FF920F931F93CF93FA
:102BF000DF9300D000D00F92CDB7DEB78C01FC017F
:102C000083819481892B31F08081918189238F3F49
:102C100009F0A7C50F900F900F900F900F90DF91C4
:102C2000CF911F910F91FF90EF90DF90CF90BF90C9
:102C3000AF909F908F907F906F905F904F903F905C
:102C400008950E944F10F82E682F89819A810E9462
:102C50004A0A69817A818F2D0E9442107C01F80115
:102C60008281882309F470C5970122513F452031A4
:102C7000310508F03CC58FEF93E00E94A327FEEEDC
:102C8000EF0E5FE7852E52E0952E8823A1F180910B
:102C90000D02877009F4BECFF8018281882309F400
:102CA000B9CF80918C0282FDB5CF82E00F900F905A
:102CB0000F900F900F90DF91CF911F910F91FF9088
:102CC000EF90DF90CF90BF90AF909F908F907F90CC
:102CD0006F905F904F903F900C94AE0A811424E067
:102CE0009206A9F2C4010E94A327811101C0EA94AF
:102CF0003FEF831A930AE110F1CF1C821B82442418
:102D000043944AE0342E74018FEFE81AF80AC401A4
:102D10000E94A32789831A82882309F4B8CF9FEFE2
:102D2000980F933000F58A83498292E0890E911CB6
:102D3000C7010E94A3278B83882309F4A8CFFE0133
:102D400031967F01F70120812223E9F2213009F039
:102D500049C091818281913041F4F2E0EF0EF11C83
:102D60000E94F20E09C04701EACF923049F422E0F6
:102D7000E20EF11C0E943D0E3FEFE31AF30AE2CF90
:102D8000933031F432E0E30EF11C0E94EA0AF4CFF2
:102D9000943021F08FEFE81AF80AEECF92E0E90EB6
:102DA000F11C30E020E0B7016F5F7F4FF7014181F8
:102DB0008053990B8A30910550F021503109E0F28F
:102DC0008FE99FE00197F1F700C00000F6CF329E37
:102DD000F001339EF00D11249C012E0F3F1F842F14
:102DE0007B01E1CFE22FF0E0E65CFD4F5490822FB3
:102DF00086958695869590E0FC01E65DFD4F649092
:102E00002770712C022E02C0759467940A94E2F721
:102E1000E1E06E227724FC01E65EFD4FA490B12C28
:102E2000022E02C0B594A7940A94E2F7F1E0AF2213
:102E3000BB24FC01E65FFD4FC490D12C02C0D594A9
:102E4000C7942A95E2F721E0C222DD2461147104BF
:102E500019F081EE0E943D0EA114B10419F086EE26
:102E60000E943D0E852D0E94F20EAB2819F086EED1
:102E70000E94EA0A672819F081EE0E94EA0ACD282A
:102E800009F47ACF8CE26CCF81E00E94CA0A0E94DA
:102E9000970AFDCE81E00E94A20AF9CF82E0F5CF29
:102EA00095EFE9169CE5F90609F46AC008F464C0D8
:102EB00027E245EE66EEF6EFEF16FCE5FF0609F4B5
:102EC0003FC4882309F45EC41092C10223E0E216D5
:102ED0002DE5F20608F05BC03AEFE3163CE5F30699
:102EE00030F4C70182509C45449708F056C00E94B8
:102EF000CA1090938C0280938B0290E1E9169CE5B6
:102F0000F90609F431C108F0A3C0F8E0EF16FCE5BA
:102F1000FF0609F41BC108F06CC034E0E3163CE581
:102F2000F30609F405C108F04EC092E0E9169CE5ED
:102F3000F90609F4F7C080918B028260E3E0EE1697
:102F4000ECE5FE0609F4F1C060918B02F0908C0272
:102F500084E090E00E94B7276F2D82E290E00E940B
:102F6000B7270E94A01293CE27E245EE65EEE8C394
:102F700026E241EE60EEE4C327E245EE64EEE0C3F4
:102F800026E241EE62EEDCC328E241E0EFCF81E6CB
:102F9000E8168DE5F80609F4AACF80911002F6E153
:102FA000EF16FCE5FF0609F0FAC38A7A91E009F40E
:102FB00090E09093B6018111FCC089E20E94E4097F
:102FC0000E94740964CE80918B028061F6E0EF1656
:102FD000FCE5FF0609F4A9C080918B02886027E018
:102FE000E2162CE5F20608F4A0C080918B02806204
:102FF0009CC080918B028D7F3CE0E3163CE5F3069C
:1030000009F493C078F480918B028C609AE0E91601
:103010009CE5F90609F489C008F49CC080918B02F4
:103020008E7F83C080918B02877FFEE0EF16FCE5E8
:10303000FF0609F47AC080918B028B7F2FE0E216A5
:103040002CE5F20608F471C080918B028F7E6DC072
:103050003CEFE3163CE5F30609F482C0A0F594E1E9
:10306000E9169CE5F90609F493C098F4F2E1EF162D
:10307000FCE5FF0609F47CC080918B028F7B23E185
:10308000E2162CE5F20608F450C080918B02837F93
:103090004CC03AEFE3163CE5F30609F44DC008F0E6
:1030A00051C095E1E9169CE5F90609F04DCF8091F4
:1030B0008B0282FB992790F921E0922790FB82F9FD
:1030C00090FB83F932C0E114EDE5FE0609F456C029
:1030D000A0F480918C0283602EEFE2162CE5F206BC
:1030E00071F180918C028D7F3FEFE3163CE5F30692
:1030F00030F180918C028C7F22C082E0E8168DE551
:10310000F80609F454C008F44CC0E1E6EE16EDE50B
:10311000FE0609F019CF90918B02892F8F7E94FFC4
:10312000806103C080918B02816080938B020CCF01
:1031300080918B028460F9CF80918C0281608093B2
:103140008C0202CF80918C028260F9CF80918B0239
:103150008064EBCF0E94A01280918B028068E5CF43
:1031600080918C028E7FEBCF80918B028F7DDDCFA3
:103170000E94A01280918B028F77D7CF80918C0212
:10318000982F909591708E7F892B90FB81F9D7CFE6
:103190000E94A01290918B02892F97FB87F980588B
:1031A000C4CF61E08EE090E00E94B727CDCE60E012
:1031B000F9CF85E303CF85E3EFC280917B0280FFE7
:1031C0001BC08E7F80937B0260917B0270917C029A
:1031D00080917D0290917E020E94221110924D02F8
:1031E0002FEF30E782E0215030408040E1F700C00F
:1031F00000000E94D30B4BCD816080937B0261E085
:1032000086950E94341243CD4FE652E168E772E1A1
:103210000E9495053CCD48E752E16FE672E1F8CF98
:1032200049E052E160E072E1F3CF48EE51E164EF32
:1032300071E1EECF40ED51E16CED71E1E9CF4CED84
:1032400051E160ED71E1E4CF43E252E162E172E10C
:10325000DFCF61E081E0D5CF65E082E00E9482129D
:1032600016CD68E086E0FACF64E18FE0F7CF67E142
:1032700085E1F4CF62E289E1F1CF61E083E2C1CF81
:103280003BE5E3163DE5F30611F18CE5E8168DE527
:10329000F80609F0B6C280918C0282FB882780F97B
:1032A00091E089270E94FF0FACC20E94A0129FEFFD
:1032B000E4E3FCE09150E040F040E1F700C00000A2
:1032C0000E9431050E947E15E2CC81E0EBCF80E0C8
:1032D000E9CFC7010E94220AD82EA2C22F2D2F703B
:1032E000C22E8F2D807F19F0C29490EFC922DD206D
:1032F000B9F0CC2069F080E28E0D883010F081109A
:1033000009C080911002C82AC09210020E9474095C
:103310008E2D4DC080910F02C82AC0920F02F6CFA9
:103320008E2D0E94EA0ACC2009F443C080E28E0D63
:10333000883010F0811004C08C2D0E946D0906C0E9
:10334000C09480910F02C822C0920F020E9474099B
:1033500030C03F2D3F70C32E8F2D807F803219F0FB
:10336000C29480EFC822882089F081E0881609F491
:103370007FC0DD2009F489C0BB2009F47FC0F801BB
:10338000858180FFC5CF8F70858378C020918C02A6
:1033900022FF4BC0DD2009F442C0CC2039F08091DF
:1033A0001002C82AC09210020E94740980E00E9494
:1033B0003D0E292D2850330B2430310510F40E9486
:1033C0008905AA2009F426CC80910D0280FD22CC2B
:1033D000F80112828595859585950E94CA0AC801D3
:1033E0000E94E81580910D028595859585950F9031
:1033F0000F900F900F900F90DF91CF911F910F9131
:10340000FF90EF90DF90CF90BF90AF909F908F9004
:103410007F906F905F904F903F900C94A20A80E055
:103420000E94EA0ACC2029F287CFDD20A1F09091FA
:1034300011028C2D892BB11003C00E94E00AB9CF74
:10344000E1E0BE12FACF22FDB4CF981709F4B1CF54
:1034500080931102AECFB11006C00E9467098C2D77
:103460000E94D90AA6CFF1E0BF1609F4A2CFF5CF8A
:10347000DD2031F025E02B1508F49BCF8C2DDDCF1E
:1034800034E03B1508F495CFEACFBB2041F3F9E3D4
:103490008F1209C02FEF37EE83E02150304080407B
:1034A000E1F700C000008E2D0E94EA0A82CF8F2D26
:1034B00086958695837061F0813009F07ACFC701D7
:1034C0009370D11002C090E080E00E945D0571CF42
:1034D000C7019370D11002C090E080E00E94730594
:1034E00068CF8E2DDD2029F00E9429070E94470613
:1034F00060CF0E946E06FACF8F2D837091F5D110A8
:1035000058CF4E2D429546954770440F440F8E2D4F
:103510008F70042E01C0880F0A94EAF72E2D2071B7
:10352000E4FE07C02FE030E001C0220F4A95EAF721
:1035300020953F2D369536953370323069F050F432
:1035400040911202313029F0822B84230E94D50A47
:1035500030CF842B822BFACF282B80911202822726
:10356000F5CF8695DD2011F08F2D8170882309F429
:1035700020CF4E2D429546954770440F440F8E2D17
:103580008F70042E01C0880F0A94EAF72E2D207147
:10359000E4FE07C02FE030E001C0220F4A95EAF7B1
:1035A00020953F2D369536953370323069F050F4C2
:1035B0004091C202313029F0822B84230E94930A69
:1035C000F8CE842B822BFACF282B8091C20282273F
:1035D000F5CF9F2D9F70F92EDD2029F0892F0E94B5
:1035E000CA0A8E2D2ACF8E2D0E94D90A8F2D0E94B5
:1035F000A20ADFCE8E2DE2EF8E16B1F1E81570F043
:10360000F0EF8F16D1F021EF821691F0DD2009F452
:103610005EC0B1107DCE8F2D8F712AC033EF83161F
:1036200051F194EF8912F2CF80918C0282FF2FC06A
:103630008F2D8F71DD20D9F21BC0DD2081F0E4E0F9
:10364000EB1508F4B6CE2F2D2F7181E090E001C06C
:10365000880F2A95EAF79091C2028927AFCFF5E04B
:10366000FB1508F4A6CEEFCF8F2D8F71D110BFCFF1
:103670000E94CA0A9ECE80E0DD2009F49FCF9F2DD4
:103680009F7181E001C0880F9A95EAF797CFDD20FE
:1036900099F02F2D2F71F22E822F0E94CA0A80914D
:1036A0008C0282FD07C038E0F39EC00111248360C4
:1036B00080930D028F2DDCCF81E00E94AE0A81E065
:1036C0008B1508F076CE82E00E94AE0A72CEBB2047
:1036D00059F0893309F0E7CE9FEFE7EEF3E0915020
:1036E000E040F040E1F7DDCE8F2D8F7180CFF0E12B
:1036F000EF16FFE5FF0609F4C7CB21E1E2162FE53F
:10370000F20609F4CBCB93EFE9169CE5F90609F430
:103710002FCC08F0C5CBF8EDEF16FCE5FF0609F459
:1037200023CC29EDE2162CE5F20609F42DCC37ED79
:10373000E3163CE5F30609F0C4CB26E241EE61EE68
:10374000C8010E940F0FA3CA30E1E3163FE5F3065C
:1037500009F4A0CB91E1E9169FE5F906A1F682E014
:103760009ACB85E0DE01119601900D928A95E1F7E2
:10377000F801228189819A81211163CA0E94220A5B
:10378000F82E67CAF6E1EF16FCE5FF06D1F5809149
:10379000B601811110CD89E20E94B90911CC827263
:1037A0002CECE2162CE5F20609F44ECD08F0ABC085
:1037B00096ECE9169CE5F90609F432CD08F07AC0DA
:1037C000F3ECEF16FCE5FF0609F41ECD08F061C02E
:1037D00032ECE3163CE5F30609F4EFCC9AE5E91682
:1037E0009DE5F90609F471CD08F04ACDE114FCE538
:1037F000FF0609F45ACD2EEDE2162CE5F20609F487
:1038000061CDF8018281E080F180882309F461CDE7
:10381000C7010E944F10D82E682FC7010E944A0A84
:10382000B7018D2D0E9442100E94DF077C01882E77
:10383000F801D280B580B2943FE0B32280910D02AE
:103840008770C1F0AD2CDD20B1F08F2D807F8034EA
:1038500021F080E28E0D883068F080918C0282FD2C
:1038600009C082E00E94AE0A80910D028770AA24EE
:10387000A3948111A12C9F2C92942FE09222FBE023
:10388000F91508F496CDE92DF0E0E859F44D0C94C3
:10389000592794ECE9169CE5F90609F4BCCC40E004
:1038A00052E169E072E1E5ECEE16ECE5FE0609F4A2
:1038B000AFCC94CFF9ECEF16FCE5FF0609F4BACCD7
:1038C00088F437ECE3163CE5F30609F4AECC44EF9C
:1038D00051E168EE71E198ECE9169CE5F90609F40E
:1038E00097CC7CCFEAECEE16ECE5FE0609F4A7CC0B
:1038F00042E152E163E272E1FBECEF16FCE5FF0608
:1039000009F486CC6BCF21EDE2162CE5F20609F422
:10391000ABCCB8F48EECE8168CE5F80609F49CCC38
:1039200008F497CCEFECEE16ECE5FE0609F499CC22
:103930006EE089E0F0EDEF16FCE5FF0609F48ECCB1
:103940004DCF24EDE2162CE5F20609F493CC78F481
:1039500082EDE8168CE5F80609F489CC61E088E18F
:1039600093EDE9169CE5F90609F44BCC37CFE5ED6C
:10397000EE16ECE5FE0609F480CCFDE5EF16FF0639
:1039800009F485C92BCF1F93CF93DF938091DA0180
:10399000807FA9F48091D701882389F080910C025F
:1039A000D091DB016091D5017091D601A091D80131
:1039B000B091D901C62FC72316E0D81304C0DF91F8
:1039C000CF911F91089590E0109711F0CF3F19F417
:1039D00001968770F2CF189F9001199F300D112426
:1039E000F901E452FE4F41814713F2CF4081461363
:1039F000EFCF42814111ECCF438154814A1B5B0BD5
:103A0000483C510528F78091DA018F7080618093DE
:103A1000DA01F901EF51FE4F80818F708061808360
:103A200085ED91E00E94E815DF91CF911F910C94F4
:103A3000180AAF92BF92CF92DF92EF92FF920F934C
:103A40001F93CF93DF93CDB7DEB761970FB6F8948E
:103A5000DEBF0FBECDBF8C0185E0F801DE011D96F3
:103A600001900D928A95E1F7F801E28085EDA82E8C
:103A700081E0B82E6091D8017091D901611571056E
:103A800009F432C19091D5014091D601892F842348
:103A90008F3F09F429C120813181C380D480F09007
:103AA000D701F601E61BF70BFF2009F4E8C080916F
:103AB000DA01582F507FE83CF10508F0ABC05111F6
:103AC00077C0FE2C431321C092131FC0E1101DC00C
:103AD0008F7080618093DA01C5010E94E8158091A2
:103AE000DA01F80185838F2D61960FB6F894DEBF59
:103AF0000FBECDBFDF91CF911F910F91FF90EF903F
:103B0000DF90CF90BF90AF900895CD2829F0822FFD
:103B100083238F3F09F003C180E0F82FF170DF2E7F
:103B200080FF3CC080910C024091DB0156E0841381
:103B300015C02D873E878D859E850E947E10292F7A
:103B400022952F702230F0F0243018F59F70F1F09C
:103B5000F8019581907FD1F4D12C1EC090E0589F40
:103B6000F001599FF00D1124E452FE4F618136138C
:103B700006C06081261303C06281E6120FC0019661
:103B80008770D5CF9F7011F0882331F3805E883025
:103B900018F3C8010E94E815FD2CA5CFEE2009F40A
:103BA000A2CF8091DA0181608093DA01F12C9BCF62
:103BB000431306C0921304C0F801EE2009F479C043
:103BC000C8010E948A10882309F1EE20F9F0809143
:103BD000DA01803270F02091D5013091D60138871A
:103BE0002F831986DB86CA868C87CE0107960E94B2
:103BF000E81586E0F801A5EDB1E001900D928A95F7
:103C0000E1F70E94C31CFF24F3946DCFC8010E940A
:103C1000E815F9CF51110AC085ED91E00E94E81531
:103C200086E0F50111928A95E9F7C0CF43130FC0E2
:103C300092130DC0E1100BC0F8018583C8010E94EA
:103C4000E81586E0F50111928A95E9F74CCFC80195
:103C50000E948A108823D1F2EE20C1F28091DA010D
:103C6000803238F22091D5013091D6013A832983F0
:103C70001B82DD82CC828E83CE010196B8CFE83CD8
:103C8000F105F8F6FE2CEE2009F243131FC0921343
:103C90001DC08091DA0180FD10C0982F907F69F0DF
:103CA000F8018583903F31F0982F907F905F8F705F
:103CB000892B8583C8010E94E81586E0F801A5EDEF
:103CC000B1E001900D928A95E1F70DCFC8010E94F5
:103CD0008A1081118ECF8091DA0181608093DA01A0
:103CE000C8010E94E815FFCEEE2009F48FCFC8016D
:103CF0000E948A10F82E882309F488CF86E0F80104
:103D0000A5EDB1E001900D928A95E1F78091D50182
:103D10009091D6010E947E100E94C31CE4CE81E0E7
:103D20008E25FBCE1F93CF93DF93CDB7DEB767977A
:103D30000FB6F894DEBF0FBECDBF4B8B5C8B6D8B87
:103D40007E8B8F8B611110920F021A8A198A85E07F
:103D5000FE017396DE011D9601900D928A95E1F7A2
:103D600086E0FE013D96DE01179601900D928A9540
:103D7000E1F7CE0107960E94191D882389F016E00D
:103D800080910C029091DB01891349C067960FB6B0
:103D9000F894DEBF0FBECDBFDF91CF911F91089584
:103DA00086E0FE013796DE01119601900D928A950C
:103DB000E1F78A859B85892B11F38F81988589236B
:103DC0008F3FE9F22091DB0130E0C9010196877055
:103DD000992740910C024817190671F40E94A0120D
:103DE0001092DB0110920C0286E0E5EDF1E0DF01BC
:103DF0001D928A95E9F7C3CF96E0929FD001939FD9
:103E0000B00D1124A452BE4FFE01319601900D92C7
:103E10009A95E1F78093DB010E94180AB0CF819F49
:103E2000C001112484529E4F0E94191D882309F459
:103E3000ADCF80910C0290E0019687709927809316
:103E40000C029ECF4F925F926F927F928F929F92C1
:103E5000AF92BF92CF92DF92EF92FF920F931F9398
:103E6000CF93DF93CDB7DEB72A970FB6F894DEBFB6
:103E70000FBECDBF8E010F5F1F4F8AE0F801119278
:103E80008A95E9F79CE4E92E91E0F92E680121E595
:103E9000422E21E0522E66246394712C40E6842E3B
:103EA00041E0942EF70181917F018F3F09F445C0D5
:103EB000F894E82FE295EF70F0E021A18F70A30154
:103EC00002C0440F551F8A95E2F7CA01922F982B22
:103ED00091A392A18095892382A3789400C0E1E503
:103EE000F1E021E030E0B12CA12C41914F3F09F4E9
:103EF0007EC0A42FA295AF70B0E090968C9190E018
:103F00004F7002C0959587954A95E2F780FD6FC086
:103F1000C901A82AB92A220F331F8E169F0629F736
:103F2000F701319780818F3F11F00E94850750EA99
:103F30005A95F1F7F601B182A082F2E0CF0ED11CC2
:103F40004E145F0409F0AECF4AE050E0B80186E1BC
:103F500092E00E94412BFF24F394009709F4F12C86
:103F6000892B09F447C08AE0F801A6E1B2E001908C
:103F70000D928A95E1F781E0809315020E94510528
:103F80009093140280931302809113029091140273
:103F90000E944205059790F18091160290911702B8
:103FA0009093300280932F02809118029091190211
:103FB000909332028093310280911A0290911B02F9
:103FC000909334028093330280911C0290911D02E1
:103FD000909336028093350280911E0290911F02C9
:103FE00090933802809337021092150207C090E038
:103FF00080E08FCF809115028111C6CF8F2D2A9638
:104000000FB6F894DEBF0FBECDBFDF91CF911F91E9
:104010000F91FF90EF90DF90CF90BF90AF909F9067
:104020008F907F906F905F904F90089590E080E028
:104030000E94B127893E9E4F11F40C94B11080E08C
:1040400008951F920F920FB60F9211242F933F9352
:104050004F935F936F937F938F939F93AF93BF9390
:10406000CF93DF93EF93FF93D091E900DF708091BE
:10407000EC00C82FC17080FDC0E81092E90080916B
:10408000F000877F8093F00078940E94B512109220
:10409000E9008091F00088608093F000CD2BCF7014
:1040A000C093E900FF91EF91DF91CF91BF91AF9164
:1040B0009F918F917F916F915F914F913F912F9140
:1040C0000F900FBE0F901F9018951F920F920FB672
:1040D0000F9211242F933F934F935F936F937F938E
:1040E0008F939F93AF93BF93EF93FF938091E100E2
:1040F00082FF09C08091E20082FF05C08091E1004B
:104100008B7F8093E1008091DA0080FF24C0809152
:10411000D80080FF20C08091DA008E7F8093DA0083
:104120008091D90080FF9DC080E189BD82E189BD79
:1041300009B400FEFDCF81E08093B502809190022A
:10414000811109C00E94A3030E946E048091E200C5
:1041500084608093E2008091E10080FF17C080912D
:10416000E20080FF13C08091E2008E7F8093E20026
:104170008091E20080618093E2008091D8008062AB
:104180008093D80019BC85E08093B5028091E1004E
:1041900084FF2BC08091E20084FF27C080E189BDAD
:1041A00082E189BD89B5982F917080FFFBCF809106
:1041B000D8008F7D8093D8008091E1008F7E80931E
:1041C000E1008091E2008F7E8093E2008091E20026
:1041D00081608093E2008091B602882309F447C091
:1041E00084E08093B5028091B5028091E10083FF65
:1041F00027C08091E20083FF23C08091E100877F88
:104200008093E10082E08093B5021092B602809123
:10421000E1008E7F8093E1008091E2008E7F8093A9
:10422000E2008091E20080618093E20042E060E081
:1042300080E00E943C048091F00088608093F00050
:10424000FF91EF91BF91AF919F918F917F916F916E
:104250005F914F913F912F910F900FBE0F901F9044
:10426000189519BC1092B5021092900274CF8091EB
:10427000E30087FD93E09093B502B5CF78941F9249
:104280001FB61F9211248F939F93AF93BF9380917A
:10429000870290918802A0918902B0918A020196CA
:1042A000A11DB11D8093870290938802A09389027B
:1042B000B0938A02BF91AF919F918F911F901FBEC3
:1042C0001F9018951F921FB61F9211248F939F93D2
:1042D000AF93BF9380918602811113C080918702B2
:1042E00090918802A0918902B0918A024196A11D05
:1042F000B11D8093870290938802A0938902B093A6
:104300008A02BF91AF919F918F911F901FBE1F9006
:104310001895CDB7DEB7AA970FB6F894DEBF0FBEDB
:10432000CDBF84B7877F84BF0FB6F894A8958091DE
:104330006000886180936000109260000FBE80E88A
:1043400090E00FB6F89480936100909361000FBEE7
:1043500085B7806885BF85B7806885BF83E897E0AB
:1043600090939501809394010E94A3030E946E0490
:104370008091E20084608093E20078948091B5029D
:104380008823A1F01091E9001F709091EC00892F13
:10439000817090FD80E8182B1092E9008091E80070
:1043A00083FD0E94B5121F701093E90082E084BD66
:1043B00093E095BD9AEF97BD80936E000E94B11077
:1043C000811102C00E94F00F0CE411E0D8018D9120
:1043D0008D018F3F11F00E948507B1E001351B0769
:1043E000A9F701E511E0E0E6EE2EE1E0FE2EF8018E
:1043F00081918F018F3F11F00E948507E016F10631
:10440000B1F78AE0EFE2F2E0DF01282F1D922A9552
:10441000E9F7E6E1F2E0DF011D928A95E9F70E94F3
:104420001620811102C00E947E1582E090E00E9459
:10443000A327809324020E94CA1090938C02809339
:104440008B020E94221FEFE3FCE93197F1F700C0D5
:1044500000000E94221F80912F0280FF08C06FEF92
:104460007FEF90E080E00E94D5270E94310583E035
:1044700090E00E94A3270E94D50A8091200281111A
:1044800033C00E941620811104C00E947E150E9434
:10449000901288E090E00E94AB2760937B027093BB
:1044A0007C0280937D0290937E026E7F71F40E9465
:1044B000901288E090E00E94AB2760937B0270939B
:1044C0007C0280937D0290937E020E949B05109255
:1044D0004D0280917B0280FF04C060E086950E94BF
:1044E000341281E08093200280E091E09093830277
:1044F0008093820258E1E52EF12C60E4B62E79E338
:10450000C72E72E0D72E8091B5029924939400E1D2
:1045100012E1853009F4D6C10E94221F882359F088
:104520008FB7F89440918702509188026091890278
:1045300070918A028FBFAFE2B2E0E5E2F2E010E0F4
:1045400000E0702F8D919D912191319128173907AD
:1045500009F4D9C12827392760E088248394912C55
:10456000A90148215921452B09F4C7C169A37AA3A0
:104570009C012821392191E0232B09F490E09BA391
:104580000E9451058160782F9DA38CA349A15AA157
:104590006BA18DA10E94921E000F111FF801EB5D0F
:1045A000FD4F808191818826992691828082809119
:1045B0004D028823D1F180914C02E0917B02E69577
:1045C000E81BE0934802823009F0B4C1F0E0E85300
:1045D000FD4FE4910E2F10E0B8ED8B2EB0E19B2E35
:1045E00080914902882361F0109249020E9451058E
:1045F000909347028093460210924B0210924A0217
:104600000E945105E0914602F09147028E1B9F0BDC
:104610008F3F9F4750F4E00FF11FF0934702E09364
:10462000460286E492E0F401099586E0E0E4F2E0D7
:10463000DE01119601900D928A95E1F79090420269
:104640008090430210914402009145021092420270
:10465000109243021092440210924502892D88293B
:1046600009F448C080913E0290913F020E944205A9
:104670009C0190913A02992309F4BEC3233331057A
:10468000C8F19F3F19F09F5F90933A02992059F02B
:104690000E9409079FEF19140CF491E0899F802D67
:1046A000112480934202882059F00E9409079FEF4D
:1046B00018140CF491E0899F802D112480934302FB
:1046C000309142023323B1F020914302222391F032
:1046D00045EB3403C0011124992309F485C190935B
:1046E000420245EB240390011124332309F480C1D5
:1046F00030934302812F802B09F448C080913C0203
:1047000090913D020E9442059C01909139029923AB
:1047100009F46DC325363105C8F19F3F19F09F5F3D
:1047200090933902112359F00E94E7069FEF11166A
:104730000CF491E0899F802D112480934402002382
:1047400059F00E94E7069FEF10160CF491E0899F44
:10475000802D112480934502309144023323B1F01F
:1047600020914502222391F045EB3403C00111242E
:10477000992309F441C19093440245EB240390012D
:104780001124332309F43CC1309345028091420245
:1047900090914302892B90914402892B909145027C
:1047A000892B11F00E94470686E0FE013196A0E4B5
:1047B000B2E001900D928A95E1F70E9489059091EF
:1047C0002302891721F00E9489058093230280919A
:1047D000B502843009F097CE83E08093E9008091A0
:1047E000E80082FF90CE8091E80090E085FF06C04F
:1047F0000E94C203882309F407C191E08091E80078
:104800008B778093E800992309F47DCEE981E1500C
:10481000E33108F096C1F0E0EC58F44D0C945927C0
:104820008091B502843009F43DC010924D02809110
:104830002202811116C09092220280917B02982F51
:104840009170909321028E7F80937B02FFEF20E78F
:1048500042E0F15020404040E1F700C000000E94DB
:10486000D30B109286020FB6F894A895E0926000E0
:104870000FBEB092600083B7817F846083BF83B72F
:10488000816083BF7894889583B78E7F83BF0FB68E
:10489000F894A895809160008861809360001092E0
:1048A00060000FBE8091B402882361F00E94221F35
:1048B000EFE2F2E081919191892B09F079C2CE1655
:1048C000DF06C1F78091B502853009F4A9CF0E94B7
:1048D000A0120E9489051092220280912102882351
:1048E00049F080917B02816080937B0260E0869535
:1048F0000E9434120E940C110FCE6F5F880C991C1D
:104900006F3009F02DCE0F5F1F4F0530110509F0F4
:1049100018CE8FEF8EA38FA318A60E945105816039
:10492000782F9AA789A74EA15FA168A58AA50E94A2
:10493000921E3DCE863059F4F0E0EB53FD4FE491EA
:104940000E2F10E0ADE28A2EAEE09A2E49CE8930CD
:1049500061F4E695F0E0EE53FD4FE4910E2F10E088
:10496000F3E98F2EFDE09F2E3BCE8F3061F4E6956C
:10497000F0E0E154FD4FE4910E2F10E0E2E28E2EC4
:10498000EDE09E2E2DCE853159F4F0E0E454FD4F3C
:10499000E4910E2F10E071ED872E7CE0972E20CE53
:1049A00008E210E044E4842E4CE0942E883109F4AF
:1049B00017CE833249F4EAEBF2E00591149161EDF0
:1049C000862E6DE0962E0CCE04EF11E058E0852E79
:1049D0005CE0952E843209F403CE00ED17E03AE94D
:1049E000832E35E0932EFCCD81E08093420279CE78
:1049F00081E0809343027ECE81E080934402BDCE6D
:104A000081E080934502C2CE00E210E0CE01019623
:104A10004C018091E80085FD0AC08091E8008B7709
:104A20008093E8000E94C203882399F3E6CE809128
:104A3000F100D4018D934D010150110951F7DDCEE4
:104A40001A8289E08B831AC08A81823009F4C6C138
:104A50008330D9F1813009F074C02FB7F894609198
:104A60008702709188028091890290918A022FBFFB
:104A70000E945F276B837C838D839E838091B50228
:104A8000843009F040CD1091E9001F709091EC0046
:104A9000892F817090FD80E8182B82E08093E900D7
:104AA0008091E80080FF0DC050E040E060E270E0DF
:104AB000CE0101960E94F3038091E8008E778093E7
:104AC000E8001F701093E9001ECD80912F02909195
:104AD00030029827892798279C838B838091310205
:104AE000909132029827892798279E838D83809101
:104AF00033029091340298278927982798878F83CB
:104B000080913502909136029827892798279A87B5
:104B100089878091370290913802982789279827B2
:104B20009C878B87ABCF8A81823059F46B817C81E3
:104B30008D819E810E945F2786E290E00E94B727C8
:104B40009DCF8FEF89839ACF4C816B818A810E94A0
:104B50001C109827892798279E838D838FCF8D805F
:104B60009E809824892498248A810B81BEE10B9F22
:104B700080011124E6E98E9F000D111D11248C8106
:104B800090E0880F991F080F191F692DC80187969B
:104B90000E94B727682DC8018896D0CF0E94830F46
:104BA0006DCF8A818138C1F060F4803809F066CF1A
:104BB00020E04B8160917D0280917C020E94341143
:104BC0005DCF823859F1833809F058CF20E0409109
:104BD0007E026C818B81F2CF60E08B810E94341267
:104BE0009B8180917B02911111C08E7F80937B020B
:104BF00010924D02FFEF20E742E0F150204040408C
:104C0000E1F700C000000E94D30B38CF8160809391
:104C10007B0260E086950E94341230CF8B818093B6
:104C20007F022CCF8A81813899F030F4803809F0E6
:104C300025CF80917E0206CF823891F0833809F02B
:104C40001DCF80917C028B8380917D028C8316CF57
:104C500080917B0280FF02C08695F4CE80E0F2CE88
:104C600080917F02EFCE60917B0270917C028091F7
:104C70007D0290917E020E94221100CF80E18A8302
:104C8000FDCE81E08A8381E8DDCE0A811B81102779
:104C900001271027CE0101963C018C80DC01A80D74
:104CA000B11D4D01C80181589D4F8614970409F428
:104CB000E5CE0138B1E01B0750F40E94A327F301B1
:104CC00084830F5F1F4FBFEF6B1A7B0AEBCFD301BB
:104CD00014961C92F6CF0A811B81102701271027FA
:104CE000FE0131963F018C80800E912E911CC801EF
:104CF00081589D4F0815190509F4C0CE0138F1E01F
:104D00001F0728F4D30114966C910E94B727BFEFB8
:104D10006B1A7B0A0F5F1F4FEACF0E94730FAECE54
:104D200084E0ADCF0A811B81102701271027FE01E7
:104D300031963F018C80CF01880D911D4C01C80137
:104D400087966814790409F499CE0835A2E01A0709
:104D500050F40E94A327F30184830F5F1F4FBFEF1E
:104D60006B1A7B0AECCFD30114961C92F6CF0A8102
:104D70001B81102701271027FE0131963F018C80EF
:104D8000800E912E911CC80187968016910609F419
:104D900075CE0835F2E01F0728F4D30114966C9104
:104DA0000E94B727BFEF6B1A7B0A0F5F1F4FEBCF35
:104DB00009BD19BD09B400FEFDCF8091D8008F7DDB
:104DC0008093D8008091E00082608093E000809121
:104DD000E00081FDFCCF0E94A01274CD86E290E03D
:104DE0000E94A3271B821C821D828E8347CE2D32F8
:104DF000314008F094CCCACC2D32314008F043CC7D
:104E000079CC87FB082E062687FD819567FD619585
:104E10000E9497270EF4919507FC81950895AA1B8F
:104E2000BB1B51E107C0AA1FBB1FA617B70710F095
:104E3000A61BB70B881F991F5A95A9F780959095C7
:104E4000BC01CD01089597FB072E16F4009407D0FE
:104E500077FD09D00E940F2707FC05D03EF49095FE
:104E600081959F4F0895709561957F4F0895A1E2B8
:104E70001A2EAA1BBB1BFD010DC0AA1FBB1FEE1FD4
:104E8000FF1FA217B307E407F50720F0A21BB30B1F
:104E9000E40BF50B661F771F881F991F1A9469F79B
:104EA00060957095809590959B01AC01BD01CF01F7
:104EB0000895EE0FFF1F0590F491E02D09946927E6
:104EC0009627692778278727782708950E946E27D5
:104ED000332312F48A1B9B0B0C947F27A29FB001F3
:104EE000B39FC001A39F700D811D1124911DB29F1E
:104EF000700D811D1124911D08950E946E27B7FF2A
:104F00000895821B930B08950E946E27A59F900D14
:104F1000B49F900DA49F800D911D11240895B7FF9B
:104F20000C9484270E948427821B930B0895991B5D
:104F300079E004C0991F961708F0961B881F7A9590
:104F4000C9F780950895F999FECF92BD81BDF89A71
:104F5000992780B50895A6E1B0E044E050E00C94B4
:104F6000DD27A8E1B0E042E050E00C94DD27262FD9
:104F7000F999FECF92BD81BDF89A019700B402164F
:104F800039F01FBA20BD0FB6F894FA9AF99A0FBEFD
:104F900008950396272F0E94B8270E94B727252F30
:104FA0000E94B827242F0C94B8270196272F0E941F
:104FB000B8270C94B727DC01CB01FC01F999FECF8F
:104FC00006C0F2BDE1BDF89A319600B40D92415091
:104FD0005040B8F708955058BB27AA270E940328CD
:104FE0000C94AE290E94A02938F00E94A72920F035
:104FF00039F49F3F19F426F40C9476290EF4E095C9
:10500000E7FB0C947029E92F0E94BF2958F3BA17C7
:10501000620773078407950720F079F4A6F50C94CE
:10502000E1290EF4E0950B2EBA2FA02D0B01B9014A
:1050300090010C01CA01A0011124FF27591B99F00E
:10504000593F50F4503E68F11A16F040A22F232F1A
:10505000342F4427585FF3CF469537952795A7956A
:10506000F0405395C9F77EF41F16BA0B620B730B11
:10507000840BBAF09150A1F0FF0FBB1F661F771F82
:10508000881FC2F70EC0BA0F621F731F841F48F437
:10509000879577956795B795F7959E3F08F0B0CFC0
:1050A0009395880F08F09927EE0F979587950895A7
:1050B0000E946C280C94AE290E94A72958F00E94E7
:1050C000A02940F029F45F3F29F00C947029511178
:1050D0000C94E2290C9476290E94BF2968F3992345
:1050E000B1F3552391F3951B550BBB27AA276217E4
:1050F0007307840738F09F5F5F4F220F331F441FF1
:10510000AA1FA9F335D00E2E3AF0E0E832D0915024
:105110005040E695001CCAF72BD0FE2F29D0660F11
:10512000771F881FBB1F261737074807AB07B0E854
:1051300009F0BB0B802DBF01FF2793585F4F3AF05A
:105140009E3F510578F00C9470290C94E2295F3F42
:10515000E4F3983ED4F3869577956795B795F795E0
:105160009F5FC9F7880F911D9695879597F90895C8
:10517000E1E0660F771F881FBB1F62177307840764
:10518000BA0720F0621B730B840BBA0BEE1F88F773
:10519000E095089529F416F00C9470290C94E129F7
:1051A0000C9476290E94C729A8F39638A0F707F82F
:1051B0000F92E8942BE33AEA48EB5FE70E94742AE7
:1051C0000F920F920F924DB75EB70F920E942A2A4C
:1051D000ECEAF0E00E9479294F915F91EF91FF9105
:1051E000E595EE1FFF1F49F0FE57E0684427EE0FDC
:1051F000441FFA95E1F74195550B0E94F4290F9051
:1052000007FE0C94E82908950E94C72988F09F574B
:1052100098F0B92F9927B751B0F0E1F0660F771FDA
:10522000881F991F1AF0BA95C9F714C0B13091F0D0
:105230000E94E129B1E008950C94E129672F782FAD
:105240008827B85F39F0B93FCCF386957795679595
:10525000B395D9F73EF490958095709561957F4F01
:105260008F4F9F4F0895E89409C097FB3EF49095A7
:105270008095709561957F4F8F4F9F4F9923A9F02F
:10528000F92F96E9BB279395F695879577956795BE
:10529000B795F111F8CFFAF4BB0F11F460FF1BC002
:1052A0006F5F7F4F8F4F9F4F16C0882311F096E995
:1052B00011C0772321F09EE8872F762F05C0662343
:1052C00071F096E8862F70E060E02AF09A95660FFC
:1052D000771F881FDAF7880F9695879597F90895B5
:1052E00097F99F6780E870E060E008959FEF80EC99
:1052F0000895DF93CF931F930F93FF92EF92DF9266
:105300007B018C01689406C0DA2EEF010E94712A9D
:10531000FE01E894A5912591359145915591A6F30B
:10532000EF010E940328FE019701A801DA9469F7B2
:10533000DF90EF90FF900F911F91CF91DF91089533
:1053400000240A9416161706180609060895002464
:105350000A9412161306140605060895092E0394DE
:10536000000C11F4882352F0BB0F40F4BF2B11F452
:1053700060FF04C06F5F7F4F8F4F9F4F089557FDB1
:105380009058440F551F59F05F3F71F04795880FB3
:1053900097FB991F61F09F3F79F08795089512164A
:1053A00013061406551FF2CF4695F1DF08C01616F6
:1053B00017061806991FF1CF8695710561050894A7
:1053C0000895E894BB2766277727CB0197F90895BE
:1053D0009B01AC0160E070E080E89FE30C945828EA
:1053E0000C9470290C94D32A0E94C729D8F39923CE
:1053F000C9F3940F511DA3F39150504094F059F00C
:10540000882332F0660F771F881F91505040C1F7F4
:105410009E3F51052CF7880F911D9695879597F91A
:1054200008955F3FACF0983E9CF0BB27869577953A
:105430006795B79508F4B1609395C1F7BB0F58F71E
:1054400011F460FFE8CF6F5F7F4F8F4F9F4FE3CF27
:105450000C94E229FA01DC01AA0FBB1F9B01AC01ED
:10546000BF5728F4222733274427507820C0B7514C
:1054700090F4AB2F0024469537952795011CA395F2
:10548000D2F3002071F0220F331F441FB395DAF3DB
:105490000ED00C94EB2761307105A0E88A07B9465D
:1054A00030F49B01AC0166277727882790783096E7
:1054B00021F0208331834283538308950E94712A0F
:1054C0000C94AE290E94A02938F00E94A72920F050
:1054D000952311F00C9470290C94762911240C94C6
:1054E000E2290E94BF2970F3959FC1F3950F50E008
:1054F000551F629FF001729FBB27F00DB11D639F86
:10550000AA27F00DB11DAA1F649F6627B00DA11D2B
:10551000661F829F2227B00DA11D621F739FB00DD1
:10552000A11D621F839FA00D611D221F749F332741
:10553000A00D611D231F849F600D211D822F762FDA
:105540006A2F11249F5750409AF0F1F088234AF0B7
:10555000EE0FFF1FBB1F661F771F881F9150504023
:10556000A9F79E3F510580F00C9470290C94E22914
:105570005F3FE4F3983ED4F3869577956795B795AA
:10558000F795E7959F5FC1F7FE2B880F911D9695C4
:10559000879597F908959F930E94E32A0F9007FC3F
:1055A000EE5F0C940C2B9F3F31F0915020F48795C7
:1055B00077956795B795880F911D9695879597F97B
:1055C00008950C9476290E94C729D8F3E894E0E066
:1055D000BB279F57F0F02AED3FE049EC06C0EE0FE5
:1055E000BB0F661F771F881F28F0B23A6207730748
:1055F000840728F0B25A620B730B840BE3959A95DB
:1056000072F7803830F49A95BB0F661F771F881F9A
:10561000D2F790480C94D52AEF93E0FF07C0A2EA96
:105620002AED3FE049EC5FEB0E9403280E94AE297F
:105630000F90039401FC9058E4EDF0E00C94202BC3
:105640009F938F937F936F93FF93EF939B01AC0195
:105650000E945E2AEF91FF910E9479292F913F913C
:105660004F915F910C945E2AFC014150504030F004
:1056700001900616D1F73197CF0108958827992711
:105680000895FB01DC0104C08D910190801921F483
:1056900041505040C8F7881B990B0895F894FFCFEC
:1056A0009C109C10A510A510A710A510A510A51062
:1056B0009C109C10AC10A510A510AC109B13C3132C
:1056C0006615C3136615F6131714661515152215FE
:1056D0006E196E19A919A919571A711AD919D91958
:1056E0007C1AE91AFA1AFA1A202524259325A425EA
:1056F000AF25CE25D12512263326A125A1253E266C
:0E570000412645266B268D2690269226B7263A
:10570E002E05930B720B6E0B6A0B2D0501191A1BCE
:10571E001C1D1E1F20212201020101818283E20035
:10572E00E900EA00B500B600B700CD008301CC0059
:10573E008A019201940121022302240225022602EB
:10574E0027022A02B300B4006F007000909192936A
:10575E0095F0F1C667663694313037353497963307
:10576E000001020202020606060909090909090FCB
:10577E000F0F0F0F0F1515151819191919191919CA
:10578E0019191923244022B6CA01A801F2003B06BA
:04579E005406740633
:00000001FF
